{
  "contractName": "BBronze",
  "abi": [
    {
      "inputs": [],
      "name": "getColor",
      "outputs": [
        {
          "internalType": "bytes32",
          "name": "",
          "type": "bytes32"
        }
      ],
      "stateMutability": "view",
      "type": "function"
    }
  ],
  "bytecode": "0x6080604052348015600f57600080fd5b5060888061001e6000396000f3fe6080604052348015600f57600080fd5b506004361060285760003560e01c80639a86139b14602d575b600080fd5b60336045565b60408051918252519081900360200190f35b6542524f4e5a4560d01b9056fea2646970667358221220166097215d8017cae0c4b9b6f293c31f6f6a5bded9b5c0abaa0a0bfbfb281c6c64736f6c634300060c0033",
  "immutableReferences": {},
  "source": "// SPDX-License-Identifier: GPL-3.0-or-later\npragma solidity ^0.6.0;\n\nabstract contract BColor {\n  function getColor() external virtual view returns (bytes32);\n}\n\ncontract BBronze is BColor {\n  function getColor() external override view returns (bytes32) {\n    return bytes32(\"BRONZE\");\n  }\n}\n",
  "sourcePath": "/home/workhorse/Indexed/indexed-subgraph/contracts/balancer/BColor.sol",
  "compiler": {
    "name": "solc",
    "version": "0.6.12+commit.27d51765.Emscripten.clang"
  },
  "schemaVersion": "3.2.4",
  "updatedAt": "2020-08-28T06:05:33.518Z",
  "devdoc": {
    "kind": "dev",
    "methods": {},
    "version": 1
  },
  "userdoc": {
    "kind": "user",
    "methods": {},
    "version": 1
  }
}