{
  "contractName": "BConst",
  "abi": [
    {
      "inputs": [],
      "name": "BONE",
      "outputs": [
        {
          "internalType": "uint256",
          "name": "",
          "type": "uint256"
        }
      ],
      "stateMutability": "view",
      "type": "function"
    },
    {
      "inputs": [],
      "name": "BPOW_PRECISION",
      "outputs": [
        {
          "internalType": "uint256",
          "name": "",
          "type": "uint256"
        }
      ],
      "stateMutability": "view",
      "type": "function"
    },
    {
      "inputs": [],
      "name": "EXIT_FEE",
      "outputs": [
        {
          "internalType": "uint256",
          "name": "",
          "type": "uint256"
        }
      ],
      "stateMutability": "view",
      "type": "function"
    },
    {
      "inputs": [],
      "name": "INIT_POOL_SUPPLY",
      "outputs": [
        {
          "internalType": "uint256",
          "name": "",
          "type": "uint256"
        }
      ],
      "stateMutability": "view",
      "type": "function"
    },
    {
      "inputs": [],
      "name": "MAX_BOUND_TOKENS",
      "outputs": [
        {
          "internalType": "uint256",
          "name": "",
          "type": "uint256"
        }
      ],
      "stateMutability": "view",
      "type": "function"
    },
    {
      "inputs": [],
      "name": "MAX_BPOW_BASE",
      "outputs": [
        {
          "internalType": "uint256",
          "name": "",
          "type": "uint256"
        }
      ],
      "stateMutability": "view",
      "type": "function"
    },
    {
      "inputs": [],
      "name": "MAX_FEE",
      "outputs": [
        {
          "internalType": "uint256",
          "name": "",
          "type": "uint256"
        }
      ],
      "stateMutability": "view",
      "type": "function"
    },
    {
      "inputs": [],
      "name": "MAX_IN_RATIO",
      "outputs": [
        {
          "internalType": "uint256",
          "name": "",
          "type": "uint256"
        }
      ],
      "stateMutability": "view",
      "type": "function"
    },
    {
      "inputs": [],
      "name": "MAX_OUT_RATIO",
      "outputs": [
        {
          "internalType": "uint256",
          "name": "",
          "type": "uint256"
        }
      ],
      "stateMutability": "view",
      "type": "function"
    },
    {
      "inputs": [],
      "name": "MAX_TOTAL_WEIGHT",
      "outputs": [
        {
          "internalType": "uint256",
          "name": "",
          "type": "uint256"
        }
      ],
      "stateMutability": "view",
      "type": "function"
    },
    {
      "inputs": [],
      "name": "MAX_WEIGHT",
      "outputs": [
        {
          "internalType": "uint256",
          "name": "",
          "type": "uint256"
        }
      ],
      "stateMutability": "view",
      "type": "function"
    },
    {
      "inputs": [],
      "name": "MAX_WEIGHT_CHANGE",
      "outputs": [
        {
          "internalType": "uint256",
          "name": "",
          "type": "uint256"
        }
      ],
      "stateMutability": "view",
      "type": "function"
    },
    {
      "inputs": [],
      "name": "MIN_BALANCE",
      "outputs": [
        {
          "internalType": "uint256",
          "name": "",
          "type": "uint256"
        }
      ],
      "stateMutability": "view",
      "type": "function"
    },
    {
      "inputs": [],
      "name": "MIN_BOUND_TOKENS",
      "outputs": [
        {
          "internalType": "uint256",
          "name": "",
          "type": "uint256"
        }
      ],
      "stateMutability": "view",
      "type": "function"
    },
    {
      "inputs": [],
      "name": "MIN_BPOW_BASE",
      "outputs": [
        {
          "internalType": "uint256",
          "name": "",
          "type": "uint256"
        }
      ],
      "stateMutability": "view",
      "type": "function"
    },
    {
      "inputs": [],
      "name": "MIN_FEE",
      "outputs": [
        {
          "internalType": "uint256",
          "name": "",
          "type": "uint256"
        }
      ],
      "stateMutability": "view",
      "type": "function"
    },
    {
      "inputs": [],
      "name": "MIN_WEIGHT",
      "outputs": [
        {
          "internalType": "uint256",
          "name": "",
          "type": "uint256"
        }
      ],
      "stateMutability": "view",
      "type": "function"
    },
    {
      "inputs": [],
      "name": "MIN_WEIGHT_DELAY",
      "outputs": [
        {
          "internalType": "uint256",
          "name": "",
          "type": "uint256"
        }
      ],
      "stateMutability": "view",
      "type": "function"
    },
    {
      "inputs": [],
      "name": "getColor",
      "outputs": [
        {
          "internalType": "bytes32",
          "name": "",
          "type": "bytes32"
        }
      ],
      "stateMutability": "view",
      "type": "function"
    }
  ],
  "bytecode": "0x608060405234801561001057600080fd5b506102c5806100206000396000f3fe608060405234801561001057600080fd5b50600436106101215760003560e01c8063b0e0d136116100ad578063c36596a611610071578063c36596a614610148578063c458bfd0146101a8578063c6580d12146101b0578063e4a28a5214610126578063ec093021146101b857610121565b8063b0e0d13614610180578063b7b800a414610188578063ba019dab14610190578063bc063e1a14610198578063bc694ea2146101a057610121565b806376c7a3c7116100f457806376c7a3c714610158578063867378c5146101605780639381cd2b14610168578063992e2a92146101705780639a86139b1461017857610121565b806309a3bbe414610126578063189d00ca14610140578063218b538214610148578063396e181d14610150575b600080fd5b61012e6101c0565b60408051918252519081900360200190f35b61012e6101cd565b61012e6101e1565b61012e6101ed565b61012e6101f3565b61012e610205565b61012e610219565b61012e610226565b61012e610232565b61012e61023f565b61012e610244565b61012e610249565b61012e61024e565b61012e61025e565b61012e61026a565b61012e61027a565b61012e61027f565b6802b5e3af16b188000081565b6402540be400670de0b6b3a76400005b0481565b670de0b6b3a764000081565b610e1081565b620f4240670de0b6b3a76400006101dd565b64e8d4a51000670de0b6b3a76400006101dd565b68056bc75e2d6310000081565b6704a03ce68d21555681565b6542524f4e5a4560d01b90565b600881565b600281565b600181565b600a670de0b6b3a76400006101dd565b671bc16d674ec7ffff81565b6050670de0b6b3a76400006101dd565b600081565b6002670de0b6b3a76400006101dd56fea2646970667358221220ba252a3c187029187c8b3e49ce7a5b6dfdf1c8eeb9496671d9fa97fc13b8ee5964736f6c634300060c0033",
  "immutableReferences": {},
  "source": "// SPDX-License-Identifier: GPL-3.0-or-later\npragma solidity ^0.6.0;\n\nimport \"./BColor.sol\";\n\n\ncontract BConst is BBronze {\n  uint256 public constant MIN_WEIGHT_DELAY = 1 hours;\n\n  uint256 public constant BONE = 10**18;\n\n  uint256 public constant MIN_BOUND_TOKENS = 2;\n  uint256 public constant MAX_BOUND_TOKENS = 8;\n\n  uint256 public constant MIN_FEE = BONE / 10**6;\n  uint256 public constant MAX_FEE = BONE / 10;\n  uint256 public constant EXIT_FEE = 0;\n\n  uint256 public constant MAX_WEIGHT_CHANGE = BONE / 80;\n  uint256 public constant MIN_WEIGHT = BONE;\n  uint256 public constant MAX_WEIGHT = BONE * 50;\n  uint256 public constant MAX_TOTAL_WEIGHT = BONE * 50;\n  uint256 public constant MIN_BALANCE = BONE / 10**12;\n\n  uint256 public constant INIT_POOL_SUPPLY = BONE * 100;\n\n  uint256 public constant MIN_BPOW_BASE = 1 wei;\n  uint256 public constant MAX_BPOW_BASE = (2 * BONE) - 1 wei;\n  uint256 public constant BPOW_PRECISION = BONE / 10**10;\n\n  uint256 public constant MAX_IN_RATIO = BONE / 2;\n  uint256 public constant MAX_OUT_RATIO = (BONE / 3) + 1 wei;\n}\n",
  "sourcePath": "/home/workhorse/Indexed/indexed-subgraph/contracts/balancer/BConst.sol",
  "compiler": {
    "name": "solc",
    "version": "0.6.12+commit.27d51765.Emscripten.clang"
  },
  "schemaVersion": "3.2.4",
  "updatedAt": "2020-08-28T06:05:33.518Z",
  "devdoc": {
    "kind": "dev",
    "methods": {},
    "version": 1
  },
  "userdoc": {
    "kind": "user",
    "methods": {},
    "version": 1
  }
}