{
  "contractName": "BMath",
  "abi": [
    {
      "inputs": [],
      "name": "BONE",
      "outputs": [
        {
          "internalType": "uint256",
          "name": "",
          "type": "uint256"
        }
      ],
      "stateMutability": "view",
      "type": "function"
    },
    {
      "inputs": [],
      "name": "BPOW_PRECISION",
      "outputs": [
        {
          "internalType": "uint256",
          "name": "",
          "type": "uint256"
        }
      ],
      "stateMutability": "view",
      "type": "function"
    },
    {
      "inputs": [],
      "name": "EXIT_FEE",
      "outputs": [
        {
          "internalType": "uint256",
          "name": "",
          "type": "uint256"
        }
      ],
      "stateMutability": "view",
      "type": "function"
    },
    {
      "inputs": [],
      "name": "INIT_POOL_SUPPLY",
      "outputs": [
        {
          "internalType": "uint256",
          "name": "",
          "type": "uint256"
        }
      ],
      "stateMutability": "view",
      "type": "function"
    },
    {
      "inputs": [],
      "name": "MAX_BOUND_TOKENS",
      "outputs": [
        {
          "internalType": "uint256",
          "name": "",
          "type": "uint256"
        }
      ],
      "stateMutability": "view",
      "type": "function"
    },
    {
      "inputs": [],
      "name": "MAX_BPOW_BASE",
      "outputs": [
        {
          "internalType": "uint256",
          "name": "",
          "type": "uint256"
        }
      ],
      "stateMutability": "view",
      "type": "function"
    },
    {
      "inputs": [],
      "name": "MAX_FEE",
      "outputs": [
        {
          "internalType": "uint256",
          "name": "",
          "type": "uint256"
        }
      ],
      "stateMutability": "view",
      "type": "function"
    },
    {
      "inputs": [],
      "name": "MAX_IN_RATIO",
      "outputs": [
        {
          "internalType": "uint256",
          "name": "",
          "type": "uint256"
        }
      ],
      "stateMutability": "view",
      "type": "function"
    },
    {
      "inputs": [],
      "name": "MAX_OUT_RATIO",
      "outputs": [
        {
          "internalType": "uint256",
          "name": "",
          "type": "uint256"
        }
      ],
      "stateMutability": "view",
      "type": "function"
    },
    {
      "inputs": [],
      "name": "MAX_TOTAL_WEIGHT",
      "outputs": [
        {
          "internalType": "uint256",
          "name": "",
          "type": "uint256"
        }
      ],
      "stateMutability": "view",
      "type": "function"
    },
    {
      "inputs": [],
      "name": "MAX_WEIGHT",
      "outputs": [
        {
          "internalType": "uint256",
          "name": "",
          "type": "uint256"
        }
      ],
      "stateMutability": "view",
      "type": "function"
    },
    {
      "inputs": [],
      "name": "MAX_WEIGHT_CHANGE",
      "outputs": [
        {
          "internalType": "uint256",
          "name": "",
          "type": "uint256"
        }
      ],
      "stateMutability": "view",
      "type": "function"
    },
    {
      "inputs": [],
      "name": "MIN_BALANCE",
      "outputs": [
        {
          "internalType": "uint256",
          "name": "",
          "type": "uint256"
        }
      ],
      "stateMutability": "view",
      "type": "function"
    },
    {
      "inputs": [],
      "name": "MIN_BOUND_TOKENS",
      "outputs": [
        {
          "internalType": "uint256",
          "name": "",
          "type": "uint256"
        }
      ],
      "stateMutability": "view",
      "type": "function"
    },
    {
      "inputs": [],
      "name": "MIN_BPOW_BASE",
      "outputs": [
        {
          "internalType": "uint256",
          "name": "",
          "type": "uint256"
        }
      ],
      "stateMutability": "view",
      "type": "function"
    },
    {
      "inputs": [],
      "name": "MIN_FEE",
      "outputs": [
        {
          "internalType": "uint256",
          "name": "",
          "type": "uint256"
        }
      ],
      "stateMutability": "view",
      "type": "function"
    },
    {
      "inputs": [],
      "name": "MIN_WEIGHT",
      "outputs": [
        {
          "internalType": "uint256",
          "name": "",
          "type": "uint256"
        }
      ],
      "stateMutability": "view",
      "type": "function"
    },
    {
      "inputs": [],
      "name": "MIN_WEIGHT_DELAY",
      "outputs": [
        {
          "internalType": "uint256",
          "name": "",
          "type": "uint256"
        }
      ],
      "stateMutability": "view",
      "type": "function"
    },
    {
      "inputs": [],
      "name": "getColor",
      "outputs": [
        {
          "internalType": "bytes32",
          "name": "",
          "type": "bytes32"
        }
      ],
      "stateMutability": "view",
      "type": "function"
    },
    {
      "inputs": [
        {
          "internalType": "uint256",
          "name": "tokenBalanceIn",
          "type": "uint256"
        },
        {
          "internalType": "uint256",
          "name": "tokenWeightIn",
          "type": "uint256"
        },
        {
          "internalType": "uint256",
          "name": "tokenBalanceOut",
          "type": "uint256"
        },
        {
          "internalType": "uint256",
          "name": "tokenWeightOut",
          "type": "uint256"
        },
        {
          "internalType": "uint256",
          "name": "swapFee",
          "type": "uint256"
        }
      ],
      "name": "calcSpotPrice",
      "outputs": [
        {
          "internalType": "uint256",
          "name": "spotPrice",
          "type": "uint256"
        }
      ],
      "stateMutability": "pure",
      "type": "function"
    },
    {
      "inputs": [
        {
          "internalType": "uint256",
          "name": "tokenBalanceIn",
          "type": "uint256"
        },
        {
          "internalType": "uint256",
          "name": "tokenWeightIn",
          "type": "uint256"
        },
        {
          "internalType": "uint256",
          "name": "tokenBalanceOut",
          "type": "uint256"
        },
        {
          "internalType": "uint256",
          "name": "tokenWeightOut",
          "type": "uint256"
        },
        {
          "internalType": "uint256",
          "name": "tokenAmountIn",
          "type": "uint256"
        },
        {
          "internalType": "uint256",
          "name": "swapFee",
          "type": "uint256"
        }
      ],
      "name": "calcOutGivenIn",
      "outputs": [
        {
          "internalType": "uint256",
          "name": "tokenAmountOut",
          "type": "uint256"
        }
      ],
      "stateMutability": "pure",
      "type": "function"
    },
    {
      "inputs": [
        {
          "internalType": "uint256",
          "name": "tokenBalanceIn",
          "type": "uint256"
        },
        {
          "internalType": "uint256",
          "name": "tokenWeightIn",
          "type": "uint256"
        },
        {
          "internalType": "uint256",
          "name": "tokenBalanceOut",
          "type": "uint256"
        },
        {
          "internalType": "uint256",
          "name": "tokenWeightOut",
          "type": "uint256"
        },
        {
          "internalType": "uint256",
          "name": "tokenAmountOut",
          "type": "uint256"
        },
        {
          "internalType": "uint256",
          "name": "swapFee",
          "type": "uint256"
        }
      ],
      "name": "calcInGivenOut",
      "outputs": [
        {
          "internalType": "uint256",
          "name": "tokenAmountIn",
          "type": "uint256"
        }
      ],
      "stateMutability": "pure",
      "type": "function"
    },
    {
      "inputs": [
        {
          "internalType": "uint256",
          "name": "tokenBalanceIn",
          "type": "uint256"
        },
        {
          "internalType": "uint256",
          "name": "tokenWeightIn",
          "type": "uint256"
        },
        {
          "internalType": "uint256",
          "name": "poolSupply",
          "type": "uint256"
        },
        {
          "internalType": "uint256",
          "name": "totalWeight",
          "type": "uint256"
        },
        {
          "internalType": "uint256",
          "name": "tokenAmountIn",
          "type": "uint256"
        },
        {
          "internalType": "uint256",
          "name": "swapFee",
          "type": "uint256"
        }
      ],
      "name": "calcPoolOutGivenSingleIn",
      "outputs": [
        {
          "internalType": "uint256",
          "name": "poolAmountOut",
          "type": "uint256"
        }
      ],
      "stateMutability": "pure",
      "type": "function"
    },
    {
      "inputs": [
        {
          "internalType": "uint256",
          "name": "tokenBalanceIn",
          "type": "uint256"
        },
        {
          "internalType": "uint256",
          "name": "tokenWeightIn",
          "type": "uint256"
        },
        {
          "internalType": "uint256",
          "name": "poolSupply",
          "type": "uint256"
        },
        {
          "internalType": "uint256",
          "name": "totalWeight",
          "type": "uint256"
        },
        {
          "internalType": "uint256",
          "name": "poolAmountOut",
          "type": "uint256"
        },
        {
          "internalType": "uint256",
          "name": "swapFee",
          "type": "uint256"
        }
      ],
      "name": "calcSingleInGivenPoolOut",
      "outputs": [
        {
          "internalType": "uint256",
          "name": "tokenAmountIn",
          "type": "uint256"
        }
      ],
      "stateMutability": "pure",
      "type": "function"
    },
    {
      "inputs": [
        {
          "internalType": "uint256",
          "name": "tokenBalanceOut",
          "type": "uint256"
        },
        {
          "internalType": "uint256",
          "name": "tokenWeightOut",
          "type": "uint256"
        },
        {
          "internalType": "uint256",
          "name": "poolSupply",
          "type": "uint256"
        },
        {
          "internalType": "uint256",
          "name": "totalWeight",
          "type": "uint256"
        },
        {
          "internalType": "uint256",
          "name": "poolAmountIn",
          "type": "uint256"
        },
        {
          "internalType": "uint256",
          "name": "swapFee",
          "type": "uint256"
        }
      ],
      "name": "calcSingleOutGivenPoolIn",
      "outputs": [
        {
          "internalType": "uint256",
          "name": "tokenAmountOut",
          "type": "uint256"
        }
      ],
      "stateMutability": "pure",
      "type": "function"
    },
    {
      "inputs": [
        {
          "internalType": "uint256",
          "name": "tokenBalanceOut",
          "type": "uint256"
        },
        {
          "internalType": "uint256",
          "name": "tokenWeightOut",
          "type": "uint256"
        },
        {
          "internalType": "uint256",
          "name": "poolSupply",
          "type": "uint256"
        },
        {
          "internalType": "uint256",
          "name": "totalWeight",
          "type": "uint256"
        },
        {
          "internalType": "uint256",
          "name": "tokenAmountOut",
          "type": "uint256"
        },
        {
          "internalType": "uint256",
          "name": "swapFee",
          "type": "uint256"
        }
      ],
      "name": "calcPoolInGivenSingleOut",
      "outputs": [
        {
          "internalType": "uint256",
          "name": "poolAmountIn",
          "type": "uint256"
        }
      ],
      "stateMutability": "pure",
      "type": "function"
    }
  ],
  "bytecode": "0x608060405234801561001057600080fd5b50610e18806100206000396000f3fe608060405234801561001057600080fd5b506004361061018e5760003560e01c8063a221ee49116100de578063bc694ea211610097578063c6580d1211610071578063c6580d1214610379578063e4a28a5214610193578063ec09302114610381578063f8d6aed4146103895761018e565b8063bc694ea214610369578063c36596a6146101b5578063c458bfd0146103715761018e565b8063a221ee49146102d9578063b0e0d1361461030e578063b7b800a414610316578063ba019dab1461031e578063ba9530a614610326578063bc063e1a146103615761018e565b806382f652ad1161014b578063892980121161012557806389298012146102865780639381cd2b146102c1578063992e2a92146102c95780639a86139b146102d15761018e565b806382f652ad146102085780638656b65314610243578063867378c51461027e5761018e565b806309a3bbe414610193578063189d00ca146101ad578063218b5382146101b5578063396e181d146101bd5780635c1bbaf7146101c557806376c7a3c714610200575b600080fd5b61019b6103c4565b60408051918252519081900360200190f35b61019b6103d1565b61019b6103e5565b61019b6103f1565b61019b600480360360c08110156101db57600080fd5b5080359060208101359060408101359060608101359060808101359060a001356103f7565b61019b6104af565b61019b600480360360c081101561021e57600080fd5b5080359060208101359060408101359060608101359060808101359060a001356104c1565b61019b600480360360c081101561025957600080fd5b5080359060208101359060408101359060608101359060808101359060a00135610580565b61019b610621565b61019b600480360360c081101561029c57600080fd5b5080359060208101359060408101359060608101359060808101359060a00135610635565b61019b6106e5565b61019b6106f2565b61019b6106fe565b61019b600480360360a08110156102ef57600080fd5b508035906020810135906040810135906060810135906080013561070b565b61019b610770565b61019b610775565b61019b61077a565b61019b600480360360c081101561033c57600080fd5b5080359060208101359060408101359060608101359060808101359060a0013561077f565b61019b610800565b61019b610810565b61019b61081c565b61019b61082c565b61019b610831565b61019b600480360360c081101561039f57600080fd5b5080359060208101359060408101359060608101359060808101359060a00135610841565b6802b5e3af16b188000081565b6402540be400670de0b6b3a76400005b0481565b670de0b6b3a764000081565b610e1081565b60008061040487866108c4565b9050600061041287866109d9565b9050600061042082896108c4565b90506000610436670de0b6b3a7640000856108c4565b905060006104448383610a2d565b90506000610452828e610b3b565b90506000610460828f610bfd565b9050600061047f610479670de0b6b3a76400008a610bfd565b8b610b3b565b905061049c82610497670de0b6b3a764000084610bfd565b6108c4565b9f9e505050505050505050505050505050565b620f4240670de0b6b3a76400006103e1565b6000806104ce87866108c4565b905060006104e4670de0b6b3a764000083610bfd565b905060006104f28286610b3b565b9050600061050c87610497670de0b6b3a764000085610bfd565b9050600061051a8c83610bfd565b90506000610528828e6108c4565b905060006105368288610a2d565b90506000610544828e610b3b565b905060006105528e83610bfd565b905061056b81610497670de0b6b3a76400006000610bfd565b99505050505050505050509695505050505050565b60008061058d87866108c4565b905060006105ac6105a6670de0b6b3a764000084610bfd565b85610b3b565b905060006105cb866105c6670de0b6b3a764000085610bfd565b610b3b565b905060006105d98b836109d9565b905060006105e7828d6108c4565b905060006105f58287610a2d565b90506000610603828d610b3b565b905061060f818d610bfd565b9e9d5050505050505050505050505050565b64e8d4a51000670de0b6b3a76400006103e1565b60008061064287866108c4565b9050600061065d856105c6670de0b6b3a76400006000610bfd565b9050600061066b8883610bfd565b90506000610679828a6108c4565b9050600061069882610693670de0b6b3a7640000886108c4565b610a2d565b905060006106a6828e610b3b565b905060006106b48e83610bfd565b905060006106cd610479670de0b6b3a76400008a610bfd565b905061049c826105c6670de0b6b3a764000084610bfd565b68056bc75e2d6310000081565b6704a03ce68d21555681565b6542524f4e5a4560d01b90565b60008061071887876108c4565b9050600061072686866108c4565b9050600061073483836108c4565b90506000610756670de0b6b3a7640000610497670de0b6b3a764000089610bfd565b90506107628282610b3b565b9a9950505050505050505050565b600881565b600281565b600181565b60008061078c87866108c4565b905060006107a2670de0b6b3a764000085610bfd565b90506107ae8582610b3b565b905060006107c08a6104978c856109d9565b905060006107ce8285610a2d565b905060006107e4670de0b6b3a764000083610bfd565b90506107f08a82610b3b565b9c9b505050505050505050505050565b600a670de0b6b3a76400006103e1565b671bc16d674ec7ffff81565b6050670de0b6b3a76400006103e1565b600081565b6002670de0b6b3a76400006103e1565b60008061084e85886108c4565b9050600061085c8786610bfd565b9050600061086a88836108c4565b905060006108788285610a2d565b905061088c81670de0b6b3a7640000610bfd565b90506108a0670de0b6b3a764000087610bfd565b94506108b56108af8c83610b3b565b866108c4565b9b9a5050505050505050505050565b600081610907576040805162461bcd60e51b815260206004820152600c60248201526b4552525f4449565f5a45524f60a01b604482015290519081900360640190fd5b670de0b6b3a7640000830283158061092f5750670de0b6b3a764000084828161092c57fe5b04145b610973576040805162461bcd60e51b815260206004820152601060248201526f11549497d1125597d25395115493905360821b604482015290519081900360640190fd5b600283048101818110156109c1576040805162461bcd60e51b815260206004820152601060248201526f11549497d1125597d25395115493905360821b604482015290519081900360640190fd5b60008482816109cc57fe5b0493505050505b92915050565b600082820183811015610a26576040805162461bcd60e51b815260206004820152601060248201526f4552525f4144445f4f564552464c4f5760801b604482015290519081900360640190fd5b9392505050565b60006001831015610a7d576040805162461bcd60e51b81526020600482015260156024820152744552525f42504f575f424153455f544f4f5f4c4f5760581b604482015290519081900360640190fd5b671bc16d674ec7ffff831115610ad3576040805162461bcd60e51b815260206004820152601660248201527508aa4a4be84a09eaebe8482a68abea89e9ebe90928e960531b604482015290519081900360640190fd5b6000610ade83610c5f565b90506000610aec8483610bfd565b90506000610b0286610afd85610c7a565b610c88565b905081610b135792506109d3915050565b6000610b2487846305f5e100610cdf565b9050610b308282610b3b565b979650505050505050565b6000828202831580610b55575082848281610b5257fe5b04145b610b99576040805162461bcd60e51b815260206004820152601060248201526f4552525f4d554c5f4f564552464c4f5760801b604482015290519081900360640190fd5b6706f05b59d3b20000810181811015610bec576040805162461bcd60e51b815260206004820152601060248201526f4552525f4d554c5f4f564552464c4f5760801b604482015290519081900360640190fd5b6000670de0b6b3a7640000826109cc565b6000806000610c0c8585610dbd565b915091508015610c57576040805162461bcd60e51b81526020600482015260116024820152704552525f5355425f554e444552464c4f5760781b604482015290519081900360640190fd5b509392505050565b6000670de0b6b3a7640000610c7383610c7a565b0292915050565b670de0b6b3a7640000900490565b60008060028306610ca157670de0b6b3a7640000610ca3565b835b90506002830492505b8215610a2657610cbc8485610b3b565b93506002830615610cd457610cd18185610b3b565b90505b600283049250610cac565b6000828180610cf687670de0b6b3a7640000610dbd565b9092509050670de0b6b3a764000080600060015b888410610dae576000670de0b6b3a764000082029050600080610d3e8a610d3985670de0b6b3a7640000610bfd565b610dbd565b91509150610d50876105c6848c610b3b565b9650610d5c87846108c4565b965086610d6b57505050610dae565b8715610d75579315935b8015610d7f579315935b8415610d9657610d8f8688610bfd565b9550610da3565b610da086886109d9565b95505b505050600101610d0a565b50909998505050505050505050565b600080828410610dd35750508082036000610ddb565b505081810360015b925092905056fea26469706673582212205af852ce8ac449a79fd9b0011404e548cdc4eaa4212bc5694b8573e1af31501064736f6c634300060c0033",
  "immutableReferences": {},
  "source": "// SPDX-License-Identifier: GPL-3.0-or-later\npragma solidity ^0.6.0;\n\nimport \"./BNum.sol\";\n\n\ncontract BMath is BBronze, BConst, BNum {\n  /**********************************************************************************************\n    // calcSpotPrice                                                                             //\n    // sP = spotPrice                                                                            //\n    // bI = tokenBalanceIn                ( bI / wI )         1                                  //\n    // bO = tokenBalanceOut         sP =  -----------  *  ----------                             //\n    // wI = tokenWeightIn                 ( bO / wO )     ( 1 - sF )                             //\n    // wO = tokenWeightOut                                                                       //\n    // sF = swapFee                                                                              //\n    **********************************************************************************************/\n  function calcSpotPrice(\n    uint256 tokenBalanceIn,\n    uint256 tokenWeightIn,\n    uint256 tokenBalanceOut,\n    uint256 tokenWeightOut,\n    uint256 swapFee\n  ) public pure returns (uint256 spotPrice) {\n    uint256 numer = bdiv(tokenBalanceIn, tokenWeightIn);\n    uint256 denom = bdiv(tokenBalanceOut, tokenWeightOut);\n    uint256 ratio = bdiv(numer, denom);\n    uint256 scale = bdiv(BONE, bsub(BONE, swapFee));\n    return (spotPrice = bmul(ratio, scale));\n  }\n\n  /**********************************************************************************************\n    // calcOutGivenIn                                                                            //\n    // aO = tokenAmountOut                                                                       //\n    // bO = tokenBalanceOut                                                                      //\n    // bI = tokenBalanceIn              /      /            bI             \\    (wI / wO) \\      //\n    // aI = tokenAmountIn    aO = bO * |  1 - | --------------------------  | ^            |     //\n    // wI = tokenWeightIn               \\      \\ ( bI + ( aI * ( 1 - sF )) /              /      //\n    // wO = tokenWeightOut                                                                       //\n    // sF = swapFee                                                                              //\n    **********************************************************************************************/\n  function calcOutGivenIn(\n    uint256 tokenBalanceIn,\n    uint256 tokenWeightIn,\n    uint256 tokenBalanceOut,\n    uint256 tokenWeightOut,\n    uint256 tokenAmountIn,\n    uint256 swapFee\n  ) public pure returns (uint256 tokenAmountOut) {\n    uint256 weightRatio = bdiv(tokenWeightIn, tokenWeightOut);\n    uint256 adjustedIn = bsub(BONE, swapFee);\n    adjustedIn = bmul(tokenAmountIn, adjustedIn);\n    uint256 y = bdiv(tokenBalanceIn, badd(tokenBalanceIn, adjustedIn));\n    uint256 foo = bpow(y, weightRatio);\n    uint256 bar = bsub(BONE, foo);\n    tokenAmountOut = bmul(tokenBalanceOut, bar);\n    return tokenAmountOut;\n  }\n\n  /**********************************************************************************************\n    // calcInGivenOut                                                                            //\n    // aI = tokenAmountIn                                                                        //\n    // bO = tokenBalanceOut               /  /     bO      \\    (wO / wI)      \\                 //\n    // bI = tokenBalanceIn          bI * |  | ------------  | ^            - 1  |                //\n    // aO = tokenAmountOut    aI =        \\  \\ ( bO - aO ) /                   /                 //\n    // wI = tokenWeightIn           --------------------------------------------                 //\n    // wO = tokenWeightOut                          ( 1 - sF )                                   //\n    // sF = swapFee                                                                              //\n    **********************************************************************************************/\n  function calcInGivenOut(\n    uint256 tokenBalanceIn,\n    uint256 tokenWeightIn,\n    uint256 tokenBalanceOut,\n    uint256 tokenWeightOut,\n    uint256 tokenAmountOut,\n    uint256 swapFee\n  ) public pure returns (uint256 tokenAmountIn) {\n    uint256 weightRatio = bdiv(tokenWeightOut, tokenWeightIn);\n    uint256 diff = bsub(tokenBalanceOut, tokenAmountOut);\n    uint256 y = bdiv(tokenBalanceOut, diff);\n    uint256 foo = bpow(y, weightRatio);\n    foo = bsub(foo, BONE);\n    tokenAmountIn = bsub(BONE, swapFee);\n    tokenAmountIn = bdiv(bmul(tokenBalanceIn, foo), tokenAmountIn);\n    return tokenAmountIn;\n  }\n\n  /**********************************************************************************************\n    // calcPoolOutGivenSingleIn                                                                  //\n    // pAo = poolAmountOut         /                                              \\              //\n    // tAi = tokenAmountIn        ///      /     //    wI \\      \\\\       \\     wI \\             //\n    // wI = tokenWeightIn        //| tAi *| 1 - || 1 - --  | * sF || + tBi \\    --  \\            //\n    // tW = totalWeight     pAo=||  \\      \\     \\\\    tW /      //         | ^ tW   | * pS - pS //\n    // tBi = tokenBalanceIn      \\\\  ------------------------------------- /        /            //\n    // pS = poolSupply            \\\\                    tBi               /        /             //\n    // sF = swapFee                \\                                              /              //\n    **********************************************************************************************/\n  function calcPoolOutGivenSingleIn(\n    uint256 tokenBalanceIn,\n    uint256 tokenWeightIn,\n    uint256 poolSupply,\n    uint256 totalWeight,\n    uint256 tokenAmountIn,\n    uint256 swapFee\n  ) public pure returns (uint256 poolAmountOut) {\n    // Charge the trading fee for the proportion of tokenAi\n    ///  which is implicitly traded to the other pool tokens.\n    // That proportion is (1- weightTokenIn)\n    // tokenAiAfterFee = tAi * (1 - (1-weightTi) * poolFee);\n    uint256 normalizedWeight = bdiv(tokenWeightIn, totalWeight);\n    uint256 zaz = bmul(bsub(BONE, normalizedWeight), swapFee);\n    uint256 tokenAmountInAfterFee = bmul(tokenAmountIn, bsub(BONE, zaz));\n\n    uint256 newTokenBalanceIn = badd(tokenBalanceIn, tokenAmountInAfterFee);\n    uint256 tokenInRatio = bdiv(newTokenBalanceIn, tokenBalanceIn);\n\n    // uint newPoolSupply = (ratioTi ^ weightTi) * poolSupply;\n    uint256 poolRatio = bpow(tokenInRatio, normalizedWeight);\n    uint256 newPoolSupply = bmul(poolRatio, poolSupply);\n    poolAmountOut = bsub(newPoolSupply, poolSupply);\n    return poolAmountOut;\n  }\n\n  /**********************************************************************************************\n    // calcSingleInGivenPoolOut                                                                  //\n    // tAi = tokenAmountIn              //(pS + pAo)\\     /    1    \\\\                           //\n    // pS = poolSupply                 || ---------  | ^ | --------- || * bI - bI                //\n    // pAo = poolAmountOut              \\\\    pS    /     \\(wI / tW)//                           //\n    // bI = balanceIn          tAi =  --------------------------------------------               //\n    // wI = weightIn                              /      wI  \\                                   //\n    // tW = totalWeight                          |  1 - ----  |  * sF                            //\n    // sF = swapFee                               \\      tW  /                                   //\n    **********************************************************************************************/\n  function calcSingleInGivenPoolOut(\n    uint256 tokenBalanceIn,\n    uint256 tokenWeightIn,\n    uint256 poolSupply,\n    uint256 totalWeight,\n    uint256 poolAmountOut,\n    uint256 swapFee\n  ) public pure returns (uint256 tokenAmountIn) {\n    uint256 normalizedWeight = bdiv(tokenWeightIn, totalWeight);\n    uint256 newPoolSupply = badd(poolSupply, poolAmountOut);\n    uint256 poolRatio = bdiv(newPoolSupply, poolSupply);\n\n    //uint newBalTi = poolRatio^(1/weightTi) * balTi;\n    uint256 boo = bdiv(BONE, normalizedWeight);\n    uint256 tokenInRatio = bpow(poolRatio, boo);\n    uint256 newTokenBalanceIn = bmul(tokenInRatio, tokenBalanceIn);\n    uint256 tokenAmountInAfterFee = bsub(newTokenBalanceIn, tokenBalanceIn);\n    // Do reverse order of fees charged in joinswap_ExternAmountIn, this way\n    //     ``` pAo == joinswap_ExternAmountIn(Ti, joinswap_PoolAmountOut(pAo, Ti)) ```\n    //uint tAi = tAiAfterFee / (1 - (1-weightTi) * swapFee) ;\n    uint256 zar = bmul(bsub(BONE, normalizedWeight), swapFee);\n    tokenAmountIn = bdiv(tokenAmountInAfterFee, bsub(BONE, zar));\n    return tokenAmountIn;\n  }\n\n  /**********************************************************************************************\n    // calcSingleOutGivenPoolIn                                                                  //\n    // tAo = tokenAmountOut            /      /                                             \\\\   //\n    // bO = tokenBalanceOut           /      // pS - (pAi * (1 - eF)) \\     /    1    \\      \\\\  //\n    // pAi = poolAmountIn            | bO - || ----------------------- | ^ | --------- | * b0 || //\n    // ps = poolSupply                \\      \\\\          pS           /     \\(wO / tW)/      //  //\n    // wI = tokenWeightIn      tAo =   \\      \\                                             //   //\n    // tW = totalWeight                    /     /      wO \\       \\                             //\n    // sF = swapFee                    *  | 1 - |  1 - ---- | * sF  |                            //\n    // eF = exitFee                        \\     \\      tW /       /                             //\n    **********************************************************************************************/\n  function calcSingleOutGivenPoolIn(\n    uint256 tokenBalanceOut,\n    uint256 tokenWeightOut,\n    uint256 poolSupply,\n    uint256 totalWeight,\n    uint256 poolAmountIn,\n    uint256 swapFee\n  ) public pure returns (uint256 tokenAmountOut) {\n    uint256 normalizedWeight = bdiv(tokenWeightOut, totalWeight);\n    // charge exit fee on the pool token side\n    // pAiAfterExitFee = pAi*(1-exitFee)\n    uint256 poolAmountInAfterExitFee = bmul(poolAmountIn, bsub(BONE, EXIT_FEE));\n    uint256 newPoolSupply = bsub(poolSupply, poolAmountInAfterExitFee);\n    uint256 poolRatio = bdiv(newPoolSupply, poolSupply);\n\n    // newBalTo = poolRatio^(1/weightTo) * balTo;\n    uint256 tokenOutRatio = bpow(poolRatio, bdiv(BONE, normalizedWeight));\n    uint256 newTokenBalanceOut = bmul(tokenOutRatio, tokenBalanceOut);\n\n    uint256 tokenAmountOutBeforeSwapFee = bsub(\n      tokenBalanceOut,\n      newTokenBalanceOut\n    );\n\n    // charge swap fee on the output token side\n    //uint tAo = tAoBeforeSwapFee * (1 - (1-weightTo) * swapFee)\n    uint256 zaz = bmul(bsub(BONE, normalizedWeight), swapFee);\n    tokenAmountOut = bmul(tokenAmountOutBeforeSwapFee, bsub(BONE, zaz));\n    return tokenAmountOut;\n  }\n\n  /**********************************************************************************************\n    // calcPoolInGivenSingleOut                                                                  //\n    // pAi = poolAmountIn               // /               tAo             \\\\     / wO \\     \\   //\n    // bO = tokenBalanceOut            // | bO - -------------------------- |\\   | ---- |     \\  //\n    // tAo = tokenAmountOut      pS - ||   \\     1 - ((1 - (tO / tW)) * sF)/  | ^ \\ tW /  * pS | //\n    // ps = poolSupply                 \\\\ -----------------------------------/                /  //\n    // wO = tokenWeightOut  pAi =       \\\\               bO                 /                /   //\n    // tW = totalWeight           -------------------------------------------------------------  //\n    // sF = swapFee                                        ( 1 - eF )                            //\n    // eF = exitFee                                                                              //\n    **********************************************************************************************/\n  function calcPoolInGivenSingleOut(\n    uint256 tokenBalanceOut,\n    uint256 tokenWeightOut,\n    uint256 poolSupply,\n    uint256 totalWeight,\n    uint256 tokenAmountOut,\n    uint256 swapFee\n  ) public pure returns (uint256 poolAmountIn) {\n    // charge swap fee on the output token side\n    uint256 normalizedWeight = bdiv(tokenWeightOut, totalWeight);\n    //uint tAoBeforeSwapFee = tAo / (1 - (1-weightTo) * swapFee) ;\n    uint256 zoo = bsub(BONE, normalizedWeight);\n    uint256 zar = bmul(zoo, swapFee);\n    uint256 tokenAmountOutBeforeSwapFee = bdiv(tokenAmountOut, bsub(BONE, zar));\n\n    uint256 newTokenBalanceOut = bsub(\n      tokenBalanceOut,\n      tokenAmountOutBeforeSwapFee\n    );\n    uint256 tokenOutRatio = bdiv(newTokenBalanceOut, tokenBalanceOut);\n\n    //uint newPoolSupply = (ratioTo ^ weightTo) * poolSupply;\n    uint256 poolRatio = bpow(tokenOutRatio, normalizedWeight);\n    uint256 newPoolSupply = bmul(poolRatio, poolSupply);\n    uint256 poolAmountInAfterExitFee = bsub(poolSupply, newPoolSupply);\n\n    // charge exit fee on the pool token side\n    // pAi = pAiAfterExitFee/(1-exitFee)\n    poolAmountIn = bdiv(poolAmountInAfterExitFee, bsub(BONE, EXIT_FEE));\n    return poolAmountIn;\n  }\n}\n",
  "sourcePath": "/home/workhorse/Indexed/indexed-subgraph/contracts/balancer/BMath.sol",
  "compiler": {
    "name": "solc",
    "version": "0.6.12+commit.27d51765.Emscripten.clang"
  },
  "schemaVersion": "3.2.4",
  "updatedAt": "2020-08-28T06:05:33.519Z",
  "devdoc": {
    "kind": "dev",
    "methods": {},
    "version": 1
  },
  "userdoc": {
    "kind": "user",
    "methods": {},
    "version": 1
  }
}