{
  "contractName": "BNum",
  "abi": [
    {
      "inputs": [],
      "name": "BONE",
      "outputs": [
        {
          "internalType": "uint256",
          "name": "",
          "type": "uint256"
        }
      ],
      "stateMutability": "view",
      "type": "function"
    },
    {
      "inputs": [],
      "name": "BPOW_PRECISION",
      "outputs": [
        {
          "internalType": "uint256",
          "name": "",
          "type": "uint256"
        }
      ],
      "stateMutability": "view",
      "type": "function"
    },
    {
      "inputs": [],
      "name": "EXIT_FEE",
      "outputs": [
        {
          "internalType": "uint256",
          "name": "",
          "type": "uint256"
        }
      ],
      "stateMutability": "view",
      "type": "function"
    },
    {
      "inputs": [],
      "name": "INIT_POOL_SUPPLY",
      "outputs": [
        {
          "internalType": "uint256",
          "name": "",
          "type": "uint256"
        }
      ],
      "stateMutability": "view",
      "type": "function"
    },
    {
      "inputs": [],
      "name": "MAX_BOUND_TOKENS",
      "outputs": [
        {
          "internalType": "uint256",
          "name": "",
          "type": "uint256"
        }
      ],
      "stateMutability": "view",
      "type": "function"
    },
    {
      "inputs": [],
      "name": "MAX_BPOW_BASE",
      "outputs": [
        {
          "internalType": "uint256",
          "name": "",
          "type": "uint256"
        }
      ],
      "stateMutability": "view",
      "type": "function"
    },
    {
      "inputs": [],
      "name": "MAX_FEE",
      "outputs": [
        {
          "internalType": "uint256",
          "name": "",
          "type": "uint256"
        }
      ],
      "stateMutability": "view",
      "type": "function"
    },
    {
      "inputs": [],
      "name": "MAX_IN_RATIO",
      "outputs": [
        {
          "internalType": "uint256",
          "name": "",
          "type": "uint256"
        }
      ],
      "stateMutability": "view",
      "type": "function"
    },
    {
      "inputs": [],
      "name": "MAX_OUT_RATIO",
      "outputs": [
        {
          "internalType": "uint256",
          "name": "",
          "type": "uint256"
        }
      ],
      "stateMutability": "view",
      "type": "function"
    },
    {
      "inputs": [],
      "name": "MAX_TOTAL_WEIGHT",
      "outputs": [
        {
          "internalType": "uint256",
          "name": "",
          "type": "uint256"
        }
      ],
      "stateMutability": "view",
      "type": "function"
    },
    {
      "inputs": [],
      "name": "MAX_WEIGHT",
      "outputs": [
        {
          "internalType": "uint256",
          "name": "",
          "type": "uint256"
        }
      ],
      "stateMutability": "view",
      "type": "function"
    },
    {
      "inputs": [],
      "name": "MAX_WEIGHT_CHANGE",
      "outputs": [
        {
          "internalType": "uint256",
          "name": "",
          "type": "uint256"
        }
      ],
      "stateMutability": "view",
      "type": "function"
    },
    {
      "inputs": [],
      "name": "MIN_BALANCE",
      "outputs": [
        {
          "internalType": "uint256",
          "name": "",
          "type": "uint256"
        }
      ],
      "stateMutability": "view",
      "type": "function"
    },
    {
      "inputs": [],
      "name": "MIN_BOUND_TOKENS",
      "outputs": [
        {
          "internalType": "uint256",
          "name": "",
          "type": "uint256"
        }
      ],
      "stateMutability": "view",
      "type": "function"
    },
    {
      "inputs": [],
      "name": "MIN_BPOW_BASE",
      "outputs": [
        {
          "internalType": "uint256",
          "name": "",
          "type": "uint256"
        }
      ],
      "stateMutability": "view",
      "type": "function"
    },
    {
      "inputs": [],
      "name": "MIN_FEE",
      "outputs": [
        {
          "internalType": "uint256",
          "name": "",
          "type": "uint256"
        }
      ],
      "stateMutability": "view",
      "type": "function"
    },
    {
      "inputs": [],
      "name": "MIN_WEIGHT",
      "outputs": [
        {
          "internalType": "uint256",
          "name": "",
          "type": "uint256"
        }
      ],
      "stateMutability": "view",
      "type": "function"
    },
    {
      "inputs": [],
      "name": "MIN_WEIGHT_DELAY",
      "outputs": [
        {
          "internalType": "uint256",
          "name": "",
          "type": "uint256"
        }
      ],
      "stateMutability": "view",
      "type": "function"
    },
    {
      "inputs": [],
      "name": "getColor",
      "outputs": [
        {
          "internalType": "bytes32",
          "name": "",
          "type": "bytes32"
        }
      ],
      "stateMutability": "view",
      "type": "function"
    }
  ],
  "bytecode": "0x608060405234801561001057600080fd5b506102c5806100206000396000f3fe608060405234801561001057600080fd5b50600436106101215760003560e01c8063b0e0d136116100ad578063c36596a611610071578063c36596a614610148578063c458bfd0146101a8578063c6580d12146101b0578063e4a28a5214610126578063ec093021146101b857610121565b8063b0e0d13614610180578063b7b800a414610188578063ba019dab14610190578063bc063e1a14610198578063bc694ea2146101a057610121565b806376c7a3c7116100f457806376c7a3c714610158578063867378c5146101605780639381cd2b14610168578063992e2a92146101705780639a86139b1461017857610121565b806309a3bbe414610126578063189d00ca14610140578063218b538214610148578063396e181d14610150575b600080fd5b61012e6101c0565b60408051918252519081900360200190f35b61012e6101cd565b61012e6101e1565b61012e6101ed565b61012e6101f3565b61012e610205565b61012e610219565b61012e610226565b61012e610232565b61012e61023f565b61012e610244565b61012e610249565b61012e61024e565b61012e61025e565b61012e61026a565b61012e61027a565b61012e61027f565b6802b5e3af16b188000081565b6402540be400670de0b6b3a76400005b0481565b670de0b6b3a764000081565b610e1081565b620f4240670de0b6b3a76400006101dd565b64e8d4a51000670de0b6b3a76400006101dd565b68056bc75e2d6310000081565b6704a03ce68d21555681565b6542524f4e5a4560d01b90565b600881565b600281565b600181565b600a670de0b6b3a76400006101dd565b671bc16d674ec7ffff81565b6050670de0b6b3a76400006101dd565b600081565b6002670de0b6b3a76400006101dd56fea26469706673582212203f0a728e4ce58c2219756bbb7c2f00eba5ef16324d7d3dc1f4acb6748430435b64736f6c634300060c0033",
  "immutableReferences": {},
  "source": "// SPDX-License-Identifier: GPL-3.0-or-later\npragma solidity ^0.6.0;\n\nimport \"./BConst.sol\";\n\n\ncontract BNum is BConst {\n  function btoi(uint256 a) internal pure returns (uint256) {\n    return a / BONE;\n  }\n\n  function bfloor(uint256 a) internal pure returns (uint256) {\n    return btoi(a) * BONE;\n  }\n\n  function badd(uint256 a, uint256 b) internal pure returns (uint256) {\n    uint256 c = a + b;\n    require(c >= a, \"ERR_ADD_OVERFLOW\");\n    return c;\n  }\n\n  function bsub(uint256 a, uint256 b) internal pure returns (uint256) {\n    (uint256 c, bool flag) = bsubSign(a, b);\n    require(!flag, \"ERR_SUB_UNDERFLOW\");\n    return c;\n  }\n\n  function bsubSign(uint256 a, uint256 b)\n    internal\n    pure\n    returns (uint256, bool)\n  {\n    if (a >= b) {\n      return (a - b, false);\n    } else {\n      return (b - a, true);\n    }\n  }\n\n  function bmul(uint256 a, uint256 b) internal pure returns (uint256) {\n    uint256 c0 = a * b;\n    require(a == 0 || c0 / a == b, \"ERR_MUL_OVERFLOW\");\n    uint256 c1 = c0 + (BONE / 2);\n    require(c1 >= c0, \"ERR_MUL_OVERFLOW\");\n    uint256 c2 = c1 / BONE;\n    return c2;\n  }\n\n  function bdiv(uint256 a, uint256 b) internal pure returns (uint256) {\n    require(b != 0, \"ERR_DIV_ZERO\");\n    uint256 c0 = a * BONE;\n    require(a == 0 || c0 / a == BONE, \"ERR_DIV_INTERNAL\"); // bmul overflow\n    uint256 c1 = c0 + (b / 2);\n    require(c1 >= c0, \"ERR_DIV_INTERNAL\"); //  badd require\n    uint256 c2 = c1 / b;\n    return c2;\n  }\n\n  // DSMath.wpow\n  function bpowi(uint256 a, uint256 n) internal pure returns (uint256) {\n    uint256 z = n % 2 != 0 ? a : BONE;\n\n    for (n /= 2; n != 0; n /= 2) {\n      a = bmul(a, a);\n\n      if (n % 2 != 0) {\n        z = bmul(z, a);\n      }\n    }\n    return z;\n  }\n\n  // Compute b^(e.w) by splitting it into (b^e)*(b^0.w).\n  // Use `bpowi` for `b^e` and `bpowK` for k iterations\n  // of approximation of b^0.w\n  function bpow(uint256 base, uint256 exp) internal pure returns (uint256) {\n    require(base >= MIN_BPOW_BASE, \"ERR_BPOW_BASE_TOO_LOW\");\n    require(base <= MAX_BPOW_BASE, \"ERR_BPOW_BASE_TOO_HIGH\");\n\n    uint256 whole = bfloor(exp);\n    uint256 remain = bsub(exp, whole);\n\n    uint256 wholePow = bpowi(base, btoi(whole));\n\n    if (remain == 0) {\n      return wholePow;\n    }\n\n    uint256 partialResult = bpowApprox(base, remain, BPOW_PRECISION);\n    return bmul(wholePow, partialResult);\n  }\n\n  function bpowApprox(\n    uint256 base,\n    uint256 exp,\n    uint256 precision\n  ) internal pure returns (uint256) {\n    // term 0:\n    uint256 a = exp;\n    (uint256 x, bool xneg) = bsubSign(base, BONE);\n    uint256 term = BONE;\n    uint256 sum = term;\n    bool negative = false;\n\n    // term(k) = numer / denom\n    //         = (product(a - i - 1, i=1-->k) * x^k) / (k!)\n    // each iteration, multiply previous term by (a-(k-1)) * x / k\n    // continue until term is less than precision\n    for (uint256 i = 1; term >= precision; i++) {\n      uint256 bigK = i * BONE;\n      (uint256 c, bool cneg) = bsubSign(a, bsub(bigK, BONE));\n      term = bmul(term, bmul(c, x));\n      term = bdiv(term, bigK);\n      if (term == 0) break;\n\n      if (xneg) negative = !negative;\n      if (cneg) negative = !negative;\n      if (negative) {\n        sum = bsub(sum, term);\n      } else {\n        sum = badd(sum, term);\n      }\n    }\n\n    return sum;\n  }\n}\n",
  "sourcePath": "/home/workhorse/Indexed/indexed-subgraph/contracts/balancer/BNum.sol",
  "compiler": {
    "name": "solc",
    "version": "0.6.12+commit.27d51765.Emscripten.clang"
  },
  "schemaVersion": "3.2.4",
  "updatedAt": "2020-08-28T06:05:33.525Z",
  "devdoc": {
    "kind": "dev",
    "methods": {},
    "version": 1
  },
  "userdoc": {
    "kind": "user",
    "methods": {},
    "version": 1
  }
}