{
  "contractName": "BPool",
  "abi": [
    {
      "anonymous": false,
      "inputs": [
        {
          "indexed": true,
          "internalType": "address",
          "name": "src",
          "type": "address"
        },
        {
          "indexed": true,
          "internalType": "address",
          "name": "dst",
          "type": "address"
        },
        {
          "indexed": false,
          "internalType": "uint256",
          "name": "amt",
          "type": "uint256"
        }
      ],
      "name": "Approval",
      "type": "event"
    },
    {
      "anonymous": false,
      "inputs": [
        {
          "indexed": true,
          "internalType": "bytes4",
          "name": "sig",
          "type": "bytes4"
        },
        {
          "indexed": true,
          "internalType": "address",
          "name": "caller",
          "type": "address"
        },
        {
          "indexed": false,
          "internalType": "bytes",
          "name": "data",
          "type": "bytes"
        }
      ],
      "name": "LOG_CALL",
      "type": "event"
    },
    {
      "anonymous": false,
      "inputs": [
        {
          "indexed": false,
          "internalType": "address",
          "name": "token",
          "type": "address"
        },
        {
          "indexed": false,
          "internalType": "uint256",
          "name": "newDenorm",
          "type": "uint256"
        }
      ],
      "name": "LOG_DENORM_UPDATED",
      "type": "event"
    },
    {
      "anonymous": false,
      "inputs": [
        {
          "indexed": false,
          "internalType": "address",
          "name": "token",
          "type": "address"
        },
        {
          "indexed": false,
          "internalType": "uint256",
          "name": "desiredDenorm",
          "type": "uint256"
        }
      ],
      "name": "LOG_DESIRED_DENORM_SET",
      "type": "event"
    },
    {
      "anonymous": false,
      "inputs": [
        {
          "indexed": true,
          "internalType": "address",
          "name": "caller",
          "type": "address"
        },
        {
          "indexed": true,
          "internalType": "address",
          "name": "tokenOut",
          "type": "address"
        },
        {
          "indexed": false,
          "internalType": "uint256",
          "name": "tokenAmountOut",
          "type": "uint256"
        }
      ],
      "name": "LOG_EXIT",
      "type": "event"
    },
    {
      "anonymous": false,
      "inputs": [
        {
          "indexed": true,
          "internalType": "address",
          "name": "caller",
          "type": "address"
        },
        {
          "indexed": true,
          "internalType": "address",
          "name": "tokenIn",
          "type": "address"
        },
        {
          "indexed": false,
          "internalType": "uint256",
          "name": "tokenAmountIn",
          "type": "uint256"
        }
      ],
      "name": "LOG_JOIN",
      "type": "event"
    },
    {
      "anonymous": false,
      "inputs": [
        {
          "indexed": true,
          "internalType": "address",
          "name": "caller",
          "type": "address"
        },
        {
          "indexed": true,
          "internalType": "address",
          "name": "tokenIn",
          "type": "address"
        },
        {
          "indexed": true,
          "internalType": "address",
          "name": "tokenOut",
          "type": "address"
        },
        {
          "indexed": false,
          "internalType": "uint256",
          "name": "tokenAmountIn",
          "type": "uint256"
        },
        {
          "indexed": false,
          "internalType": "uint256",
          "name": "tokenAmountOut",
          "type": "uint256"
        }
      ],
      "name": "LOG_SWAP",
      "type": "event"
    },
    {
      "anonymous": false,
      "inputs": [
        {
          "indexed": true,
          "internalType": "address",
          "name": "src",
          "type": "address"
        },
        {
          "indexed": true,
          "internalType": "address",
          "name": "dst",
          "type": "address"
        },
        {
          "indexed": false,
          "internalType": "uint256",
          "name": "amt",
          "type": "uint256"
        }
      ],
      "name": "Transfer",
      "type": "event"
    },
    {
      "inputs": [],
      "name": "BONE",
      "outputs": [
        {
          "internalType": "uint256",
          "name": "",
          "type": "uint256"
        }
      ],
      "stateMutability": "view",
      "type": "function"
    },
    {
      "inputs": [],
      "name": "BPOW_PRECISION",
      "outputs": [
        {
          "internalType": "uint256",
          "name": "",
          "type": "uint256"
        }
      ],
      "stateMutability": "view",
      "type": "function"
    },
    {
      "inputs": [],
      "name": "EXIT_FEE",
      "outputs": [
        {
          "internalType": "uint256",
          "name": "",
          "type": "uint256"
        }
      ],
      "stateMutability": "view",
      "type": "function"
    },
    {
      "inputs": [],
      "name": "INIT_POOL_SUPPLY",
      "outputs": [
        {
          "internalType": "uint256",
          "name": "",
          "type": "uint256"
        }
      ],
      "stateMutability": "view",
      "type": "function"
    },
    {
      "inputs": [],
      "name": "MAX_BOUND_TOKENS",
      "outputs": [
        {
          "internalType": "uint256",
          "name": "",
          "type": "uint256"
        }
      ],
      "stateMutability": "view",
      "type": "function"
    },
    {
      "inputs": [],
      "name": "MAX_BPOW_BASE",
      "outputs": [
        {
          "internalType": "uint256",
          "name": "",
          "type": "uint256"
        }
      ],
      "stateMutability": "view",
      "type": "function"
    },
    {
      "inputs": [],
      "name": "MAX_FEE",
      "outputs": [
        {
          "internalType": "uint256",
          "name": "",
          "type": "uint256"
        }
      ],
      "stateMutability": "view",
      "type": "function"
    },
    {
      "inputs": [],
      "name": "MAX_IN_RATIO",
      "outputs": [
        {
          "internalType": "uint256",
          "name": "",
          "type": "uint256"
        }
      ],
      "stateMutability": "view",
      "type": "function"
    },
    {
      "inputs": [],
      "name": "MAX_OUT_RATIO",
      "outputs": [
        {
          "internalType": "uint256",
          "name": "",
          "type": "uint256"
        }
      ],
      "stateMutability": "view",
      "type": "function"
    },
    {
      "inputs": [],
      "name": "MAX_TOTAL_WEIGHT",
      "outputs": [
        {
          "internalType": "uint256",
          "name": "",
          "type": "uint256"
        }
      ],
      "stateMutability": "view",
      "type": "function"
    },
    {
      "inputs": [],
      "name": "MAX_WEIGHT",
      "outputs": [
        {
          "internalType": "uint256",
          "name": "",
          "type": "uint256"
        }
      ],
      "stateMutability": "view",
      "type": "function"
    },
    {
      "inputs": [],
      "name": "MAX_WEIGHT_CHANGE",
      "outputs": [
        {
          "internalType": "uint256",
          "name": "",
          "type": "uint256"
        }
      ],
      "stateMutability": "view",
      "type": "function"
    },
    {
      "inputs": [],
      "name": "MIN_BALANCE",
      "outputs": [
        {
          "internalType": "uint256",
          "name": "",
          "type": "uint256"
        }
      ],
      "stateMutability": "view",
      "type": "function"
    },
    {
      "inputs": [],
      "name": "MIN_BOUND_TOKENS",
      "outputs": [
        {
          "internalType": "uint256",
          "name": "",
          "type": "uint256"
        }
      ],
      "stateMutability": "view",
      "type": "function"
    },
    {
      "inputs": [],
      "name": "MIN_BPOW_BASE",
      "outputs": [
        {
          "internalType": "uint256",
          "name": "",
          "type": "uint256"
        }
      ],
      "stateMutability": "view",
      "type": "function"
    },
    {
      "inputs": [],
      "name": "MIN_FEE",
      "outputs": [
        {
          "internalType": "uint256",
          "name": "",
          "type": "uint256"
        }
      ],
      "stateMutability": "view",
      "type": "function"
    },
    {
      "inputs": [],
      "name": "MIN_WEIGHT",
      "outputs": [
        {
          "internalType": "uint256",
          "name": "",
          "type": "uint256"
        }
      ],
      "stateMutability": "view",
      "type": "function"
    },
    {
      "inputs": [],
      "name": "MIN_WEIGHT_DELAY",
      "outputs": [
        {
          "internalType": "uint256",
          "name": "",
          "type": "uint256"
        }
      ],
      "stateMutability": "view",
      "type": "function"
    },
    {
      "inputs": [
        {
          "internalType": "address",
          "name": "src",
          "type": "address"
        },
        {
          "internalType": "address",
          "name": "dst",
          "type": "address"
        }
      ],
      "name": "allowance",
      "outputs": [
        {
          "internalType": "uint256",
          "name": "",
          "type": "uint256"
        }
      ],
      "stateMutability": "view",
      "type": "function"
    },
    {
      "inputs": [
        {
          "internalType": "address",
          "name": "dst",
          "type": "address"
        },
        {
          "internalType": "uint256",
          "name": "amt",
          "type": "uint256"
        }
      ],
      "name": "approve",
      "outputs": [
        {
          "internalType": "bool",
          "name": "",
          "type": "bool"
        }
      ],
      "stateMutability": "nonpayable",
      "type": "function"
    },
    {
      "inputs": [
        {
          "internalType": "address",
          "name": "whom",
          "type": "address"
        }
      ],
      "name": "balanceOf",
      "outputs": [
        {
          "internalType": "uint256",
          "name": "",
          "type": "uint256"
        }
      ],
      "stateMutability": "view",
      "type": "function"
    },
    {
      "inputs": [
        {
          "internalType": "uint256",
          "name": "tokenBalanceIn",
          "type": "uint256"
        },
        {
          "internalType": "uint256",
          "name": "tokenWeightIn",
          "type": "uint256"
        },
        {
          "internalType": "uint256",
          "name": "tokenBalanceOut",
          "type": "uint256"
        },
        {
          "internalType": "uint256",
          "name": "tokenWeightOut",
          "type": "uint256"
        },
        {
          "internalType": "uint256",
          "name": "tokenAmountOut",
          "type": "uint256"
        },
        {
          "internalType": "uint256",
          "name": "swapFee",
          "type": "uint256"
        }
      ],
      "name": "calcInGivenOut",
      "outputs": [
        {
          "internalType": "uint256",
          "name": "tokenAmountIn",
          "type": "uint256"
        }
      ],
      "stateMutability": "pure",
      "type": "function"
    },
    {
      "inputs": [
        {
          "internalType": "uint256",
          "name": "tokenBalanceIn",
          "type": "uint256"
        },
        {
          "internalType": "uint256",
          "name": "tokenWeightIn",
          "type": "uint256"
        },
        {
          "internalType": "uint256",
          "name": "tokenBalanceOut",
          "type": "uint256"
        },
        {
          "internalType": "uint256",
          "name": "tokenWeightOut",
          "type": "uint256"
        },
        {
          "internalType": "uint256",
          "name": "tokenAmountIn",
          "type": "uint256"
        },
        {
          "internalType": "uint256",
          "name": "swapFee",
          "type": "uint256"
        }
      ],
      "name": "calcOutGivenIn",
      "outputs": [
        {
          "internalType": "uint256",
          "name": "tokenAmountOut",
          "type": "uint256"
        }
      ],
      "stateMutability": "pure",
      "type": "function"
    },
    {
      "inputs": [
        {
          "internalType": "uint256",
          "name": "tokenBalanceOut",
          "type": "uint256"
        },
        {
          "internalType": "uint256",
          "name": "tokenWeightOut",
          "type": "uint256"
        },
        {
          "internalType": "uint256",
          "name": "poolSupply",
          "type": "uint256"
        },
        {
          "internalType": "uint256",
          "name": "totalWeight",
          "type": "uint256"
        },
        {
          "internalType": "uint256",
          "name": "tokenAmountOut",
          "type": "uint256"
        },
        {
          "internalType": "uint256",
          "name": "swapFee",
          "type": "uint256"
        }
      ],
      "name": "calcPoolInGivenSingleOut",
      "outputs": [
        {
          "internalType": "uint256",
          "name": "poolAmountIn",
          "type": "uint256"
        }
      ],
      "stateMutability": "pure",
      "type": "function"
    },
    {
      "inputs": [
        {
          "internalType": "uint256",
          "name": "tokenBalanceIn",
          "type": "uint256"
        },
        {
          "internalType": "uint256",
          "name": "tokenWeightIn",
          "type": "uint256"
        },
        {
          "internalType": "uint256",
          "name": "poolSupply",
          "type": "uint256"
        },
        {
          "internalType": "uint256",
          "name": "totalWeight",
          "type": "uint256"
        },
        {
          "internalType": "uint256",
          "name": "tokenAmountIn",
          "type": "uint256"
        },
        {
          "internalType": "uint256",
          "name": "swapFee",
          "type": "uint256"
        }
      ],
      "name": "calcPoolOutGivenSingleIn",
      "outputs": [
        {
          "internalType": "uint256",
          "name": "poolAmountOut",
          "type": "uint256"
        }
      ],
      "stateMutability": "pure",
      "type": "function"
    },
    {
      "inputs": [
        {
          "internalType": "uint256",
          "name": "tokenBalanceIn",
          "type": "uint256"
        },
        {
          "internalType": "uint256",
          "name": "tokenWeightIn",
          "type": "uint256"
        },
        {
          "internalType": "uint256",
          "name": "poolSupply",
          "type": "uint256"
        },
        {
          "internalType": "uint256",
          "name": "totalWeight",
          "type": "uint256"
        },
        {
          "internalType": "uint256",
          "name": "poolAmountOut",
          "type": "uint256"
        },
        {
          "internalType": "uint256",
          "name": "swapFee",
          "type": "uint256"
        }
      ],
      "name": "calcSingleInGivenPoolOut",
      "outputs": [
        {
          "internalType": "uint256",
          "name": "tokenAmountIn",
          "type": "uint256"
        }
      ],
      "stateMutability": "pure",
      "type": "function"
    },
    {
      "inputs": [
        {
          "internalType": "uint256",
          "name": "tokenBalanceOut",
          "type": "uint256"
        },
        {
          "internalType": "uint256",
          "name": "tokenWeightOut",
          "type": "uint256"
        },
        {
          "internalType": "uint256",
          "name": "poolSupply",
          "type": "uint256"
        },
        {
          "internalType": "uint256",
          "name": "totalWeight",
          "type": "uint256"
        },
        {
          "internalType": "uint256",
          "name": "poolAmountIn",
          "type": "uint256"
        },
        {
          "internalType": "uint256",
          "name": "swapFee",
          "type": "uint256"
        }
      ],
      "name": "calcSingleOutGivenPoolIn",
      "outputs": [
        {
          "internalType": "uint256",
          "name": "tokenAmountOut",
          "type": "uint256"
        }
      ],
      "stateMutability": "pure",
      "type": "function"
    },
    {
      "inputs": [
        {
          "internalType": "uint256",
          "name": "tokenBalanceIn",
          "type": "uint256"
        },
        {
          "internalType": "uint256",
          "name": "tokenWeightIn",
          "type": "uint256"
        },
        {
          "internalType": "uint256",
          "name": "tokenBalanceOut",
          "type": "uint256"
        },
        {
          "internalType": "uint256",
          "name": "tokenWeightOut",
          "type": "uint256"
        },
        {
          "internalType": "uint256",
          "name": "swapFee",
          "type": "uint256"
        }
      ],
      "name": "calcSpotPrice",
      "outputs": [
        {
          "internalType": "uint256",
          "name": "spotPrice",
          "type": "uint256"
        }
      ],
      "stateMutability": "pure",
      "type": "function"
    },
    {
      "inputs": [],
      "name": "decimals",
      "outputs": [
        {
          "internalType": "uint8",
          "name": "",
          "type": "uint8"
        }
      ],
      "stateMutability": "view",
      "type": "function"
    },
    {
      "inputs": [
        {
          "internalType": "address",
          "name": "dst",
          "type": "address"
        },
        {
          "internalType": "uint256",
          "name": "amt",
          "type": "uint256"
        }
      ],
      "name": "decreaseApproval",
      "outputs": [
        {
          "internalType": "bool",
          "name": "",
          "type": "bool"
        }
      ],
      "stateMutability": "nonpayable",
      "type": "function"
    },
    {
      "inputs": [
        {
          "internalType": "uint256",
          "name": "poolAmountIn",
          "type": "uint256"
        },
        {
          "internalType": "uint256[]",
          "name": "minAmountsOut",
          "type": "uint256[]"
        }
      ],
      "name": "exitPool",
      "outputs": [],
      "stateMutability": "nonpayable",
      "type": "function"
    },
    {
      "inputs": [
        {
          "internalType": "address",
          "name": "tokenOut",
          "type": "address"
        },
        {
          "internalType": "uint256",
          "name": "tokenAmountOut",
          "type": "uint256"
        },
        {
          "internalType": "uint256",
          "name": "maxPoolAmountIn",
          "type": "uint256"
        }
      ],
      "name": "exitswapExternAmountOut",
      "outputs": [
        {
          "internalType": "uint256",
          "name": "poolAmountIn",
          "type": "uint256"
        }
      ],
      "stateMutability": "nonpayable",
      "type": "function"
    },
    {
      "inputs": [
        {
          "internalType": "address",
          "name": "tokenOut",
          "type": "address"
        },
        {
          "internalType": "uint256",
          "name": "poolAmountIn",
          "type": "uint256"
        },
        {
          "internalType": "uint256",
          "name": "minAmountOut",
          "type": "uint256"
        }
      ],
      "name": "exitswapPoolAmountIn",
      "outputs": [
        {
          "internalType": "uint256",
          "name": "tokenAmountOut",
          "type": "uint256"
        }
      ],
      "stateMutability": "nonpayable",
      "type": "function"
    },
    {
      "inputs": [
        {
          "internalType": "address",
          "name": "token",
          "type": "address"
        }
      ],
      "name": "getBalance",
      "outputs": [
        {
          "internalType": "uint256",
          "name": "",
          "type": "uint256"
        }
      ],
      "stateMutability": "view",
      "type": "function"
    },
    {
      "inputs": [],
      "name": "getColor",
      "outputs": [
        {
          "internalType": "bytes32",
          "name": "",
          "type": "bytes32"
        }
      ],
      "stateMutability": "view",
      "type": "function"
    },
    {
      "inputs": [],
      "name": "getController",
      "outputs": [
        {
          "internalType": "address",
          "name": "",
          "type": "address"
        }
      ],
      "stateMutability": "view",
      "type": "function"
    },
    {
      "inputs": [],
      "name": "getCurrentTokens",
      "outputs": [
        {
          "internalType": "address[]",
          "name": "tokens",
          "type": "address[]"
        }
      ],
      "stateMutability": "view",
      "type": "function"
    },
    {
      "inputs": [
        {
          "internalType": "address",
          "name": "token",
          "type": "address"
        }
      ],
      "name": "getDenormalizedWeight",
      "outputs": [
        {
          "internalType": "uint256",
          "name": "",
          "type": "uint256"
        }
      ],
      "stateMutability": "view",
      "type": "function"
    },
    {
      "inputs": [
        {
          "internalType": "address",
          "name": "token",
          "type": "address"
        }
      ],
      "name": "getNormalizedWeight",
      "outputs": [
        {
          "internalType": "uint256",
          "name": "",
          "type": "uint256"
        }
      ],
      "stateMutability": "view",
      "type": "function"
    },
    {
      "inputs": [],
      "name": "getNumTokens",
      "outputs": [
        {
          "internalType": "uint256",
          "name": "",
          "type": "uint256"
        }
      ],
      "stateMutability": "view",
      "type": "function"
    },
    {
      "inputs": [
        {
          "internalType": "address",
          "name": "tokenIn",
          "type": "address"
        },
        {
          "internalType": "address",
          "name": "tokenOut",
          "type": "address"
        }
      ],
      "name": "getSpotPrice",
      "outputs": [
        {
          "internalType": "uint256",
          "name": "spotPrice",
          "type": "uint256"
        }
      ],
      "stateMutability": "view",
      "type": "function"
    },
    {
      "inputs": [
        {
          "internalType": "address",
          "name": "tokenIn",
          "type": "address"
        },
        {
          "internalType": "address",
          "name": "tokenOut",
          "type": "address"
        }
      ],
      "name": "getSpotPriceSansFee",
      "outputs": [
        {
          "internalType": "uint256",
          "name": "spotPrice",
          "type": "uint256"
        }
      ],
      "stateMutability": "view",
      "type": "function"
    },
    {
      "inputs": [],
      "name": "getSwapFee",
      "outputs": [
        {
          "internalType": "uint256",
          "name": "",
          "type": "uint256"
        }
      ],
      "stateMutability": "view",
      "type": "function"
    },
    {
      "inputs": [
        {
          "internalType": "address",
          "name": "token",
          "type": "address"
        }
      ],
      "name": "getTokenRecord",
      "outputs": [
        {
          "components": [
            {
              "internalType": "bool",
              "name": "bound",
              "type": "bool"
            },
            {
              "internalType": "uint48",
              "name": "lastDenormUpdate",
              "type": "uint48"
            },
            {
              "internalType": "uint96",
              "name": "denorm",
              "type": "uint96"
            },
            {
              "internalType": "uint96",
              "name": "desiredDenorm",
              "type": "uint96"
            },
            {
              "internalType": "uint8",
              "name": "index",
              "type": "uint8"
            },
            {
              "internalType": "uint256",
              "name": "balance",
              "type": "uint256"
            }
          ],
          "internalType": "struct BPoolBase.Record",
          "name": "record",
          "type": "tuple"
        }
      ],
      "stateMutability": "view",
      "type": "function"
    },
    {
      "inputs": [],
      "name": "getTotalDenormalizedWeight",
      "outputs": [
        {
          "internalType": "uint256",
          "name": "",
          "type": "uint256"
        }
      ],
      "stateMutability": "view",
      "type": "function"
    },
    {
      "inputs": [
        {
          "internalType": "address",
          "name": "token",
          "type": "address"
        }
      ],
      "name": "gulp",
      "outputs": [],
      "stateMutability": "nonpayable",
      "type": "function"
    },
    {
      "inputs": [
        {
          "internalType": "address",
          "name": "dst",
          "type": "address"
        },
        {
          "internalType": "uint256",
          "name": "amt",
          "type": "uint256"
        }
      ],
      "name": "increaseApproval",
      "outputs": [
        {
          "internalType": "bool",
          "name": "",
          "type": "bool"
        }
      ],
      "stateMutability": "nonpayable",
      "type": "function"
    },
    {
      "inputs": [
        {
          "internalType": "address",
          "name": "controller",
          "type": "address"
        },
        {
          "internalType": "string",
          "name": "name",
          "type": "string"
        },
        {
          "internalType": "string",
          "name": "symbol",
          "type": "string"
        },
        {
          "internalType": "address[]",
          "name": "tokens",
          "type": "address[]"
        },
        {
          "internalType": "uint256[]",
          "name": "balances",
          "type": "uint256[]"
        },
        {
          "internalType": "uint96[]",
          "name": "denorms",
          "type": "uint96[]"
        }
      ],
      "name": "initialize",
      "outputs": [],
      "stateMutability": "nonpayable",
      "type": "function"
    },
    {
      "inputs": [
        {
          "internalType": "address",
          "name": "t",
          "type": "address"
        }
      ],
      "name": "isBound",
      "outputs": [
        {
          "internalType": "bool",
          "name": "",
          "type": "bool"
        }
      ],
      "stateMutability": "view",
      "type": "function"
    },
    {
      "inputs": [],
      "name": "isFinalized",
      "outputs": [
        {
          "internalType": "bool",
          "name": "",
          "type": "bool"
        }
      ],
      "stateMutability": "view",
      "type": "function"
    },
    {
      "inputs": [],
      "name": "isPublicSwap",
      "outputs": [
        {
          "internalType": "bool",
          "name": "",
          "type": "bool"
        }
      ],
      "stateMutability": "view",
      "type": "function"
    },
    {
      "inputs": [
        {
          "internalType": "uint256",
          "name": "poolAmountOut",
          "type": "uint256"
        },
        {
          "internalType": "uint256[]",
          "name": "maxAmountsIn",
          "type": "uint256[]"
        }
      ],
      "name": "joinPool",
      "outputs": [],
      "stateMutability": "nonpayable",
      "type": "function"
    },
    {
      "inputs": [
        {
          "internalType": "address",
          "name": "tokenIn",
          "type": "address"
        },
        {
          "internalType": "uint256",
          "name": "tokenAmountIn",
          "type": "uint256"
        },
        {
          "internalType": "uint256",
          "name": "minPoolAmountOut",
          "type": "uint256"
        }
      ],
      "name": "joinswapExternAmountIn",
      "outputs": [
        {
          "internalType": "uint256",
          "name": "poolAmountOut",
          "type": "uint256"
        }
      ],
      "stateMutability": "nonpayable",
      "type": "function"
    },
    {
      "inputs": [
        {
          "internalType": "address",
          "name": "tokenIn",
          "type": "address"
        },
        {
          "internalType": "uint256",
          "name": "poolAmountOut",
          "type": "uint256"
        },
        {
          "internalType": "uint256",
          "name": "maxAmountIn",
          "type": "uint256"
        }
      ],
      "name": "joinswapPoolAmountOut",
      "outputs": [
        {
          "internalType": "uint256",
          "name": "tokenAmountIn",
          "type": "uint256"
        }
      ],
      "stateMutability": "nonpayable",
      "type": "function"
    },
    {
      "inputs": [],
      "name": "name",
      "outputs": [
        {
          "internalType": "string",
          "name": "",
          "type": "string"
        }
      ],
      "stateMutability": "view",
      "type": "function"
    },
    {
      "inputs": [
        {
          "internalType": "address[]",
          "name": "tokens",
          "type": "address[]"
        },
        {
          "internalType": "uint96[]",
          "name": "desiredDenorms",
          "type": "uint96[]"
        }
      ],
      "name": "reweighTokens",
      "outputs": [],
      "stateMutability": "nonpayable",
      "type": "function"
    },
    {
      "inputs": [
        {
          "internalType": "bool",
          "name": "public_",
          "type": "bool"
        }
      ],
      "name": "setPublicSwap",
      "outputs": [],
      "stateMutability": "nonpayable",
      "type": "function"
    },
    {
      "inputs": [
        {
          "internalType": "uint256",
          "name": "swapFee",
          "type": "uint256"
        }
      ],
      "name": "setSwapFee",
      "outputs": [],
      "stateMutability": "nonpayable",
      "type": "function"
    },
    {
      "inputs": [
        {
          "internalType": "address",
          "name": "tokenIn",
          "type": "address"
        },
        {
          "internalType": "uint256",
          "name": "tokenAmountIn",
          "type": "uint256"
        },
        {
          "internalType": "address",
          "name": "tokenOut",
          "type": "address"
        },
        {
          "internalType": "uint256",
          "name": "minAmountOut",
          "type": "uint256"
        },
        {
          "internalType": "uint256",
          "name": "maxPrice",
          "type": "uint256"
        }
      ],
      "name": "swapExactAmountIn",
      "outputs": [
        {
          "internalType": "uint256",
          "name": "tokenAmountOut",
          "type": "uint256"
        },
        {
          "internalType": "uint256",
          "name": "spotPriceAfter",
          "type": "uint256"
        }
      ],
      "stateMutability": "nonpayable",
      "type": "function"
    },
    {
      "inputs": [
        {
          "internalType": "address",
          "name": "tokenIn",
          "type": "address"
        },
        {
          "internalType": "uint256",
          "name": "maxAmountIn",
          "type": "uint256"
        },
        {
          "internalType": "address",
          "name": "tokenOut",
          "type": "address"
        },
        {
          "internalType": "uint256",
          "name": "tokenAmountOut",
          "type": "uint256"
        },
        {
          "internalType": "uint256",
          "name": "maxPrice",
          "type": "uint256"
        }
      ],
      "name": "swapExactAmountOut",
      "outputs": [
        {
          "internalType": "uint256",
          "name": "tokenAmountIn",
          "type": "uint256"
        },
        {
          "internalType": "uint256",
          "name": "spotPriceAfter",
          "type": "uint256"
        }
      ],
      "stateMutability": "nonpayable",
      "type": "function"
    },
    {
      "inputs": [],
      "name": "symbol",
      "outputs": [
        {
          "internalType": "string",
          "name": "",
          "type": "string"
        }
      ],
      "stateMutability": "view",
      "type": "function"
    },
    {
      "inputs": [],
      "name": "totalSupply",
      "outputs": [
        {
          "internalType": "uint256",
          "name": "",
          "type": "uint256"
        }
      ],
      "stateMutability": "view",
      "type": "function"
    },
    {
      "inputs": [
        {
          "internalType": "address",
          "name": "dst",
          "type": "address"
        },
        {
          "internalType": "uint256",
          "name": "amt",
          "type": "uint256"
        }
      ],
      "name": "transfer",
      "outputs": [
        {
          "internalType": "bool",
          "name": "",
          "type": "bool"
        }
      ],
      "stateMutability": "nonpayable",
      "type": "function"
    },
    {
      "inputs": [
        {
          "internalType": "address",
          "name": "src",
          "type": "address"
        },
        {
          "internalType": "address",
          "name": "dst",
          "type": "address"
        },
        {
          "internalType": "uint256",
          "name": "amt",
          "type": "uint256"
        }
      ],
      "name": "transferFrom",
      "outputs": [
        {
          "internalType": "bool",
          "name": "",
          "type": "bool"
        }
      ],
      "stateMutability": "nonpayable",
      "type": "function"
    },
    {
      "inputs": [
        {
          "internalType": "address",
          "name": "token",
          "type": "address"
        }
      ],
      "name": "unbind",
      "outputs": [],
      "stateMutability": "nonpayable",
      "type": "function"
    }
  ],
  "bytecode": "0x60806040526005805460ff1916601217905534801561001d57600080fd5b5061528b8061002d6000396000f3fe608060405234801561001057600080fd5b50600436106103db5760003560e01c8063892980121161020a578063bc063e1a11610125578063d4cadf68116100b8578063ec09302111610087578063ec09302114610784578063f1b8a9b71461078c578063f8b2cb4f1461079f578063f8d6aed4146107b2578063fde924f71461065f576103db565b8063d4cadf6814610756578063d73dd6231461075e578063dd62ed3e14610771578063e4a28a521461043e576103db565b8063c6580d12116100f4578063c6580d121461071e578063cc77828d14610726578063cd2ed8fb1461073b578063cf5e7bd314610743576103db565b8063bc063e1a14610706578063bc694ea21461070e578063c36596a61461047c578063c458bfd014610716576103db565b80639a86139b1161019d578063b0e0d1361161016c578063b0e0d136146106db578063b7b800a4146106e3578063ba019dab146106eb578063ba9530a6146106f3576103db565b80639a86139b1461069a578063a221ee49146106a2578063a9059cbb146106b5578063b02f0b73146106c8576103db565b80639381cd2b116101d95780639381cd2b1461066f578063948d8ce61461067757806395d89b411461068a578063992e2a9214610692576103db565b806389298012146106395780638c28cbe81461064c5780638d4e40831461065f578063936c347714610667576103db565b806346ab38f1116102fa5780636d06dfa01161028d5780638201aa3f1161025c5780638201aa3f146105f857806382f652ad1461060b5780638656b6531461061e578063867378c514610631576103db565b80636d06dfa0146105a957806370a08231146105bc57806376c7a3c7146105cf5780637c5e9ea4146105d7576103db565b80635d5e8ce7116102c95780635d5e8ce7146105505780635db342771461056357806364c7d661146105765780636618846314610596576103db565b806346ab38f11461050457806349b59552146105175780634f69c0d41461052a5780635c1bbaf71461053d576103db565b8063218b538211610372578063313ce56711610341578063313ce567146104bf57806334e19907146104d4578063396e181d146104e95780633ded8cf0146104f1576103db565b8063218b53821461047c57806323b872dd146104845780632f37b624146104975780633018205f146104aa576103db565b80631446a7ff116103ae5780631446a7ff1461044657806315e84af91461045957806318160ddd1461046c578063189d00ca14610474576103db565b806302c96748146103e057806306fdde0314610409578063095ea7b31461041e57806309a3bbe41461043e575b600080fd5b6103f36103ee36600461489c565b6107c5565b6040516104009190614b58565b60405180910390f35b610411610a14565b6040516104009190614b90565b61043161042c366004614823565b610aaa565b6040516104009190614b4d565b6103f3610b03565b6103f36104543660046146ad565b610b10565b6103f36104673660046146ad565b610c0a565b6103f3610cfb565b6103f3610d01565b6103f3610d15565b6104316104923660046146e1565b610d21565b6104316104a5366004614692565b610e52565b6104b2610e74565b6040516104009190614a8d565b6104c7610eaf565b60405161040091906151e4565b6104e76104e2366004614970565b610eb8565b005b6103f3610fc1565b6104e76104ff366004614721565b610fc7565b6103f361051236600461489c565b61144c565b6104e7610525366004614938565b611657565b6104e76105383660046149a0565b61172c565b6103f361054b366004614a24565b61196a565b6104e761055e3660046148cf565b611a22565b6103f361057136600461489c565b611b5e565b610589610584366004614692565b611d73565b6040516104009190615176565b6104316105a4366004614823565b611e43565b6103f36105b736600461489c565b611f0c565b6103f36105ca366004614692565b612129565b6103f3612144565b6105ea6105e536600461484d565b612156565b6040516104009291906151d6565b6105ea61060636600461484d565b6125e6565b6103f3610619366004614a24565b612abb565b6103f361062c366004614a24565b612b7a565b6103f3612c1b565b6103f3610647366004614a24565b612c2f565b6104e761065a366004614692565b612cdf565b610431612e3d565b6103f3612e4d565b6103f3612e7f565b6103f3610685366004614692565b612e8c565b610411612f1b565b6103f3612f7c565b6103f3612f88565b6103f36106b03660046149ea565b612f95565b6104316106c3366004614823565b612ffa565b6104e76106d63660046149a0565b613010565b6103f3613260565b6103f3613265565b6103f361326a565b6103f3610701366004614a24565b61326f565b6103f36132f0565b6103f3613300565b6103f361330c565b6103f361331c565b61072e613321565b6040516104009190614b00565b6103f36133ab565b6104e7610751366004614692565b6133b1565b6103f36134e5565b61043161076c366004614823565b613517565b6103f361077f3660046146ad565b61358b565b6103f36135b6565b6103f361079a366004614692565b6135c6565b6103f36107ad366004614692565b613669565b6103f36107c0366004614a24565b6136eb565b60405160009033906001600160e01b031983351690600080516020615216833981519152906107f79085903690614b61565b60405180910390a3600554610100900460ff16156108305760405162461bcd60e51b815260040161082790614e5b565b60405180910390fd5b6005805461ff0019166101001790556001600160a01b03841660009081526009602052604090205460ff166108775760405162461bcd60e51b815260040161082790614eab565b6001600160a01b0384166000908152600960205260409020600101546108ac906003670de0b6b3a76400005b0460010161376e565b8311156108cb5760405162461bcd60e51b815260040161082790614e80565b6001600160a01b038416600090815260096020526040902060018101548154600254600b546007546109129493600160381b90046001600160601b03169291908990612abb565b9150816109315760405162461bcd60e51b815260040161082790614c61565b828211156109515760405162461bcd60e51b815260040161082790614e05565b61095f8160010154856137e7565b60018201556000610970838261376e565b9050856001600160a01b0316336001600160a01b03167fe74c91552b64c2e2e7bd255639e004e693bd3e1d01cc33e65610b86afcc1ffed876040516109b59190614b58565b60405180910390a36109c73384613820565b6109d96109d484836137e7565b61382e565b6005546109f5906201000090046001600160a01b03168261383a565b610a00863387613844565b50506005805461ff00191690559392505050565b60038054604080516020601f6002600019610100600188161502019095169490940493840181900481028201810190925282815260609390929091830182828015610aa05780601f10610a7557610100808354040283529160200191610aa0565b820191906000526020600020905b815481529060010190602001808311610a8357829003601f168201915b5050505050905090565b3360008181526001602090815260408083206001600160a01b0387168085529252808320859055519192909160008051602061523683398151915290610af1908690614b58565b60405180910390a35060015b92915050565b6802b5e3af16b188000081565b600554600090610100900460ff1615610b3b5760405162461bcd60e51b815260040161082790614e5b565b6001600160a01b03831660009081526009602052604090205460ff16610b735760405162461bcd60e51b815260040161082790614eab565b6001600160a01b03821660009081526009602052604090205460ff16610bab5760405162461bcd60e51b815260040161082790614eab565b6001600160a01b038084166000908152600960205260408082209285168252812060018084015484549183015483549394610c019492936001600160601b03600160381b91829004811694919091041690612f95565b95945050505050565b600554600090610100900460ff1615610c355760405162461bcd60e51b815260040161082790614e5b565b6001600160a01b03831660009081526009602052604090205460ff16610c6d5760405162461bcd60e51b815260040161082790614eab565b6001600160a01b03821660009081526009602052604090205460ff16610ca55760405162461bcd60e51b815260040161082790614eab565b6001600160a01b03808416600090815260096020526040808220928516825290206001808301548354918301548354600754610c01946001600160601b03600160381b9182900481169493919091041690612f95565b60025490565b6402540be400670de0b6b3a76400005b0481565b670de0b6b3a764000081565b6000336001600160a01b0385161480610d5d57506001600160a01b03841660009081526001602090815260408083203384529091529020548211155b610d795760405162461bcd60e51b815260040161082790614dd6565b610d848484846138ec565b336001600160a01b03851614801590610dc257506001600160a01b038416600090815260016020908152604080832033845290915290205460001914155b15610e48576001600160a01b0384166000908152600160209081526040808320338452909152902054610df590836137e7565b6001600160a01b03858116600090815260016020908152604080832033808552925291829020849055905191861692909160008051602061523683398151915291610e3f91614b58565b60405180910390a35b5060019392505050565b6001600160a01b03811660009081526009602052604090205460ff165b919050565b600554600090610100900460ff1615610e9f5760405162461bcd60e51b815260040161082790614e5b565b506006546001600160a01b031690565b60055460ff1690565b336001600160a01b03166000356001600160e01b0319166001600160e01b031916600080516020615216833981519152600036604051610ef9929190614b61565b60405180910390a3600554610100900460ff1615610f295760405162461bcd60e51b815260040161082790614e5b565b6005805461ff001916610100179055600654336001600160a01b0390911614610f645760405162461bcd60e51b815260040161082790614be3565b64e8d4a51000811015610f895760405162461bcd60e51b815260040161082790614c8a565b67016345785d8a0000811115610fb15760405162461bcd60e51b815260040161082790614ed2565b6007556005805461ff0019169055565b610e1081565b6006546001600160a01b0316158015610fe857506001600160a01b038b1615155b6110045760405162461bcd60e51b815260040161082790614d83565b600680546001600160a01b0319166001600160a01b038d161790556005805462010000600160b01b0319163362010000021790556028670de0b6b3a764000004600755604080516020601f8c018190048102820181019092528a81526110b8918c908c908190840183828082843760009201919091525050604080516020601f8e018190048102820181019092528c815292508c91508b90819084018382808284376000920191909152506139d592505050565b8460028110156110da5760405162461bcd60e51b8152600401610827906150f1565b60088111156110fb5760405162461bcd60e51b815260040161082790614c0f565b838114801561110957508181145b6111255760405162461bcd60e51b815260040161082790614f76565b6000805b828110156113d657600089898381811061113f57fe5b90506020020160208101906111549190614692565b9050600086868481811061116457fe5b90506020020160208101906111799190614a66565b9050600089898581811061118957fe5b905060200201359050670de0b6b3a7640000826001600160601b031610156111c35760405162461bcd60e51b815260040161082790614f24565b6802b5e3af16b18800006001600160601b03831611156111f55760405162461bcd60e51b815260040161082790614caf565b620f42408110156112185760405162461bcd60e51b815260040161082790614d2c565b6040518060c001604052806001151581526020014265ffffffffffff168152602001836001600160601b03168152602001836001600160601b0316815260200160088054905060ff1681526020018281525060096000856001600160a01b03166001600160a01b0316815260200190815260200160002060008201518160000160006101000a81548160ff02191690831515021790555060208201518160000160016101000a81548165ffffffffffff021916908365ffffffffffff16021790555060408201518160000160076101000a8154816001600160601b0302191690836001600160601b0316021790555060608201518160000160136101000a8154816001600160601b0302191690836001600160601b03160217905550608082015181600001601f6101000a81548160ff021916908360ff16021790555060a082015181600101559050506008839080600181540180825580915050600190039060005260206000200160009091909190916101000a8154816001600160a01b0302191690836001600160a01b031602179055506113be85836001600160601b0316613a4c565b94506113cb833383613a71565b505050600101611129565b506802b5e3af16b18800008111156114005760405162461bcd60e51b815260040161082790614cd7565b600b8190556006805460ff60a01b1916600160a01b17905561142a68056bc75e2d63100000613aa4565b61143d3368056bc75e2d6310000061383a565b50505050505050505050505050565b60405160009033906001600160e01b0319833516906000805160206152168339815191529061147e9085903690614b61565b60405180910390a3600554610100900460ff16156114ae5760405162461bcd60e51b815260040161082790614e5b565b6005805461ff0019166101001790556001600160a01b03841660009081526009602052604090205460ff166114f55760405162461bcd60e51b815260040161082790614eab565b6001600160a01b038416600090815260096020526040902060018101548154600254600b5460075461153c9493600160381b90046001600160601b03169291908990612c2f565b91508282101561155e5760405162461bcd60e51b815260040161082790614d05565b6001600160a01b03851660009081526009602052604090206001015461158e906003670de0b6b3a76400006108a3565b8211156115ad5760405162461bcd60e51b815260040161082790614e80565b6115bb8160010154836137e7565b600182015560006115cc858261376e565b9050856001600160a01b0316336001600160a01b03167fe74c91552b64c2e2e7bd255639e004e693bd3e1d01cc33e65610b86afcc1ffed856040516116119190614b58565b60405180910390a36116233386613820565b6116306109d486836137e7565b60055461164c906201000090046001600160a01b03168261383a565b610a00863385613844565b336001600160a01b03166000356001600160e01b0319166001600160e01b031916600080516020615216833981519152600036604051611698929190614b61565b60405180910390a3600554610100900460ff16156116c85760405162461bcd60e51b815260040161082790614e5b565b6005805461ff001916610100179055600654336001600160a01b03909116146117035760405162461bcd60e51b815260040161082790614be3565b60068054911515600160a01b0260ff60a01b199092169190911790556005805461ff0019169055565b336001600160a01b03166000356001600160e01b0319166001600160e01b03191660008051602061521683398151915260003660405161176d929190614b61565b60405180910390a3600554610100900460ff161561179d5760405162461bcd60e51b815260040161082790614e5b565b6005805461ff001916610100179055600654600160a01b900460ff166117d55760405162461bcd60e51b815260040161082790615119565b60006117df610cfb565b905060006117ed8583613aad565b90508061180c5760405162461bcd60e51b815260040161082790614c61565b60005b6008548110156119445760006008828154811061182857fe5b60009182526020808320909101546001600160a01b0316808352600990915260408220600101549092509061185d858361376e565b90508061187c5760405162461bcd60e51b815260040161082790614c61565b87878581811061188857fe5b905060200201358111156118ae5760405162461bcd60e51b815260040161082790614e05565b6001600160a01b0383166000908152600960205260409020600101546118d49082613a4c565b6001600160a01b0384166000818152600960205260409081902060010192909255905133907f63982df10efd8dfaaaa0fcc7f50b2d93b7cba26ccc48adee2873220d485dc39a90611926908590614b58565b60405180910390a3611939833383613a71565b50505060010161180f565b5061194e85613aa4565b611958338661383a565b50506005805461ff0019169055505050565b6000806119778786613aad565b905060006119858786613a4c565b905060006119938289613aad565b905060006119a9670de0b6b3a764000085613aad565b905060006119b78383613b41565b905060006119c5828e61376e565b905060006119d3828f6137e7565b905060006119f26119ec670de0b6b3a76400008a6137e7565b8b61376e565b9050611a0f82611a0a670de0b6b3a7640000846137e7565b613aad565b9f9e505050505050505050505050505050565b336001600160a01b03166000356001600160e01b0319166001600160e01b031916600080516020615216833981519152600036604051611a63929190614b61565b60405180910390a3600554610100900460ff1615611a935760405162461bcd60e51b815260040161082790614e5b565b6005805461ff001916610100179055600654336001600160a01b0390911614611ace5760405162461bcd60e51b815260040161082790614be3565b82818114611aee5760405162461bcd60e51b815260040161082790614f76565b60005b81811015611b4b57611b43868683818110611b0857fe5b9050602002016020810190611b1d9190614692565b858584818110611b2957fe5b9050602002016020810190611b3e9190614a66565b613bf4565b600101611af1565b50506005805461ff001916905550505050565b60405160009033906001600160e01b03198335169060008051602061521683398151915290611b909085903690614b61565b60405180910390a3600554610100900460ff1615611bc05760405162461bcd60e51b815260040161082790614e5b565b6005805461ff001916610100179055600654600160a01b900460ff16611bf85760405162461bcd60e51b815260040161082790615119565b6001600160a01b03841660009081526009602052604090205460ff16611c305760405162461bcd60e51b815260040161082790614eab565b6001600160a01b038416600090815260096020526040902060010154611c62906002670de0b6b3a76400005b0461376e565b831115611c815760405162461bcd60e51b815260040161082790614c37565b6001600160a01b038416600090815260096020526040902060018101548154600254600b54600754611cc89493600160381b90046001600160601b03169291908990612b7a565b915082821015611cea5760405162461bcd60e51b815260040161082790614d05565b611cf8816001015485613a4c565b60018201556040516001600160a01b0386169033907f63982df10efd8dfaaaa0fcc7f50b2d93b7cba26ccc48adee2873220d485dc39a90611d3a908890614b58565b60405180910390a3611d4b82613aa4565b611d55338361383a565b611d60853386613a71565b506005805461ff00191690559392505050565b611d7b614531565b600554610100900460ff1615611da35760405162461bcd60e51b815260040161082790614e5b565b506001600160a01b038116600090815260096020908152604091829020825160c081018452815460ff808216151580845265ffffffffffff610100840416958401959095526001600160601b03600160381b8304811696840196909652600160981b82049095166060830152600160f81b900490931660808401526001015460a0830152610e6f5760405162461bcd60e51b815260040161082790614eab565b3360009081526001602090815260408083206001600160a01b038616845290915281205480831115611e98573360009081526001602090815260408083206001600160a01b0388168452909152812055611ec7565b611ea281846137e7565b3360009081526001602090815260408083206001600160a01b03891684529091529020555b3360008181526001602090815260408083206001600160a01b03891680855292529182902054915190929160008051602061523683398151915291610e3f9190614b58565b60405160009033906001600160e01b03198335169060008051602061521683398151915290611f3e9085903690614b61565b60405180910390a3600554610100900460ff1615611f6e5760405162461bcd60e51b815260040161082790614e5b565b6005805461ff001916610100179055600654600160a01b900460ff16611fa65760405162461bcd60e51b815260040161082790615119565b6001600160a01b03841660009081526009602052604090205460ff16611fde5760405162461bcd60e51b815260040161082790614eab565b6001600160a01b038416600090815260096020526040902060018101548154600254600b546007546120259493600160381b90046001600160601b0316929190899061196a565b9150816120445760405162461bcd60e51b815260040161082790614c61565b828211156120645760405162461bcd60e51b815260040161082790614e05565b6001600160a01b038516600090815260096020526040902060010154612094906002670de0b6b3a7640000611c5c565b8211156120b35760405162461bcd60e51b815260040161082790614c37565b6120c1816001015483613a4c565b60018201556040516001600160a01b0386169033907f63982df10efd8dfaaaa0fcc7f50b2d93b7cba26ccc48adee2873220d485dc39a90612103908690614b58565b60405180910390a361211484613aa4565b61211e338561383a565b611d60853384613a71565b6001600160a01b031660009081526020819052604090205490565b620f4240670de0b6b3a7640000610d11565b600080336001600160a01b03166000356001600160e01b0319166001600160e01b03191660008051602061521683398151915260003660405161219a929190614b61565b60405180910390a3600554610100900460ff16156121ca5760405162461bcd60e51b815260040161082790614e5b565b6005805461ff0019166101001790556001600160a01b03871660009081526009602052604090205460ff166122115760405162461bcd60e51b815260040161082790614eab565b6001600160a01b03851660009081526009602052604090205460ff166122495760405162461bcd60e51b815260040161082790614eab565b600654600160a01b900460ff166122725760405162461bcd60e51b815260040161082790614fea565b61227a614531565b506001600160a01b038716600090815260096020908152604091829020825160c081018452815460ff8082161515835265ffffffffffff610100830416948301949094526001600160601b03600160381b8204811695830195909552600160981b81049094166060820152600160f81b90930490911660808301526001015460a0820152612306614531565b506001600160a01b038616600090815260096020908152604091829020825160c081018452815460ff8082161515835265ffffffffffff610100830416948301949094526001600160601b03600160381b8204811695830195909552600160981b81049094166060820152600160f81b90930490911660808301526001015460a082018190526123a0906003670de0b6b3a76400006108a3565b8611156123bf5760405162461bcd60e51b815260040161082790614e80565b60006123f28360a0015184604001516001600160601b03168460a0015185604001516001600160601b0316600754612f95565b9050858111156124145760405162461bcd60e51b815260040161082790614ef7565b6124468360a0015184604001516001600160601b03168460a0015185604001516001600160601b03168b6007546136eb565b9450888511156124685760405162461bcd60e51b815260040161082790614e05565b6124768360a0015186613a4c565b60a08085018290526001600160a01b038c166000908152600960205260409020600101919091558201516124aa90886137e7565b60a083018190526001600160a01b0389166000908152600960205260409020600101556124d7838b613d9d565b506124e28289613d9d565b506125148360a0015184604001516001600160601b03168460a0015185604001516001600160601b0316600754612f95565b9350858411156125365760405162461bcd60e51b815260040161082790614f9b565b6125408588613aad565b81111561255f5760405162461bcd60e51b815260040161082790614c61565b876001600160a01b03168a6001600160a01b0316336001600160a01b03167f908fb5ee8f16c6bc9bc3690973819f32a4d4b10188134543c88706e0e1d43378888b6040516125ae9291906151d6565b60405180910390a46125c18a3387613a71565b6125cc883389613844565b5050506005805461ff001916905590969095509350505050565b600080336001600160a01b03166000356001600160e01b0319166001600160e01b03191660008051602061521683398151915260003660405161262a929190614b61565b60405180910390a3600554610100900460ff161561265a5760405162461bcd60e51b815260040161082790614e5b565b6005805461ff0019166101001790556001600160a01b03871660009081526009602052604090205460ff166126a15760405162461bcd60e51b815260040161082790614eab565b6001600160a01b03851660009081526009602052604090205460ff166126d95760405162461bcd60e51b815260040161082790614eab565b600654600160a01b900460ff166127025760405162461bcd60e51b815260040161082790614fea565b6001600160a01b0385166000908152600a6020526040902054156127385760405162461bcd60e51b815260040161082790615046565b612740614531565b506001600160a01b038716600090815260096020908152604091829020825160c081018452815460ff8082161515835265ffffffffffff610100830416948301949094526001600160601b03600160381b8204811695830195909552600160981b81049094166060820152600160f81b90930490911660808301526001015460a08201526127cc614531565b506001600160a01b038087166000908152600960209081526040808320815160c081018352815460ff8082161515835265ffffffffffff610100830416838701526001600160601b03600160381b8304811684870152600160981b8304166060840152600160f81b90910416608082015260019091015460a0820152938c168352600a90915290205480612893576128748360a001516002670de0b6b3a764000081611c5c57fe5b8911156128935760405162461bcd60e51b815260040161082790614c37565b60006128c68460a0015185604001516001600160601b03168560a0015186604001516001600160601b0316600754612f95565b9050868111156128e85760405162461bcd60e51b815260040161082790614ef7565b61291a8460a0015185604001516001600160601b03168560a0015186604001516001600160601b03168e60075461326f565b95508786101561293c5760405162461bcd60e51b815260040161082790614d05565b61294a8460a001518b613a4c565b60a08086018290526001600160a01b038d1660009081526009602052604090206001019190915583015161297e90876137e7565b60a084018190526001600160a01b038a166000908152600960205260409020600101556129ab848c613d9d565b506129b6838a613d9d565b506129e88460a0015185604001516001600160601b03168560a0015186604001516001600160601b0316600754612f95565b945086851115612a0a5760405162461bcd60e51b815260040161082790614f9b565b612a148a87613aad565b811115612a335760405162461bcd60e51b815260040161082790614c61565b886001600160a01b03168b6001600160a01b0316336001600160a01b03167f908fb5ee8f16c6bc9bc3690973819f32a4d4b10188134543c88706e0e1d433788d8a604051612a829291906151d6565b60405180910390a4612a958b338c613a71565b612aa0893388613844565b505050506005805461ff001916905590969095509350505050565b600080612ac88786613aad565b90506000612ade670de0b6b3a7640000836137e7565b90506000612aec828661376e565b90506000612b0687611a0a670de0b6b3a7640000856137e7565b90506000612b148c836137e7565b90506000612b22828e613aad565b90506000612b308288613b41565b90506000612b3e828e61376e565b90506000612b4c8e836137e7565b9050612b6581611a0a670de0b6b3a764000060006137e7565b99505050505050505050509695505050505050565b600080612b878786613aad565b90506000612ba6612ba0670de0b6b3a7640000846137e7565b8561376e565b90506000612bc586612bc0670de0b6b3a7640000856137e7565b61376e565b90506000612bd38b83613a4c565b90506000612be1828d613aad565b90506000612bef8287613b41565b90506000612bfd828d61376e565b9050612c09818d6137e7565b9e9d5050505050505050505050505050565b64e8d4a51000670de0b6b3a7640000610d11565b600080612c3c8786613aad565b90506000612c5785612bc0670de0b6b3a764000060006137e7565b90506000612c6588836137e7565b90506000612c73828a613aad565b90506000612c9282612c8d670de0b6b3a764000088613aad565b613b41565b90506000612ca0828e61376e565b90506000612cae8e836137e7565b90506000612cc76119ec670de0b6b3a76400008a6137e7565b9050611a0f82612bc0670de0b6b3a7640000846137e7565b336001600160a01b03166000356001600160e01b0319166001600160e01b031916600080516020615216833981519152600036604051612d20929190614b61565b60405180910390a3600554610100900460ff1615612d505760405162461bcd60e51b815260040161082790614e5b565b6005805461ff0019166101001790556001600160a01b03811660009081526009602052604090205460ff16612d975760405162461bcd60e51b815260040161082790614eab565b6040516370a0823160e01b81526001600160a01b038216906370a0823190612dc3903090600401614a8d565b60206040518083038186803b158015612ddb57600080fd5b505afa158015612def573d6000803e3d6000fd5b505050506040513d601f19601f82011682018060405250810190612e139190614988565b6001600160a01b039091166000908152600960205260409020600101556005805461ff0019169055565b600654600160a01b900460ff1690565b600554600090610100900460ff1615612e785760405162461bcd60e51b815260040161082790614e5b565b50600b5490565b68056bc75e2d6310000081565b600554600090610100900460ff1615612eb75760405162461bcd60e51b815260040161082790614e5b565b6001600160a01b03821660009081526009602052604090205460ff16612eef5760405162461bcd60e51b815260040161082790614eab565b506001600160a01b0316600090815260096020526040902054600160381b90046001600160601b031690565b60048054604080516020601f6002600019610100600188161502019095169490940493840181900481028201810190925282815260609390929091830182828015610aa05780601f10610a7557610100808354040283529160200191610aa0565b6704a03ce68d21555681565b6542524f4e5a4560d01b90565b600080612fa28787613aad565b90506000612fb08686613aad565b90506000612fbe8383613aad565b90506000612fe0670de0b6b3a7640000611a0a670de0b6b3a7640000896137e7565b9050612fec828261376e565b9a9950505050505050505050565b60006130073384846138ec565b50600192915050565b336001600160a01b03166000356001600160e01b0319166001600160e01b031916600080516020615216833981519152600036604051613051929190614b61565b60405180910390a3600554610100900460ff16156130815760405162461bcd60e51b815260040161082790614e5b565b6005805461ff001916610100179055600061309a610cfb565b905060006130a985600061376e565b905060006130b786836137e7565b905060006130c58285613aad565b9050806130e45760405162461bcd60e51b815260040161082790614c61565b6130ee3388613820565b60055461310a906201000090046001600160a01b03168461383a565b6131138261382e565b60005b60085481101561324b5760006008828154811061312f57fe5b60009182526020808320909101546001600160a01b03168083526009909152604082206001015490925090613164858361376e565b9050806131835760405162461bcd60e51b815260040161082790614c61565b89898581811061318f57fe5b905060200201358110156131b55760405162461bcd60e51b815260040161082790614d05565b6001600160a01b0383166000908152600960205260409020600101546131db90826137e7565b6001600160a01b0384166000818152600960205260409081902060010192909255905133907fe74c91552b64c2e2e7bd255639e004e693bd3e1d01cc33e65610b86afcc1ffed9061322d908590614b58565b60405180910390a3613240833383613844565b505050600101613116565b50506005805461ff0019169055505050505050565b600881565b600281565b600181565b60008061327c8786613aad565b90506000613292670de0b6b3a7640000856137e7565b905061329e858261376e565b905060006132b08a611a0a8c85613a4c565b905060006132be8285613b41565b905060006132d4670de0b6b3a7640000836137e7565b90506132e08a8261376e565b9c9b505050505050505050505050565b600a670de0b6b3a7640000610d11565b671bc16d674ec7ffff81565b6050670de0b6b3a7640000610d11565b600081565b600554606090610100900460ff161561334c5760405162461bcd60e51b815260040161082790614e5b565b6008805480602002602001604051908101604052809291908181526020018280548015610aa057602002820191906000526020600020905b81546001600160a01b03168152600190910190602001808311613384575050505050905090565b60085490565b336001600160a01b03166000356001600160e01b0319166001600160e01b0319166000805160206152168339815191526000366040516133f2929190614b61565b60405180910390a3600554610100900460ff16156134225760405162461bcd60e51b815260040161082790614e5b565b6005805461ff001916610100179055600654336001600160a01b039091161461345d5760405162461bcd60e51b815260040161082790614be3565b6001600160a01b03811660009081526009602052604090205460ff166134955760405162461bcd60e51b815260040161082790614eab565b600b546001600160a01b0382166000908152600960205260409020546134cb9190600160381b90046001600160601b03166137e7565b600b556134d781613fc8565b506005805461ff0019169055565b600554600090610100900460ff16156135105760405162461bcd60e51b815260040161082790614e5b565b5060075490565b3360009081526001602090815260408083206001600160a01b03861684529091528120546135459083613a4c565b3360008181526001602090815260408083206001600160a01b0389168085529252918290208490559051909260008051602061523683398151915291610af19190614b58565b6001600160a01b03918216600090815260016020908152604080832093909416825291909152205490565b6002670de0b6b3a7640000610d11565b600554600090610100900460ff16156135f15760405162461bcd60e51b815260040161082790614e5b565b6001600160a01b03821660009081526009602052604090205460ff166136295760405162461bcd60e51b815260040161082790614eab565b6001600160a01b038216600090815260096020526040902054600b54600160381b9091046001600160601b031690613662908290613aad565b9392505050565b600554600090610100900460ff16156136945760405162461bcd60e51b815260040161082790614e5b565b6001600160a01b03821660009081526009602052604090205460ff166136cc5760405162461bcd60e51b815260040161082790614eab565b506001600160a01b031660009081526009602052604090206001015490565b6000806136f88588613aad565b9050600061370687866137e7565b905060006137148883613aad565b905060006137228285613b41565b905061373681670de0b6b3a76400006137e7565b905061374a670de0b6b3a7640000876137e7565b945061375f6137598c8361376e565b86613aad565b9b9a5050505050505050505050565b600082820283158061378857508284828161378557fe5b04145b6137a45760405162461bcd60e51b815260040161082790614f4c565b6706f05b59d3b200008101818110156137cf5760405162461bcd60e51b815260040161082790614f4c565b6000670de0b6b3a7640000825b049695505050505050565b60008060006137f68585614280565b9150915080156138185760405162461bcd60e51b81526004016108279061509c565b509392505050565b61382a82826142a5565b5050565b613837816142b0565b50565b61382a8282614359565b60405163a9059cbb60e01b81526000906001600160a01b0385169063a9059cbb906138759086908690600401614ac5565b602060405180830381600087803b15801561388f57600080fd5b505af11580156138a3573d6000803e3d6000fd5b505050506040513d601f19601f820116820180604052508101906138c79190614954565b9050806138e65760405162461bcd60e51b815260040161082790615073565b50505050565b6001600160a01b0383166000908152602081905260409020548111156139245760405162461bcd60e51b815260040161082790614d55565b6001600160a01b03831660009081526020819052604090205461394790826137e7565b6001600160a01b0380851660009081526020819052604080822093909355908416815220546139769082613a4c565b6001600160a01b0380841660008181526020819052604090819020939093559151908516907fddf252ad1be2c89b69c2b068fc378daa952ba7f163c4a11628f55a4df523b3ef906139c8908590614b58565b60405180910390a3505050565b600354600260001961010060018416150201909116041580156139f85750815115155b8015613a045750805115155b613a205760405162461bcd60e51b815260040161082790614e2b565b8151613a33906003906020850190614566565b508051613a47906004906020840190614566565b505050565b6000828201838110156136625760405162461bcd60e51b8152600401610827906150c7565b6040516323b872dd60e01b81526000906001600160a01b038516906323b872dd9061387590869030908790600401614aa1565b61383781614364565b600081613acc5760405162461bcd60e51b815260040161082790614fc4565b670de0b6b3a76400008302831580613af45750670de0b6b3a7640000848281613af157fe5b04145b613b105760405162461bcd60e51b815260040161082790614dac565b60028304810181811015613b365760405162461bcd60e51b815260040161082790614dac565b60008482816137dc57fe5b60006001831015613b645760405162461bcd60e51b815260040161082790615017565b671bc16d674ec7ffff831115613b8c5760405162461bcd60e51b815260040161082790615146565b6000613b97836143d3565b90506000613ba584836137e7565b90506000613bbb86613bb6856143ee565b6143fc565b905081613bcc579250610afd915050565b6000613bdd87846305f5e100614453565b9050613be9828261376e565b979650505050505050565b613bfc614531565b506001600160a01b038216600090815260096020908152604091829020825160c081018452815460ff808216151580845265ffffffffffff610100840416958401959095526001600160601b03600160381b8304811696840196909652600160981b82049095166060830152600160f81b900490931660808401526001015460a0830152613c9c5760405162461bcd60e51b815260040161082790614eab565b670de0b6b3a7640000826001600160601b0316101580613cc357506001600160601b038216155b613cdf5760405162461bcd60e51b815260040161082790614f24565b6802b5e3af16b18800006001600160601b0383161115613d115760405162461bcd60e51b815260040161082790614caf565b6001600160601b038216606082018190526001600160a01b0384166000908152600960205260409081902080546bffffffffffffffffffffffff60981b1916600160981b90930292909217909155517fc7ea88f3376e27ce6ebc2025310023327f743a8377d438258c36b166dd8b298390613d8f9085908590614ade565b60405180910390a16138e681845b600082604001516001600160601b031683606001516001600160601b03161480613dd65750610e10836020015165ffffffffffff164203105b15613de357506000610afd565b6000836040015190506000613e03826001600160601b031660075461376e565b60608601519091506001600160601b038084169082161115613eb3576000613e3d826001600160601b0316856001600160601b03166137e7565b90506001600160601b03841615801590613e5657508281115b15613e7457613e6e846001600160601b031684613a4c565b91508290505b613e80600b5482613a4c565b600b8190556802b5e3af16b18800001015613ead5760405162461bcd60e51b815260040161082790614cd7565b50613f05565b6000613ed1846001600160601b0316836001600160601b03166137e7565b905082811115613ef457613eee846001600160601b0316846137e7565b91508290505b613f00600b54826137e7565b600b55505b7f21b12aed5d425f5675450ffeeae01039085e5323974c3099e1828155d9b51e778582604051613f36929190614ade565b60405180910390a16001600160601b038116613f5a57613f5585613fc8565b613fbc565b6001600160601b03811660408781018290526001600160a01b038716600090815260096020522080546bffffffffffffffffffffffff60381b1916600160381b9092029190911766ffffffffffff0019166101004265ffffffffffff16021790555b50600195945050505050565b613fd0614531565b506001600160a01b0381166000908152600960209081526040808320815160c081018352815460ff8082161515835265ffffffffffff610100830416958301959095526001600160601b03600160381b8204811694830194909452600160981b81049093166060820152600160f81b909204909216608082015260019091015460a082018190529091614063828261376e565b608084015160085491925060ff169060001901808214614134576008818154811061408a57fe5b600091825260209091200154600880546001600160a01b0390921691849081106140b057fe5b9060005260206000200160006101000a8154816001600160a01b0302191690836001600160a01b031602179055508160096000600885815481106140f057fe5b60009182526020808320909101546001600160a01b031683528201929092526040019020805460ff92909216600160f81b026001600160f81b039092169190911790555b600880548061413f57fe5b60008281526020808220600019908401810180546001600160a01b03191690559092019092556040805160c081018252838152808301848152818301858152606083018681526080840187815260a085018881526001600160a01b038f16895260099097529490962092518354925191519651945160ff199093169015151766ffffffffffff00191661010065ffffffffffff90921691909102176bffffffffffffffffffffffff60381b1916600160381b6001600160601b0396871602176bffffffffffffffffffffffff60981b1916600160981b9590931694909402919091176001600160f81b0316600160f81b60ff90941693909302929092178255516001919091015561425a863361425587876137e7565b613844565b6005546142789087906201000090046001600160a01b031685613844565b505050505050565b600080828410614296575050808203600061429e565b505081810360015b9250929050565b61382a8230836138ec565b306000908152602081905260409020548111156142df5760405162461bcd60e51b815260040161082790614d55565b306000908152602081905260409020546142f990826137e7565b3060009081526020819052604090205560025461431690826137e7565b60025560405160009030907fddf252ad1be2c89b69c2b068fc378daa952ba7f163c4a11628f55a4df523b3ef9061434e908590614b58565b60405180910390a350565b61382a3083836138ec565b3060009081526020819052604090205461437e9082613a4c565b3060009081526020819052604090205560025461439b9082613a4c565b60025560405130906000907fddf252ad1be2c89b69c2b068fc378daa952ba7f163c4a11628f55a4df523b3ef9061434e908590614b58565b6000670de0b6b3a76400006143e7836143ee565b0292915050565b670de0b6b3a7640000900490565b6000806002830661441557670de0b6b3a7640000614417565b835b90506002830492505b821561366257614430848561376e565b9350600283061561444857614445818561376e565b90505b600283049250614420565b600082818061446a87670de0b6b3a7640000614280565b9092509050670de0b6b3a764000080600060015b888410614522576000670de0b6b3a7640000820290506000806144b28a6144ad85670de0b6b3a76400006137e7565b614280565b915091506144c487612bc0848c61376e565b96506144d08784613aad565b9650866144df57505050614522565b87156144e9579315935b80156144f3579315935b841561450a5761450386886137e7565b9550614517565b6145148688613a4c565b95505b50505060010161447e565b50909998505050505050505050565b6040805160c081018252600080825260208201819052918101829052606081018290526080810182905260a081019190915290565b828054600181600116156101000203166002900490600052602060002090601f016020900481019282601f106145a757805160ff19168380011785556145d4565b828001600101855582156145d4579182015b828111156145d45782518255916020019190600101906145b9565b506145e09291506145e4565b5090565b5b808211156145e057600081556001016145e5565b80356001600160a01b0381168114610afd57600080fd5b60008083601f840112614621578182fd5b50813567ffffffffffffffff811115614638578182fd5b602083019150836020808302850101111561429e57600080fd5b60008083601f840112614663578182fd5b50813567ffffffffffffffff81111561467a578182fd5b60208301915083602082850101111561429e57600080fd5b6000602082840312156146a3578081fd5b61366283836145f9565b600080604083850312156146bf578081fd5b6146c984846145f9565b91506146d884602085016145f9565b90509250929050565b6000806000606084860312156146f5578081fd5b8335614700816151f2565b92506020840135614710816151f2565b929592945050506040919091013590565b600080600080600080600080600080600060c08c8e031215614741578687fd5b61474b8d8d6145f9565b9a5067ffffffffffffffff8060208e01351115614766578788fd5b6147768e60208f01358f01614652565b909b50995060408d013581101561478b578788fd5b61479b8e60408f01358f01614652565b909950975060608d01358110156147b0578687fd5b6147c08e60608f01358f01614610565b909750955060808d01358110156147d5578485fd5b6147e58e60808f01358f01614610565b909550935060a08d01358110156147fa578283fd5b5061480b8d60a08e01358e01614610565b81935080925050509295989b509295989b9093969950565b60008060408385031215614835578182fd5b61483f84846145f9565b946020939093013593505050565b600080600080600060a08688031215614864578081fd5b61486e87876145f9565b94506020860135935061488487604088016145f9565b94979396509394606081013594506080013592915050565b6000806000606084860312156148b0578283fd5b6148ba85856145f9565b95602085013595506040909401359392505050565b600080600080604085870312156148e4578384fd5b843567ffffffffffffffff808211156148fb578586fd5b61490788838901614610565b9096509450602087013591508082111561491f578384fd5b5061492c87828801614610565b95989497509550505050565b600060208284031215614949578081fd5b813561366281615207565b600060208284031215614965578081fd5b815161366281615207565b600060208284031215614981578081fd5b5035919050565b600060208284031215614999578081fd5b5051919050565b6000806000604084860312156149b4578081fd5b83359250602084013567ffffffffffffffff8111156149d1578182fd5b6149dd86828701614610565b9497909650939450505050565b600080600080600060a08688031215614a01578283fd5b505083359560208501359550604085013594606081013594506080013592509050565b60008060008060008060c08789031215614a3c578384fd5b505084359660208601359650604086013595606081013595506080810135945060a0013592509050565b600060208284031215614a77578081fd5b81356001600160601b0381168114613662578182fd5b6001600160a01b0391909116815260200190565b6001600160a01b039384168152919092166020820152604081019190915260600190565b6001600160a01b03929092168252602082015260400190565b6001600160a01b039290921682526001600160601b0316602082015260400190565b6020808252825182820181905260009190848201906040850190845b81811015614b415783516001600160a01b031683529284019291840191600101614b1c565b50909695505050505050565b901515815260200190565b90815260200190565b60006020825282602083015282846040840137818301604090810191909152601f909201601f19160101919050565b6000602080835283518082850152825b81811015614bbc57858101830151858201604001528201614ba0565b81811115614bcd5783604083870101525b50601f01601f1916929092016040019392505050565b60208082526012908201527122a9292fa727aa2fa1a7a72a2927a62622a960711b604082015260600190565b6020808252600e908201526d4552525f4d41585f544f4b454e5360901b604082015260600190565b60208082526010908201526f4552525f4d41585f494e5f524154494f60801b604082015260600190565b6020808252600f908201526e08aa4a4be9a82a890be82a0a0a49eb608b1b604082015260600190565b6020808252600b908201526a4552525f4d494e5f46454560a81b604082015260600190565b6020808252600e908201526d11549497d3505617d5d15251d21560921b604082015260600190565b60208082526014908201527311549497d3505617d513d5105317d5d15251d21560621b604082015260600190565b6020808252600d908201526c11549497d31253525517d3d555609a1b604082015260600190565b6020808252600f908201526e4552525f4d494e5f42414c414e434560881b604082015260600190565b60208082526014908201527311549497d25394d551919250d251539517d0905360621b604082015260600190565b6020808252600f908201526e11549497d253925512505312569151608a1b604082015260600190565b60208082526010908201526f11549497d1125597d25395115493905360821b604082015260600190565b60208082526015908201527422a9292fa12a27a5a2a72fa120a22fa1a0a62622a960591b604082015260600190565b6020808252600c908201526b22a9292fa624a6a4aa2fa4a760a11b604082015260600190565b60208082526016908201527511549497d09513d2d15397d25392551250531256915160521b604082015260600190565b6020808252600b908201526a4552525f5245454e54525960a81b604082015260600190565b6020808252601190820152704552525f4d41585f4f55545f524154494f60781b604082015260600190565b6020808252600d908201526c11549497d393d517d093d55391609a1b604082015260600190565b6020808252600b908201526a4552525f4d41585f46454560a81b604082015260600190565b6020808252601390820152724552525f4241445f4c494d49545f505249434560681b604082015260600190565b6020808252600e908201526d11549497d3525397d5d15251d21560921b604082015260600190565b60208082526010908201526f4552525f4d554c5f4f564552464c4f5760801b604082015260600190565b6020808252600b908201526a22a9292fa0a9292fa622a760a91b604082015260600190565b6020808252600f908201526e4552525f4c494d49545f505249434560881b604082015260600190565b6020808252600c908201526b4552525f4449565f5a45524f60a01b604082015260600190565b6020808252601390820152724552525f535741505f4e4f545f5055424c494360681b604082015260600190565b6020808252601590820152744552525f42504f575f424153455f544f4f5f4c4f5760581b604082015260600190565b6020808252601390820152724552525f544f4b454e5f4e4f545f524541445960681b604082015260600190565b6020808252600f908201526e4552525f45524332305f46414c534560881b604082015260600190565b6020808252601190820152704552525f5355425f554e444552464c4f5760781b604082015260600190565b60208082526010908201526f4552525f4144445f4f564552464c4f5760801b604082015260600190565b6020808252600e908201526d4552525f4d494e5f544f4b454e5360901b604082015260600190565b6020808252601390820152724552525f4a4f494e5f4e4f545f5055424c494360681b604082015260600190565b60208082526016908201527508aa4a4be84a09eaebe8482a68abea89e9ebe90928e960531b604082015260600190565b600060c08201905082511515825265ffffffffffff602084015116602083015260408301516001600160601b038082166040850152806060860151166060850152505060ff608084015116608083015260a083015160a083015292915050565b918252602082015260400190565b60ff91909116815260200190565b6001600160a01b038116811461383757600080fd5b801515811461383757600080fdfe25fce1fe01d9b241fda40b2152ddd6f4ba063fcfb3c2c81dddf84ee20d3f341f8c5be1e5ebec7d5bd14f71427d1e84f3dd0314c0f7b2291e5b200ac8c7c3b925a26469706673582212206cf6606bc73b4dfa4acc7c93be7438eb299c089a489fb9f65289b96386493e6864736f6c634300060c0033",
  "immutableReferences": {},
  "source": "// SPDX-License-Identifier: GPL-3.0-or-later\npragma solidity ^0.6.0;\npragma experimental ABIEncoderV2;\n\n\nimport \"./BToken.sol\";\nimport \"./BMath.sol\";\n\n\n/**\n * @title BPoolBase\n * @dev Defines the data structures, storage, events and initializer\n * for the BPool contract.\n */\ncontract BPoolBase is BBronze, BToken, BMath {\n  /**\n   * @dev Token record data structure\n   * @param bound is token bound to pool\n   * @param lastDenormUpdate timestamp of last weight change\n   * @param denorm denormalized weight\n   * @param desiredDenorm desired denormalized weight (used for incremental changes)\n   * @param index index of address in tokens array\n   * @param balance token balance\n   */\n  struct Record {\n    bool bound;\n    uint48 lastDenormUpdate;\n    uint96 denorm;\n    uint96 desiredDenorm;\n    uint8 index;\n    uint256 balance;\n  }\n\n  event LOG_SWAP(\n    address indexed caller,\n    address indexed tokenIn,\n    address indexed tokenOut,\n    uint256 tokenAmountIn,\n    uint256 tokenAmountOut\n  );\n\n  event LOG_JOIN(\n    address indexed caller,\n    address indexed tokenIn,\n    uint256 tokenAmountIn\n  );\n\n  event LOG_EXIT(\n    address indexed caller,\n    address indexed tokenOut,\n    uint256 tokenAmountOut\n  );\n\n  event LOG_CALL(bytes4 indexed sig, address indexed caller, bytes data);\n\n  event LOG_DENORM_UPDATED(address token, uint256 newDenorm);\n  event LOG_DESIRED_DENORM_SET(address token, uint256 desiredDenorm);\n\n  modifier _logs_() {\n    emit LOG_CALL(msg.sig, msg.sender, msg.data);\n    _;\n  }\n\n  modifier _lock_() {\n    require(!_mutex, \"ERR_REENTRY\");\n    _mutex = true;\n    _;\n    _mutex = false;\n  }\n\n  modifier _viewlock_() {\n    require(!_mutex, \"ERR_REENTRY\");\n    _;\n  }\n\n  bool internal _mutex;\n\n  address internal _factory; // BFactory address to push token exitFee to\n  address internal _controller; // has CONTROL role\n\n  // `setPublicSwap` requires CONTROL\n  // `bindInitial` sets _publicSwap to true\n  bool internal _publicSwap; // true if PUBLIC can call SWAP functions\n\n  // `setSwapFee` requires CONTROL\n  uint256 internal _swapFee;\n\n  address[] internal _tokens;\n  mapping(address => Record) internal _records;\n  // Target balance for a token which does not yet have a sufficient\n  // balance to be traded\n  mapping(address => uint256) internal _targetBalances;\n  // Total denormalized weight\n  uint256 internal _totalWeight;\n\n  function initialize(\n    address controller,\n    string calldata name,\n    string calldata symbol,\n    address[] calldata tokens,\n    uint256[] calldata balances,\n    uint96[] calldata denorms\n  )\n    external\n  {\n    require(\n      _controller == address(0) &&\n      controller != address(0),\n      \"ERR_INITIALIZED\"\n    );\n    _controller = controller;\n    _factory = msg.sender;\n    // default fee is 2.5%\n    _swapFee = BONE / 40;\n    _initializeToken(name, symbol);\n    uint256 len = tokens.length;\n    require(len >= MIN_BOUND_TOKENS, \"ERR_MIN_TOKENS\");\n    require(len <= MAX_BOUND_TOKENS, \"ERR_MAX_TOKENS\");\n    require(\n      balances.length == len &&\n      denorms.length == len,\n      \"ERR_ARR_LEN\"\n    );\n    uint256 totalWeight = 0;\n    for (uint256 i = 0; i < len; i++) {\n      // _bind(tokens[i], balances[i], denorms[i]);\n      address token = tokens[i];\n      uint96 denorm = denorms[i];\n      uint256 balance = balances[i];\n      require(denorm >= MIN_WEIGHT, \"ERR_MIN_WEIGHT\");\n      require(denorm <= MAX_WEIGHT, \"ERR_MAX_WEIGHT\");\n      require(balance >= MIN_BALANCE, \"ERR_MIN_BALANCE\");\n      _records[token] = Record({\n        bound: true,\n        lastDenormUpdate: uint48(now),\n        denorm: denorm,\n        desiredDenorm: denorm,\n        index: uint8(_tokens.length),\n        balance: balance\n      });\n      _tokens.push(token);\n      totalWeight = badd(totalWeight, denorm);\n      _pullUnderlying(token, msg.sender, balance);\n    }\n    require(totalWeight <= MAX_TOTAL_WEIGHT, \"ERR_MAX_TOTAL_WEIGHT\");\n    _totalWeight = totalWeight;\n    _publicSwap = true;\n    _mintPoolShare(INIT_POOL_SUPPLY);\n    _pushPoolShare(msg.sender, INIT_POOL_SUPPLY);\n  }\n\n  // Absorb any tokens that have been sent to this contract into the pool\n  function gulp(address token) external _logs_ _lock_ {\n    require(_records[token].bound, \"ERR_NOT_BOUND\");\n    _records[token].balance = IERC20(token).balanceOf(address(this));\n  }\n\n  /* <-- Swap Actions --> */\n  function swapExactAmountIn(\n    address tokenIn,\n    uint256 tokenAmountIn,\n    address tokenOut,\n    uint256 minAmountOut,\n    uint256 maxPrice\n  )\n    external\n    _logs_\n    _lock_\n    returns (uint256 tokenAmountOut, uint256 spotPriceAfter)\n  {\n    require(_records[tokenIn].bound, \"ERR_NOT_BOUND\");\n    require(_records[tokenOut].bound, \"ERR_NOT_BOUND\");\n    require(_publicSwap, \"ERR_SWAP_NOT_PUBLIC\");\n    require(_targetBalances[tokenOut] == 0, \"ERR_TOKEN_NOT_READY\");\n\n    Record memory inRecord = _records[address(tokenIn)];\n    Record memory outRecord = _records[address(tokenOut)];\n    uint256 targetBalance = _targetBalances[tokenIn];\n    if (targetBalance == 0) {\n      require(\n        tokenAmountIn <= bmul(inRecord.balance, MAX_IN_RATIO),\n        \"ERR_MAX_IN_RATIO\"\n      );\n    }\n    uint256 spotPriceBefore = calcSpotPrice(\n      inRecord.balance,\n      inRecord.denorm,\n      outRecord.balance,\n      outRecord.denorm,\n      _swapFee\n    );\n    require(spotPriceBefore <= maxPrice, \"ERR_BAD_LIMIT_PRICE\");\n\n    tokenAmountOut = calcOutGivenIn(\n      inRecord.balance,\n      inRecord.denorm,\n      outRecord.balance,\n      outRecord.denorm,\n      tokenAmountIn,\n      _swapFee\n    );\n    require(tokenAmountOut >= minAmountOut, \"ERR_LIMIT_OUT\");\n    // Update the in-memory record for the spotPriceAfter calculation,\n    // then update the storage record with the local balance.\n    inRecord.balance = badd(inRecord.balance, tokenAmountIn);\n    _records[address(tokenIn)].balance = inRecord.balance;\n    outRecord.balance = bsub(outRecord.balance, tokenAmountOut);\n    _records[address(tokenOut)].balance = outRecord.balance;\n\n    _updateDenorm(inRecord, address(tokenIn));\n    _updateDenorm(outRecord, address(tokenOut));\n\n    spotPriceAfter = calcSpotPrice(\n      inRecord.balance,\n      inRecord.denorm,\n      outRecord.balance,\n      outRecord.denorm,\n      _swapFee\n    );\n    // Only validate the resulting spot price if the weights did not change.\n    // require(didUpdate || spotPriceAfter >= spotPriceBefore, \"ERR_MATH_APPROX\");\n    require(spotPriceAfter <= maxPrice, \"ERR_LIMIT_PRICE\");\n    require(\n      spotPriceBefore <= bdiv(tokenAmountIn, tokenAmountOut),\n      \"ERR_MATH_APPROX\"\n    );\n\n    emit LOG_SWAP(msg.sender, tokenIn, tokenOut, tokenAmountIn, tokenAmountOut);\n\n    _pullUnderlying(tokenIn, msg.sender, tokenAmountIn);\n    _pushUnderlying(tokenOut, msg.sender, tokenAmountOut);\n\n    return (tokenAmountOut, spotPriceAfter);\n  }\n\n  function swapExactAmountOut(\n    address tokenIn,\n    uint256 maxAmountIn,\n    address tokenOut,\n    uint256 tokenAmountOut,\n    uint256 maxPrice\n  )\n    external\n    _logs_\n    _lock_\n    returns (uint256 tokenAmountIn, uint256 spotPriceAfter)\n  {\n    require(_records[tokenIn].bound, \"ERR_NOT_BOUND\");\n    require(_records[tokenOut].bound, \"ERR_NOT_BOUND\");\n    require(_publicSwap, \"ERR_SWAP_NOT_PUBLIC\");\n\n    Record memory inRecord = _records[address(tokenIn)];\n    Record memory outRecord = _records[address(tokenOut)];\n\n    require(\n      tokenAmountOut <= bmul(outRecord.balance, MAX_OUT_RATIO),\n      \"ERR_MAX_OUT_RATIO\"\n    );\n\n    uint256 spotPriceBefore = calcSpotPrice(\n      inRecord.balance,\n      inRecord.denorm,\n      outRecord.balance,\n      outRecord.denorm,\n      _swapFee\n    );\n    require(spotPriceBefore <= maxPrice, \"ERR_BAD_LIMIT_PRICE\");\n\n    tokenAmountIn = calcInGivenOut(\n      inRecord.balance,\n      inRecord.denorm,\n      outRecord.balance,\n      outRecord.denorm,\n      tokenAmountOut,\n      _swapFee\n    );\n    require(tokenAmountIn <= maxAmountIn, \"ERR_LIMIT_IN\");\n\n    // Update the in-memory record for the spotPriceAfter calculation,\n    // then update the storage record with the local balance.\n    inRecord.balance = badd(inRecord.balance, tokenAmountIn);\n    _records[address(tokenIn)].balance = inRecord.balance;\n    outRecord.balance = bsub(outRecord.balance, tokenAmountOut);\n    _records[address(tokenOut)].balance = outRecord.balance;\n\n    _updateDenorm(inRecord, address(tokenIn));\n    _updateDenorm(outRecord, address(tokenOut));\n\n    spotPriceAfter = calcSpotPrice(\n      inRecord.balance,\n      inRecord.denorm,\n      outRecord.balance,\n      outRecord.denorm,\n      _swapFee\n    );\n    // Only validate the resulting spot price if the weights did not change.\n    // require(didUpdate || spotPriceAfter >= spotPriceBefore, \"ERR_MATH_APPROX\");\n    require(spotPriceAfter <= maxPrice, \"ERR_LIMIT_PRICE\");\n    require(\n      spotPriceBefore <= bdiv(tokenAmountIn, tokenAmountOut),\n      \"ERR_MATH_APPROX\"\n    );\n\n    emit LOG_SWAP(msg.sender, tokenIn, tokenOut, tokenAmountIn, tokenAmountOut);\n\n    _pullUnderlying(tokenIn, msg.sender, tokenAmountIn);\n    _pushUnderlying(tokenOut, msg.sender, tokenAmountOut);\n\n    return (tokenAmountIn, spotPriceAfter);\n  }\n\n  /* <-- Pool Share Internal Functions --> */\n  function _pullPoolShare(address from, uint256 amount) internal {\n    _pull(from, amount);\n  }\n\n  function _pushPoolShare(address to, uint256 amount) internal {\n    _push(to, amount);\n  }\n\n  function _mintPoolShare(uint256 amount) internal {\n    _mint(amount);\n  }\n\n  function _burnPoolShare(uint256 amount) internal {\n    _burn(amount);\n  }\n\n  /* <-- Underlying Token Internal Functions --> */\n  // 'Underlying' token-manipulation functions make external calls but are NOT locked\n  // You must `_lock_` or otherwise ensure reentry-safety\n\n  function _pullUnderlying(\n    address erc20,\n    address from,\n    uint256 amount\n  ) internal {\n    bool xfer = IERC20(erc20).transferFrom(from, address(this), amount);\n    require(xfer, \"ERR_ERC20_FALSE\");\n  }\n\n  function _pushUnderlying(\n    address erc20,\n    address to,\n    uint256 amount\n  ) internal {\n    bool xfer = IERC20(erc20).transfer(to, amount);\n    require(xfer, \"ERR_ERC20_FALSE\");\n  }\n\n  /* <-- Token Binding Internal Functions --> */\n  /**\n   * @dev Directly bind a token by address.\n   * Note: Token must not already be bound.\n   * Note: `balance` must be a valid balance and denorm must be a valid denormalized weight.\n   * Note: `balance` should match the weight which will immediately be set, i.e. max()\n   */\n  function _bind(\n    address token,\n    uint256 balance,\n    uint96 denorm\n  ) internal {\n    require(!_records[token].bound, \"ERR_IS_BOUND\");\n\n    require(denorm >= MIN_WEIGHT, \"ERR_MIN_WEIGHT\");\n    require(denorm <= MAX_WEIGHT, \"ERR_MAX_WEIGHT\");\n    require(balance >= MIN_BALANCE, \"ERR_MIN_BALANCE\");\n\n    require(_tokens.length < MAX_BOUND_TOKENS, \"ERR_MAX_TOKENS\");\n    _records[token] = Record({\n      bound: true,\n      lastDenormUpdate: uint48(now),\n      denorm: denorm,\n      desiredDenorm: denorm,\n      index: uint8(_tokens.length),\n      balance: balance\n    });\n    _tokens.push(token);\n    uint256 totalWeight = badd(_totalWeight, denorm);\n    require(totalWeight <= MAX_TOTAL_WEIGHT, \"ERR_MAX_TOTAL_WEIGHT\");\n    _totalWeight = totalWeight;\n    _pullUnderlying(token, msg.sender, balance);\n  }\n\n  function _setDesiredDenorm(address token, uint96 desiredDenorm) internal {\n    Record memory record = _records[token];\n    require(record.bound, \"ERR_NOT_BOUND\");\n    // If the desired weight is 0, this will trigger a gradual unbinding of the token.\n    // Therefore the weight only needs to be greater than the minimum weight if it isn't 0.\n    require(desiredDenorm >= MIN_WEIGHT || desiredDenorm == 0, \"ERR_MIN_WEIGHT\");\n    require(desiredDenorm <= MAX_WEIGHT, \"ERR_MAX_WEIGHT\");\n    record.desiredDenorm = desiredDenorm;\n    _records[token].desiredDenorm = desiredDenorm;\n    emit LOG_DESIRED_DENORM_SET(token, desiredDenorm);\n    _updateDenorm(record, token);\n  }\n\n  /**\n   * @dev Executes the logic to remove a token:\n   * Replaces the address in the tokens array with the last address,\n   * then removes it from the array.\n   * Note: This should only be called after the total weight has been adjusted.\n   * Note: Must be called in a function with:\n   * - _lock_ modifier to prevent reentrance\n   * - requirement that the token is bound\n   */\n  function _onUnbind(address token) internal {\n    Record memory record = _records[token];\n    uint256 tokenBalance = record.balance;\n    uint256 tokenExitFee = bmul(tokenBalance, EXIT_FEE);\n\n    // Swap the token-to-unbind with the last token,\n    // then delete the last token\n    uint256 index = record.index;\n    uint256 last = _tokens.length - 1;\n    // Only swap the token with the last token if it is not\n    // already at the end of the array.\n    if (index != last) {\n      _tokens[index] = _tokens[last];\n      _records[_tokens[index]].index = uint8(index);\n    }\n    _tokens.pop();\n    _records[token] = Record({\n      bound: false,\n      lastDenormUpdate: 0,\n      denorm: 0,\n      desiredDenorm: 0,\n      index: 0,\n      balance: 0\n    });\n    // transfer any remaining tokens out\n    _pushUnderlying(token, msg.sender, bsub(tokenBalance, tokenExitFee));\n    _pushUnderlying(token, _factory, tokenExitFee);\n  }\n\n  /**\n   * @dev Move a record's denorm value closer to its desired denorm.\n   * Note: Does not verify that the record is bound.\n   */\n  function _updateDenorm(Record memory record, address token)\n    internal\n    returns (bool didUpdate)\n  {\n    // Don't do anything if there's no change ready.\n    if (\n      record.desiredDenorm == record.denorm ||\n      now - record.lastDenormUpdate < MIN_WEIGHT_DELAY\n    ) return false;\n    uint96 oldWeight = record.denorm;\n\n    uint256 maxDiff = bmul(oldWeight, _swapFee);\n    uint96 denorm = record.desiredDenorm;\n    // Restrict the proportional weight change to swapFee\n    // Adjust the denorm and totalWeight\n    if (denorm > oldWeight) {\n      uint256 diff = bsub(denorm, oldWeight);\n      if (oldWeight != 0 && diff > maxDiff) {\n        denorm = uint96(badd(oldWeight, maxDiff));\n        diff = maxDiff;\n      }\n      _totalWeight = badd(_totalWeight, diff);\n      require(_totalWeight <= MAX_TOTAL_WEIGHT, \"ERR_MAX_TOTAL_WEIGHT\");\n    } else {\n      uint256 diff = bsub(oldWeight, denorm);\n      if (diff > maxDiff) {\n        denorm = uint96(bsub(oldWeight, maxDiff));\n        diff = maxDiff;\n      }\n      _totalWeight = bsub(_totalWeight, diff);\n      // Don't need to verify total weight since it is decreasing\n    }\n    emit LOG_DENORM_UPDATED(token, denorm);\n    // If the new weight is 0, unbind it.\n    if (denorm == 0) {\n      _onUnbind(token);\n    } else {\n      // Update the in-memory denorm value, because it is needed in some functions\n      // the timestamp is never needed within the contract.\n      record.denorm = denorm;\n      // Update the storage record\n      _records[token].denorm = denorm;\n      _records[token].lastDenormUpdate = uint48(now);\n    }\n    return true;\n  }\n\n  /* Internal Utility Fns */\n  /**\n   * @dev Calculates the new weight for a token.\n   * This will not allow the weight to be adjusted by more than\n   * the maximum weight change, which is calculated as\n   * (totalWeight * swapFee / 2)\n  */\n  function _calcNewWeight(\n    uint96 desiredDenorm,\n    uint96 denorm\n  ) internal view returns (uint96) {\n    bool incr = desiredDenorm > denorm;\n    uint96 maxDiff = uint96(bmul(MAX_WEIGHT_CHANGE, _totalWeight));\n    uint96 realDiff = incr\n      ? uint96(bsub(desiredDenorm, denorm))\n      : uint96(bsub(denorm, desiredDenorm));\n    // difference is allowable\n    if (maxDiff > realDiff) return desiredDenorm;\n    // difference exceeds the max difference\n    return incr\n      ? uint96(badd(denorm, maxDiff))\n      : uint96(bsub(denorm, maxDiff));\n  }\n}\n\n\n/**\n * @title BPoolQueries\n * @dev Defines the BPool external query functions.\n */\ncontract BPoolQueries is BPoolBase {\n  /* <-- Meta Queries --> */\n  function isPublicSwap() external view returns (bool) {\n    return _publicSwap;\n  }\n\n  /**\n   * @dev There is no `_finalized` variable, so this returns `_publicSwap`.\n   */\n  function isFinalized() external view returns (bool) {\n    return _publicSwap;\n  }\n\n  function getSwapFee() external view _viewlock_ returns (uint256) {\n    return _swapFee;\n  }\n\n  function getController() external view _viewlock_ returns (address) {\n    return _controller;\n  }\n\n  /* <-- Token Queries --> */\n  function isBound(address t) external view returns (bool) {\n    return _records[t].bound;\n  }\n\n  function getNumTokens() external view returns (uint256) {\n    return _tokens.length;\n  }\n\n  function getCurrentTokens()\n    external\n    view\n    _viewlock_\n    returns (address[] memory tokens)\n  {\n    return _tokens;\n  }\n\n  function getDenormalizedWeight(address token)\n    external\n    view\n    _viewlock_\n    returns (uint256)\n  {\n    require(_records[token].bound, \"ERR_NOT_BOUND\");\n    return _records[token].denorm;\n  }\n\n  function getTokenRecord(address token)\n    external\n    view\n    _viewlock_\n    returns (Record memory record)\n  {\n    record = _records[token];\n    require(record.bound, \"ERR_NOT_BOUND\");\n  }\n\n  function getTotalDenormalizedWeight()\n    external\n    view\n    _viewlock_\n    returns (uint256)\n  {\n    return _totalWeight;\n  }\n\n  function getNormalizedWeight(address token)\n    external\n    view\n    _viewlock_\n    returns (uint256)\n  {\n    require(_records[token].bound, \"ERR_NOT_BOUND\");\n    uint256 denorm = _records[token].denorm;\n    return bdiv(denorm, _totalWeight);\n  }\n\n  function getBalance(address token)\n    external\n    view\n    _viewlock_\n    returns (uint256)\n  {\n    require(_records[token].bound, \"ERR_NOT_BOUND\");\n    return _records[token].balance;\n  }\n\n  /* <-- Price Queries --> */\n  function getSpotPrice(address tokenIn, address tokenOut)\n    external\n    view\n    _viewlock_\n    returns (uint256 spotPrice)\n  {\n    require(_records[tokenIn].bound, \"ERR_NOT_BOUND\");\n    require(_records[tokenOut].bound, \"ERR_NOT_BOUND\");\n    Record storage inRecord = _records[tokenIn];\n    Record storage outRecord = _records[tokenOut];\n    return\n      calcSpotPrice(\n        inRecord.balance,\n        inRecord.denorm,\n        outRecord.balance,\n        outRecord.denorm,\n        _swapFee\n      );\n  }\n\n  function getSpotPriceSansFee(address tokenIn, address tokenOut)\n    external\n    view\n    _viewlock_\n    returns (uint256 spotPrice)\n  {\n    require(_records[tokenIn].bound, \"ERR_NOT_BOUND\");\n    require(_records[tokenOut].bound, \"ERR_NOT_BOUND\");\n    Record storage inRecord = _records[tokenIn];\n    Record storage outRecord = _records[tokenOut];\n    return\n      calcSpotPrice(\n        inRecord.balance,\n        inRecord.denorm,\n        outRecord.balance,\n        outRecord.denorm,\n        0\n      );\n  }\n}\n\n\n/**\n * @title BPoolShares\n * @dev Defines the functions for joining and exiting the pool.\n */\ncontract BPoolShares is BPoolBase {\n  /* <-- Liquidity Provider Actions --> */\n  function joinPool(uint256 poolAmountOut, uint256[] calldata maxAmountsIn)\n    external\n    _logs_\n    _lock_\n  {\n    require(_publicSwap, \"ERR_JOIN_NOT_PUBLIC\");\n    uint256 poolTotal = totalSupply();\n    uint256 ratio = bdiv(poolAmountOut, poolTotal);\n    require(ratio != 0, \"ERR_MATH_APPROX\");\n\n    for (uint256 i = 0; i < _tokens.length; i++) {\n      address t = _tokens[i];\n      uint256 bal = _records[t].balance;\n      uint256 tokenAmountIn = bmul(ratio, bal);\n      require(tokenAmountIn != 0, \"ERR_MATH_APPROX\");\n      require(tokenAmountIn <= maxAmountsIn[i], \"ERR_LIMIT_IN\");\n      _records[t].balance = badd(_records[t].balance, tokenAmountIn);\n      emit LOG_JOIN(msg.sender, t, tokenAmountIn);\n      _pullUnderlying(t, msg.sender, tokenAmountIn);\n    }\n    _mintPoolShare(poolAmountOut);\n    _pushPoolShare(msg.sender, poolAmountOut);\n  }\n\n  function exitPool(uint256 poolAmountIn, uint256[] calldata minAmountsOut)\n    external\n    _logs_\n    _lock_\n  {\n    uint256 poolTotal = totalSupply();\n    uint256 exitFee = bmul(poolAmountIn, EXIT_FEE);\n    uint256 pAiAfterExitFee = bsub(poolAmountIn, exitFee);\n    uint256 ratio = bdiv(pAiAfterExitFee, poolTotal);\n    require(ratio != 0, \"ERR_MATH_APPROX\");\n\n    _pullPoolShare(msg.sender, poolAmountIn);\n    _pushPoolShare(_factory, exitFee);\n    _burnPoolShare(pAiAfterExitFee);\n\n    for (uint256 i = 0; i < _tokens.length; i++) {\n      address t = _tokens[i];\n      uint256 bal = _records[t].balance;\n      uint256 tokenAmountOut = bmul(ratio, bal);\n      require(tokenAmountOut != 0, \"ERR_MATH_APPROX\");\n      require(tokenAmountOut >= minAmountsOut[i], \"ERR_LIMIT_OUT\");\n      _records[t].balance = bsub(_records[t].balance, tokenAmountOut);\n      emit LOG_EXIT(msg.sender, t, tokenAmountOut);\n      _pushUnderlying(t, msg.sender, tokenAmountOut);\n    }\n  }\n\n  function joinswapExternAmountIn(\n    address tokenIn,\n    uint256 tokenAmountIn,\n    uint256 minPoolAmountOut\n  ) external _logs_ _lock_ returns (uint256 poolAmountOut) {\n    require(_publicSwap, \"ERR_JOIN_NOT_PUBLIC\");\n    require(_records[tokenIn].bound, \"ERR_NOT_BOUND\");\n    require(\n      tokenAmountIn <= bmul(_records[tokenIn].balance, MAX_IN_RATIO),\n      \"ERR_MAX_IN_RATIO\"\n    );\n    Record storage inRecord = _records[tokenIn];\n\n    poolAmountOut = calcPoolOutGivenSingleIn(\n      inRecord.balance,\n      inRecord.denorm,\n      _totalSupply,\n      _totalWeight,\n      tokenAmountIn,\n      _swapFee\n    );\n\n    require(poolAmountOut >= minPoolAmountOut, \"ERR_LIMIT_OUT\");\n\n    inRecord.balance = badd(inRecord.balance, tokenAmountIn);\n\n    emit LOG_JOIN(msg.sender, tokenIn, tokenAmountIn);\n\n    _mintPoolShare(poolAmountOut);\n    _pushPoolShare(msg.sender, poolAmountOut);\n    _pullUnderlying(tokenIn, msg.sender, tokenAmountIn);\n\n    return poolAmountOut;\n  }\n\n  function joinswapPoolAmountOut(\n    address tokenIn,\n    uint256 poolAmountOut,\n    uint256 maxAmountIn\n  ) external _logs_ _lock_ returns (uint256 tokenAmountIn) {\n    require(_publicSwap, \"ERR_JOIN_NOT_PUBLIC\");\n    require(_records[tokenIn].bound, \"ERR_NOT_BOUND\");\n\n    Record storage inRecord = _records[tokenIn];\n\n    tokenAmountIn = calcSingleInGivenPoolOut(\n      inRecord.balance,\n      inRecord.denorm,\n      _totalSupply,\n      _totalWeight,\n      poolAmountOut,\n      _swapFee\n    );\n\n    require(tokenAmountIn != 0, \"ERR_MATH_APPROX\");\n    require(tokenAmountIn <= maxAmountIn, \"ERR_LIMIT_IN\");\n\n    require(\n      tokenAmountIn <= bmul(_records[tokenIn].balance, MAX_IN_RATIO),\n      \"ERR_MAX_IN_RATIO\"\n    );\n\n    inRecord.balance = badd(inRecord.balance, tokenAmountIn);\n\n    emit LOG_JOIN(msg.sender, tokenIn, tokenAmountIn);\n\n    _mintPoolShare(poolAmountOut);\n    _pushPoolShare(msg.sender, poolAmountOut);\n    _pullUnderlying(tokenIn, msg.sender, tokenAmountIn);\n\n    return tokenAmountIn;\n  }\n\n  function exitswapPoolAmountIn(\n    address tokenOut,\n    uint256 poolAmountIn,\n    uint256 minAmountOut\n  ) external _logs_ _lock_ returns (uint256 tokenAmountOut) {\n    require(_records[tokenOut].bound, \"ERR_NOT_BOUND\");\n\n    Record storage outRecord = _records[tokenOut];\n\n    tokenAmountOut = calcSingleOutGivenPoolIn(\n      outRecord.balance,\n      outRecord.denorm,\n      _totalSupply,\n      _totalWeight,\n      poolAmountIn,\n      _swapFee\n    );\n\n    require(tokenAmountOut >= minAmountOut, \"ERR_LIMIT_OUT\");\n\n    require(\n      tokenAmountOut <= bmul(_records[tokenOut].balance, MAX_OUT_RATIO),\n      \"ERR_MAX_OUT_RATIO\"\n    );\n\n    outRecord.balance = bsub(outRecord.balance, tokenAmountOut);\n\n    uint256 exitFee = bmul(poolAmountIn, EXIT_FEE);\n\n    emit LOG_EXIT(msg.sender, tokenOut, tokenAmountOut);\n\n    _pullPoolShare(msg.sender, poolAmountIn);\n    _burnPoolShare(bsub(poolAmountIn, exitFee));\n    _pushPoolShare(_factory, exitFee);\n    _pushUnderlying(tokenOut, msg.sender, tokenAmountOut);\n\n    return tokenAmountOut;\n  }\n\n  function exitswapExternAmountOut(\n    address tokenOut,\n    uint256 tokenAmountOut,\n    uint256 maxPoolAmountIn\n  ) external _logs_ _lock_ returns (uint256 poolAmountIn) {\n    require(_records[tokenOut].bound, \"ERR_NOT_BOUND\");\n    require(\n      tokenAmountOut <= bmul(_records[tokenOut].balance, MAX_OUT_RATIO),\n      \"ERR_MAX_OUT_RATIO\"\n    );\n\n    Record storage outRecord = _records[tokenOut];\n\n    poolAmountIn = calcPoolInGivenSingleOut(\n      outRecord.balance,\n      outRecord.denorm,\n      _totalSupply,\n      _totalWeight,\n      tokenAmountOut,\n      _swapFee\n    );\n\n    require(poolAmountIn != 0, \"ERR_MATH_APPROX\");\n    require(poolAmountIn <= maxPoolAmountIn, \"ERR_LIMIT_IN\");\n\n    outRecord.balance = bsub(outRecord.balance, tokenAmountOut);\n\n    uint256 exitFee = bmul(poolAmountIn, EXIT_FEE);\n\n    emit LOG_EXIT(msg.sender, tokenOut, tokenAmountOut);\n\n    _pullPoolShare(msg.sender, poolAmountIn);\n    _burnPoolShare(bsub(poolAmountIn, exitFee));\n    _pushPoolShare(_factory, exitFee);\n    _pushUnderlying(tokenOut, msg.sender, tokenAmountOut);\n\n    return poolAmountIn;\n  }\n}\n\n\n/**\n * @title BPoolControls\n * @dev Defines the pool management functions.\n */\ncontract BPoolControls is BPoolShares {\n  /* <-- Configuration Actions --> */\n  function setSwapFee(uint256 swapFee) external _logs_ _lock_ {\n    require(msg.sender == _controller, \"ERR_NOT_CONTROLLER\");\n    require(swapFee >= MIN_FEE, \"ERR_MIN_FEE\");\n    require(swapFee <= MAX_FEE, \"ERR_MAX_FEE\");\n    _swapFee = swapFee;\n  }\n\n  /**\n   * @dev Public swapping is enabled as soon as tokens are bound,\n   * but this function exists in case of an emergency.\n   */\n  function setPublicSwap(bool public_) external _logs_ _lock_ {\n    require(msg.sender == _controller, \"ERR_NOT_CONTROLLER\");\n    _publicSwap = public_;\n  }\n\n  /**\n   * @dev Sets the desired weights for the pool tokens\n   * and executes the first weight adjustment.\n   */\n  function reweighTokens(\n    address[] calldata tokens,\n    uint96[] calldata desiredDenorms\n  )\n    external\n    _logs_\n    _lock_\n  {\n    require(msg.sender == _controller, \"ERR_NOT_CONTROLLER\");\n    uint256 len = tokens.length;\n    require(desiredDenorms.length == len, \"ERR_ARR_LEN\");\n    for (uint256 i = 0; i < len; i++) _setDesiredDenorm(tokens[i], desiredDenorms[i]);\n  }\n\n  /**\n   * @dev Unbinds a token from the pool.\n   * Note: Should only be used as a last resort if a token is experiencing\n   * a sudden crash or major vulnerability. Otherwise, the token should be\n   * gradually removed using `setDesiredDenorm` with desiredDenorm = 0.\n   */\n  function unbind(address token) external _logs_ _lock_ {\n    require(msg.sender == _controller, \"ERR_NOT_CONTROLLER\");\n    require(_records[token].bound, \"ERR_NOT_BOUND\");\n\n    _totalWeight = bsub(_totalWeight, _records[token].denorm);\n    _onUnbind(token);\n  }\n}\n\n\ncontract BPool is BPoolQueries, BPoolShares, BPoolControls {}",
  "sourcePath": "/home/workhorse/Indexed/indexed-subgraph/contracts/balancer/BPool.sol",
  "compiler": {
    "name": "solc",
    "version": "0.6.12+commit.27d51765.Emscripten.clang"
  },
  "schemaVersion": "3.2.4",
  "updatedAt": "2020-08-28T06:05:33.530Z",
  "devdoc": {
    "kind": "dev",
    "methods": {
      "isFinalized()": {
        "details": "There is no `_finalized` variable, so this returns `_publicSwap`."
      },
      "reweighTokens(address[],uint96[])": {
        "details": "Sets the desired weights for the pool tokens and executes the first weight adjustment."
      },
      "setPublicSwap(bool)": {
        "details": "Public swapping is enabled as soon as tokens are bound, but this function exists in case of an emergency."
      },
      "unbind(address)": {
        "details": "Unbinds a token from the pool. Note: Should only be used as a last resort if a token is experiencing a sudden crash or major vulnerability. Otherwise, the token should be gradually removed using `setDesiredDenorm` with desiredDenorm = 0."
      }
    },
    "version": 1
  },
  "userdoc": {
    "kind": "user",
    "methods": {},
    "version": 1
  }
}