{
  "contractName": "BPoolQueries",
  "abi": [
    {
      "anonymous": false,
      "inputs": [
        {
          "indexed": true,
          "internalType": "address",
          "name": "src",
          "type": "address"
        },
        {
          "indexed": true,
          "internalType": "address",
          "name": "dst",
          "type": "address"
        },
        {
          "indexed": false,
          "internalType": "uint256",
          "name": "amt",
          "type": "uint256"
        }
      ],
      "name": "Approval",
      "type": "event"
    },
    {
      "anonymous": false,
      "inputs": [
        {
          "indexed": true,
          "internalType": "bytes4",
          "name": "sig",
          "type": "bytes4"
        },
        {
          "indexed": true,
          "internalType": "address",
          "name": "caller",
          "type": "address"
        },
        {
          "indexed": false,
          "internalType": "bytes",
          "name": "data",
          "type": "bytes"
        }
      ],
      "name": "LOG_CALL",
      "type": "event"
    },
    {
      "anonymous": false,
      "inputs": [
        {
          "indexed": false,
          "internalType": "address",
          "name": "token",
          "type": "address"
        },
        {
          "indexed": false,
          "internalType": "uint256",
          "name": "newDenorm",
          "type": "uint256"
        }
      ],
      "name": "LOG_DENORM_UPDATED",
      "type": "event"
    },
    {
      "anonymous": false,
      "inputs": [
        {
          "indexed": false,
          "internalType": "address",
          "name": "token",
          "type": "address"
        },
        {
          "indexed": false,
          "internalType": "uint256",
          "name": "desiredDenorm",
          "type": "uint256"
        }
      ],
      "name": "LOG_DESIRED_DENORM_SET",
      "type": "event"
    },
    {
      "anonymous": false,
      "inputs": [
        {
          "indexed": true,
          "internalType": "address",
          "name": "caller",
          "type": "address"
        },
        {
          "indexed": true,
          "internalType": "address",
          "name": "tokenOut",
          "type": "address"
        },
        {
          "indexed": false,
          "internalType": "uint256",
          "name": "tokenAmountOut",
          "type": "uint256"
        }
      ],
      "name": "LOG_EXIT",
      "type": "event"
    },
    {
      "anonymous": false,
      "inputs": [
        {
          "indexed": true,
          "internalType": "address",
          "name": "caller",
          "type": "address"
        },
        {
          "indexed": true,
          "internalType": "address",
          "name": "tokenIn",
          "type": "address"
        },
        {
          "indexed": false,
          "internalType": "uint256",
          "name": "tokenAmountIn",
          "type": "uint256"
        }
      ],
      "name": "LOG_JOIN",
      "type": "event"
    },
    {
      "anonymous": false,
      "inputs": [
        {
          "indexed": true,
          "internalType": "address",
          "name": "caller",
          "type": "address"
        },
        {
          "indexed": true,
          "internalType": "address",
          "name": "tokenIn",
          "type": "address"
        },
        {
          "indexed": true,
          "internalType": "address",
          "name": "tokenOut",
          "type": "address"
        },
        {
          "indexed": false,
          "internalType": "uint256",
          "name": "tokenAmountIn",
          "type": "uint256"
        },
        {
          "indexed": false,
          "internalType": "uint256",
          "name": "tokenAmountOut",
          "type": "uint256"
        }
      ],
      "name": "LOG_SWAP",
      "type": "event"
    },
    {
      "anonymous": false,
      "inputs": [
        {
          "indexed": true,
          "internalType": "address",
          "name": "src",
          "type": "address"
        },
        {
          "indexed": true,
          "internalType": "address",
          "name": "dst",
          "type": "address"
        },
        {
          "indexed": false,
          "internalType": "uint256",
          "name": "amt",
          "type": "uint256"
        }
      ],
      "name": "Transfer",
      "type": "event"
    },
    {
      "inputs": [],
      "name": "BONE",
      "outputs": [
        {
          "internalType": "uint256",
          "name": "",
          "type": "uint256"
        }
      ],
      "stateMutability": "view",
      "type": "function"
    },
    {
      "inputs": [],
      "name": "BPOW_PRECISION",
      "outputs": [
        {
          "internalType": "uint256",
          "name": "",
          "type": "uint256"
        }
      ],
      "stateMutability": "view",
      "type": "function"
    },
    {
      "inputs": [],
      "name": "EXIT_FEE",
      "outputs": [
        {
          "internalType": "uint256",
          "name": "",
          "type": "uint256"
        }
      ],
      "stateMutability": "view",
      "type": "function"
    },
    {
      "inputs": [],
      "name": "INIT_POOL_SUPPLY",
      "outputs": [
        {
          "internalType": "uint256",
          "name": "",
          "type": "uint256"
        }
      ],
      "stateMutability": "view",
      "type": "function"
    },
    {
      "inputs": [],
      "name": "MAX_BOUND_TOKENS",
      "outputs": [
        {
          "internalType": "uint256",
          "name": "",
          "type": "uint256"
        }
      ],
      "stateMutability": "view",
      "type": "function"
    },
    {
      "inputs": [],
      "name": "MAX_BPOW_BASE",
      "outputs": [
        {
          "internalType": "uint256",
          "name": "",
          "type": "uint256"
        }
      ],
      "stateMutability": "view",
      "type": "function"
    },
    {
      "inputs": [],
      "name": "MAX_FEE",
      "outputs": [
        {
          "internalType": "uint256",
          "name": "",
          "type": "uint256"
        }
      ],
      "stateMutability": "view",
      "type": "function"
    },
    {
      "inputs": [],
      "name": "MAX_IN_RATIO",
      "outputs": [
        {
          "internalType": "uint256",
          "name": "",
          "type": "uint256"
        }
      ],
      "stateMutability": "view",
      "type": "function"
    },
    {
      "inputs": [],
      "name": "MAX_OUT_RATIO",
      "outputs": [
        {
          "internalType": "uint256",
          "name": "",
          "type": "uint256"
        }
      ],
      "stateMutability": "view",
      "type": "function"
    },
    {
      "inputs": [],
      "name": "MAX_TOTAL_WEIGHT",
      "outputs": [
        {
          "internalType": "uint256",
          "name": "",
          "type": "uint256"
        }
      ],
      "stateMutability": "view",
      "type": "function"
    },
    {
      "inputs": [],
      "name": "MAX_WEIGHT",
      "outputs": [
        {
          "internalType": "uint256",
          "name": "",
          "type": "uint256"
        }
      ],
      "stateMutability": "view",
      "type": "function"
    },
    {
      "inputs": [],
      "name": "MAX_WEIGHT_CHANGE",
      "outputs": [
        {
          "internalType": "uint256",
          "name": "",
          "type": "uint256"
        }
      ],
      "stateMutability": "view",
      "type": "function"
    },
    {
      "inputs": [],
      "name": "MIN_BALANCE",
      "outputs": [
        {
          "internalType": "uint256",
          "name": "",
          "type": "uint256"
        }
      ],
      "stateMutability": "view",
      "type": "function"
    },
    {
      "inputs": [],
      "name": "MIN_BOUND_TOKENS",
      "outputs": [
        {
          "internalType": "uint256",
          "name": "",
          "type": "uint256"
        }
      ],
      "stateMutability": "view",
      "type": "function"
    },
    {
      "inputs": [],
      "name": "MIN_BPOW_BASE",
      "outputs": [
        {
          "internalType": "uint256",
          "name": "",
          "type": "uint256"
        }
      ],
      "stateMutability": "view",
      "type": "function"
    },
    {
      "inputs": [],
      "name": "MIN_FEE",
      "outputs": [
        {
          "internalType": "uint256",
          "name": "",
          "type": "uint256"
        }
      ],
      "stateMutability": "view",
      "type": "function"
    },
    {
      "inputs": [],
      "name": "MIN_WEIGHT",
      "outputs": [
        {
          "internalType": "uint256",
          "name": "",
          "type": "uint256"
        }
      ],
      "stateMutability": "view",
      "type": "function"
    },
    {
      "inputs": [],
      "name": "MIN_WEIGHT_DELAY",
      "outputs": [
        {
          "internalType": "uint256",
          "name": "",
          "type": "uint256"
        }
      ],
      "stateMutability": "view",
      "type": "function"
    },
    {
      "inputs": [
        {
          "internalType": "address",
          "name": "src",
          "type": "address"
        },
        {
          "internalType": "address",
          "name": "dst",
          "type": "address"
        }
      ],
      "name": "allowance",
      "outputs": [
        {
          "internalType": "uint256",
          "name": "",
          "type": "uint256"
        }
      ],
      "stateMutability": "view",
      "type": "function"
    },
    {
      "inputs": [
        {
          "internalType": "address",
          "name": "dst",
          "type": "address"
        },
        {
          "internalType": "uint256",
          "name": "amt",
          "type": "uint256"
        }
      ],
      "name": "approve",
      "outputs": [
        {
          "internalType": "bool",
          "name": "",
          "type": "bool"
        }
      ],
      "stateMutability": "nonpayable",
      "type": "function"
    },
    {
      "inputs": [
        {
          "internalType": "address",
          "name": "whom",
          "type": "address"
        }
      ],
      "name": "balanceOf",
      "outputs": [
        {
          "internalType": "uint256",
          "name": "",
          "type": "uint256"
        }
      ],
      "stateMutability": "view",
      "type": "function"
    },
    {
      "inputs": [
        {
          "internalType": "uint256",
          "name": "tokenBalanceIn",
          "type": "uint256"
        },
        {
          "internalType": "uint256",
          "name": "tokenWeightIn",
          "type": "uint256"
        },
        {
          "internalType": "uint256",
          "name": "tokenBalanceOut",
          "type": "uint256"
        },
        {
          "internalType": "uint256",
          "name": "tokenWeightOut",
          "type": "uint256"
        },
        {
          "internalType": "uint256",
          "name": "tokenAmountOut",
          "type": "uint256"
        },
        {
          "internalType": "uint256",
          "name": "swapFee",
          "type": "uint256"
        }
      ],
      "name": "calcInGivenOut",
      "outputs": [
        {
          "internalType": "uint256",
          "name": "tokenAmountIn",
          "type": "uint256"
        }
      ],
      "stateMutability": "pure",
      "type": "function"
    },
    {
      "inputs": [
        {
          "internalType": "uint256",
          "name": "tokenBalanceIn",
          "type": "uint256"
        },
        {
          "internalType": "uint256",
          "name": "tokenWeightIn",
          "type": "uint256"
        },
        {
          "internalType": "uint256",
          "name": "tokenBalanceOut",
          "type": "uint256"
        },
        {
          "internalType": "uint256",
          "name": "tokenWeightOut",
          "type": "uint256"
        },
        {
          "internalType": "uint256",
          "name": "tokenAmountIn",
          "type": "uint256"
        },
        {
          "internalType": "uint256",
          "name": "swapFee",
          "type": "uint256"
        }
      ],
      "name": "calcOutGivenIn",
      "outputs": [
        {
          "internalType": "uint256",
          "name": "tokenAmountOut",
          "type": "uint256"
        }
      ],
      "stateMutability": "pure",
      "type": "function"
    },
    {
      "inputs": [
        {
          "internalType": "uint256",
          "name": "tokenBalanceOut",
          "type": "uint256"
        },
        {
          "internalType": "uint256",
          "name": "tokenWeightOut",
          "type": "uint256"
        },
        {
          "internalType": "uint256",
          "name": "poolSupply",
          "type": "uint256"
        },
        {
          "internalType": "uint256",
          "name": "totalWeight",
          "type": "uint256"
        },
        {
          "internalType": "uint256",
          "name": "tokenAmountOut",
          "type": "uint256"
        },
        {
          "internalType": "uint256",
          "name": "swapFee",
          "type": "uint256"
        }
      ],
      "name": "calcPoolInGivenSingleOut",
      "outputs": [
        {
          "internalType": "uint256",
          "name": "poolAmountIn",
          "type": "uint256"
        }
      ],
      "stateMutability": "pure",
      "type": "function"
    },
    {
      "inputs": [
        {
          "internalType": "uint256",
          "name": "tokenBalanceIn",
          "type": "uint256"
        },
        {
          "internalType": "uint256",
          "name": "tokenWeightIn",
          "type": "uint256"
        },
        {
          "internalType": "uint256",
          "name": "poolSupply",
          "type": "uint256"
        },
        {
          "internalType": "uint256",
          "name": "totalWeight",
          "type": "uint256"
        },
        {
          "internalType": "uint256",
          "name": "tokenAmountIn",
          "type": "uint256"
        },
        {
          "internalType": "uint256",
          "name": "swapFee",
          "type": "uint256"
        }
      ],
      "name": "calcPoolOutGivenSingleIn",
      "outputs": [
        {
          "internalType": "uint256",
          "name": "poolAmountOut",
          "type": "uint256"
        }
      ],
      "stateMutability": "pure",
      "type": "function"
    },
    {
      "inputs": [
        {
          "internalType": "uint256",
          "name": "tokenBalanceIn",
          "type": "uint256"
        },
        {
          "internalType": "uint256",
          "name": "tokenWeightIn",
          "type": "uint256"
        },
        {
          "internalType": "uint256",
          "name": "poolSupply",
          "type": "uint256"
        },
        {
          "internalType": "uint256",
          "name": "totalWeight",
          "type": "uint256"
        },
        {
          "internalType": "uint256",
          "name": "poolAmountOut",
          "type": "uint256"
        },
        {
          "internalType": "uint256",
          "name": "swapFee",
          "type": "uint256"
        }
      ],
      "name": "calcSingleInGivenPoolOut",
      "outputs": [
        {
          "internalType": "uint256",
          "name": "tokenAmountIn",
          "type": "uint256"
        }
      ],
      "stateMutability": "pure",
      "type": "function"
    },
    {
      "inputs": [
        {
          "internalType": "uint256",
          "name": "tokenBalanceOut",
          "type": "uint256"
        },
        {
          "internalType": "uint256",
          "name": "tokenWeightOut",
          "type": "uint256"
        },
        {
          "internalType": "uint256",
          "name": "poolSupply",
          "type": "uint256"
        },
        {
          "internalType": "uint256",
          "name": "totalWeight",
          "type": "uint256"
        },
        {
          "internalType": "uint256",
          "name": "poolAmountIn",
          "type": "uint256"
        },
        {
          "internalType": "uint256",
          "name": "swapFee",
          "type": "uint256"
        }
      ],
      "name": "calcSingleOutGivenPoolIn",
      "outputs": [
        {
          "internalType": "uint256",
          "name": "tokenAmountOut",
          "type": "uint256"
        }
      ],
      "stateMutability": "pure",
      "type": "function"
    },
    {
      "inputs": [
        {
          "internalType": "uint256",
          "name": "tokenBalanceIn",
          "type": "uint256"
        },
        {
          "internalType": "uint256",
          "name": "tokenWeightIn",
          "type": "uint256"
        },
        {
          "internalType": "uint256",
          "name": "tokenBalanceOut",
          "type": "uint256"
        },
        {
          "internalType": "uint256",
          "name": "tokenWeightOut",
          "type": "uint256"
        },
        {
          "internalType": "uint256",
          "name": "swapFee",
          "type": "uint256"
        }
      ],
      "name": "calcSpotPrice",
      "outputs": [
        {
          "internalType": "uint256",
          "name": "spotPrice",
          "type": "uint256"
        }
      ],
      "stateMutability": "pure",
      "type": "function"
    },
    {
      "inputs": [],
      "name": "decimals",
      "outputs": [
        {
          "internalType": "uint8",
          "name": "",
          "type": "uint8"
        }
      ],
      "stateMutability": "view",
      "type": "function"
    },
    {
      "inputs": [
        {
          "internalType": "address",
          "name": "dst",
          "type": "address"
        },
        {
          "internalType": "uint256",
          "name": "amt",
          "type": "uint256"
        }
      ],
      "name": "decreaseApproval",
      "outputs": [
        {
          "internalType": "bool",
          "name": "",
          "type": "bool"
        }
      ],
      "stateMutability": "nonpayable",
      "type": "function"
    },
    {
      "inputs": [],
      "name": "getColor",
      "outputs": [
        {
          "internalType": "bytes32",
          "name": "",
          "type": "bytes32"
        }
      ],
      "stateMutability": "view",
      "type": "function"
    },
    {
      "inputs": [
        {
          "internalType": "address",
          "name": "token",
          "type": "address"
        }
      ],
      "name": "gulp",
      "outputs": [],
      "stateMutability": "nonpayable",
      "type": "function"
    },
    {
      "inputs": [
        {
          "internalType": "address",
          "name": "dst",
          "type": "address"
        },
        {
          "internalType": "uint256",
          "name": "amt",
          "type": "uint256"
        }
      ],
      "name": "increaseApproval",
      "outputs": [
        {
          "internalType": "bool",
          "name": "",
          "type": "bool"
        }
      ],
      "stateMutability": "nonpayable",
      "type": "function"
    },
    {
      "inputs": [
        {
          "internalType": "address",
          "name": "controller",
          "type": "address"
        },
        {
          "internalType": "string",
          "name": "name",
          "type": "string"
        },
        {
          "internalType": "string",
          "name": "symbol",
          "type": "string"
        },
        {
          "internalType": "address[]",
          "name": "tokens",
          "type": "address[]"
        },
        {
          "internalType": "uint256[]",
          "name": "balances",
          "type": "uint256[]"
        },
        {
          "internalType": "uint96[]",
          "name": "denorms",
          "type": "uint96[]"
        }
      ],
      "name": "initialize",
      "outputs": [],
      "stateMutability": "nonpayable",
      "type": "function"
    },
    {
      "inputs": [],
      "name": "name",
      "outputs": [
        {
          "internalType": "string",
          "name": "",
          "type": "string"
        }
      ],
      "stateMutability": "view",
      "type": "function"
    },
    {
      "inputs": [
        {
          "internalType": "address",
          "name": "tokenIn",
          "type": "address"
        },
        {
          "internalType": "uint256",
          "name": "tokenAmountIn",
          "type": "uint256"
        },
        {
          "internalType": "address",
          "name": "tokenOut",
          "type": "address"
        },
        {
          "internalType": "uint256",
          "name": "minAmountOut",
          "type": "uint256"
        },
        {
          "internalType": "uint256",
          "name": "maxPrice",
          "type": "uint256"
        }
      ],
      "name": "swapExactAmountIn",
      "outputs": [
        {
          "internalType": "uint256",
          "name": "tokenAmountOut",
          "type": "uint256"
        },
        {
          "internalType": "uint256",
          "name": "spotPriceAfter",
          "type": "uint256"
        }
      ],
      "stateMutability": "nonpayable",
      "type": "function"
    },
    {
      "inputs": [
        {
          "internalType": "address",
          "name": "tokenIn",
          "type": "address"
        },
        {
          "internalType": "uint256",
          "name": "maxAmountIn",
          "type": "uint256"
        },
        {
          "internalType": "address",
          "name": "tokenOut",
          "type": "address"
        },
        {
          "internalType": "uint256",
          "name": "tokenAmountOut",
          "type": "uint256"
        },
        {
          "internalType": "uint256",
          "name": "maxPrice",
          "type": "uint256"
        }
      ],
      "name": "swapExactAmountOut",
      "outputs": [
        {
          "internalType": "uint256",
          "name": "tokenAmountIn",
          "type": "uint256"
        },
        {
          "internalType": "uint256",
          "name": "spotPriceAfter",
          "type": "uint256"
        }
      ],
      "stateMutability": "nonpayable",
      "type": "function"
    },
    {
      "inputs": [],
      "name": "symbol",
      "outputs": [
        {
          "internalType": "string",
          "name": "",
          "type": "string"
        }
      ],
      "stateMutability": "view",
      "type": "function"
    },
    {
      "inputs": [],
      "name": "totalSupply",
      "outputs": [
        {
          "internalType": "uint256",
          "name": "",
          "type": "uint256"
        }
      ],
      "stateMutability": "view",
      "type": "function"
    },
    {
      "inputs": [
        {
          "internalType": "address",
          "name": "dst",
          "type": "address"
        },
        {
          "internalType": "uint256",
          "name": "amt",
          "type": "uint256"
        }
      ],
      "name": "transfer",
      "outputs": [
        {
          "internalType": "bool",
          "name": "",
          "type": "bool"
        }
      ],
      "stateMutability": "nonpayable",
      "type": "function"
    },
    {
      "inputs": [
        {
          "internalType": "address",
          "name": "src",
          "type": "address"
        },
        {
          "internalType": "address",
          "name": "dst",
          "type": "address"
        },
        {
          "internalType": "uint256",
          "name": "amt",
          "type": "uint256"
        }
      ],
      "name": "transferFrom",
      "outputs": [
        {
          "internalType": "bool",
          "name": "",
          "type": "bool"
        }
      ],
      "stateMutability": "nonpayable",
      "type": "function"
    },
    {
      "inputs": [],
      "name": "isPublicSwap",
      "outputs": [
        {
          "internalType": "bool",
          "name": "",
          "type": "bool"
        }
      ],
      "stateMutability": "view",
      "type": "function"
    },
    {
      "inputs": [],
      "name": "isFinalized",
      "outputs": [
        {
          "internalType": "bool",
          "name": "",
          "type": "bool"
        }
      ],
      "stateMutability": "view",
      "type": "function"
    },
    {
      "inputs": [],
      "name": "getSwapFee",
      "outputs": [
        {
          "internalType": "uint256",
          "name": "",
          "type": "uint256"
        }
      ],
      "stateMutability": "view",
      "type": "function"
    },
    {
      "inputs": [],
      "name": "getController",
      "outputs": [
        {
          "internalType": "address",
          "name": "",
          "type": "address"
        }
      ],
      "stateMutability": "view",
      "type": "function"
    },
    {
      "inputs": [
        {
          "internalType": "address",
          "name": "t",
          "type": "address"
        }
      ],
      "name": "isBound",
      "outputs": [
        {
          "internalType": "bool",
          "name": "",
          "type": "bool"
        }
      ],
      "stateMutability": "view",
      "type": "function"
    },
    {
      "inputs": [],
      "name": "getNumTokens",
      "outputs": [
        {
          "internalType": "uint256",
          "name": "",
          "type": "uint256"
        }
      ],
      "stateMutability": "view",
      "type": "function"
    },
    {
      "inputs": [],
      "name": "getCurrentTokens",
      "outputs": [
        {
          "internalType": "address[]",
          "name": "tokens",
          "type": "address[]"
        }
      ],
      "stateMutability": "view",
      "type": "function"
    },
    {
      "inputs": [
        {
          "internalType": "address",
          "name": "token",
          "type": "address"
        }
      ],
      "name": "getDenormalizedWeight",
      "outputs": [
        {
          "internalType": "uint256",
          "name": "",
          "type": "uint256"
        }
      ],
      "stateMutability": "view",
      "type": "function"
    },
    {
      "inputs": [
        {
          "internalType": "address",
          "name": "token",
          "type": "address"
        }
      ],
      "name": "getTokenRecord",
      "outputs": [
        {
          "components": [
            {
              "internalType": "bool",
              "name": "bound",
              "type": "bool"
            },
            {
              "internalType": "uint48",
              "name": "lastDenormUpdate",
              "type": "uint48"
            },
            {
              "internalType": "uint96",
              "name": "denorm",
              "type": "uint96"
            },
            {
              "internalType": "uint96",
              "name": "desiredDenorm",
              "type": "uint96"
            },
            {
              "internalType": "uint8",
              "name": "index",
              "type": "uint8"
            },
            {
              "internalType": "uint256",
              "name": "balance",
              "type": "uint256"
            }
          ],
          "internalType": "struct BPoolBase.Record",
          "name": "record",
          "type": "tuple"
        }
      ],
      "stateMutability": "view",
      "type": "function"
    },
    {
      "inputs": [],
      "name": "getTotalDenormalizedWeight",
      "outputs": [
        {
          "internalType": "uint256",
          "name": "",
          "type": "uint256"
        }
      ],
      "stateMutability": "view",
      "type": "function"
    },
    {
      "inputs": [
        {
          "internalType": "address",
          "name": "token",
          "type": "address"
        }
      ],
      "name": "getNormalizedWeight",
      "outputs": [
        {
          "internalType": "uint256",
          "name": "",
          "type": "uint256"
        }
      ],
      "stateMutability": "view",
      "type": "function"
    },
    {
      "inputs": [
        {
          "internalType": "address",
          "name": "token",
          "type": "address"
        }
      ],
      "name": "getBalance",
      "outputs": [
        {
          "internalType": "uint256",
          "name": "",
          "type": "uint256"
        }
      ],
      "stateMutability": "view",
      "type": "function"
    },
    {
      "inputs": [
        {
          "internalType": "address",
          "name": "tokenIn",
          "type": "address"
        },
        {
          "internalType": "address",
          "name": "tokenOut",
          "type": "address"
        }
      ],
      "name": "getSpotPrice",
      "outputs": [
        {
          "internalType": "uint256",
          "name": "spotPrice",
          "type": "uint256"
        }
      ],
      "stateMutability": "view",
      "type": "function"
    },
    {
      "inputs": [
        {
          "internalType": "address",
          "name": "tokenIn",
          "type": "address"
        },
        {
          "internalType": "address",
          "name": "tokenOut",
          "type": "address"
        }
      ],
      "name": "getSpotPriceSansFee",
      "outputs": [
        {
          "internalType": "uint256",
          "name": "spotPrice",
          "type": "uint256"
        }
      ],
      "stateMutability": "view",
      "type": "function"
    }
  ],
  "bytecode": "0x60806040526005805460ff1916601217905534801561001d57600080fd5b50613be28061002d6000396000f3fe608060405234801561001057600080fd5b506004361061035d5760003560e01c8063936c3477116101d3578063c36596a611610104578063dd62ed3e116100a2578063f1b8a9b71161007c578063f1b8a9b714610650578063f8b2cb4f14610663578063f8d6aed414610676578063fde924f7146105495761035d565b8063dd62ed3e14610635578063e4a28a52146103a0578063ec093021146106485761035d565b8063cc77828d116100de578063cc77828d146105fd578063cd2ed8fb14610612578063d4cadf681461061a578063d73dd623146106225761035d565b8063c36596a6146103eb578063c458bfd0146105ed578063c6580d12146105f55761035d565b8063a9059cbb11610171578063ba019dab1161014b578063ba019dab146105c2578063ba9530a6146105ca578063bc063e1a146105dd578063bc694ea2146105e55761035d565b8063a9059cbb1461059f578063b0e0d136146105b2578063b7b800a4146105ba5761035d565b806395d89b41116101ad57806395d89b4114610574578063992e2a921461057c5780639a86139b14610584578063a221ee491461058c5761035d565b8063936c3477146105515780639381cd2b14610559578063948d8ce6146105615761035d565b80633ded8cf0116102ad5780638201aa3f1161024b578063867378c511610225578063867378c51461051b57806389298012146105235780638c28cbe8146105365780638d4e4083146105495761035d565b80638201aa3f146104e257806382f652ad146104f55780638656b653146105085761035d565b80636618846311610287578063661884631461049357806370a08231146104a657806376c7a3c7146104b95780637c5e9ea4146104c15761035d565b80633ded8cf01461044b5780635c1bbaf71461046057806364c7d661146104735761035d565b8063189d00ca1161031a5780632f37b624116102f45780632f37b624146104065780633018205f14610419578063313ce5671461042e578063396e181d146104435761035d565b8063189d00ca146103e3578063218b5382146103eb57806323b872dd146103f35761035d565b806306fdde0314610362578063095ea7b31461038057806309a3bbe4146103a05780631446a7ff146103b557806315e84af9146103c857806318160ddd146103db575b600080fd5b61036a610689565b60405161037791906135b8565b60405180910390f35b61039361038e366004613361565b61071f565b6040516103779190613575565b6103a8610778565b6040516103779190613580565b6103a86103c33660046131eb565b610785565b6103a86103d63660046131eb565b610888565b6103a8610979565b6103a861097f565b6103a8610993565b61039361040136600461321f565b61099f565b6103936104143660046131d0565b610ad0565b610421610af2565b60405161037791906134b5565b610436610b2d565b6040516103779190613b69565b6103a8610b36565b61045e61045936600461325f565b610b3c565b005b6103a861046e36600461344c565b610fc1565b6104866104813660046131d0565b611079565b6040516103779190613afb565b6103936104a1366004613361565b611149565b6103a86104b43660046131d0565b611212565b6103a861122d565b6104d46104cf36600461338b565b61123f565b604051610377929190613b5b565b6104d46104f036600461338b565b6116df565b6103a861050336600461344c565b611bcc565b6103a861051636600461344c565b611c8b565b6103a8611d2c565b6103a861053136600461344c565b611d40565b61045e6105443660046131d0565b611df0565b610393611f60565b6103a8611f70565b6103a8611fa2565b6103a861056f3660046131d0565b611faf565b61036a61203e565b6103a861209f565b6103a86120ab565b6103a861059a366004613412565b6120b8565b6103936105ad366004613361565b61211d565b6103a8612133565b6103a8612138565b6103a861213d565b6103a86105d836600461344c565b612142565b6103a86121c3565b6103a86121d3565b6103a86121df565b6103a86121ef565b6106056121f4565b6040516103779190613528565b6103a861227e565b6103a8612284565b610393610630366004613361565b6122b6565b6103a86106433660046131eb565b61232a565b6103a8612355565b6103a861065e3660046131d0565b612365565b6103a86106713660046131d0565b612408565b6103a861068436600461344c565b61248a565b60038054604080516020601f60026000196101006001881615020190951694909404938401819004810282018101909252828152606093909290918301828280156107155780601f106106ea57610100808354040283529160200191610715565b820191906000526020600020905b8154815290600101906020018083116106f857829003601f168201915b5050505050905090565b3360008181526001602090815260408083206001600160a01b03871680855292528083208590555191929091600080516020613b8d83398151915290610766908690613580565b60405180910390a35060015b92915050565b6802b5e3af16b188000081565b600554600090610100900460ff16156107b95760405162461bcd60e51b81526004016107b090613832565b60405180910390fd5b6001600160a01b03831660009081526009602052604090205460ff166107f15760405162461bcd60e51b81526004016107b090613882565b6001600160a01b03821660009081526009602052604090205460ff166108295760405162461bcd60e51b81526004016107b090613882565b6001600160a01b03808416600090815260096020526040808220928516825281206001808401548454918301548354939461087f9492936001600160601b03600160381b918290048116949190910416906120b8565b95945050505050565b600554600090610100900460ff16156108b35760405162461bcd60e51b81526004016107b090613832565b6001600160a01b03831660009081526009602052604090205460ff166108eb5760405162461bcd60e51b81526004016107b090613882565b6001600160a01b03821660009081526009602052604090205460ff166109235760405162461bcd60e51b81526004016107b090613882565b6001600160a01b0380841660009081526009602052604080822092851682529020600180830154835491830154835460075461087f946001600160601b03600160381b91829004811694939190910416906120b8565b60025490565b6402540be400670de0b6b3a76400005b0481565b670de0b6b3a764000081565b6000336001600160a01b03851614806109db57506001600160a01b03841660009081526001602090815260408083203384529091529020548211155b6109f75760405162461bcd60e51b81526004016107b0906137ad565b610a0284848461250d565b336001600160a01b03851614801590610a4057506001600160a01b038416600090815260016020908152604080832033845290915290205460001914155b15610ac6576001600160a01b0384166000908152600160209081526040808320338452909152902054610a7390836125f6565b6001600160a01b038581166000908152600160209081526040808320338085529252918290208490559051918616929091600080516020613b8d83398151915291610abd91613580565b60405180910390a35b5060019392505050565b6001600160a01b03811660009081526009602052604090205460ff165b919050565b600554600090610100900460ff1615610b1d5760405162461bcd60e51b81526004016107b090613832565b506006546001600160a01b031690565b60055460ff1690565b610e1081565b6006546001600160a01b0316158015610b5d57506001600160a01b038b1615155b610b795760405162461bcd60e51b81526004016107b09061375a565b600680546001600160a01b0319166001600160a01b038d161790556005805462010000600160b01b0319163362010000021790556028670de0b6b3a764000004600755604080516020601f8c018190048102820181019092528a8152610c2d918c908c908190840183828082843760009201919091525050604080516020601f8e018190048102820181019092528c815292508c91508b908190840183828082843760009201919091525061262f92505050565b846002811015610c4f5760405162461bcd60e51b81526004016107b090613aa3565b6008811115610c705760405162461bcd60e51b81526004016107b09061360b565b8381148015610c7e57508181145b610c9a5760405162461bcd60e51b81526004016107b090613928565b6000805b82811015610f4b576000898983818110610cb457fe5b9050602002016020810190610cc991906131d0565b90506000868684818110610cd957fe5b9050602002016020810190610cee919061348e565b90506000898985818110610cfe57fe5b905060200201359050670de0b6b3a7640000826001600160601b03161015610d385760405162461bcd60e51b81526004016107b0906138d6565b6802b5e3af16b18800006001600160601b0383161115610d6a5760405162461bcd60e51b81526004016107b090613686565b620f4240811015610d8d5760405162461bcd60e51b81526004016107b090613703565b6040518060c001604052806001151581526020014265ffffffffffff168152602001836001600160601b03168152602001836001600160601b0316815260200160088054905060ff1681526020018281525060096000856001600160a01b03166001600160a01b0316815260200190815260200160002060008201518160000160006101000a81548160ff02191690831515021790555060208201518160000160016101000a81548165ffffffffffff021916908365ffffffffffff16021790555060408201518160000160076101000a8154816001600160601b0302191690836001600160601b0316021790555060608201518160000160136101000a8154816001600160601b0302191690836001600160601b03160217905550608082015181600001601f6101000a81548160ff021916908360ff16021790555060a082015181600101559050506008839080600181540180825580915050600190039060005260206000200160009091909190916101000a8154816001600160a01b0302191690836001600160a01b03160217905550610f3385836001600160601b03166126a6565b9450610f408333836126cb565b505050600101610c9e565b506802b5e3af16b1880000811115610f755760405162461bcd60e51b81526004016107b0906136ae565b600b8190556006805460ff60a01b1916600160a01b179055610f9f68056bc75e2d63100000612775565b610fb23368056bc75e2d63100000612781565b50505050505050505050505050565b600080610fce878661278f565b90506000610fdc87866126a6565b90506000610fea828961278f565b90506000611000670de0b6b3a76400008561278f565b9050600061100e838361282e565b9050600061101c828e6128e1565b9050600061102a828f6125f6565b90506000611049611043670de0b6b3a76400008a6125f6565b8b6128e1565b905061106682611061670de0b6b3a7640000846125f6565b61278f565b9f9e505050505050505050505050505050565b61108161306f565b600554610100900460ff16156110a95760405162461bcd60e51b81526004016107b090613832565b506001600160a01b038116600090815260096020908152604091829020825160c081018452815460ff808216151580845265ffffffffffff610100840416958401959095526001600160601b03600160381b8304811696840196909652600160981b82049095166060830152600160f81b900490931660808401526001015460a0830152610aed5760405162461bcd60e51b81526004016107b090613882565b3360009081526001602090815260408083206001600160a01b03861684529091528120548083111561119e573360009081526001602090815260408083206001600160a01b03881684529091528120556111cd565b6111a881846125f6565b3360009081526001602090815260408083206001600160a01b03891684529091529020555b3360008181526001602090815260408083206001600160a01b038916808552925291829020549151909291600080516020613b8d83398151915291610abd9190613580565b6001600160a01b031660009081526020819052604090205490565b620f4240670de0b6b3a764000061098f565b600080336001600160a01b03166000356001600160e01b0319166001600160e01b0319167f25fce1fe01d9b241fda40b2152ddd6f4ba063fcfb3c2c81dddf84ee20d3f341f600036604051611295929190613589565b60405180910390a3600554610100900460ff16156112c55760405162461bcd60e51b81526004016107b090613832565b6005805461ff0019166101001790556001600160a01b03871660009081526009602052604090205460ff1661130c5760405162461bcd60e51b81526004016107b090613882565b6001600160a01b03851660009081526009602052604090205460ff166113445760405162461bcd60e51b81526004016107b090613882565b600654600160a01b900460ff1661136d5760405162461bcd60e51b81526004016107b09061399c565b61137561306f565b506001600160a01b038716600090815260096020908152604091829020825160c081018452815460ff8082161515835265ffffffffffff610100830416948301949094526001600160601b03600160381b8204811695830195909552600160981b81049094166060820152600160f81b90930490911660808301526001015460a082015261140161306f565b506001600160a01b038616600090815260096020908152604091829020825160c081018452815460ff8082161515835265ffffffffffff610100830416948301949094526001600160601b03600160381b8204811695830195909552600160981b81049094166060820152600160f81b90930490911660808301526001015460a08201819052611499906704a03ce68d2155566128e1565b8611156114b85760405162461bcd60e51b81526004016107b090613857565b60006114eb8360a0015184604001516001600160601b03168460a0015185604001516001600160601b03166007546120b8565b90508581111561150d5760405162461bcd60e51b81526004016107b0906138a9565b61153f8360a0015184604001516001600160601b03168460a0015185604001516001600160601b03168b60075461248a565b9450888511156115615760405162461bcd60e51b81526004016107b0906137dc565b61156f8360a00151866126a6565b60a08085018290526001600160a01b038c166000908152600960205260409020600101919091558201516115a390886125f6565b60a083018190526001600160a01b0389166000908152600960205260409020600101556115d0838b612953565b506115db8289612953565b5061160d8360a0015184604001516001600160601b03168460a0015185604001516001600160601b03166007546120b8565b93508584111561162f5760405162461bcd60e51b81526004016107b09061394d565b611639858861278f565b8111156116585760405162461bcd60e51b81526004016107b09061365d565b876001600160a01b03168a6001600160a01b0316336001600160a01b03167f908fb5ee8f16c6bc9bc3690973819f32a4d4b10188134543c88706e0e1d43378888b6040516116a7929190613b5b565b60405180910390a46116ba8a33876126cb565b6116c5883389612b7e565b5050506005805461ff001916905590969095509350505050565b600080336001600160a01b03166000356001600160e01b0319166001600160e01b0319167f25fce1fe01d9b241fda40b2152ddd6f4ba063fcfb3c2c81dddf84ee20d3f341f600036604051611735929190613589565b60405180910390a3600554610100900460ff16156117655760405162461bcd60e51b81526004016107b090613832565b6005805461ff0019166101001790556001600160a01b03871660009081526009602052604090205460ff166117ac5760405162461bcd60e51b81526004016107b090613882565b6001600160a01b03851660009081526009602052604090205460ff166117e45760405162461bcd60e51b81526004016107b090613882565b600654600160a01b900460ff1661180d5760405162461bcd60e51b81526004016107b09061399c565b6001600160a01b0385166000908152600a6020526040902054156118435760405162461bcd60e51b81526004016107b0906139f8565b61184b61306f565b506001600160a01b038716600090815260096020908152604091829020825160c081018452815460ff8082161515835265ffffffffffff610100830416948301949094526001600160601b03600160381b8204811695830195909552600160981b81049094166060820152600160f81b90930490911660808301526001015460a08201526118d761306f565b506001600160a01b038087166000908152600960209081526040808320815160c081018352815460ff8082161515835265ffffffffffff610100830416838701526001600160601b03600160381b8304811684870152600160981b8304166060840152600160f81b90910416608082015260019091015460a0820152938c168352600a909152902054806119a4576119858360a001516002670de0b6b3a76400008161197f57fe5b046128e1565b8911156119a45760405162461bcd60e51b81526004016107b090613633565b60006119d78460a0015185604001516001600160601b03168560a0015186604001516001600160601b03166007546120b8565b9050868111156119f95760405162461bcd60e51b81526004016107b0906138a9565b611a2b8460a0015185604001516001600160601b03168560a0015186604001516001600160601b03168e600754612142565b955087861015611a4d5760405162461bcd60e51b81526004016107b0906136dc565b611a5b8460a001518b6126a6565b60a08086018290526001600160a01b038d16600090815260096020526040902060010191909155830151611a8f90876125f6565b60a084018190526001600160a01b038a16600090815260096020526040902060010155611abc848c612953565b50611ac7838a612953565b50611af98460a0015185604001516001600160601b03168560a0015186604001516001600160601b03166007546120b8565b945086851115611b1b5760405162461bcd60e51b81526004016107b09061394d565b611b258a8761278f565b811115611b445760405162461bcd60e51b81526004016107b09061365d565b886001600160a01b03168b6001600160a01b0316336001600160a01b03167f908fb5ee8f16c6bc9bc3690973819f32a4d4b10188134543c88706e0e1d433788d8a604051611b93929190613b5b565b60405180910390a4611ba68b338c6126cb565b611bb1893388612b7e565b505050506005805461ff001916905590969095509350505050565b600080611bd9878661278f565b90506000611bef670de0b6b3a7640000836125f6565b90506000611bfd82866128e1565b90506000611c1787611061670de0b6b3a7640000856125f6565b90506000611c258c836125f6565b90506000611c33828e61278f565b90506000611c41828861282e565b90506000611c4f828e6128e1565b90506000611c5d8e836125f6565b9050611c7681611061670de0b6b3a764000060006125f6565b99505050505050505050509695505050505050565b600080611c98878661278f565b90506000611cb7611cb1670de0b6b3a7640000846125f6565b856128e1565b90506000611cd686611cd1670de0b6b3a7640000856125f6565b6128e1565b90506000611ce48b836126a6565b90506000611cf2828d61278f565b90506000611d00828761282e565b90506000611d0e828d6128e1565b9050611d1a818d6125f6565b9e9d5050505050505050505050505050565b64e8d4a51000670de0b6b3a764000061098f565b600080611d4d878661278f565b90506000611d6885611cd1670de0b6b3a764000060006125f6565b90506000611d7688836125f6565b90506000611d84828a61278f565b90506000611da382611d9e670de0b6b3a76400008861278f565b61282e565b90506000611db1828e6128e1565b90506000611dbf8e836125f6565b90506000611dd8611043670de0b6b3a76400008a6125f6565b905061106682611cd1670de0b6b3a7640000846125f6565b336001600160a01b03166000356001600160e01b0319166001600160e01b0319167f25fce1fe01d9b241fda40b2152ddd6f4ba063fcfb3c2c81dddf84ee20d3f341f600036604051611e43929190613589565b60405180910390a3600554610100900460ff1615611e735760405162461bcd60e51b81526004016107b090613832565b6005805461ff0019166101001790556001600160a01b03811660009081526009602052604090205460ff16611eba5760405162461bcd60e51b81526004016107b090613882565b6040516370a0823160e01b81526001600160a01b038216906370a0823190611ee69030906004016134b5565b60206040518083038186803b158015611efe57600080fd5b505afa158015611f12573d6000803e3d6000fd5b505050506040513d601f19601f82011682018060405250810190611f3691906133fa565b6001600160a01b039091166000908152600960205260409020600101556005805461ff0019169055565b600654600160a01b900460ff1690565b600554600090610100900460ff1615611f9b5760405162461bcd60e51b81526004016107b090613832565b50600b5490565b68056bc75e2d6310000081565b600554600090610100900460ff1615611fda5760405162461bcd60e51b81526004016107b090613832565b6001600160a01b03821660009081526009602052604090205460ff166120125760405162461bcd60e51b81526004016107b090613882565b506001600160a01b0316600090815260096020526040902054600160381b90046001600160601b031690565b60048054604080516020601f60026000196101006001881615020190951694909404938401819004810282018101909252828152606093909290918301828280156107155780601f106106ea57610100808354040283529160200191610715565b6704a03ce68d21555681565b6542524f4e5a4560d01b90565b6000806120c5878761278f565b905060006120d3868661278f565b905060006120e1838361278f565b90506000612103670de0b6b3a7640000611061670de0b6b3a7640000896125f6565b905061210f82826128e1565b9a9950505050505050505050565b600061212a33848461250d565b50600192915050565b600881565b600281565b600181565b60008061214f878661278f565b90506000612165670de0b6b3a7640000856125f6565b905061217185826128e1565b905060006121838a6110618c856126a6565b90506000612191828561282e565b905060006121a7670de0b6b3a7640000836125f6565b90506121b38a826128e1565b9c9b505050505050505050505050565b600a670de0b6b3a764000061098f565b671bc16d674ec7ffff81565b6050670de0b6b3a764000061098f565b600081565b600554606090610100900460ff161561221f5760405162461bcd60e51b81526004016107b090613832565b600880548060200260200160405190810160405280929190818152602001828054801561071557602002820191906000526020600020905b81546001600160a01b03168152600190910190602001808311612257575050505050905090565b60085490565b600554600090610100900460ff16156122af5760405162461bcd60e51b81526004016107b090613832565b5060075490565b3360009081526001602090815260408083206001600160a01b03861684529091528120546122e490836126a6565b3360008181526001602090815260408083206001600160a01b03891680855292529182902084905590519092600080516020613b8d833981519152916107669190613580565b6001600160a01b03918216600090815260016020908152604080832093909416825291909152205490565b6002670de0b6b3a764000061098f565b600554600090610100900460ff16156123905760405162461bcd60e51b81526004016107b090613832565b6001600160a01b03821660009081526009602052604090205460ff166123c85760405162461bcd60e51b81526004016107b090613882565b6001600160a01b038216600090815260096020526040902054600b54600160381b9091046001600160601b03169061240190829061278f565b9392505050565b600554600090610100900460ff16156124335760405162461bcd60e51b81526004016107b090613832565b6001600160a01b03821660009081526009602052604090205460ff1661246b5760405162461bcd60e51b81526004016107b090613882565b506001600160a01b031660009081526009602052604090206001015490565b600080612497858861278f565b905060006124a587866125f6565b905060006124b3888361278f565b905060006124c1828561282e565b90506124d581670de0b6b3a76400006125f6565b90506124e9670de0b6b3a7640000876125f6565b94506124fe6124f88c836128e1565b8661278f565b9b9a5050505050505050505050565b6001600160a01b0383166000908152602081905260409020548111156125455760405162461bcd60e51b81526004016107b09061372c565b6001600160a01b03831660009081526020819052604090205461256890826125f6565b6001600160a01b03808516600090815260208190526040808220939093559084168152205461259790826126a6565b6001600160a01b0380841660008181526020819052604090819020939093559151908516907fddf252ad1be2c89b69c2b068fc378daa952ba7f163c4a11628f55a4df523b3ef906125e9908590613580565b60405180910390a3505050565b60008060006126058585612baf565b9150915080156126275760405162461bcd60e51b81526004016107b090613a4e565b509392505050565b600354600260001961010060018416150201909116041580156126525750815115155b801561265e5750805115155b61267a5760405162461bcd60e51b81526004016107b090613802565b815161268d9060039060208501906130a4565b5080516126a19060049060208401906130a4565b505050565b6000828201838110156124015760405162461bcd60e51b81526004016107b090613a79565b6040516323b872dd60e01b81526000906001600160a01b038516906323b872dd906126fe908690309087906004016134c9565b602060405180830381600087803b15801561271857600080fd5b505af115801561272c573d6000803e3d6000fd5b505050506040513d601f19601f8201168201806040525081019061275091906133da565b90508061276f5760405162461bcd60e51b81526004016107b090613a25565b50505050565b61277e81612bd4565b50565b61278b8282612c4e565b5050565b6000816127ae5760405162461bcd60e51b81526004016107b090613976565b670de0b6b3a764000083028315806127d65750670de0b6b3a76400008482816127d357fe5b04145b6127f25760405162461bcd60e51b81526004016107b090613783565b600283048101818110156128185760405162461bcd60e51b81526004016107b090613783565b600084828161282357fe5b049695505050505050565b600060018310156128515760405162461bcd60e51b81526004016107b0906139c9565b671bc16d674ec7ffff8311156128795760405162461bcd60e51b81526004016107b090613acb565b600061288483612c59565b9050600061289284836125f6565b905060006128a8866128a385612c74565b612c82565b9050816128b9579250610772915050565b60006128ca87846305f5e100612cd9565b90506128d682826128e1565b979650505050505050565b60008282028315806128fb5750828482816128f857fe5b04145b6129175760405162461bcd60e51b81526004016107b0906138fe565b6706f05b59d3b200008101818110156129425760405162461bcd60e51b81526004016107b0906138fe565b6000670de0b6b3a764000082612823565b600082604001516001600160601b031683606001516001600160601b0316148061298c5750610e10836020015165ffffffffffff164203105b1561299957506000610772565b60008360400151905060006129b9826001600160601b03166007546128e1565b60608601519091506001600160601b038084169082161115612a695760006129f3826001600160601b0316856001600160601b03166125f6565b90506001600160601b03841615801590612a0c57508281115b15612a2a57612a24846001600160601b0316846126a6565b91508290505b612a36600b54826126a6565b600b8190556802b5e3af16b18800001015612a635760405162461bcd60e51b81526004016107b0906136ae565b50612abb565b6000612a87846001600160601b0316836001600160601b03166125f6565b905082811115612aaa57612aa4846001600160601b0316846125f6565b91508290505b612ab6600b54826125f6565b600b55505b7f21b12aed5d425f5675450ffeeae01039085e5323974c3099e1828155d9b51e778582604051612aec929190613506565b60405180910390a16001600160601b038116612b1057612b0b85612db7565b612b72565b6001600160601b03811660408781018290526001600160a01b038716600090815260096020522080546bffffffffffffffffffffffff60381b1916600160381b9092029190911766ffffffffffff0019166101004265ffffffffffff16021790555b50600195945050505050565b60405163a9059cbb60e01b81526000906001600160a01b0385169063a9059cbb906126fe90869086906004016134ed565b600080828410612bc55750508082036000612bcd565b505081810360015b9250929050565b30600090815260208190526040902054612bee90826126a6565b30600090815260208190526040902055600254612c0b90826126a6565b60025560405130906000907fddf252ad1be2c89b69c2b068fc378daa952ba7f163c4a11628f55a4df523b3ef90612c43908590613580565b60405180910390a350565b61278b30838361250d565b6000670de0b6b3a7640000612c6d83612c74565b0292915050565b670de0b6b3a7640000900490565b60008060028306612c9b57670de0b6b3a7640000612c9d565b835b90506002830492505b821561240157612cb684856128e1565b93506002830615612cce57612ccb81856128e1565b90505b600283049250612ca6565b6000828180612cf087670de0b6b3a7640000612baf565b9092509050670de0b6b3a764000080600060015b888410612da8576000670de0b6b3a764000082029050600080612d388a612d3385670de0b6b3a76400006125f6565b612baf565b91509150612d4a87611cd1848c6128e1565b9650612d56878461278f565b965086612d6557505050612da8565b8715612d6f579315935b8015612d79579315935b8415612d9057612d8986886125f6565b9550612d9d565b612d9a86886126a6565b95505b505050600101612d04565b50909998505050505050505050565b612dbf61306f565b506001600160a01b0381166000908152600960209081526040808320815160c081018352815460ff8082161515835265ffffffffffff610100830416958301959095526001600160601b03600160381b8204811694830194909452600160981b81049093166060820152600160f81b909204909216608082015260019091015460a082018190529091612e5282826128e1565b608084015160085491925060ff169060001901808214612f235760088181548110612e7957fe5b600091825260209091200154600880546001600160a01b039092169184908110612e9f57fe5b9060005260206000200160006101000a8154816001600160a01b0302191690836001600160a01b03160217905550816009600060088581548110612edf57fe5b60009182526020808320909101546001600160a01b031683528201929092526040019020805460ff92909216600160f81b026001600160f81b039092169190911790555b6008805480612f2e57fe5b60008281526020808220600019908401810180546001600160a01b03191690559092019092556040805160c081018252838152808301848152818301858152606083018681526080840187815260a085018881526001600160a01b038f16895260099097529490962092518354925191519651945160ff199093169015151766ffffffffffff00191661010065ffffffffffff90921691909102176bffffffffffffffffffffffff60381b1916600160381b6001600160601b0396871602176bffffffffffffffffffffffff60981b1916600160981b9590931694909402919091176001600160f81b0316600160f81b60ff909416939093029290921782555160019190910155613049863361304487876125f6565b612b7e565b6005546130679087906201000090046001600160a01b031685612b7e565b505050505050565b6040805160c081018252600080825260208201819052918101829052606081018290526080810182905260a081019190915290565b828054600181600116156101000203166002900490600052602060002090601f016020900481019282601f106130e557805160ff1916838001178555613112565b82800160010185558215613112579182015b828111156131125782518255916020019190600101906130f7565b5061311e929150613122565b5090565b5b8082111561311e5760008155600101613123565b80356001600160a01b038116811461077257600080fd5b60008083601f84011261315f578182fd5b50813567ffffffffffffffff811115613176578182fd5b6020830191508360208083028501011115612bcd57600080fd5b60008083601f8401126131a1578182fd5b50813567ffffffffffffffff8111156131b8578182fd5b602083019150836020828501011115612bcd57600080fd5b6000602082840312156131e1578081fd5b6124018383613137565b600080604083850312156131fd578081fd5b6132078484613137565b91506132168460208501613137565b90509250929050565b600080600060608486031215613233578081fd5b833561323e81613b77565b9250602084013561324e81613b77565b929592945050506040919091013590565b600080600080600080600080600080600060c08c8e03121561327f578687fd5b6132898d8d613137565b9a5067ffffffffffffffff8060208e013511156132a4578788fd5b6132b48e60208f01358f01613190565b909b50995060408d01358110156132c9578788fd5b6132d98e60408f01358f01613190565b909950975060608d01358110156132ee578687fd5b6132fe8e60608f01358f0161314e565b909750955060808d0135811015613313578485fd5b6133238e60808f01358f0161314e565b909550935060a08d0135811015613338578283fd5b506133498d60a08e01358e0161314e565b81935080925050509295989b509295989b9093969950565b60008060408385031215613373578182fd5b61337d8484613137565b946020939093013593505050565b600080600080600060a086880312156133a2578081fd5b6133ac8787613137565b9450602086013593506133c28760408801613137565b94979396509394606081013594506080013592915050565b6000602082840312156133eb578081fd5b81518015158114612401578182fd5b60006020828403121561340b578081fd5b5051919050565b600080600080600060a08688031215613429578081fd5b505083359560208501359550604085013594606081013594506080013592509050565b60008060008060008060c08789031215613464578182fd5b505084359660208601359650604086013595606081013595506080810135945060a0013592509050565b60006020828403121561349f578081fd5b81356001600160601b0381168114612401578182fd5b6001600160a01b0391909116815260200190565b6001600160a01b039384168152919092166020820152604081019190915260600190565b6001600160a01b03929092168252602082015260400190565b6001600160a01b039290921682526001600160601b0316602082015260400190565b6020808252825182820181905260009190848201906040850190845b818110156135695783516001600160a01b031683529284019291840191600101613544565b50909695505050505050565b901515815260200190565b90815260200190565b60006020825282602083015282846040840137818301604090810191909152601f909201601f19160101919050565b6000602080835283518082850152825b818110156135e4578581018301518582016040015282016135c8565b818111156135f55783604083870101525b50601f01601f1916929092016040019392505050565b6020808252600e908201526d4552525f4d41585f544f4b454e5360901b604082015260600190565b60208082526010908201526f4552525f4d41585f494e5f524154494f60801b604082015260600190565b6020808252600f908201526e08aa4a4be9a82a890be82a0a0a49eb608b1b604082015260600190565b6020808252600e908201526d11549497d3505617d5d15251d21560921b604082015260600190565b60208082526014908201527311549497d3505617d513d5105317d5d15251d21560621b604082015260600190565b6020808252600d908201526c11549497d31253525517d3d555609a1b604082015260600190565b6020808252600f908201526e4552525f4d494e5f42414c414e434560881b604082015260600190565b60208082526014908201527311549497d25394d551919250d251539517d0905360621b604082015260600190565b6020808252600f908201526e11549497d253925512505312569151608a1b604082015260600190565b60208082526010908201526f11549497d1125597d25395115493905360821b604082015260600190565b60208082526015908201527422a9292fa12a27a5a2a72fa120a22fa1a0a62622a960591b604082015260600190565b6020808252600c908201526b22a9292fa624a6a4aa2fa4a760a11b604082015260600190565b60208082526016908201527511549497d09513d2d15397d25392551250531256915160521b604082015260600190565b6020808252600b908201526a4552525f5245454e54525960a81b604082015260600190565b6020808252601190820152704552525f4d41585f4f55545f524154494f60781b604082015260600190565b6020808252600d908201526c11549497d393d517d093d55391609a1b604082015260600190565b6020808252601390820152724552525f4241445f4c494d49545f505249434560681b604082015260600190565b6020808252600e908201526d11549497d3525397d5d15251d21560921b604082015260600190565b60208082526010908201526f4552525f4d554c5f4f564552464c4f5760801b604082015260600190565b6020808252600b908201526a22a9292fa0a9292fa622a760a91b604082015260600190565b6020808252600f908201526e4552525f4c494d49545f505249434560881b604082015260600190565b6020808252600c908201526b4552525f4449565f5a45524f60a01b604082015260600190565b6020808252601390820152724552525f535741505f4e4f545f5055424c494360681b604082015260600190565b6020808252601590820152744552525f42504f575f424153455f544f4f5f4c4f5760581b604082015260600190565b6020808252601390820152724552525f544f4b454e5f4e4f545f524541445960681b604082015260600190565b6020808252600f908201526e4552525f45524332305f46414c534560881b604082015260600190565b6020808252601190820152704552525f5355425f554e444552464c4f5760781b604082015260600190565b60208082526010908201526f4552525f4144445f4f564552464c4f5760801b604082015260600190565b6020808252600e908201526d4552525f4d494e5f544f4b454e5360901b604082015260600190565b60208082526016908201527508aa4a4be84a09eaebe8482a68abea89e9ebe90928e960531b604082015260600190565b600060c08201905082511515825265ffffffffffff602084015116602083015260408301516001600160601b038082166040850152806060860151166060850152505060ff608084015116608083015260a083015160a083015292915050565b918252602082015260400190565b60ff91909116815260200190565b6001600160a01b038116811461277e57600080fdfe8c5be1e5ebec7d5bd14f71427d1e84f3dd0314c0f7b2291e5b200ac8c7c3b925a2646970667358221220b2f027f466f66aad516a2345644449a55e29386d9008eebf80f1ed7d028e46e664736f6c634300060c0033",
  "immutableReferences": {},
  "source": "// SPDX-License-Identifier: GPL-3.0-or-later\npragma solidity ^0.6.0;\npragma experimental ABIEncoderV2;\n\n\nimport \"./BToken.sol\";\nimport \"./BMath.sol\";\n\n\n/**\n * @title BPoolBase\n * @dev Defines the data structures, storage, events and initializer\n * for the BPool contract.\n */\ncontract BPoolBase is BBronze, BToken, BMath {\n  /**\n   * @dev Token record data structure\n   * @param bound is token bound to pool\n   * @param lastDenormUpdate timestamp of last weight change\n   * @param denorm denormalized weight\n   * @param desiredDenorm desired denormalized weight (used for incremental changes)\n   * @param index index of address in tokens array\n   * @param balance token balance\n   */\n  struct Record {\n    bool bound;\n    uint48 lastDenormUpdate;\n    uint96 denorm;\n    uint96 desiredDenorm;\n    uint8 index;\n    uint256 balance;\n  }\n\n  event LOG_SWAP(\n    address indexed caller,\n    address indexed tokenIn,\n    address indexed tokenOut,\n    uint256 tokenAmountIn,\n    uint256 tokenAmountOut\n  );\n\n  event LOG_JOIN(\n    address indexed caller,\n    address indexed tokenIn,\n    uint256 tokenAmountIn\n  );\n\n  event LOG_EXIT(\n    address indexed caller,\n    address indexed tokenOut,\n    uint256 tokenAmountOut\n  );\n\n  event LOG_CALL(bytes4 indexed sig, address indexed caller, bytes data);\n\n  event LOG_DENORM_UPDATED(address token, uint256 newDenorm);\n  event LOG_DESIRED_DENORM_SET(address token, uint256 desiredDenorm);\n\n  modifier _logs_() {\n    emit LOG_CALL(msg.sig, msg.sender, msg.data);\n    _;\n  }\n\n  modifier _lock_() {\n    require(!_mutex, \"ERR_REENTRY\");\n    _mutex = true;\n    _;\n    _mutex = false;\n  }\n\n  modifier _viewlock_() {\n    require(!_mutex, \"ERR_REENTRY\");\n    _;\n  }\n\n  bool internal _mutex;\n\n  address internal _factory; // BFactory address to push token exitFee to\n  address internal _controller; // has CONTROL role\n\n  // `setPublicSwap` requires CONTROL\n  // `bindInitial` sets _publicSwap to true\n  bool internal _publicSwap; // true if PUBLIC can call SWAP functions\n\n  // `setSwapFee` requires CONTROL\n  uint256 internal _swapFee;\n\n  address[] internal _tokens;\n  mapping(address => Record) internal _records;\n  // Target balance for a token which does not yet have a sufficient\n  // balance to be traded\n  mapping(address => uint256) internal _targetBalances;\n  // Total denormalized weight\n  uint256 internal _totalWeight;\n\n  function initialize(\n    address controller,\n    string calldata name,\n    string calldata symbol,\n    address[] calldata tokens,\n    uint256[] calldata balances,\n    uint96[] calldata denorms\n  )\n    external\n  {\n    require(\n      _controller == address(0) &&\n      controller != address(0),\n      \"ERR_INITIALIZED\"\n    );\n    _controller = controller;\n    _factory = msg.sender;\n    // default fee is 2.5%\n    _swapFee = BONE / 40;\n    _initializeToken(name, symbol);\n    uint256 len = tokens.length;\n    require(len >= MIN_BOUND_TOKENS, \"ERR_MIN_TOKENS\");\n    require(len <= MAX_BOUND_TOKENS, \"ERR_MAX_TOKENS\");\n    require(\n      balances.length == len &&\n      denorms.length == len,\n      \"ERR_ARR_LEN\"\n    );\n    uint256 totalWeight = 0;\n    for (uint256 i = 0; i < len; i++) {\n      // _bind(tokens[i], balances[i], denorms[i]);\n      address token = tokens[i];\n      uint96 denorm = denorms[i];\n      uint256 balance = balances[i];\n      require(denorm >= MIN_WEIGHT, \"ERR_MIN_WEIGHT\");\n      require(denorm <= MAX_WEIGHT, \"ERR_MAX_WEIGHT\");\n      require(balance >= MIN_BALANCE, \"ERR_MIN_BALANCE\");\n      _records[token] = Record({\n        bound: true,\n        lastDenormUpdate: uint48(now),\n        denorm: denorm,\n        desiredDenorm: denorm,\n        index: uint8(_tokens.length),\n        balance: balance\n      });\n      _tokens.push(token);\n      totalWeight = badd(totalWeight, denorm);\n      _pullUnderlying(token, msg.sender, balance);\n    }\n    require(totalWeight <= MAX_TOTAL_WEIGHT, \"ERR_MAX_TOTAL_WEIGHT\");\n    _totalWeight = totalWeight;\n    _publicSwap = true;\n    _mintPoolShare(INIT_POOL_SUPPLY);\n    _pushPoolShare(msg.sender, INIT_POOL_SUPPLY);\n  }\n\n  // Absorb any tokens that have been sent to this contract into the pool\n  function gulp(address token) external _logs_ _lock_ {\n    require(_records[token].bound, \"ERR_NOT_BOUND\");\n    _records[token].balance = IERC20(token).balanceOf(address(this));\n  }\n\n  /* <-- Swap Actions --> */\n  function swapExactAmountIn(\n    address tokenIn,\n    uint256 tokenAmountIn,\n    address tokenOut,\n    uint256 minAmountOut,\n    uint256 maxPrice\n  )\n    external\n    _logs_\n    _lock_\n    returns (uint256 tokenAmountOut, uint256 spotPriceAfter)\n  {\n    require(_records[tokenIn].bound, \"ERR_NOT_BOUND\");\n    require(_records[tokenOut].bound, \"ERR_NOT_BOUND\");\n    require(_publicSwap, \"ERR_SWAP_NOT_PUBLIC\");\n    require(_targetBalances[tokenOut] == 0, \"ERR_TOKEN_NOT_READY\");\n\n    Record memory inRecord = _records[address(tokenIn)];\n    Record memory outRecord = _records[address(tokenOut)];\n    uint256 targetBalance = _targetBalances[tokenIn];\n    if (targetBalance == 0) {\n      require(\n        tokenAmountIn <= bmul(inRecord.balance, MAX_IN_RATIO),\n        \"ERR_MAX_IN_RATIO\"\n      );\n    }\n    uint256 spotPriceBefore = calcSpotPrice(\n      inRecord.balance,\n      inRecord.denorm,\n      outRecord.balance,\n      outRecord.denorm,\n      _swapFee\n    );\n    require(spotPriceBefore <= maxPrice, \"ERR_BAD_LIMIT_PRICE\");\n\n    tokenAmountOut = calcOutGivenIn(\n      inRecord.balance,\n      inRecord.denorm,\n      outRecord.balance,\n      outRecord.denorm,\n      tokenAmountIn,\n      _swapFee\n    );\n    require(tokenAmountOut >= minAmountOut, \"ERR_LIMIT_OUT\");\n    // Update the in-memory record for the spotPriceAfter calculation,\n    // then update the storage record with the local balance.\n    inRecord.balance = badd(inRecord.balance, tokenAmountIn);\n    _records[address(tokenIn)].balance = inRecord.balance;\n    outRecord.balance = bsub(outRecord.balance, tokenAmountOut);\n    _records[address(tokenOut)].balance = outRecord.balance;\n\n    _updateDenorm(inRecord, address(tokenIn));\n    _updateDenorm(outRecord, address(tokenOut));\n\n    spotPriceAfter = calcSpotPrice(\n      inRecord.balance,\n      inRecord.denorm,\n      outRecord.balance,\n      outRecord.denorm,\n      _swapFee\n    );\n    // Only validate the resulting spot price if the weights did not change.\n    // require(didUpdate || spotPriceAfter >= spotPriceBefore, \"ERR_MATH_APPROX\");\n    require(spotPriceAfter <= maxPrice, \"ERR_LIMIT_PRICE\");\n    require(\n      spotPriceBefore <= bdiv(tokenAmountIn, tokenAmountOut),\n      \"ERR_MATH_APPROX\"\n    );\n\n    emit LOG_SWAP(msg.sender, tokenIn, tokenOut, tokenAmountIn, tokenAmountOut);\n\n    _pullUnderlying(tokenIn, msg.sender, tokenAmountIn);\n    _pushUnderlying(tokenOut, msg.sender, tokenAmountOut);\n\n    return (tokenAmountOut, spotPriceAfter);\n  }\n\n  function swapExactAmountOut(\n    address tokenIn,\n    uint256 maxAmountIn,\n    address tokenOut,\n    uint256 tokenAmountOut,\n    uint256 maxPrice\n  )\n    external\n    _logs_\n    _lock_\n    returns (uint256 tokenAmountIn, uint256 spotPriceAfter)\n  {\n    require(_records[tokenIn].bound, \"ERR_NOT_BOUND\");\n    require(_records[tokenOut].bound, \"ERR_NOT_BOUND\");\n    require(_publicSwap, \"ERR_SWAP_NOT_PUBLIC\");\n\n    Record memory inRecord = _records[address(tokenIn)];\n    Record memory outRecord = _records[address(tokenOut)];\n\n    require(\n      tokenAmountOut <= bmul(outRecord.balance, MAX_OUT_RATIO),\n      \"ERR_MAX_OUT_RATIO\"\n    );\n\n    uint256 spotPriceBefore = calcSpotPrice(\n      inRecord.balance,\n      inRecord.denorm,\n      outRecord.balance,\n      outRecord.denorm,\n      _swapFee\n    );\n    require(spotPriceBefore <= maxPrice, \"ERR_BAD_LIMIT_PRICE\");\n\n    tokenAmountIn = calcInGivenOut(\n      inRecord.balance,\n      inRecord.denorm,\n      outRecord.balance,\n      outRecord.denorm,\n      tokenAmountOut,\n      _swapFee\n    );\n    require(tokenAmountIn <= maxAmountIn, \"ERR_LIMIT_IN\");\n\n    // Update the in-memory record for the spotPriceAfter calculation,\n    // then update the storage record with the local balance.\n    inRecord.balance = badd(inRecord.balance, tokenAmountIn);\n    _records[address(tokenIn)].balance = inRecord.balance;\n    outRecord.balance = bsub(outRecord.balance, tokenAmountOut);\n    _records[address(tokenOut)].balance = outRecord.balance;\n\n    _updateDenorm(inRecord, address(tokenIn));\n    _updateDenorm(outRecord, address(tokenOut));\n\n    spotPriceAfter = calcSpotPrice(\n      inRecord.balance,\n      inRecord.denorm,\n      outRecord.balance,\n      outRecord.denorm,\n      _swapFee\n    );\n    // Only validate the resulting spot price if the weights did not change.\n    // require(didUpdate || spotPriceAfter >= spotPriceBefore, \"ERR_MATH_APPROX\");\n    require(spotPriceAfter <= maxPrice, \"ERR_LIMIT_PRICE\");\n    require(\n      spotPriceBefore <= bdiv(tokenAmountIn, tokenAmountOut),\n      \"ERR_MATH_APPROX\"\n    );\n\n    emit LOG_SWAP(msg.sender, tokenIn, tokenOut, tokenAmountIn, tokenAmountOut);\n\n    _pullUnderlying(tokenIn, msg.sender, tokenAmountIn);\n    _pushUnderlying(tokenOut, msg.sender, tokenAmountOut);\n\n    return (tokenAmountIn, spotPriceAfter);\n  }\n\n  /* <-- Pool Share Internal Functions --> */\n  function _pullPoolShare(address from, uint256 amount) internal {\n    _pull(from, amount);\n  }\n\n  function _pushPoolShare(address to, uint256 amount) internal {\n    _push(to, amount);\n  }\n\n  function _mintPoolShare(uint256 amount) internal {\n    _mint(amount);\n  }\n\n  function _burnPoolShare(uint256 amount) internal {\n    _burn(amount);\n  }\n\n  /* <-- Underlying Token Internal Functions --> */\n  // 'Underlying' token-manipulation functions make external calls but are NOT locked\n  // You must `_lock_` or otherwise ensure reentry-safety\n\n  function _pullUnderlying(\n    address erc20,\n    address from,\n    uint256 amount\n  ) internal {\n    bool xfer = IERC20(erc20).transferFrom(from, address(this), amount);\n    require(xfer, \"ERR_ERC20_FALSE\");\n  }\n\n  function _pushUnderlying(\n    address erc20,\n    address to,\n    uint256 amount\n  ) internal {\n    bool xfer = IERC20(erc20).transfer(to, amount);\n    require(xfer, \"ERR_ERC20_FALSE\");\n  }\n\n  /* <-- Token Binding Internal Functions --> */\n  /**\n   * @dev Directly bind a token by address.\n   * Note: Token must not already be bound.\n   * Note: `balance` must be a valid balance and denorm must be a valid denormalized weight.\n   * Note: `balance` should match the weight which will immediately be set, i.e. max()\n   */\n  function _bind(\n    address token,\n    uint256 balance,\n    uint96 denorm\n  ) internal {\n    require(!_records[token].bound, \"ERR_IS_BOUND\");\n\n    require(denorm >= MIN_WEIGHT, \"ERR_MIN_WEIGHT\");\n    require(denorm <= MAX_WEIGHT, \"ERR_MAX_WEIGHT\");\n    require(balance >= MIN_BALANCE, \"ERR_MIN_BALANCE\");\n\n    require(_tokens.length < MAX_BOUND_TOKENS, \"ERR_MAX_TOKENS\");\n    _records[token] = Record({\n      bound: true,\n      lastDenormUpdate: uint48(now),\n      denorm: denorm,\n      desiredDenorm: denorm,\n      index: uint8(_tokens.length),\n      balance: balance\n    });\n    _tokens.push(token);\n    uint256 totalWeight = badd(_totalWeight, denorm);\n    require(totalWeight <= MAX_TOTAL_WEIGHT, \"ERR_MAX_TOTAL_WEIGHT\");\n    _totalWeight = totalWeight;\n    _pullUnderlying(token, msg.sender, balance);\n  }\n\n  function _setDesiredDenorm(address token, uint96 desiredDenorm) internal {\n    Record memory record = _records[token];\n    require(record.bound, \"ERR_NOT_BOUND\");\n    // If the desired weight is 0, this will trigger a gradual unbinding of the token.\n    // Therefore the weight only needs to be greater than the minimum weight if it isn't 0.\n    require(desiredDenorm >= MIN_WEIGHT || desiredDenorm == 0, \"ERR_MIN_WEIGHT\");\n    require(desiredDenorm <= MAX_WEIGHT, \"ERR_MAX_WEIGHT\");\n    record.desiredDenorm = desiredDenorm;\n    _records[token].desiredDenorm = desiredDenorm;\n    emit LOG_DESIRED_DENORM_SET(token, desiredDenorm);\n    _updateDenorm(record, token);\n  }\n\n  /**\n   * @dev Executes the logic to remove a token:\n   * Replaces the address in the tokens array with the last address,\n   * then removes it from the array.\n   * Note: This should only be called after the total weight has been adjusted.\n   * Note: Must be called in a function with:\n   * - _lock_ modifier to prevent reentrance\n   * - requirement that the token is bound\n   */\n  function _onUnbind(address token) internal {\n    Record memory record = _records[token];\n    uint256 tokenBalance = record.balance;\n    uint256 tokenExitFee = bmul(tokenBalance, EXIT_FEE);\n\n    // Swap the token-to-unbind with the last token,\n    // then delete the last token\n    uint256 index = record.index;\n    uint256 last = _tokens.length - 1;\n    // Only swap the token with the last token if it is not\n    // already at the end of the array.\n    if (index != last) {\n      _tokens[index] = _tokens[last];\n      _records[_tokens[index]].index = uint8(index);\n    }\n    _tokens.pop();\n    _records[token] = Record({\n      bound: false,\n      lastDenormUpdate: 0,\n      denorm: 0,\n      desiredDenorm: 0,\n      index: 0,\n      balance: 0\n    });\n    // transfer any remaining tokens out\n    _pushUnderlying(token, msg.sender, bsub(tokenBalance, tokenExitFee));\n    _pushUnderlying(token, _factory, tokenExitFee);\n  }\n\n  /**\n   * @dev Move a record's denorm value closer to its desired denorm.\n   * Note: Does not verify that the record is bound.\n   */\n  function _updateDenorm(Record memory record, address token)\n    internal\n    returns (bool didUpdate)\n  {\n    // Don't do anything if there's no change ready.\n    if (\n      record.desiredDenorm == record.denorm ||\n      now - record.lastDenormUpdate < MIN_WEIGHT_DELAY\n    ) return false;\n    uint96 oldWeight = record.denorm;\n\n    uint256 maxDiff = bmul(oldWeight, _swapFee);\n    uint96 denorm = record.desiredDenorm;\n    // Restrict the proportional weight change to swapFee\n    // Adjust the denorm and totalWeight\n    if (denorm > oldWeight) {\n      uint256 diff = bsub(denorm, oldWeight);\n      if (oldWeight != 0 && diff > maxDiff) {\n        denorm = uint96(badd(oldWeight, maxDiff));\n        diff = maxDiff;\n      }\n      _totalWeight = badd(_totalWeight, diff);\n      require(_totalWeight <= MAX_TOTAL_WEIGHT, \"ERR_MAX_TOTAL_WEIGHT\");\n    } else {\n      uint256 diff = bsub(oldWeight, denorm);\n      if (diff > maxDiff) {\n        denorm = uint96(bsub(oldWeight, maxDiff));\n        diff = maxDiff;\n      }\n      _totalWeight = bsub(_totalWeight, diff);\n      // Don't need to verify total weight since it is decreasing\n    }\n    emit LOG_DENORM_UPDATED(token, denorm);\n    // If the new weight is 0, unbind it.\n    if (denorm == 0) {\n      _onUnbind(token);\n    } else {\n      // Update the in-memory denorm value, because it is needed in some functions\n      // the timestamp is never needed within the contract.\n      record.denorm = denorm;\n      // Update the storage record\n      _records[token].denorm = denorm;\n      _records[token].lastDenormUpdate = uint48(now);\n    }\n    return true;\n  }\n\n  /* Internal Utility Fns */\n  /**\n   * @dev Calculates the new weight for a token.\n   * This will not allow the weight to be adjusted by more than\n   * the maximum weight change, which is calculated as\n   * (totalWeight * swapFee / 2)\n  */\n  function _calcNewWeight(\n    uint96 desiredDenorm,\n    uint96 denorm\n  ) internal view returns (uint96) {\n    bool incr = desiredDenorm > denorm;\n    uint96 maxDiff = uint96(bmul(MAX_WEIGHT_CHANGE, _totalWeight));\n    uint96 realDiff = incr\n      ? uint96(bsub(desiredDenorm, denorm))\n      : uint96(bsub(denorm, desiredDenorm));\n    // difference is allowable\n    if (maxDiff > realDiff) return desiredDenorm;\n    // difference exceeds the max difference\n    return incr\n      ? uint96(badd(denorm, maxDiff))\n      : uint96(bsub(denorm, maxDiff));\n  }\n}\n\n\n/**\n * @title BPoolQueries\n * @dev Defines the BPool external query functions.\n */\ncontract BPoolQueries is BPoolBase {\n  /* <-- Meta Queries --> */\n  function isPublicSwap() external view returns (bool) {\n    return _publicSwap;\n  }\n\n  /**\n   * @dev There is no `_finalized` variable, so this returns `_publicSwap`.\n   */\n  function isFinalized() external view returns (bool) {\n    return _publicSwap;\n  }\n\n  function getSwapFee() external view _viewlock_ returns (uint256) {\n    return _swapFee;\n  }\n\n  function getController() external view _viewlock_ returns (address) {\n    return _controller;\n  }\n\n  /* <-- Token Queries --> */\n  function isBound(address t) external view returns (bool) {\n    return _records[t].bound;\n  }\n\n  function getNumTokens() external view returns (uint256) {\n    return _tokens.length;\n  }\n\n  function getCurrentTokens()\n    external\n    view\n    _viewlock_\n    returns (address[] memory tokens)\n  {\n    return _tokens;\n  }\n\n  function getDenormalizedWeight(address token)\n    external\n    view\n    _viewlock_\n    returns (uint256)\n  {\n    require(_records[token].bound, \"ERR_NOT_BOUND\");\n    return _records[token].denorm;\n  }\n\n  function getTokenRecord(address token)\n    external\n    view\n    _viewlock_\n    returns (Record memory record)\n  {\n    record = _records[token];\n    require(record.bound, \"ERR_NOT_BOUND\");\n  }\n\n  function getTotalDenormalizedWeight()\n    external\n    view\n    _viewlock_\n    returns (uint256)\n  {\n    return _totalWeight;\n  }\n\n  function getNormalizedWeight(address token)\n    external\n    view\n    _viewlock_\n    returns (uint256)\n  {\n    require(_records[token].bound, \"ERR_NOT_BOUND\");\n    uint256 denorm = _records[token].denorm;\n    return bdiv(denorm, _totalWeight);\n  }\n\n  function getBalance(address token)\n    external\n    view\n    _viewlock_\n    returns (uint256)\n  {\n    require(_records[token].bound, \"ERR_NOT_BOUND\");\n    return _records[token].balance;\n  }\n\n  /* <-- Price Queries --> */\n  function getSpotPrice(address tokenIn, address tokenOut)\n    external\n    view\n    _viewlock_\n    returns (uint256 spotPrice)\n  {\n    require(_records[tokenIn].bound, \"ERR_NOT_BOUND\");\n    require(_records[tokenOut].bound, \"ERR_NOT_BOUND\");\n    Record storage inRecord = _records[tokenIn];\n    Record storage outRecord = _records[tokenOut];\n    return\n      calcSpotPrice(\n        inRecord.balance,\n        inRecord.denorm,\n        outRecord.balance,\n        outRecord.denorm,\n        _swapFee\n      );\n  }\n\n  function getSpotPriceSansFee(address tokenIn, address tokenOut)\n    external\n    view\n    _viewlock_\n    returns (uint256 spotPrice)\n  {\n    require(_records[tokenIn].bound, \"ERR_NOT_BOUND\");\n    require(_records[tokenOut].bound, \"ERR_NOT_BOUND\");\n    Record storage inRecord = _records[tokenIn];\n    Record storage outRecord = _records[tokenOut];\n    return\n      calcSpotPrice(\n        inRecord.balance,\n        inRecord.denorm,\n        outRecord.balance,\n        outRecord.denorm,\n        0\n      );\n  }\n}\n\n\n/**\n * @title BPoolShares\n * @dev Defines the functions for joining and exiting the pool.\n */\ncontract BPoolShares is BPoolBase {\n  /* <-- Liquidity Provider Actions --> */\n  function joinPool(uint256 poolAmountOut, uint256[] calldata maxAmountsIn)\n    external\n    _logs_\n    _lock_\n  {\n    require(_publicSwap, \"ERR_JOIN_NOT_PUBLIC\");\n    uint256 poolTotal = totalSupply();\n    uint256 ratio = bdiv(poolAmountOut, poolTotal);\n    require(ratio != 0, \"ERR_MATH_APPROX\");\n\n    for (uint256 i = 0; i < _tokens.length; i++) {\n      address t = _tokens[i];\n      uint256 bal = _records[t].balance;\n      uint256 tokenAmountIn = bmul(ratio, bal);\n      require(tokenAmountIn != 0, \"ERR_MATH_APPROX\");\n      require(tokenAmountIn <= maxAmountsIn[i], \"ERR_LIMIT_IN\");\n      _records[t].balance = badd(_records[t].balance, tokenAmountIn);\n      emit LOG_JOIN(msg.sender, t, tokenAmountIn);\n      _pullUnderlying(t, msg.sender, tokenAmountIn);\n    }\n    _mintPoolShare(poolAmountOut);\n    _pushPoolShare(msg.sender, poolAmountOut);\n  }\n\n  function exitPool(uint256 poolAmountIn, uint256[] calldata minAmountsOut)\n    external\n    _logs_\n    _lock_\n  {\n    uint256 poolTotal = totalSupply();\n    uint256 exitFee = bmul(poolAmountIn, EXIT_FEE);\n    uint256 pAiAfterExitFee = bsub(poolAmountIn, exitFee);\n    uint256 ratio = bdiv(pAiAfterExitFee, poolTotal);\n    require(ratio != 0, \"ERR_MATH_APPROX\");\n\n    _pullPoolShare(msg.sender, poolAmountIn);\n    _pushPoolShare(_factory, exitFee);\n    _burnPoolShare(pAiAfterExitFee);\n\n    for (uint256 i = 0; i < _tokens.length; i++) {\n      address t = _tokens[i];\n      uint256 bal = _records[t].balance;\n      uint256 tokenAmountOut = bmul(ratio, bal);\n      require(tokenAmountOut != 0, \"ERR_MATH_APPROX\");\n      require(tokenAmountOut >= minAmountsOut[i], \"ERR_LIMIT_OUT\");\n      _records[t].balance = bsub(_records[t].balance, tokenAmountOut);\n      emit LOG_EXIT(msg.sender, t, tokenAmountOut);\n      _pushUnderlying(t, msg.sender, tokenAmountOut);\n    }\n  }\n\n  function joinswapExternAmountIn(\n    address tokenIn,\n    uint256 tokenAmountIn,\n    uint256 minPoolAmountOut\n  ) external _logs_ _lock_ returns (uint256 poolAmountOut) {\n    require(_publicSwap, \"ERR_JOIN_NOT_PUBLIC\");\n    require(_records[tokenIn].bound, \"ERR_NOT_BOUND\");\n    require(\n      tokenAmountIn <= bmul(_records[tokenIn].balance, MAX_IN_RATIO),\n      \"ERR_MAX_IN_RATIO\"\n    );\n    Record storage inRecord = _records[tokenIn];\n\n    poolAmountOut = calcPoolOutGivenSingleIn(\n      inRecord.balance,\n      inRecord.denorm,\n      _totalSupply,\n      _totalWeight,\n      tokenAmountIn,\n      _swapFee\n    );\n\n    require(poolAmountOut >= minPoolAmountOut, \"ERR_LIMIT_OUT\");\n\n    inRecord.balance = badd(inRecord.balance, tokenAmountIn);\n\n    emit LOG_JOIN(msg.sender, tokenIn, tokenAmountIn);\n\n    _mintPoolShare(poolAmountOut);\n    _pushPoolShare(msg.sender, poolAmountOut);\n    _pullUnderlying(tokenIn, msg.sender, tokenAmountIn);\n\n    return poolAmountOut;\n  }\n\n  function joinswapPoolAmountOut(\n    address tokenIn,\n    uint256 poolAmountOut,\n    uint256 maxAmountIn\n  ) external _logs_ _lock_ returns (uint256 tokenAmountIn) {\n    require(_publicSwap, \"ERR_JOIN_NOT_PUBLIC\");\n    require(_records[tokenIn].bound, \"ERR_NOT_BOUND\");\n\n    Record storage inRecord = _records[tokenIn];\n\n    tokenAmountIn = calcSingleInGivenPoolOut(\n      inRecord.balance,\n      inRecord.denorm,\n      _totalSupply,\n      _totalWeight,\n      poolAmountOut,\n      _swapFee\n    );\n\n    require(tokenAmountIn != 0, \"ERR_MATH_APPROX\");\n    require(tokenAmountIn <= maxAmountIn, \"ERR_LIMIT_IN\");\n\n    require(\n      tokenAmountIn <= bmul(_records[tokenIn].balance, MAX_IN_RATIO),\n      \"ERR_MAX_IN_RATIO\"\n    );\n\n    inRecord.balance = badd(inRecord.balance, tokenAmountIn);\n\n    emit LOG_JOIN(msg.sender, tokenIn, tokenAmountIn);\n\n    _mintPoolShare(poolAmountOut);\n    _pushPoolShare(msg.sender, poolAmountOut);\n    _pullUnderlying(tokenIn, msg.sender, tokenAmountIn);\n\n    return tokenAmountIn;\n  }\n\n  function exitswapPoolAmountIn(\n    address tokenOut,\n    uint256 poolAmountIn,\n    uint256 minAmountOut\n  ) external _logs_ _lock_ returns (uint256 tokenAmountOut) {\n    require(_records[tokenOut].bound, \"ERR_NOT_BOUND\");\n\n    Record storage outRecord = _records[tokenOut];\n\n    tokenAmountOut = calcSingleOutGivenPoolIn(\n      outRecord.balance,\n      outRecord.denorm,\n      _totalSupply,\n      _totalWeight,\n      poolAmountIn,\n      _swapFee\n    );\n\n    require(tokenAmountOut >= minAmountOut, \"ERR_LIMIT_OUT\");\n\n    require(\n      tokenAmountOut <= bmul(_records[tokenOut].balance, MAX_OUT_RATIO),\n      \"ERR_MAX_OUT_RATIO\"\n    );\n\n    outRecord.balance = bsub(outRecord.balance, tokenAmountOut);\n\n    uint256 exitFee = bmul(poolAmountIn, EXIT_FEE);\n\n    emit LOG_EXIT(msg.sender, tokenOut, tokenAmountOut);\n\n    _pullPoolShare(msg.sender, poolAmountIn);\n    _burnPoolShare(bsub(poolAmountIn, exitFee));\n    _pushPoolShare(_factory, exitFee);\n    _pushUnderlying(tokenOut, msg.sender, tokenAmountOut);\n\n    return tokenAmountOut;\n  }\n\n  function exitswapExternAmountOut(\n    address tokenOut,\n    uint256 tokenAmountOut,\n    uint256 maxPoolAmountIn\n  ) external _logs_ _lock_ returns (uint256 poolAmountIn) {\n    require(_records[tokenOut].bound, \"ERR_NOT_BOUND\");\n    require(\n      tokenAmountOut <= bmul(_records[tokenOut].balance, MAX_OUT_RATIO),\n      \"ERR_MAX_OUT_RATIO\"\n    );\n\n    Record storage outRecord = _records[tokenOut];\n\n    poolAmountIn = calcPoolInGivenSingleOut(\n      outRecord.balance,\n      outRecord.denorm,\n      _totalSupply,\n      _totalWeight,\n      tokenAmountOut,\n      _swapFee\n    );\n\n    require(poolAmountIn != 0, \"ERR_MATH_APPROX\");\n    require(poolAmountIn <= maxPoolAmountIn, \"ERR_LIMIT_IN\");\n\n    outRecord.balance = bsub(outRecord.balance, tokenAmountOut);\n\n    uint256 exitFee = bmul(poolAmountIn, EXIT_FEE);\n\n    emit LOG_EXIT(msg.sender, tokenOut, tokenAmountOut);\n\n    _pullPoolShare(msg.sender, poolAmountIn);\n    _burnPoolShare(bsub(poolAmountIn, exitFee));\n    _pushPoolShare(_factory, exitFee);\n    _pushUnderlying(tokenOut, msg.sender, tokenAmountOut);\n\n    return poolAmountIn;\n  }\n}\n\n\n/**\n * @title BPoolControls\n * @dev Defines the pool management functions.\n */\ncontract BPoolControls is BPoolShares {\n  /* <-- Configuration Actions --> */\n  function setSwapFee(uint256 swapFee) external _logs_ _lock_ {\n    require(msg.sender == _controller, \"ERR_NOT_CONTROLLER\");\n    require(swapFee >= MIN_FEE, \"ERR_MIN_FEE\");\n    require(swapFee <= MAX_FEE, \"ERR_MAX_FEE\");\n    _swapFee = swapFee;\n  }\n\n  /**\n   * @dev Public swapping is enabled as soon as tokens are bound,\n   * but this function exists in case of an emergency.\n   */\n  function setPublicSwap(bool public_) external _logs_ _lock_ {\n    require(msg.sender == _controller, \"ERR_NOT_CONTROLLER\");\n    _publicSwap = public_;\n  }\n\n  /**\n   * @dev Sets the desired weights for the pool tokens\n   * and executes the first weight adjustment.\n   */\n  function reweighTokens(\n    address[] calldata tokens,\n    uint96[] calldata desiredDenorms\n  )\n    external\n    _logs_\n    _lock_\n  {\n    require(msg.sender == _controller, \"ERR_NOT_CONTROLLER\");\n    uint256 len = tokens.length;\n    require(desiredDenorms.length == len, \"ERR_ARR_LEN\");\n    for (uint256 i = 0; i < len; i++) _setDesiredDenorm(tokens[i], desiredDenorms[i]);\n  }\n\n  /**\n   * @dev Unbinds a token from the pool.\n   * Note: Should only be used as a last resort if a token is experiencing\n   * a sudden crash or major vulnerability. Otherwise, the token should be\n   * gradually removed using `setDesiredDenorm` with desiredDenorm = 0.\n   */\n  function unbind(address token) external _logs_ _lock_ {\n    require(msg.sender == _controller, \"ERR_NOT_CONTROLLER\");\n    require(_records[token].bound, \"ERR_NOT_BOUND\");\n\n    _totalWeight = bsub(_totalWeight, _records[token].denorm);\n    _onUnbind(token);\n  }\n}\n\n\ncontract BPool is BPoolQueries, BPoolShares, BPoolControls {}",
  "sourcePath": "/home/workhorse/Indexed/indexed-subgraph/contracts/balancer/BPool.sol",
  "compiler": {
    "name": "solc",
    "version": "0.6.12+commit.27d51765.Emscripten.clang"
  },
  "schemaVersion": "3.2.4",
  "updatedAt": "2020-08-28T06:05:33.600Z",
  "devdoc": {
    "details": "Defines the BPool external query functions.",
    "kind": "dev",
    "methods": {
      "isFinalized()": {
        "details": "There is no `_finalized` variable, so this returns `_publicSwap`."
      }
    },
    "title": "BPoolQueries",
    "version": 1
  },
  "userdoc": {
    "kind": "user",
    "methods": {},
    "version": 1
  }
}