{
  "contractName": "BPoolControls",
  "abi": [
    {
      "anonymous": false,
      "inputs": [
        {
          "indexed": true,
          "internalType": "address",
          "name": "src",
          "type": "address"
        },
        {
          "indexed": true,
          "internalType": "address",
          "name": "dst",
          "type": "address"
        },
        {
          "indexed": false,
          "internalType": "uint256",
          "name": "amt",
          "type": "uint256"
        }
      ],
      "name": "Approval",
      "type": "event"
    },
    {
      "anonymous": false,
      "inputs": [
        {
          "indexed": true,
          "internalType": "bytes4",
          "name": "sig",
          "type": "bytes4"
        },
        {
          "indexed": true,
          "internalType": "address",
          "name": "caller",
          "type": "address"
        },
        {
          "indexed": false,
          "internalType": "bytes",
          "name": "data",
          "type": "bytes"
        }
      ],
      "name": "LOG_CALL",
      "type": "event"
    },
    {
      "anonymous": false,
      "inputs": [
        {
          "indexed": false,
          "internalType": "address",
          "name": "token",
          "type": "address"
        },
        {
          "indexed": false,
          "internalType": "uint256",
          "name": "newDenorm",
          "type": "uint256"
        }
      ],
      "name": "LOG_DENORM_UPDATED",
      "type": "event"
    },
    {
      "anonymous": false,
      "inputs": [
        {
          "indexed": false,
          "internalType": "address",
          "name": "token",
          "type": "address"
        },
        {
          "indexed": false,
          "internalType": "uint256",
          "name": "desiredDenorm",
          "type": "uint256"
        }
      ],
      "name": "LOG_DESIRED_DENORM_SET",
      "type": "event"
    },
    {
      "anonymous": false,
      "inputs": [
        {
          "indexed": true,
          "internalType": "address",
          "name": "caller",
          "type": "address"
        },
        {
          "indexed": true,
          "internalType": "address",
          "name": "tokenOut",
          "type": "address"
        },
        {
          "indexed": false,
          "internalType": "uint256",
          "name": "tokenAmountOut",
          "type": "uint256"
        }
      ],
      "name": "LOG_EXIT",
      "type": "event"
    },
    {
      "anonymous": false,
      "inputs": [
        {
          "indexed": true,
          "internalType": "address",
          "name": "caller",
          "type": "address"
        },
        {
          "indexed": true,
          "internalType": "address",
          "name": "tokenIn",
          "type": "address"
        },
        {
          "indexed": false,
          "internalType": "uint256",
          "name": "tokenAmountIn",
          "type": "uint256"
        }
      ],
      "name": "LOG_JOIN",
      "type": "event"
    },
    {
      "anonymous": false,
      "inputs": [
        {
          "indexed": true,
          "internalType": "address",
          "name": "caller",
          "type": "address"
        },
        {
          "indexed": true,
          "internalType": "address",
          "name": "tokenIn",
          "type": "address"
        },
        {
          "indexed": true,
          "internalType": "address",
          "name": "tokenOut",
          "type": "address"
        },
        {
          "indexed": false,
          "internalType": "uint256",
          "name": "tokenAmountIn",
          "type": "uint256"
        },
        {
          "indexed": false,
          "internalType": "uint256",
          "name": "tokenAmountOut",
          "type": "uint256"
        }
      ],
      "name": "LOG_SWAP",
      "type": "event"
    },
    {
      "anonymous": false,
      "inputs": [
        {
          "indexed": true,
          "internalType": "address",
          "name": "src",
          "type": "address"
        },
        {
          "indexed": true,
          "internalType": "address",
          "name": "dst",
          "type": "address"
        },
        {
          "indexed": false,
          "internalType": "uint256",
          "name": "amt",
          "type": "uint256"
        }
      ],
      "name": "Transfer",
      "type": "event"
    },
    {
      "inputs": [],
      "name": "BONE",
      "outputs": [
        {
          "internalType": "uint256",
          "name": "",
          "type": "uint256"
        }
      ],
      "stateMutability": "view",
      "type": "function"
    },
    {
      "inputs": [],
      "name": "BPOW_PRECISION",
      "outputs": [
        {
          "internalType": "uint256",
          "name": "",
          "type": "uint256"
        }
      ],
      "stateMutability": "view",
      "type": "function"
    },
    {
      "inputs": [],
      "name": "EXIT_FEE",
      "outputs": [
        {
          "internalType": "uint256",
          "name": "",
          "type": "uint256"
        }
      ],
      "stateMutability": "view",
      "type": "function"
    },
    {
      "inputs": [],
      "name": "INIT_POOL_SUPPLY",
      "outputs": [
        {
          "internalType": "uint256",
          "name": "",
          "type": "uint256"
        }
      ],
      "stateMutability": "view",
      "type": "function"
    },
    {
      "inputs": [],
      "name": "MAX_BOUND_TOKENS",
      "outputs": [
        {
          "internalType": "uint256",
          "name": "",
          "type": "uint256"
        }
      ],
      "stateMutability": "view",
      "type": "function"
    },
    {
      "inputs": [],
      "name": "MAX_BPOW_BASE",
      "outputs": [
        {
          "internalType": "uint256",
          "name": "",
          "type": "uint256"
        }
      ],
      "stateMutability": "view",
      "type": "function"
    },
    {
      "inputs": [],
      "name": "MAX_FEE",
      "outputs": [
        {
          "internalType": "uint256",
          "name": "",
          "type": "uint256"
        }
      ],
      "stateMutability": "view",
      "type": "function"
    },
    {
      "inputs": [],
      "name": "MAX_IN_RATIO",
      "outputs": [
        {
          "internalType": "uint256",
          "name": "",
          "type": "uint256"
        }
      ],
      "stateMutability": "view",
      "type": "function"
    },
    {
      "inputs": [],
      "name": "MAX_OUT_RATIO",
      "outputs": [
        {
          "internalType": "uint256",
          "name": "",
          "type": "uint256"
        }
      ],
      "stateMutability": "view",
      "type": "function"
    },
    {
      "inputs": [],
      "name": "MAX_TOTAL_WEIGHT",
      "outputs": [
        {
          "internalType": "uint256",
          "name": "",
          "type": "uint256"
        }
      ],
      "stateMutability": "view",
      "type": "function"
    },
    {
      "inputs": [],
      "name": "MAX_WEIGHT",
      "outputs": [
        {
          "internalType": "uint256",
          "name": "",
          "type": "uint256"
        }
      ],
      "stateMutability": "view",
      "type": "function"
    },
    {
      "inputs": [],
      "name": "MAX_WEIGHT_CHANGE",
      "outputs": [
        {
          "internalType": "uint256",
          "name": "",
          "type": "uint256"
        }
      ],
      "stateMutability": "view",
      "type": "function"
    },
    {
      "inputs": [],
      "name": "MIN_BALANCE",
      "outputs": [
        {
          "internalType": "uint256",
          "name": "",
          "type": "uint256"
        }
      ],
      "stateMutability": "view",
      "type": "function"
    },
    {
      "inputs": [],
      "name": "MIN_BOUND_TOKENS",
      "outputs": [
        {
          "internalType": "uint256",
          "name": "",
          "type": "uint256"
        }
      ],
      "stateMutability": "view",
      "type": "function"
    },
    {
      "inputs": [],
      "name": "MIN_BPOW_BASE",
      "outputs": [
        {
          "internalType": "uint256",
          "name": "",
          "type": "uint256"
        }
      ],
      "stateMutability": "view",
      "type": "function"
    },
    {
      "inputs": [],
      "name": "MIN_FEE",
      "outputs": [
        {
          "internalType": "uint256",
          "name": "",
          "type": "uint256"
        }
      ],
      "stateMutability": "view",
      "type": "function"
    },
    {
      "inputs": [],
      "name": "MIN_WEIGHT",
      "outputs": [
        {
          "internalType": "uint256",
          "name": "",
          "type": "uint256"
        }
      ],
      "stateMutability": "view",
      "type": "function"
    },
    {
      "inputs": [],
      "name": "MIN_WEIGHT_DELAY",
      "outputs": [
        {
          "internalType": "uint256",
          "name": "",
          "type": "uint256"
        }
      ],
      "stateMutability": "view",
      "type": "function"
    },
    {
      "inputs": [
        {
          "internalType": "address",
          "name": "src",
          "type": "address"
        },
        {
          "internalType": "address",
          "name": "dst",
          "type": "address"
        }
      ],
      "name": "allowance",
      "outputs": [
        {
          "internalType": "uint256",
          "name": "",
          "type": "uint256"
        }
      ],
      "stateMutability": "view",
      "type": "function"
    },
    {
      "inputs": [
        {
          "internalType": "address",
          "name": "dst",
          "type": "address"
        },
        {
          "internalType": "uint256",
          "name": "amt",
          "type": "uint256"
        }
      ],
      "name": "approve",
      "outputs": [
        {
          "internalType": "bool",
          "name": "",
          "type": "bool"
        }
      ],
      "stateMutability": "nonpayable",
      "type": "function"
    },
    {
      "inputs": [
        {
          "internalType": "address",
          "name": "whom",
          "type": "address"
        }
      ],
      "name": "balanceOf",
      "outputs": [
        {
          "internalType": "uint256",
          "name": "",
          "type": "uint256"
        }
      ],
      "stateMutability": "view",
      "type": "function"
    },
    {
      "inputs": [
        {
          "internalType": "uint256",
          "name": "tokenBalanceIn",
          "type": "uint256"
        },
        {
          "internalType": "uint256",
          "name": "tokenWeightIn",
          "type": "uint256"
        },
        {
          "internalType": "uint256",
          "name": "tokenBalanceOut",
          "type": "uint256"
        },
        {
          "internalType": "uint256",
          "name": "tokenWeightOut",
          "type": "uint256"
        },
        {
          "internalType": "uint256",
          "name": "tokenAmountOut",
          "type": "uint256"
        },
        {
          "internalType": "uint256",
          "name": "swapFee",
          "type": "uint256"
        }
      ],
      "name": "calcInGivenOut",
      "outputs": [
        {
          "internalType": "uint256",
          "name": "tokenAmountIn",
          "type": "uint256"
        }
      ],
      "stateMutability": "pure",
      "type": "function"
    },
    {
      "inputs": [
        {
          "internalType": "uint256",
          "name": "tokenBalanceIn",
          "type": "uint256"
        },
        {
          "internalType": "uint256",
          "name": "tokenWeightIn",
          "type": "uint256"
        },
        {
          "internalType": "uint256",
          "name": "tokenBalanceOut",
          "type": "uint256"
        },
        {
          "internalType": "uint256",
          "name": "tokenWeightOut",
          "type": "uint256"
        },
        {
          "internalType": "uint256",
          "name": "tokenAmountIn",
          "type": "uint256"
        },
        {
          "internalType": "uint256",
          "name": "swapFee",
          "type": "uint256"
        }
      ],
      "name": "calcOutGivenIn",
      "outputs": [
        {
          "internalType": "uint256",
          "name": "tokenAmountOut",
          "type": "uint256"
        }
      ],
      "stateMutability": "pure",
      "type": "function"
    },
    {
      "inputs": [
        {
          "internalType": "uint256",
          "name": "tokenBalanceOut",
          "type": "uint256"
        },
        {
          "internalType": "uint256",
          "name": "tokenWeightOut",
          "type": "uint256"
        },
        {
          "internalType": "uint256",
          "name": "poolSupply",
          "type": "uint256"
        },
        {
          "internalType": "uint256",
          "name": "totalWeight",
          "type": "uint256"
        },
        {
          "internalType": "uint256",
          "name": "tokenAmountOut",
          "type": "uint256"
        },
        {
          "internalType": "uint256",
          "name": "swapFee",
          "type": "uint256"
        }
      ],
      "name": "calcPoolInGivenSingleOut",
      "outputs": [
        {
          "internalType": "uint256",
          "name": "poolAmountIn",
          "type": "uint256"
        }
      ],
      "stateMutability": "pure",
      "type": "function"
    },
    {
      "inputs": [
        {
          "internalType": "uint256",
          "name": "tokenBalanceIn",
          "type": "uint256"
        },
        {
          "internalType": "uint256",
          "name": "tokenWeightIn",
          "type": "uint256"
        },
        {
          "internalType": "uint256",
          "name": "poolSupply",
          "type": "uint256"
        },
        {
          "internalType": "uint256",
          "name": "totalWeight",
          "type": "uint256"
        },
        {
          "internalType": "uint256",
          "name": "tokenAmountIn",
          "type": "uint256"
        },
        {
          "internalType": "uint256",
          "name": "swapFee",
          "type": "uint256"
        }
      ],
      "name": "calcPoolOutGivenSingleIn",
      "outputs": [
        {
          "internalType": "uint256",
          "name": "poolAmountOut",
          "type": "uint256"
        }
      ],
      "stateMutability": "pure",
      "type": "function"
    },
    {
      "inputs": [
        {
          "internalType": "uint256",
          "name": "tokenBalanceIn",
          "type": "uint256"
        },
        {
          "internalType": "uint256",
          "name": "tokenWeightIn",
          "type": "uint256"
        },
        {
          "internalType": "uint256",
          "name": "poolSupply",
          "type": "uint256"
        },
        {
          "internalType": "uint256",
          "name": "totalWeight",
          "type": "uint256"
        },
        {
          "internalType": "uint256",
          "name": "poolAmountOut",
          "type": "uint256"
        },
        {
          "internalType": "uint256",
          "name": "swapFee",
          "type": "uint256"
        }
      ],
      "name": "calcSingleInGivenPoolOut",
      "outputs": [
        {
          "internalType": "uint256",
          "name": "tokenAmountIn",
          "type": "uint256"
        }
      ],
      "stateMutability": "pure",
      "type": "function"
    },
    {
      "inputs": [
        {
          "internalType": "uint256",
          "name": "tokenBalanceOut",
          "type": "uint256"
        },
        {
          "internalType": "uint256",
          "name": "tokenWeightOut",
          "type": "uint256"
        },
        {
          "internalType": "uint256",
          "name": "poolSupply",
          "type": "uint256"
        },
        {
          "internalType": "uint256",
          "name": "totalWeight",
          "type": "uint256"
        },
        {
          "internalType": "uint256",
          "name": "poolAmountIn",
          "type": "uint256"
        },
        {
          "internalType": "uint256",
          "name": "swapFee",
          "type": "uint256"
        }
      ],
      "name": "calcSingleOutGivenPoolIn",
      "outputs": [
        {
          "internalType": "uint256",
          "name": "tokenAmountOut",
          "type": "uint256"
        }
      ],
      "stateMutability": "pure",
      "type": "function"
    },
    {
      "inputs": [
        {
          "internalType": "uint256",
          "name": "tokenBalanceIn",
          "type": "uint256"
        },
        {
          "internalType": "uint256",
          "name": "tokenWeightIn",
          "type": "uint256"
        },
        {
          "internalType": "uint256",
          "name": "tokenBalanceOut",
          "type": "uint256"
        },
        {
          "internalType": "uint256",
          "name": "tokenWeightOut",
          "type": "uint256"
        },
        {
          "internalType": "uint256",
          "name": "swapFee",
          "type": "uint256"
        }
      ],
      "name": "calcSpotPrice",
      "outputs": [
        {
          "internalType": "uint256",
          "name": "spotPrice",
          "type": "uint256"
        }
      ],
      "stateMutability": "pure",
      "type": "function"
    },
    {
      "inputs": [],
      "name": "decimals",
      "outputs": [
        {
          "internalType": "uint8",
          "name": "",
          "type": "uint8"
        }
      ],
      "stateMutability": "view",
      "type": "function"
    },
    {
      "inputs": [
        {
          "internalType": "address",
          "name": "dst",
          "type": "address"
        },
        {
          "internalType": "uint256",
          "name": "amt",
          "type": "uint256"
        }
      ],
      "name": "decreaseApproval",
      "outputs": [
        {
          "internalType": "bool",
          "name": "",
          "type": "bool"
        }
      ],
      "stateMutability": "nonpayable",
      "type": "function"
    },
    {
      "inputs": [
        {
          "internalType": "uint256",
          "name": "poolAmountIn",
          "type": "uint256"
        },
        {
          "internalType": "uint256[]",
          "name": "minAmountsOut",
          "type": "uint256[]"
        }
      ],
      "name": "exitPool",
      "outputs": [],
      "stateMutability": "nonpayable",
      "type": "function"
    },
    {
      "inputs": [
        {
          "internalType": "address",
          "name": "tokenOut",
          "type": "address"
        },
        {
          "internalType": "uint256",
          "name": "tokenAmountOut",
          "type": "uint256"
        },
        {
          "internalType": "uint256",
          "name": "maxPoolAmountIn",
          "type": "uint256"
        }
      ],
      "name": "exitswapExternAmountOut",
      "outputs": [
        {
          "internalType": "uint256",
          "name": "poolAmountIn",
          "type": "uint256"
        }
      ],
      "stateMutability": "nonpayable",
      "type": "function"
    },
    {
      "inputs": [
        {
          "internalType": "address",
          "name": "tokenOut",
          "type": "address"
        },
        {
          "internalType": "uint256",
          "name": "poolAmountIn",
          "type": "uint256"
        },
        {
          "internalType": "uint256",
          "name": "minAmountOut",
          "type": "uint256"
        }
      ],
      "name": "exitswapPoolAmountIn",
      "outputs": [
        {
          "internalType": "uint256",
          "name": "tokenAmountOut",
          "type": "uint256"
        }
      ],
      "stateMutability": "nonpayable",
      "type": "function"
    },
    {
      "inputs": [],
      "name": "getColor",
      "outputs": [
        {
          "internalType": "bytes32",
          "name": "",
          "type": "bytes32"
        }
      ],
      "stateMutability": "view",
      "type": "function"
    },
    {
      "inputs": [
        {
          "internalType": "address",
          "name": "token",
          "type": "address"
        }
      ],
      "name": "gulp",
      "outputs": [],
      "stateMutability": "nonpayable",
      "type": "function"
    },
    {
      "inputs": [
        {
          "internalType": "address",
          "name": "dst",
          "type": "address"
        },
        {
          "internalType": "uint256",
          "name": "amt",
          "type": "uint256"
        }
      ],
      "name": "increaseApproval",
      "outputs": [
        {
          "internalType": "bool",
          "name": "",
          "type": "bool"
        }
      ],
      "stateMutability": "nonpayable",
      "type": "function"
    },
    {
      "inputs": [
        {
          "internalType": "address",
          "name": "controller",
          "type": "address"
        },
        {
          "internalType": "string",
          "name": "name",
          "type": "string"
        },
        {
          "internalType": "string",
          "name": "symbol",
          "type": "string"
        },
        {
          "internalType": "address[]",
          "name": "tokens",
          "type": "address[]"
        },
        {
          "internalType": "uint256[]",
          "name": "balances",
          "type": "uint256[]"
        },
        {
          "internalType": "uint96[]",
          "name": "denorms",
          "type": "uint96[]"
        }
      ],
      "name": "initialize",
      "outputs": [],
      "stateMutability": "nonpayable",
      "type": "function"
    },
    {
      "inputs": [
        {
          "internalType": "uint256",
          "name": "poolAmountOut",
          "type": "uint256"
        },
        {
          "internalType": "uint256[]",
          "name": "maxAmountsIn",
          "type": "uint256[]"
        }
      ],
      "name": "joinPool",
      "outputs": [],
      "stateMutability": "nonpayable",
      "type": "function"
    },
    {
      "inputs": [
        {
          "internalType": "address",
          "name": "tokenIn",
          "type": "address"
        },
        {
          "internalType": "uint256",
          "name": "tokenAmountIn",
          "type": "uint256"
        },
        {
          "internalType": "uint256",
          "name": "minPoolAmountOut",
          "type": "uint256"
        }
      ],
      "name": "joinswapExternAmountIn",
      "outputs": [
        {
          "internalType": "uint256",
          "name": "poolAmountOut",
          "type": "uint256"
        }
      ],
      "stateMutability": "nonpayable",
      "type": "function"
    },
    {
      "inputs": [
        {
          "internalType": "address",
          "name": "tokenIn",
          "type": "address"
        },
        {
          "internalType": "uint256",
          "name": "poolAmountOut",
          "type": "uint256"
        },
        {
          "internalType": "uint256",
          "name": "maxAmountIn",
          "type": "uint256"
        }
      ],
      "name": "joinswapPoolAmountOut",
      "outputs": [
        {
          "internalType": "uint256",
          "name": "tokenAmountIn",
          "type": "uint256"
        }
      ],
      "stateMutability": "nonpayable",
      "type": "function"
    },
    {
      "inputs": [],
      "name": "name",
      "outputs": [
        {
          "internalType": "string",
          "name": "",
          "type": "string"
        }
      ],
      "stateMutability": "view",
      "type": "function"
    },
    {
      "inputs": [
        {
          "internalType": "address",
          "name": "tokenIn",
          "type": "address"
        },
        {
          "internalType": "uint256",
          "name": "tokenAmountIn",
          "type": "uint256"
        },
        {
          "internalType": "address",
          "name": "tokenOut",
          "type": "address"
        },
        {
          "internalType": "uint256",
          "name": "minAmountOut",
          "type": "uint256"
        },
        {
          "internalType": "uint256",
          "name": "maxPrice",
          "type": "uint256"
        }
      ],
      "name": "swapExactAmountIn",
      "outputs": [
        {
          "internalType": "uint256",
          "name": "tokenAmountOut",
          "type": "uint256"
        },
        {
          "internalType": "uint256",
          "name": "spotPriceAfter",
          "type": "uint256"
        }
      ],
      "stateMutability": "nonpayable",
      "type": "function"
    },
    {
      "inputs": [
        {
          "internalType": "address",
          "name": "tokenIn",
          "type": "address"
        },
        {
          "internalType": "uint256",
          "name": "maxAmountIn",
          "type": "uint256"
        },
        {
          "internalType": "address",
          "name": "tokenOut",
          "type": "address"
        },
        {
          "internalType": "uint256",
          "name": "tokenAmountOut",
          "type": "uint256"
        },
        {
          "internalType": "uint256",
          "name": "maxPrice",
          "type": "uint256"
        }
      ],
      "name": "swapExactAmountOut",
      "outputs": [
        {
          "internalType": "uint256",
          "name": "tokenAmountIn",
          "type": "uint256"
        },
        {
          "internalType": "uint256",
          "name": "spotPriceAfter",
          "type": "uint256"
        }
      ],
      "stateMutability": "nonpayable",
      "type": "function"
    },
    {
      "inputs": [],
      "name": "symbol",
      "outputs": [
        {
          "internalType": "string",
          "name": "",
          "type": "string"
        }
      ],
      "stateMutability": "view",
      "type": "function"
    },
    {
      "inputs": [],
      "name": "totalSupply",
      "outputs": [
        {
          "internalType": "uint256",
          "name": "",
          "type": "uint256"
        }
      ],
      "stateMutability": "view",
      "type": "function"
    },
    {
      "inputs": [
        {
          "internalType": "address",
          "name": "dst",
          "type": "address"
        },
        {
          "internalType": "uint256",
          "name": "amt",
          "type": "uint256"
        }
      ],
      "name": "transfer",
      "outputs": [
        {
          "internalType": "bool",
          "name": "",
          "type": "bool"
        }
      ],
      "stateMutability": "nonpayable",
      "type": "function"
    },
    {
      "inputs": [
        {
          "internalType": "address",
          "name": "src",
          "type": "address"
        },
        {
          "internalType": "address",
          "name": "dst",
          "type": "address"
        },
        {
          "internalType": "uint256",
          "name": "amt",
          "type": "uint256"
        }
      ],
      "name": "transferFrom",
      "outputs": [
        {
          "internalType": "bool",
          "name": "",
          "type": "bool"
        }
      ],
      "stateMutability": "nonpayable",
      "type": "function"
    },
    {
      "inputs": [
        {
          "internalType": "uint256",
          "name": "swapFee",
          "type": "uint256"
        }
      ],
      "name": "setSwapFee",
      "outputs": [],
      "stateMutability": "nonpayable",
      "type": "function"
    },
    {
      "inputs": [
        {
          "internalType": "bool",
          "name": "public_",
          "type": "bool"
        }
      ],
      "name": "setPublicSwap",
      "outputs": [],
      "stateMutability": "nonpayable",
      "type": "function"
    },
    {
      "inputs": [
        {
          "internalType": "address[]",
          "name": "tokens",
          "type": "address[]"
        },
        {
          "internalType": "uint96[]",
          "name": "desiredDenorms",
          "type": "uint96[]"
        }
      ],
      "name": "reweighTokens",
      "outputs": [],
      "stateMutability": "nonpayable",
      "type": "function"
    },
    {
      "inputs": [
        {
          "internalType": "address",
          "name": "token",
          "type": "address"
        }
      ],
      "name": "unbind",
      "outputs": [],
      "stateMutability": "nonpayable",
      "type": "function"
    }
  ],
  "bytecode": "0x60806040526005805460ff1916601217905534801561001d57600080fd5b50614a4f8061002d6000396000f3fe608060405234801561001057600080fd5b50600436106102f15760003560e01c80638656b6531161019d578063ba019dab116100e9578063c6580d12116100a2578063dd62ed3e1161007c578063dd62ed3e146105d1578063e4a28a5214610354578063ec093021146105e4578063f8d6aed4146105ec576102f1565b8063c6580d12146105a3578063cf5e7bd3146105ab578063d73dd623146105be576102f1565b8063ba019dab14610570578063ba9530a614610578578063bc063e1a1461058b578063bc694ea214610593578063c36596a61461036c578063c458bfd01461059b576102f1565b8063992e2a9211610156578063a9059cbb11610130578063a9059cbb1461053a578063b02f0b731461054d578063b0e0d13614610560578063b7b800a414610568576102f1565b8063992e2a92146105175780639a86139b1461051f578063a221ee4914610527576102f1565b80638656b653146104c6578063867378c5146104d957806389298012146104e15780638c28cbe8146104f45780639381cd2b1461050757806395d89b411461050f576102f1565b806346ab38f11161025c578063661884631161021557806376c7a3c7116101ef57806376c7a3c7146104775780637c5e9ea41461047f5780638201aa3f146104a057806382f652ad146104b3576102f1565b8063661884631461043e5780636d06dfa01461045157806370a0823114610464576102f1565b806346ab38f1146103cc57806349b59552146103df5780634f69c0d4146103f25780635c1bbaf7146104055780635d5e8ce7146104185780635db342771461042b576102f1565b8063218b5382116102ae578063218b53821461036c57806323b872dd14610374578063313ce5671461038757806334e199071461039c578063396e181d146103b15780633ded8cf0146103b9576102f1565b806302c96748146102f657806306fdde031461031f578063095ea7b31461033457806309a3bbe41461035457806318160ddd1461035c578063189d00ca14610364575b600080fd5b61030961030436600461410d565b6105ff565b604051610316919061437c565b60405180910390f35b61032761084e565b60405161031691906143b4565b610347610342366004614094565b6108e4565b6040516103169190614371565b61030961093d565b61030961094a565b610309610950565b610309610964565b610347610382366004613f52565b610970565b61038f610aa1565b60405161031691906149a8565b6103af6103aa3660046141e1565b610aaa565b005b610309610bb3565b6103af6103c7366004613f92565b610bb9565b6103096103da36600461410d565b61103e565b6103af6103ed3660046141a9565b611249565b6103af610400366004614211565b61131e565b610309610413366004614295565b61155c565b6103af610426366004614140565b611614565b61030961043936600461410d565b611750565b61034761044c366004614094565b611965565b61030961045f36600461410d565b611a2e565b610309610472366004613f03565b611c4b565b610309611c66565b61049261048d3660046140be565b611c78565b60405161031692919061499a565b6104926104ae3660046140be565b612108565b6103096104c1366004614295565b6125dd565b6103096104d4366004614295565b61269c565b61030961273d565b6103096104ef366004614295565b612751565b6103af610502366004613f03565b612801565b61030961295f565b61032761296c565b6103096129cd565b6103096129d9565b61030961053536600461425b565b6129e6565b610347610548366004614094565b612a4b565b6103af61055b366004614211565b612a61565b610309612cb1565b610309612cb6565b610309612cbb565b610309610586366004614295565b612cc0565b610309612d41565b610309612d51565b610309612d5d565b610309612d6d565b6103af6105b9366004613f03565b612d72565b6103476105cc366004614094565b612ea6565b6103096105df366004613f1e565b612f1a565b610309612f45565b6103096105fa366004614295565b612f55565b60405160009033906001600160e01b0319833516906000805160206149da833981519152906106319085903690614385565b60405180910390a3600554610100900460ff161561066a5760405162461bcd60e51b81526004016106619061467f565b60405180910390fd5b6005805461ff0019166101001790556001600160a01b03841660009081526009602052604090205460ff166106b15760405162461bcd60e51b8152600401610661906146cf565b6001600160a01b0384166000908152600960205260409020600101546106e6906003670de0b6b3a76400005b04600101612fd8565b8311156107055760405162461bcd60e51b8152600401610661906146a4565b6001600160a01b038416600090815260096020526040902060018101548154600254600b5460075461074c9493600160381b90046001600160601b031692919089906125dd565b91508161076b5760405162461bcd60e51b815260040161066190614485565b8282111561078b5760405162461bcd60e51b815260040161066190614629565b610799816001015485613051565b600182015560006107aa8382612fd8565b9050856001600160a01b0316336001600160a01b03167fe74c91552b64c2e2e7bd255639e004e693bd3e1d01cc33e65610b86afcc1ffed876040516107ef919061437c565b60405180910390a3610801338461308a565b61081361080e8483613051565b613098565b60055461082f906201000090046001600160a01b0316826130a4565b61083a8633876130ae565b50506005805461ff00191690559392505050565b60038054604080516020601f60026000196101006001881615020190951694909404938401819004810282018101909252828152606093909290918301828280156108da5780601f106108af576101008083540402835291602001916108da565b820191906000526020600020905b8154815290600101906020018083116108bd57829003601f168201915b5050505050905090565b3360008181526001602090815260408083206001600160a01b038716808552925280832085905551919290916000805160206149fa8339815191529061092b90869061437c565b60405180910390a35060015b92915050565b6802b5e3af16b188000081565b60025490565b6402540be400670de0b6b3a76400005b0481565b670de0b6b3a764000081565b6000336001600160a01b03851614806109ac57506001600160a01b03841660009081526001602090815260408083203384529091529020548211155b6109c85760405162461bcd60e51b8152600401610661906145fa565b6109d3848484613156565b336001600160a01b03851614801590610a1157506001600160a01b038416600090815260016020908152604080832033845290915290205460001914155b15610a97576001600160a01b0384166000908152600160209081526040808320338452909152902054610a449083613051565b6001600160a01b0385811660009081526001602090815260408083203380855292529182902084905590519186169290916000805160206149fa83398151915291610a8e9161437c565b60405180910390a35b5060019392505050565b60055460ff1690565b336001600160a01b03166000356001600160e01b0319166001600160e01b0319166000805160206149da833981519152600036604051610aeb929190614385565b60405180910390a3600554610100900460ff1615610b1b5760405162461bcd60e51b81526004016106619061467f565b6005805461ff001916610100179055600654336001600160a01b0390911614610b565760405162461bcd60e51b815260040161066190614407565b64e8d4a51000811015610b7b5760405162461bcd60e51b8152600401610661906144ae565b67016345785d8a0000811115610ba35760405162461bcd60e51b8152600401610661906146f6565b6007556005805461ff0019169055565b610e1081565b6006546001600160a01b0316158015610bda57506001600160a01b038b1615155b610bf65760405162461bcd60e51b8152600401610661906145a7565b600680546001600160a01b0319166001600160a01b038d161790556005805462010000600160b01b0319163362010000021790556028670de0b6b3a764000004600755604080516020601f8c018190048102820181019092528a8152610caa918c908c908190840183828082843760009201919091525050604080516020601f8e018190048102820181019092528c815292508c91508b908190840183828082843760009201919091525061323f92505050565b846002811015610ccc5760405162461bcd60e51b815260040161066190614915565b6008811115610ced5760405162461bcd60e51b815260040161066190614433565b8381148015610cfb57508181145b610d175760405162461bcd60e51b81526004016106619061479a565b6000805b82811015610fc8576000898983818110610d3157fe5b9050602002016020810190610d469190613f03565b90506000868684818110610d5657fe5b9050602002016020810190610d6b91906142d7565b90506000898985818110610d7b57fe5b905060200201359050670de0b6b3a7640000826001600160601b03161015610db55760405162461bcd60e51b815260040161066190614748565b6802b5e3af16b18800006001600160601b0383161115610de75760405162461bcd60e51b8152600401610661906144d3565b620f4240811015610e0a5760405162461bcd60e51b815260040161066190614550565b6040518060c001604052806001151581526020014265ffffffffffff168152602001836001600160601b03168152602001836001600160601b0316815260200160088054905060ff1681526020018281525060096000856001600160a01b03166001600160a01b0316815260200190815260200160002060008201518160000160006101000a81548160ff02191690831515021790555060208201518160000160016101000a81548165ffffffffffff021916908365ffffffffffff16021790555060408201518160000160076101000a8154816001600160601b0302191690836001600160601b0316021790555060608201518160000160136101000a8154816001600160601b0302191690836001600160601b03160217905550608082015181600001601f6101000a81548160ff021916908360ff16021790555060a082015181600101559050506008839080600181540180825580915050600190039060005260206000200160009091909190916101000a8154816001600160a01b0302191690836001600160a01b03160217905550610fb085836001600160601b03166132b6565b9450610fbd8333836132e2565b505050600101610d1b565b506802b5e3af16b1880000811115610ff25760405162461bcd60e51b8152600401610661906144fb565b600b8190556006805460ff60a01b1916600160a01b17905561101c68056bc75e2d63100000613315565b61102f3368056bc75e2d631000006130a4565b50505050505050505050505050565b60405160009033906001600160e01b0319833516906000805160206149da833981519152906110709085903690614385565b60405180910390a3600554610100900460ff16156110a05760405162461bcd60e51b81526004016106619061467f565b6005805461ff0019166101001790556001600160a01b03841660009081526009602052604090205460ff166110e75760405162461bcd60e51b8152600401610661906146cf565b6001600160a01b038416600090815260096020526040902060018101548154600254600b5460075461112e9493600160381b90046001600160601b03169291908990612751565b9150828210156111505760405162461bcd60e51b815260040161066190614529565b6001600160a01b038516600090815260096020526040902060010154611180906003670de0b6b3a76400006106dd565b82111561119f5760405162461bcd60e51b8152600401610661906146a4565b6111ad816001015483613051565b600182015560006111be8582612fd8565b9050856001600160a01b0316336001600160a01b03167fe74c91552b64c2e2e7bd255639e004e693bd3e1d01cc33e65610b86afcc1ffed85604051611203919061437c565b60405180910390a3611215338661308a565b61122261080e8683613051565b60055461123e906201000090046001600160a01b0316826130a4565b61083a8633856130ae565b336001600160a01b03166000356001600160e01b0319166001600160e01b0319166000805160206149da83398151915260003660405161128a929190614385565b60405180910390a3600554610100900460ff16156112ba5760405162461bcd60e51b81526004016106619061467f565b6005805461ff001916610100179055600654336001600160a01b03909116146112f55760405162461bcd60e51b815260040161066190614407565b60068054911515600160a01b0260ff60a01b199092169190911790556005805461ff0019169055565b336001600160a01b03166000356001600160e01b0319166001600160e01b0319166000805160206149da83398151915260003660405161135f929190614385565b60405180910390a3600554610100900460ff161561138f5760405162461bcd60e51b81526004016106619061467f565b6005805461ff001916610100179055600654600160a01b900460ff166113c75760405162461bcd60e51b81526004016106619061493d565b60006113d161094a565b905060006113df858361331e565b9050806113fe5760405162461bcd60e51b815260040161066190614485565b60005b6008548110156115365760006008828154811061141a57fe5b60009182526020808320909101546001600160a01b0316808352600990915260408220600101549092509061144f8583612fd8565b90508061146e5760405162461bcd60e51b815260040161066190614485565b87878581811061147a57fe5b905060200201358111156114a05760405162461bcd60e51b815260040161066190614629565b6001600160a01b0383166000908152600960205260409020600101546114c690826132b6565b6001600160a01b0384166000818152600960205260409081902060010192909255905133907f63982df10efd8dfaaaa0fcc7f50b2d93b7cba26ccc48adee2873220d485dc39a9061151890859061437c565b60405180910390a361152b8333836132e2565b505050600101611401565b5061154085613315565b61154a33866130a4565b50506005805461ff0019169055505050565b600080611569878661331e565b9050600061157787866132b6565b90506000611585828961331e565b9050600061159b670de0b6b3a76400008561331e565b905060006115a983836133b2565b905060006115b7828e612fd8565b905060006115c5828f613051565b905060006115e46115de670de0b6b3a76400008a613051565b8b612fd8565b9050611601826115fc670de0b6b3a764000084613051565b61331e565b9f9e505050505050505050505050505050565b336001600160a01b03166000356001600160e01b0319166001600160e01b0319166000805160206149da833981519152600036604051611655929190614385565b60405180910390a3600554610100900460ff16156116855760405162461bcd60e51b81526004016106619061467f565b6005805461ff001916610100179055600654336001600160a01b03909116146116c05760405162461bcd60e51b815260040161066190614407565b828181146116e05760405162461bcd60e51b81526004016106619061479a565b60005b8181101561173d576117358686838181106116fa57fe5b905060200201602081019061170f9190613f03565b85858481811061171b57fe5b905060200201602081019061173091906142d7565b613465565b6001016116e3565b50506005805461ff001916905550505050565b60405160009033906001600160e01b0319833516906000805160206149da833981519152906117829085903690614385565b60405180910390a3600554610100900460ff16156117b25760405162461bcd60e51b81526004016106619061467f565b6005805461ff001916610100179055600654600160a01b900460ff166117ea5760405162461bcd60e51b81526004016106619061493d565b6001600160a01b03841660009081526009602052604090205460ff166118225760405162461bcd60e51b8152600401610661906146cf565b6001600160a01b038416600090815260096020526040902060010154611854906002670de0b6b3a76400005b04612fd8565b8311156118735760405162461bcd60e51b81526004016106619061445b565b6001600160a01b038416600090815260096020526040902060018101548154600254600b546007546118ba9493600160381b90046001600160601b0316929190899061269c565b9150828210156118dc5760405162461bcd60e51b815260040161066190614529565b6118ea8160010154856132b6565b60018201556040516001600160a01b0386169033907f63982df10efd8dfaaaa0fcc7f50b2d93b7cba26ccc48adee2873220d485dc39a9061192c90889061437c565b60405180910390a361193d82613315565b61194733836130a4565b6119528533866132e2565b506005805461ff00191690559392505050565b3360009081526001602090815260408083206001600160a01b0386168452909152812054808311156119ba573360009081526001602090815260408083206001600160a01b03881684529091528120556119e9565b6119c48184613051565b3360009081526001602090815260408083206001600160a01b03891684529091529020555b3360008181526001602090815260408083206001600160a01b0389168085529252918290205491519092916000805160206149fa83398151915291610a8e919061437c565b60405160009033906001600160e01b0319833516906000805160206149da83398151915290611a609085903690614385565b60405180910390a3600554610100900460ff1615611a905760405162461bcd60e51b81526004016106619061467f565b6005805461ff001916610100179055600654600160a01b900460ff16611ac85760405162461bcd60e51b81526004016106619061493d565b6001600160a01b03841660009081526009602052604090205460ff16611b005760405162461bcd60e51b8152600401610661906146cf565b6001600160a01b038416600090815260096020526040902060018101548154600254600b54600754611b479493600160381b90046001600160601b0316929190899061155c565b915081611b665760405162461bcd60e51b815260040161066190614485565b82821115611b865760405162461bcd60e51b815260040161066190614629565b6001600160a01b038516600090815260096020526040902060010154611bb6906002670de0b6b3a764000061184e565b821115611bd55760405162461bcd60e51b81526004016106619061445b565b611be38160010154836132b6565b60018201556040516001600160a01b0386169033907f63982df10efd8dfaaaa0fcc7f50b2d93b7cba26ccc48adee2873220d485dc39a90611c2590869061437c565b60405180910390a3611c3684613315565b611c4033856130a4565b6119528533846132e2565b6001600160a01b031660009081526020819052604090205490565b620f4240670de0b6b3a7640000610960565b600080336001600160a01b03166000356001600160e01b0319166001600160e01b0319166000805160206149da833981519152600036604051611cbc929190614385565b60405180910390a3600554610100900460ff1615611cec5760405162461bcd60e51b81526004016106619061467f565b6005805461ff0019166101001790556001600160a01b03871660009081526009602052604090205460ff16611d335760405162461bcd60e51b8152600401610661906146cf565b6001600160a01b03851660009081526009602052604090205460ff16611d6b5760405162461bcd60e51b8152600401610661906146cf565b600654600160a01b900460ff16611d945760405162461bcd60e51b81526004016106619061480e565b611d9c613da2565b506001600160a01b038716600090815260096020908152604091829020825160c081018452815460ff8082161515835265ffffffffffff610100830416948301949094526001600160601b03600160381b8204811695830195909552600160981b81049094166060820152600160f81b90930490911660808301526001015460a0820152611e28613da2565b506001600160a01b038616600090815260096020908152604091829020825160c081018452815460ff8082161515835265ffffffffffff610100830416948301949094526001600160601b03600160381b8204811695830195909552600160981b81049094166060820152600160f81b90930490911660808301526001015460a08201819052611ec2906003670de0b6b3a76400006106dd565b861115611ee15760405162461bcd60e51b8152600401610661906146a4565b6000611f148360a0015184604001516001600160601b03168460a0015185604001516001600160601b03166007546129e6565b905085811115611f365760405162461bcd60e51b81526004016106619061471b565b611f688360a0015184604001516001600160601b03168460a0015185604001516001600160601b03168b600754612f55565b945088851115611f8a5760405162461bcd60e51b815260040161066190614629565b611f988360a00151866132b6565b60a08085018290526001600160a01b038c16600090815260096020526040902060010191909155820151611fcc9088613051565b60a083018190526001600160a01b038916600090815260096020526040902060010155611ff9838b61360e565b50612004828961360e565b506120368360a0015184604001516001600160601b03168460a0015185604001516001600160601b03166007546129e6565b9350858411156120585760405162461bcd60e51b8152600401610661906147bf565b612062858861331e565b8111156120815760405162461bcd60e51b815260040161066190614485565b876001600160a01b03168a6001600160a01b0316336001600160a01b03167f908fb5ee8f16c6bc9bc3690973819f32a4d4b10188134543c88706e0e1d43378888b6040516120d092919061499a565b60405180910390a46120e38a33876132e2565b6120ee8833896130ae565b5050506005805461ff001916905590969095509350505050565b600080336001600160a01b03166000356001600160e01b0319166001600160e01b0319166000805160206149da83398151915260003660405161214c929190614385565b60405180910390a3600554610100900460ff161561217c5760405162461bcd60e51b81526004016106619061467f565b6005805461ff0019166101001790556001600160a01b03871660009081526009602052604090205460ff166121c35760405162461bcd60e51b8152600401610661906146cf565b6001600160a01b03851660009081526009602052604090205460ff166121fb5760405162461bcd60e51b8152600401610661906146cf565b600654600160a01b900460ff166122245760405162461bcd60e51b81526004016106619061480e565b6001600160a01b0385166000908152600a60205260409020541561225a5760405162461bcd60e51b81526004016106619061486a565b612262613da2565b506001600160a01b038716600090815260096020908152604091829020825160c081018452815460ff8082161515835265ffffffffffff610100830416948301949094526001600160601b03600160381b8204811695830195909552600160981b81049094166060820152600160f81b90930490911660808301526001015460a08201526122ee613da2565b506001600160a01b038087166000908152600960209081526040808320815160c081018352815460ff8082161515835265ffffffffffff610100830416838701526001600160601b03600160381b8304811684870152600160981b8304166060840152600160f81b90910416608082015260019091015460a0820152938c168352600a909152902054806123b5576123968360a001516002670de0b6b3a76400008161184e57fe5b8911156123b55760405162461bcd60e51b81526004016106619061445b565b60006123e88460a0015185604001516001600160601b03168560a0015186604001516001600160601b03166007546129e6565b90508681111561240a5760405162461bcd60e51b81526004016106619061471b565b61243c8460a0015185604001516001600160601b03168560a0015186604001516001600160601b03168e600754612cc0565b95508786101561245e5760405162461bcd60e51b815260040161066190614529565b61246c8460a001518b6132b6565b60a08086018290526001600160a01b038d166000908152600960205260409020600101919091558301516124a09087613051565b60a084018190526001600160a01b038a166000908152600960205260409020600101556124cd848c61360e565b506124d8838a61360e565b5061250a8460a0015185604001516001600160601b03168560a0015186604001516001600160601b03166007546129e6565b94508685111561252c5760405162461bcd60e51b8152600401610661906147bf565b6125368a8761331e565b8111156125555760405162461bcd60e51b815260040161066190614485565b886001600160a01b03168b6001600160a01b0316336001600160a01b03167f908fb5ee8f16c6bc9bc3690973819f32a4d4b10188134543c88706e0e1d433788d8a6040516125a492919061499a565b60405180910390a46125b78b338c6132e2565b6125c28933886130ae565b505050506005805461ff001916905590969095509350505050565b6000806125ea878661331e565b90506000612600670de0b6b3a764000083613051565b9050600061260e8286612fd8565b90506000612628876115fc670de0b6b3a764000085613051565b905060006126368c83613051565b90506000612644828e61331e565b9050600061265282886133b2565b90506000612660828e612fd8565b9050600061266e8e83613051565b9050612687816115fc670de0b6b3a76400006000613051565b99505050505050505050509695505050505050565b6000806126a9878661331e565b905060006126c86126c2670de0b6b3a764000084613051565b85612fd8565b905060006126e7866126e2670de0b6b3a764000085613051565b612fd8565b905060006126f58b836132b6565b90506000612703828d61331e565b9050600061271182876133b2565b9050600061271f828d612fd8565b905061272b818d613051565b9e9d5050505050505050505050505050565b64e8d4a51000670de0b6b3a7640000610960565b60008061275e878661331e565b90506000612779856126e2670de0b6b3a76400006000613051565b905060006127878883613051565b90506000612795828a61331e565b905060006127b4826127af670de0b6b3a76400008861331e565b6133b2565b905060006127c2828e612fd8565b905060006127d08e83613051565b905060006127e96115de670de0b6b3a76400008a613051565b9050611601826126e2670de0b6b3a764000084613051565b336001600160a01b03166000356001600160e01b0319166001600160e01b0319166000805160206149da833981519152600036604051612842929190614385565b60405180910390a3600554610100900460ff16156128725760405162461bcd60e51b81526004016106619061467f565b6005805461ff0019166101001790556001600160a01b03811660009081526009602052604090205460ff166128b95760405162461bcd60e51b8152600401610661906146cf565b6040516370a0823160e01b81526001600160a01b038216906370a08231906128e59030906004016142fe565b60206040518083038186803b1580156128fd57600080fd5b505afa158015612911573d6000803e3d6000fd5b505050506040513d601f19601f8201168201806040525081019061293591906141f9565b6001600160a01b039091166000908152600960205260409020600101556005805461ff0019169055565b68056bc75e2d6310000081565b60048054604080516020601f60026000196101006001881615020190951694909404938401819004810282018101909252828152606093909290918301828280156108da5780601f106108af576101008083540402835291602001916108da565b6704a03ce68d21555681565b6542524f4e5a4560d01b90565b6000806129f3878761331e565b90506000612a01868661331e565b90506000612a0f838361331e565b90506000612a31670de0b6b3a76400006115fc670de0b6b3a764000089613051565b9050612a3d8282612fd8565b9a9950505050505050505050565b6000612a58338484613156565b50600192915050565b336001600160a01b03166000356001600160e01b0319166001600160e01b0319166000805160206149da833981519152600036604051612aa2929190614385565b60405180910390a3600554610100900460ff1615612ad25760405162461bcd60e51b81526004016106619061467f565b6005805461ff0019166101001790556000612aeb61094a565b90506000612afa856000612fd8565b90506000612b088683613051565b90506000612b16828561331e565b905080612b355760405162461bcd60e51b815260040161066190614485565b612b3f338861308a565b600554612b5b906201000090046001600160a01b0316846130a4565b612b6482613098565b60005b600854811015612c9c57600060088281548110612b8057fe5b60009182526020808320909101546001600160a01b03168083526009909152604082206001015490925090612bb58583612fd8565b905080612bd45760405162461bcd60e51b815260040161066190614485565b898985818110612be057fe5b90506020020135811015612c065760405162461bcd60e51b815260040161066190614529565b6001600160a01b038316600090815260096020526040902060010154612c2c9082613051565b6001600160a01b0384166000818152600960205260409081902060010192909255905133907fe74c91552b64c2e2e7bd255639e004e693bd3e1d01cc33e65610b86afcc1ffed90612c7e90859061437c565b60405180910390a3612c918333836130ae565b505050600101612b67565b50506005805461ff0019169055505050505050565b600881565b600281565b600181565b600080612ccd878661331e565b90506000612ce3670de0b6b3a764000085613051565b9050612cef8582612fd8565b90506000612d018a6115fc8c856132b6565b90506000612d0f82856133b2565b90506000612d25670de0b6b3a764000083613051565b9050612d318a82612fd8565b9c9b505050505050505050505050565b600a670de0b6b3a7640000610960565b671bc16d674ec7ffff81565b6050670de0b6b3a7640000610960565b600081565b336001600160a01b03166000356001600160e01b0319166001600160e01b0319166000805160206149da833981519152600036604051612db3929190614385565b60405180910390a3600554610100900460ff1615612de35760405162461bcd60e51b81526004016106619061467f565b6005805461ff001916610100179055600654336001600160a01b0390911614612e1e5760405162461bcd60e51b815260040161066190614407565b6001600160a01b03811660009081526009602052604090205460ff16612e565760405162461bcd60e51b8152600401610661906146cf565b600b546001600160a01b038216600090815260096020526040902054612e8c9190600160381b90046001600160601b0316613051565b600b55612e9881613839565b506005805461ff0019169055565b3360009081526001602090815260408083206001600160a01b0386168452909152812054612ed490836132b6565b3360008181526001602090815260408083206001600160a01b038916808552925291829020849055905190926000805160206149fa8339815191529161092b919061437c565b6001600160a01b03918216600090815260016020908152604080832093909416825291909152205490565b6002670de0b6b3a7640000610960565b600080612f62858861331e565b90506000612f708786613051565b90506000612f7e888361331e565b90506000612f8c82856133b2565b9050612fa081670de0b6b3a7640000613051565b9050612fb4670de0b6b3a764000087613051565b9450612fc9612fc38c83612fd8565b8661331e565b9b9a5050505050505050505050565b6000828202831580612ff2575082848281612fef57fe5b04145b61300e5760405162461bcd60e51b815260040161066190614770565b6706f05b59d3b200008101818110156130395760405162461bcd60e51b815260040161066190614770565b6000670de0b6b3a7640000825b049695505050505050565b60008060006130608585613af1565b9150915080156130825760405162461bcd60e51b8152600401610661906148c0565b509392505050565b6130948282613b16565b5050565b6130a181613b21565b50565b6130948282613bca565b60405163a9059cbb60e01b81526000906001600160a01b0385169063a9059cbb906130df9086908690600401614336565b602060405180830381600087803b1580156130f957600080fd5b505af115801561310d573d6000803e3d6000fd5b505050506040513d601f19601f8201168201806040525081019061313191906141c5565b9050806131505760405162461bcd60e51b815260040161066190614897565b50505050565b6001600160a01b03831660009081526020819052604090205481111561318e5760405162461bcd60e51b815260040161066190614579565b6001600160a01b0383166000908152602081905260409020546131b19082613051565b6001600160a01b0380851660009081526020819052604080822093909355908416815220546131e090826132b6565b6001600160a01b0380841660008181526020819052604090819020939093559151908516907fddf252ad1be2c89b69c2b068fc378daa952ba7f163c4a11628f55a4df523b3ef9061323290859061437c565b60405180910390a3505050565b600354600260001961010060018416150201909116041580156132625750815115155b801561326e5750805115155b61328a5760405162461bcd60e51b81526004016106619061464f565b815161329d906003906020850190613dd7565b5080516132b1906004906020840190613dd7565b505050565b6000828201838110156132db5760405162461bcd60e51b8152600401610661906148eb565b9392505050565b6040516323b872dd60e01b81526000906001600160a01b038516906323b872dd906130df90869030908790600401614312565b6130a181613bd5565b60008161333d5760405162461bcd60e51b8152600401610661906147e8565b670de0b6b3a764000083028315806133655750670de0b6b3a764000084828161336257fe5b04145b6133815760405162461bcd60e51b8152600401610661906145d0565b600283048101818110156133a75760405162461bcd60e51b8152600401610661906145d0565b600084828161304657fe5b600060018310156133d55760405162461bcd60e51b81526004016106619061483b565b671bc16d674ec7ffff8311156133fd5760405162461bcd60e51b81526004016106619061496a565b600061340883613c44565b905060006134168483613051565b9050600061342c8661342785613c5f565b613c6d565b90508161343d579250610937915050565b600061344e87846305f5e100613cc4565b905061345a8282612fd8565b979650505050505050565b61346d613da2565b506001600160a01b038216600090815260096020908152604091829020825160c081018452815460ff808216151580845265ffffffffffff610100840416958401959095526001600160601b03600160381b8304811696840196909652600160981b82049095166060830152600160f81b900490931660808401526001015460a083015261350d5760405162461bcd60e51b8152600401610661906146cf565b670de0b6b3a7640000826001600160601b031610158061353457506001600160601b038216155b6135505760405162461bcd60e51b815260040161066190614748565b6802b5e3af16b18800006001600160601b03831611156135825760405162461bcd60e51b8152600401610661906144d3565b6001600160601b038216606082018190526001600160a01b0384166000908152600960205260409081902080546bffffffffffffffffffffffff60981b1916600160981b90930292909217909155517fc7ea88f3376e27ce6ebc2025310023327f743a8377d438258c36b166dd8b298390613600908590859061434f565b60405180910390a161315081845b600082604001516001600160601b031683606001516001600160601b031614806136475750610e10836020015165ffffffffffff164203105b1561365457506000610937565b6000836040015190506000613674826001600160601b0316600754612fd8565b60608601519091506001600160601b0380841690821611156137245760006136ae826001600160601b0316856001600160601b0316613051565b90506001600160601b038416158015906136c757508281115b156136e5576136df846001600160601b0316846132b6565b91508290505b6136f1600b54826132b6565b600b8190556802b5e3af16b1880000101561371e5760405162461bcd60e51b8152600401610661906144fb565b50613776565b6000613742846001600160601b0316836001600160601b0316613051565b9050828111156137655761375f846001600160601b031684613051565b91508290505b613771600b5482613051565b600b55505b7f21b12aed5d425f5675450ffeeae01039085e5323974c3099e1828155d9b51e7785826040516137a792919061434f565b60405180910390a16001600160601b0381166137cb576137c685613839565b61382d565b6001600160601b03811660408781018290526001600160a01b038716600090815260096020522080546bffffffffffffffffffffffff60381b1916600160381b9092029190911766ffffffffffff0019166101004265ffffffffffff16021790555b50600195945050505050565b613841613da2565b506001600160a01b0381166000908152600960209081526040808320815160c081018352815460ff8082161515835265ffffffffffff610100830416958301959095526001600160601b03600160381b8204811694830194909452600160981b81049093166060820152600160f81b909204909216608082015260019091015460a0820181905290916138d48282612fd8565b608084015160085491925060ff1690600019018082146139a557600881815481106138fb57fe5b600091825260209091200154600880546001600160a01b03909216918490811061392157fe5b9060005260206000200160006101000a8154816001600160a01b0302191690836001600160a01b0316021790555081600960006008858154811061396157fe5b60009182526020808320909101546001600160a01b031683528201929092526040019020805460ff92909216600160f81b026001600160f81b039092169190911790555b60088054806139b057fe5b60008281526020808220600019908401810180546001600160a01b03191690559092019092556040805160c081018252838152808301848152818301858152606083018681526080840187815260a085018881526001600160a01b038f16895260099097529490962092518354925191519651945160ff199093169015151766ffffffffffff00191661010065ffffffffffff90921691909102176bffffffffffffffffffffffff60381b1916600160381b6001600160601b0396871602176bffffffffffffffffffffffff60981b1916600160981b9590931694909402919091176001600160f81b0316600160f81b60ff909416939093029290921782555160019190910155613acb8633613ac68787613051565b6130ae565b600554613ae99087906201000090046001600160a01b0316856130ae565b505050505050565b600080828410613b075750508082036000613b0f565b505081810360015b9250929050565b613094823083613156565b30600090815260208190526040902054811115613b505760405162461bcd60e51b815260040161066190614579565b30600090815260208190526040902054613b6a9082613051565b30600090815260208190526040902055600254613b879082613051565b60025560405160009030907fddf252ad1be2c89b69c2b068fc378daa952ba7f163c4a11628f55a4df523b3ef90613bbf90859061437c565b60405180910390a350565b613094308383613156565b30600090815260208190526040902054613bef90826132b6565b30600090815260208190526040902055600254613c0c90826132b6565b60025560405130906000907fddf252ad1be2c89b69c2b068fc378daa952ba7f163c4a11628f55a4df523b3ef90613bbf90859061437c565b6000670de0b6b3a7640000613c5883613c5f565b0292915050565b670de0b6b3a7640000900490565b60008060028306613c8657670de0b6b3a7640000613c88565b835b90506002830492505b82156132db57613ca18485612fd8565b93506002830615613cb957613cb68185612fd8565b90505b600283049250613c91565b6000828180613cdb87670de0b6b3a7640000613af1565b9092509050670de0b6b3a764000080600060015b888410613d93576000670de0b6b3a764000082029050600080613d238a613d1e85670de0b6b3a7640000613051565b613af1565b91509150613d35876126e2848c612fd8565b9650613d41878461331e565b965086613d5057505050613d93565b8715613d5a579315935b8015613d64579315935b8415613d7b57613d748688613051565b9550613d88565b613d8586886132b6565b95505b505050600101613cef565b50909998505050505050505050565b6040805160c081018252600080825260208201819052918101829052606081018290526080810182905260a081019190915290565b828054600181600116156101000203166002900490600052602060002090601f016020900481019282601f10613e1857805160ff1916838001178555613e45565b82800160010185558215613e45579182015b82811115613e45578251825591602001919060010190613e2a565b50613e51929150613e55565b5090565b5b80821115613e515760008155600101613e56565b80356001600160a01b038116811461093757600080fd5b60008083601f840112613e92578182fd5b50813567ffffffffffffffff811115613ea9578182fd5b6020830191508360208083028501011115613b0f57600080fd5b60008083601f840112613ed4578182fd5b50813567ffffffffffffffff811115613eeb578182fd5b602083019150836020828501011115613b0f57600080fd5b600060208284031215613f14578081fd5b6132db8383613e6a565b60008060408385031215613f30578081fd5b613f3a8484613e6a565b9150613f498460208501613e6a565b90509250929050565b600080600060608486031215613f66578081fd5b8335613f71816149b6565b92506020840135613f81816149b6565b929592945050506040919091013590565b600080600080600080600080600080600060c08c8e031215613fb2578687fd5b613fbc8d8d613e6a565b9a5067ffffffffffffffff8060208e01351115613fd7578788fd5b613fe78e60208f01358f01613ec3565b909b50995060408d0135811015613ffc578788fd5b61400c8e60408f01358f01613ec3565b909950975060608d0135811015614021578687fd5b6140318e60608f01358f01613e81565b909750955060808d0135811015614046578485fd5b6140568e60808f01358f01613e81565b909550935060a08d013581101561406b578283fd5b5061407c8d60a08e01358e01613e81565b81935080925050509295989b509295989b9093969950565b600080604083850312156140a6578182fd5b6140b08484613e6a565b946020939093013593505050565b600080600080600060a086880312156140d5578081fd5b6140df8787613e6a565b9450602086013593506140f58760408801613e6a565b94979396509394606081013594506080013592915050565b600080600060608486031215614121578283fd5b61412b8585613e6a565b95602085013595506040909401359392505050565b60008060008060408587031215614155578384fd5b843567ffffffffffffffff8082111561416c578586fd5b61417888838901613e81565b90965094506020870135915080821115614190578384fd5b5061419d87828801613e81565b95989497509550505050565b6000602082840312156141ba578081fd5b81356132db816149cb565b6000602082840312156141d6578081fd5b81516132db816149cb565b6000602082840312156141f2578081fd5b5035919050565b60006020828403121561420a578081fd5b5051919050565b600080600060408486031215614225578081fd5b83359250602084013567ffffffffffffffff811115614242578182fd5b61424e86828701613e81565b9497909650939450505050565b600080600080600060a08688031215614272578283fd5b505083359560208501359550604085013594606081013594506080013592509050565b60008060008060008060c087890312156142ad578384fd5b505084359660208601359650604086013595606081013595506080810135945060a0013592509050565b6000602082840312156142e8578081fd5b81356001600160601b03811681146132db578182fd5b6001600160a01b0391909116815260200190565b6001600160a01b039384168152919092166020820152604081019190915260600190565b6001600160a01b03929092168252602082015260400190565b6001600160a01b039290921682526001600160601b0316602082015260400190565b901515815260200190565b90815260200190565b60006020825282602083015282846040840137818301604090810191909152601f909201601f19160101919050565b6000602080835283518082850152825b818110156143e0578581018301518582016040015282016143c4565b818111156143f15783604083870101525b50601f01601f1916929092016040019392505050565b60208082526012908201527122a9292fa727aa2fa1a7a72a2927a62622a960711b604082015260600190565b6020808252600e908201526d4552525f4d41585f544f4b454e5360901b604082015260600190565b60208082526010908201526f4552525f4d41585f494e5f524154494f60801b604082015260600190565b6020808252600f908201526e08aa4a4be9a82a890be82a0a0a49eb608b1b604082015260600190565b6020808252600b908201526a4552525f4d494e5f46454560a81b604082015260600190565b6020808252600e908201526d11549497d3505617d5d15251d21560921b604082015260600190565b60208082526014908201527311549497d3505617d513d5105317d5d15251d21560621b604082015260600190565b6020808252600d908201526c11549497d31253525517d3d555609a1b604082015260600190565b6020808252600f908201526e4552525f4d494e5f42414c414e434560881b604082015260600190565b60208082526014908201527311549497d25394d551919250d251539517d0905360621b604082015260600190565b6020808252600f908201526e11549497d253925512505312569151608a1b604082015260600190565b60208082526010908201526f11549497d1125597d25395115493905360821b604082015260600190565b60208082526015908201527422a9292fa12a27a5a2a72fa120a22fa1a0a62622a960591b604082015260600190565b6020808252600c908201526b22a9292fa624a6a4aa2fa4a760a11b604082015260600190565b60208082526016908201527511549497d09513d2d15397d25392551250531256915160521b604082015260600190565b6020808252600b908201526a4552525f5245454e54525960a81b604082015260600190565b6020808252601190820152704552525f4d41585f4f55545f524154494f60781b604082015260600190565b6020808252600d908201526c11549497d393d517d093d55391609a1b604082015260600190565b6020808252600b908201526a4552525f4d41585f46454560a81b604082015260600190565b6020808252601390820152724552525f4241445f4c494d49545f505249434560681b604082015260600190565b6020808252600e908201526d11549497d3525397d5d15251d21560921b604082015260600190565b60208082526010908201526f4552525f4d554c5f4f564552464c4f5760801b604082015260600190565b6020808252600b908201526a22a9292fa0a9292fa622a760a91b604082015260600190565b6020808252600f908201526e4552525f4c494d49545f505249434560881b604082015260600190565b6020808252600c908201526b4552525f4449565f5a45524f60a01b604082015260600190565b6020808252601390820152724552525f535741505f4e4f545f5055424c494360681b604082015260600190565b6020808252601590820152744552525f42504f575f424153455f544f4f5f4c4f5760581b604082015260600190565b6020808252601390820152724552525f544f4b454e5f4e4f545f524541445960681b604082015260600190565b6020808252600f908201526e4552525f45524332305f46414c534560881b604082015260600190565b6020808252601190820152704552525f5355425f554e444552464c4f5760781b604082015260600190565b60208082526010908201526f4552525f4144445f4f564552464c4f5760801b604082015260600190565b6020808252600e908201526d4552525f4d494e5f544f4b454e5360901b604082015260600190565b6020808252601390820152724552525f4a4f494e5f4e4f545f5055424c494360681b604082015260600190565b60208082526016908201527508aa4a4be84a09eaebe8482a68abea89e9ebe90928e960531b604082015260600190565b918252602082015260400190565b60ff91909116815260200190565b6001600160a01b03811681146130a157600080fd5b80151581146130a157600080fdfe25fce1fe01d9b241fda40b2152ddd6f4ba063fcfb3c2c81dddf84ee20d3f341f8c5be1e5ebec7d5bd14f71427d1e84f3dd0314c0f7b2291e5b200ac8c7c3b925a2646970667358221220fcd297f7c9fbd103d35041bb5cb65d6cd274faabea9bd589fc95cf4603e7773a64736f6c634300060c0033",
  "immutableReferences": {},
  "source": "// SPDX-License-Identifier: GPL-3.0-or-later\npragma solidity ^0.6.0;\npragma experimental ABIEncoderV2;\n\n\nimport \"./BToken.sol\";\nimport \"./BMath.sol\";\n\n\n/**\n * @title BPoolBase\n * @dev Defines the data structures, storage, events and initializer\n * for the BPool contract.\n */\ncontract BPoolBase is BBronze, BToken, BMath {\n  /**\n   * @dev Token record data structure\n   * @param bound is token bound to pool\n   * @param lastDenormUpdate timestamp of last weight change\n   * @param denorm denormalized weight\n   * @param desiredDenorm desired denormalized weight (used for incremental changes)\n   * @param index index of address in tokens array\n   * @param balance token balance\n   */\n  struct Record {\n    bool bound;\n    uint48 lastDenormUpdate;\n    uint96 denorm;\n    uint96 desiredDenorm;\n    uint8 index;\n    uint256 balance;\n  }\n\n  event LOG_SWAP(\n    address indexed caller,\n    address indexed tokenIn,\n    address indexed tokenOut,\n    uint256 tokenAmountIn,\n    uint256 tokenAmountOut\n  );\n\n  event LOG_JOIN(\n    address indexed caller,\n    address indexed tokenIn,\n    uint256 tokenAmountIn\n  );\n\n  event LOG_EXIT(\n    address indexed caller,\n    address indexed tokenOut,\n    uint256 tokenAmountOut\n  );\n\n  event LOG_CALL(bytes4 indexed sig, address indexed caller, bytes data);\n\n  event LOG_DENORM_UPDATED(address token, uint256 newDenorm);\n  event LOG_DESIRED_DENORM_SET(address token, uint256 desiredDenorm);\n\n  modifier _logs_() {\n    emit LOG_CALL(msg.sig, msg.sender, msg.data);\n    _;\n  }\n\n  modifier _lock_() {\n    require(!_mutex, \"ERR_REENTRY\");\n    _mutex = true;\n    _;\n    _mutex = false;\n  }\n\n  modifier _viewlock_() {\n    require(!_mutex, \"ERR_REENTRY\");\n    _;\n  }\n\n  bool internal _mutex;\n\n  address internal _factory; // BFactory address to push token exitFee to\n  address internal _controller; // has CONTROL role\n\n  // `setPublicSwap` requires CONTROL\n  // `bindInitial` sets _publicSwap to true\n  bool internal _publicSwap; // true if PUBLIC can call SWAP functions\n\n  // `setSwapFee` requires CONTROL\n  uint256 internal _swapFee;\n\n  address[] internal _tokens;\n  mapping(address => Record) internal _records;\n  // Target balance for a token which does not yet have a sufficient\n  // balance to be traded\n  mapping(address => uint256) internal _targetBalances;\n  // Total denormalized weight\n  uint256 internal _totalWeight;\n\n  function initialize(\n    address controller,\n    string calldata name,\n    string calldata symbol,\n    address[] calldata tokens,\n    uint256[] calldata balances,\n    uint96[] calldata denorms\n  )\n    external\n  {\n    require(\n      _controller == address(0) &&\n      controller != address(0),\n      \"ERR_INITIALIZED\"\n    );\n    _controller = controller;\n    _factory = msg.sender;\n    // default fee is 2.5%\n    _swapFee = BONE / 40;\n    _initializeToken(name, symbol);\n    uint256 len = tokens.length;\n    require(len >= MIN_BOUND_TOKENS, \"ERR_MIN_TOKENS\");\n    require(len <= MAX_BOUND_TOKENS, \"ERR_MAX_TOKENS\");\n    require(\n      balances.length == len &&\n      denorms.length == len,\n      \"ERR_ARR_LEN\"\n    );\n    uint256 totalWeight = 0;\n    for (uint256 i = 0; i < len; i++) {\n      // _bind(tokens[i], balances[i], denorms[i]);\n      address token = tokens[i];\n      uint96 denorm = denorms[i];\n      uint256 balance = balances[i];\n      require(denorm >= MIN_WEIGHT, \"ERR_MIN_WEIGHT\");\n      require(denorm <= MAX_WEIGHT, \"ERR_MAX_WEIGHT\");\n      require(balance >= MIN_BALANCE, \"ERR_MIN_BALANCE\");\n      _records[token] = Record({\n        bound: true,\n        lastDenormUpdate: uint48(now),\n        denorm: denorm,\n        desiredDenorm: denorm,\n        index: uint8(_tokens.length),\n        balance: balance\n      });\n      _tokens.push(token);\n      totalWeight = badd(totalWeight, denorm);\n      _pullUnderlying(token, msg.sender, balance);\n    }\n    require(totalWeight <= MAX_TOTAL_WEIGHT, \"ERR_MAX_TOTAL_WEIGHT\");\n    _totalWeight = totalWeight;\n    _publicSwap = true;\n    _mintPoolShare(INIT_POOL_SUPPLY);\n    _pushPoolShare(msg.sender, INIT_POOL_SUPPLY);\n  }\n\n  // Absorb any tokens that have been sent to this contract into the pool\n  function gulp(address token) external _logs_ _lock_ {\n    require(_records[token].bound, \"ERR_NOT_BOUND\");\n    _records[token].balance = IERC20(token).balanceOf(address(this));\n  }\n\n  /* <-- Swap Actions --> */\n  function swapExactAmountIn(\n    address tokenIn,\n    uint256 tokenAmountIn,\n    address tokenOut,\n    uint256 minAmountOut,\n    uint256 maxPrice\n  )\n    external\n    _logs_\n    _lock_\n    returns (uint256 tokenAmountOut, uint256 spotPriceAfter)\n  {\n    require(_records[tokenIn].bound, \"ERR_NOT_BOUND\");\n    require(_records[tokenOut].bound, \"ERR_NOT_BOUND\");\n    require(_publicSwap, \"ERR_SWAP_NOT_PUBLIC\");\n    require(_targetBalances[tokenOut] == 0, \"ERR_TOKEN_NOT_READY\");\n\n    Record memory inRecord = _records[address(tokenIn)];\n    Record memory outRecord = _records[address(tokenOut)];\n    uint256 targetBalance = _targetBalances[tokenIn];\n    if (targetBalance == 0) {\n      require(\n        tokenAmountIn <= bmul(inRecord.balance, MAX_IN_RATIO),\n        \"ERR_MAX_IN_RATIO\"\n      );\n    }\n    uint256 spotPriceBefore = calcSpotPrice(\n      inRecord.balance,\n      inRecord.denorm,\n      outRecord.balance,\n      outRecord.denorm,\n      _swapFee\n    );\n    require(spotPriceBefore <= maxPrice, \"ERR_BAD_LIMIT_PRICE\");\n\n    tokenAmountOut = calcOutGivenIn(\n      inRecord.balance,\n      inRecord.denorm,\n      outRecord.balance,\n      outRecord.denorm,\n      tokenAmountIn,\n      _swapFee\n    );\n    require(tokenAmountOut >= minAmountOut, \"ERR_LIMIT_OUT\");\n    // Update the in-memory record for the spotPriceAfter calculation,\n    // then update the storage record with the local balance.\n    inRecord.balance = badd(inRecord.balance, tokenAmountIn);\n    _records[address(tokenIn)].balance = inRecord.balance;\n    outRecord.balance = bsub(outRecord.balance, tokenAmountOut);\n    _records[address(tokenOut)].balance = outRecord.balance;\n\n    _updateDenorm(inRecord, address(tokenIn));\n    _updateDenorm(outRecord, address(tokenOut));\n\n    spotPriceAfter = calcSpotPrice(\n      inRecord.balance,\n      inRecord.denorm,\n      outRecord.balance,\n      outRecord.denorm,\n      _swapFee\n    );\n    // Only validate the resulting spot price if the weights did not change.\n    // require(didUpdate || spotPriceAfter >= spotPriceBefore, \"ERR_MATH_APPROX\");\n    require(spotPriceAfter <= maxPrice, \"ERR_LIMIT_PRICE\");\n    require(\n      spotPriceBefore <= bdiv(tokenAmountIn, tokenAmountOut),\n      \"ERR_MATH_APPROX\"\n    );\n\n    emit LOG_SWAP(msg.sender, tokenIn, tokenOut, tokenAmountIn, tokenAmountOut);\n\n    _pullUnderlying(tokenIn, msg.sender, tokenAmountIn);\n    _pushUnderlying(tokenOut, msg.sender, tokenAmountOut);\n\n    return (tokenAmountOut, spotPriceAfter);\n  }\n\n  function swapExactAmountOut(\n    address tokenIn,\n    uint256 maxAmountIn,\n    address tokenOut,\n    uint256 tokenAmountOut,\n    uint256 maxPrice\n  )\n    external\n    _logs_\n    _lock_\n    returns (uint256 tokenAmountIn, uint256 spotPriceAfter)\n  {\n    require(_records[tokenIn].bound, \"ERR_NOT_BOUND\");\n    require(_records[tokenOut].bound, \"ERR_NOT_BOUND\");\n    require(_publicSwap, \"ERR_SWAP_NOT_PUBLIC\");\n\n    Record memory inRecord = _records[address(tokenIn)];\n    Record memory outRecord = _records[address(tokenOut)];\n\n    require(\n      tokenAmountOut <= bmul(outRecord.balance, MAX_OUT_RATIO),\n      \"ERR_MAX_OUT_RATIO\"\n    );\n\n    uint256 spotPriceBefore = calcSpotPrice(\n      inRecord.balance,\n      inRecord.denorm,\n      outRecord.balance,\n      outRecord.denorm,\n      _swapFee\n    );\n    require(spotPriceBefore <= maxPrice, \"ERR_BAD_LIMIT_PRICE\");\n\n    tokenAmountIn = calcInGivenOut(\n      inRecord.balance,\n      inRecord.denorm,\n      outRecord.balance,\n      outRecord.denorm,\n      tokenAmountOut,\n      _swapFee\n    );\n    require(tokenAmountIn <= maxAmountIn, \"ERR_LIMIT_IN\");\n\n    // Update the in-memory record for the spotPriceAfter calculation,\n    // then update the storage record with the local balance.\n    inRecord.balance = badd(inRecord.balance, tokenAmountIn);\n    _records[address(tokenIn)].balance = inRecord.balance;\n    outRecord.balance = bsub(outRecord.balance, tokenAmountOut);\n    _records[address(tokenOut)].balance = outRecord.balance;\n\n    _updateDenorm(inRecord, address(tokenIn));\n    _updateDenorm(outRecord, address(tokenOut));\n\n    spotPriceAfter = calcSpotPrice(\n      inRecord.balance,\n      inRecord.denorm,\n      outRecord.balance,\n      outRecord.denorm,\n      _swapFee\n    );\n    // Only validate the resulting spot price if the weights did not change.\n    // require(didUpdate || spotPriceAfter >= spotPriceBefore, \"ERR_MATH_APPROX\");\n    require(spotPriceAfter <= maxPrice, \"ERR_LIMIT_PRICE\");\n    require(\n      spotPriceBefore <= bdiv(tokenAmountIn, tokenAmountOut),\n      \"ERR_MATH_APPROX\"\n    );\n\n    emit LOG_SWAP(msg.sender, tokenIn, tokenOut, tokenAmountIn, tokenAmountOut);\n\n    _pullUnderlying(tokenIn, msg.sender, tokenAmountIn);\n    _pushUnderlying(tokenOut, msg.sender, tokenAmountOut);\n\n    return (tokenAmountIn, spotPriceAfter);\n  }\n\n  /* <-- Pool Share Internal Functions --> */\n  function _pullPoolShare(address from, uint256 amount) internal {\n    _pull(from, amount);\n  }\n\n  function _pushPoolShare(address to, uint256 amount) internal {\n    _push(to, amount);\n  }\n\n  function _mintPoolShare(uint256 amount) internal {\n    _mint(amount);\n  }\n\n  function _burnPoolShare(uint256 amount) internal {\n    _burn(amount);\n  }\n\n  /* <-- Underlying Token Internal Functions --> */\n  // 'Underlying' token-manipulation functions make external calls but are NOT locked\n  // You must `_lock_` or otherwise ensure reentry-safety\n\n  function _pullUnderlying(\n    address erc20,\n    address from,\n    uint256 amount\n  ) internal {\n    bool xfer = IERC20(erc20).transferFrom(from, address(this), amount);\n    require(xfer, \"ERR_ERC20_FALSE\");\n  }\n\n  function _pushUnderlying(\n    address erc20,\n    address to,\n    uint256 amount\n  ) internal {\n    bool xfer = IERC20(erc20).transfer(to, amount);\n    require(xfer, \"ERR_ERC20_FALSE\");\n  }\n\n  /* <-- Token Binding Internal Functions --> */\n  /**\n   * @dev Directly bind a token by address.\n   * Note: Token must not already be bound.\n   * Note: `balance` must be a valid balance and denorm must be a valid denormalized weight.\n   * Note: `balance` should match the weight which will immediately be set, i.e. max()\n   */\n  function _bind(\n    address token,\n    uint256 balance,\n    uint96 denorm\n  ) internal {\n    require(!_records[token].bound, \"ERR_IS_BOUND\");\n\n    require(denorm >= MIN_WEIGHT, \"ERR_MIN_WEIGHT\");\n    require(denorm <= MAX_WEIGHT, \"ERR_MAX_WEIGHT\");\n    require(balance >= MIN_BALANCE, \"ERR_MIN_BALANCE\");\n\n    require(_tokens.length < MAX_BOUND_TOKENS, \"ERR_MAX_TOKENS\");\n    _records[token] = Record({\n      bound: true,\n      lastDenormUpdate: uint48(now),\n      denorm: denorm,\n      desiredDenorm: denorm,\n      index: uint8(_tokens.length),\n      balance: balance\n    });\n    _tokens.push(token);\n    uint256 totalWeight = badd(_totalWeight, denorm);\n    require(totalWeight <= MAX_TOTAL_WEIGHT, \"ERR_MAX_TOTAL_WEIGHT\");\n    _totalWeight = totalWeight;\n    _pullUnderlying(token, msg.sender, balance);\n  }\n\n  function _setDesiredDenorm(address token, uint96 desiredDenorm) internal {\n    Record memory record = _records[token];\n    require(record.bound, \"ERR_NOT_BOUND\");\n    // If the desired weight is 0, this will trigger a gradual unbinding of the token.\n    // Therefore the weight only needs to be greater than the minimum weight if it isn't 0.\n    require(desiredDenorm >= MIN_WEIGHT || desiredDenorm == 0, \"ERR_MIN_WEIGHT\");\n    require(desiredDenorm <= MAX_WEIGHT, \"ERR_MAX_WEIGHT\");\n    record.desiredDenorm = desiredDenorm;\n    _records[token].desiredDenorm = desiredDenorm;\n    emit LOG_DESIRED_DENORM_SET(token, desiredDenorm);\n    _updateDenorm(record, token);\n  }\n\n  /**\n   * @dev Executes the logic to remove a token:\n   * Replaces the address in the tokens array with the last address,\n   * then removes it from the array.\n   * Note: This should only be called after the total weight has been adjusted.\n   * Note: Must be called in a function with:\n   * - _lock_ modifier to prevent reentrance\n   * - requirement that the token is bound\n   */\n  function _onUnbind(address token) internal {\n    Record memory record = _records[token];\n    uint256 tokenBalance = record.balance;\n    uint256 tokenExitFee = bmul(tokenBalance, EXIT_FEE);\n\n    // Swap the token-to-unbind with the last token,\n    // then delete the last token\n    uint256 index = record.index;\n    uint256 last = _tokens.length - 1;\n    // Only swap the token with the last token if it is not\n    // already at the end of the array.\n    if (index != last) {\n      _tokens[index] = _tokens[last];\n      _records[_tokens[index]].index = uint8(index);\n    }\n    _tokens.pop();\n    _records[token] = Record({\n      bound: false,\n      lastDenormUpdate: 0,\n      denorm: 0,\n      desiredDenorm: 0,\n      index: 0,\n      balance: 0\n    });\n    // transfer any remaining tokens out\n    _pushUnderlying(token, msg.sender, bsub(tokenBalance, tokenExitFee));\n    _pushUnderlying(token, _factory, tokenExitFee);\n  }\n\n  /**\n   * @dev Move a record's denorm value closer to its desired denorm.\n   * Note: Does not verify that the record is bound.\n   */\n  function _updateDenorm(Record memory record, address token)\n    internal\n    returns (bool didUpdate)\n  {\n    // Don't do anything if there's no change ready.\n    if (\n      record.desiredDenorm == record.denorm ||\n      now - record.lastDenormUpdate < MIN_WEIGHT_DELAY\n    ) return false;\n    uint96 oldWeight = record.denorm;\n\n    uint256 maxDiff = bmul(oldWeight, _swapFee);\n    uint96 denorm = record.desiredDenorm;\n    // Restrict the proportional weight change to swapFee\n    // Adjust the denorm and totalWeight\n    if (denorm > oldWeight) {\n      uint256 diff = bsub(denorm, oldWeight);\n      if (oldWeight != 0 && diff > maxDiff) {\n        denorm = uint96(badd(oldWeight, maxDiff));\n        diff = maxDiff;\n      }\n      _totalWeight = badd(_totalWeight, diff);\n      require(_totalWeight <= MAX_TOTAL_WEIGHT, \"ERR_MAX_TOTAL_WEIGHT\");\n    } else {\n      uint256 diff = bsub(oldWeight, denorm);\n      if (diff > maxDiff) {\n        denorm = uint96(bsub(oldWeight, maxDiff));\n        diff = maxDiff;\n      }\n      _totalWeight = bsub(_totalWeight, diff);\n      // Don't need to verify total weight since it is decreasing\n    }\n    emit LOG_DENORM_UPDATED(token, denorm);\n    // If the new weight is 0, unbind it.\n    if (denorm == 0) {\n      _onUnbind(token);\n    } else {\n      // Update the in-memory denorm value, because it is needed in some functions\n      // the timestamp is never needed within the contract.\n      record.denorm = denorm;\n      // Update the storage record\n      _records[token].denorm = denorm;\n      _records[token].lastDenormUpdate = uint48(now);\n    }\n    return true;\n  }\n\n  /* Internal Utility Fns */\n  /**\n   * @dev Calculates the new weight for a token.\n   * This will not allow the weight to be adjusted by more than\n   * the maximum weight change, which is calculated as\n   * (totalWeight * swapFee / 2)\n  */\n  function _calcNewWeight(\n    uint96 desiredDenorm,\n    uint96 denorm\n  ) internal view returns (uint96) {\n    bool incr = desiredDenorm > denorm;\n    uint96 maxDiff = uint96(bmul(MAX_WEIGHT_CHANGE, _totalWeight));\n    uint96 realDiff = incr\n      ? uint96(bsub(desiredDenorm, denorm))\n      : uint96(bsub(denorm, desiredDenorm));\n    // difference is allowable\n    if (maxDiff > realDiff) return desiredDenorm;\n    // difference exceeds the max difference\n    return incr\n      ? uint96(badd(denorm, maxDiff))\n      : uint96(bsub(denorm, maxDiff));\n  }\n}\n\n\n/**\n * @title BPoolQueries\n * @dev Defines the BPool external query functions.\n */\ncontract BPoolQueries is BPoolBase {\n  /* <-- Meta Queries --> */\n  function isPublicSwap() external view returns (bool) {\n    return _publicSwap;\n  }\n\n  /**\n   * @dev There is no `_finalized` variable, so this returns `_publicSwap`.\n   */\n  function isFinalized() external view returns (bool) {\n    return _publicSwap;\n  }\n\n  function getSwapFee() external view _viewlock_ returns (uint256) {\n    return _swapFee;\n  }\n\n  function getController() external view _viewlock_ returns (address) {\n    return _controller;\n  }\n\n  /* <-- Token Queries --> */\n  function isBound(address t) external view returns (bool) {\n    return _records[t].bound;\n  }\n\n  function getNumTokens() external view returns (uint256) {\n    return _tokens.length;\n  }\n\n  function getCurrentTokens()\n    external\n    view\n    _viewlock_\n    returns (address[] memory tokens)\n  {\n    return _tokens;\n  }\n\n  function getDenormalizedWeight(address token)\n    external\n    view\n    _viewlock_\n    returns (uint256)\n  {\n    require(_records[token].bound, \"ERR_NOT_BOUND\");\n    return _records[token].denorm;\n  }\n\n  function getTokenRecord(address token)\n    external\n    view\n    _viewlock_\n    returns (Record memory record)\n  {\n    record = _records[token];\n    require(record.bound, \"ERR_NOT_BOUND\");\n  }\n\n  function getTotalDenormalizedWeight()\n    external\n    view\n    _viewlock_\n    returns (uint256)\n  {\n    return _totalWeight;\n  }\n\n  function getNormalizedWeight(address token)\n    external\n    view\n    _viewlock_\n    returns (uint256)\n  {\n    require(_records[token].bound, \"ERR_NOT_BOUND\");\n    uint256 denorm = _records[token].denorm;\n    return bdiv(denorm, _totalWeight);\n  }\n\n  function getBalance(address token)\n    external\n    view\n    _viewlock_\n    returns (uint256)\n  {\n    require(_records[token].bound, \"ERR_NOT_BOUND\");\n    return _records[token].balance;\n  }\n\n  /* <-- Price Queries --> */\n  function getSpotPrice(address tokenIn, address tokenOut)\n    external\n    view\n    _viewlock_\n    returns (uint256 spotPrice)\n  {\n    require(_records[tokenIn].bound, \"ERR_NOT_BOUND\");\n    require(_records[tokenOut].bound, \"ERR_NOT_BOUND\");\n    Record storage inRecord = _records[tokenIn];\n    Record storage outRecord = _records[tokenOut];\n    return\n      calcSpotPrice(\n        inRecord.balance,\n        inRecord.denorm,\n        outRecord.balance,\n        outRecord.denorm,\n        _swapFee\n      );\n  }\n\n  function getSpotPriceSansFee(address tokenIn, address tokenOut)\n    external\n    view\n    _viewlock_\n    returns (uint256 spotPrice)\n  {\n    require(_records[tokenIn].bound, \"ERR_NOT_BOUND\");\n    require(_records[tokenOut].bound, \"ERR_NOT_BOUND\");\n    Record storage inRecord = _records[tokenIn];\n    Record storage outRecord = _records[tokenOut];\n    return\n      calcSpotPrice(\n        inRecord.balance,\n        inRecord.denorm,\n        outRecord.balance,\n        outRecord.denorm,\n        0\n      );\n  }\n}\n\n\n/**\n * @title BPoolShares\n * @dev Defines the functions for joining and exiting the pool.\n */\ncontract BPoolShares is BPoolBase {\n  /* <-- Liquidity Provider Actions --> */\n  function joinPool(uint256 poolAmountOut, uint256[] calldata maxAmountsIn)\n    external\n    _logs_\n    _lock_\n  {\n    require(_publicSwap, \"ERR_JOIN_NOT_PUBLIC\");\n    uint256 poolTotal = totalSupply();\n    uint256 ratio = bdiv(poolAmountOut, poolTotal);\n    require(ratio != 0, \"ERR_MATH_APPROX\");\n\n    for (uint256 i = 0; i < _tokens.length; i++) {\n      address t = _tokens[i];\n      uint256 bal = _records[t].balance;\n      uint256 tokenAmountIn = bmul(ratio, bal);\n      require(tokenAmountIn != 0, \"ERR_MATH_APPROX\");\n      require(tokenAmountIn <= maxAmountsIn[i], \"ERR_LIMIT_IN\");\n      _records[t].balance = badd(_records[t].balance, tokenAmountIn);\n      emit LOG_JOIN(msg.sender, t, tokenAmountIn);\n      _pullUnderlying(t, msg.sender, tokenAmountIn);\n    }\n    _mintPoolShare(poolAmountOut);\n    _pushPoolShare(msg.sender, poolAmountOut);\n  }\n\n  function exitPool(uint256 poolAmountIn, uint256[] calldata minAmountsOut)\n    external\n    _logs_\n    _lock_\n  {\n    uint256 poolTotal = totalSupply();\n    uint256 exitFee = bmul(poolAmountIn, EXIT_FEE);\n    uint256 pAiAfterExitFee = bsub(poolAmountIn, exitFee);\n    uint256 ratio = bdiv(pAiAfterExitFee, poolTotal);\n    require(ratio != 0, \"ERR_MATH_APPROX\");\n\n    _pullPoolShare(msg.sender, poolAmountIn);\n    _pushPoolShare(_factory, exitFee);\n    _burnPoolShare(pAiAfterExitFee);\n\n    for (uint256 i = 0; i < _tokens.length; i++) {\n      address t = _tokens[i];\n      uint256 bal = _records[t].balance;\n      uint256 tokenAmountOut = bmul(ratio, bal);\n      require(tokenAmountOut != 0, \"ERR_MATH_APPROX\");\n      require(tokenAmountOut >= minAmountsOut[i], \"ERR_LIMIT_OUT\");\n      _records[t].balance = bsub(_records[t].balance, tokenAmountOut);\n      emit LOG_EXIT(msg.sender, t, tokenAmountOut);\n      _pushUnderlying(t, msg.sender, tokenAmountOut);\n    }\n  }\n\n  function joinswapExternAmountIn(\n    address tokenIn,\n    uint256 tokenAmountIn,\n    uint256 minPoolAmountOut\n  ) external _logs_ _lock_ returns (uint256 poolAmountOut) {\n    require(_publicSwap, \"ERR_JOIN_NOT_PUBLIC\");\n    require(_records[tokenIn].bound, \"ERR_NOT_BOUND\");\n    require(\n      tokenAmountIn <= bmul(_records[tokenIn].balance, MAX_IN_RATIO),\n      \"ERR_MAX_IN_RATIO\"\n    );\n    Record storage inRecord = _records[tokenIn];\n\n    poolAmountOut = calcPoolOutGivenSingleIn(\n      inRecord.balance,\n      inRecord.denorm,\n      _totalSupply,\n      _totalWeight,\n      tokenAmountIn,\n      _swapFee\n    );\n\n    require(poolAmountOut >= minPoolAmountOut, \"ERR_LIMIT_OUT\");\n\n    inRecord.balance = badd(inRecord.balance, tokenAmountIn);\n\n    emit LOG_JOIN(msg.sender, tokenIn, tokenAmountIn);\n\n    _mintPoolShare(poolAmountOut);\n    _pushPoolShare(msg.sender, poolAmountOut);\n    _pullUnderlying(tokenIn, msg.sender, tokenAmountIn);\n\n    return poolAmountOut;\n  }\n\n  function joinswapPoolAmountOut(\n    address tokenIn,\n    uint256 poolAmountOut,\n    uint256 maxAmountIn\n  ) external _logs_ _lock_ returns (uint256 tokenAmountIn) {\n    require(_publicSwap, \"ERR_JOIN_NOT_PUBLIC\");\n    require(_records[tokenIn].bound, \"ERR_NOT_BOUND\");\n\n    Record storage inRecord = _records[tokenIn];\n\n    tokenAmountIn = calcSingleInGivenPoolOut(\n      inRecord.balance,\n      inRecord.denorm,\n      _totalSupply,\n      _totalWeight,\n      poolAmountOut,\n      _swapFee\n    );\n\n    require(tokenAmountIn != 0, \"ERR_MATH_APPROX\");\n    require(tokenAmountIn <= maxAmountIn, \"ERR_LIMIT_IN\");\n\n    require(\n      tokenAmountIn <= bmul(_records[tokenIn].balance, MAX_IN_RATIO),\n      \"ERR_MAX_IN_RATIO\"\n    );\n\n    inRecord.balance = badd(inRecord.balance, tokenAmountIn);\n\n    emit LOG_JOIN(msg.sender, tokenIn, tokenAmountIn);\n\n    _mintPoolShare(poolAmountOut);\n    _pushPoolShare(msg.sender, poolAmountOut);\n    _pullUnderlying(tokenIn, msg.sender, tokenAmountIn);\n\n    return tokenAmountIn;\n  }\n\n  function exitswapPoolAmountIn(\n    address tokenOut,\n    uint256 poolAmountIn,\n    uint256 minAmountOut\n  ) external _logs_ _lock_ returns (uint256 tokenAmountOut) {\n    require(_records[tokenOut].bound, \"ERR_NOT_BOUND\");\n\n    Record storage outRecord = _records[tokenOut];\n\n    tokenAmountOut = calcSingleOutGivenPoolIn(\n      outRecord.balance,\n      outRecord.denorm,\n      _totalSupply,\n      _totalWeight,\n      poolAmountIn,\n      _swapFee\n    );\n\n    require(tokenAmountOut >= minAmountOut, \"ERR_LIMIT_OUT\");\n\n    require(\n      tokenAmountOut <= bmul(_records[tokenOut].balance, MAX_OUT_RATIO),\n      \"ERR_MAX_OUT_RATIO\"\n    );\n\n    outRecord.balance = bsub(outRecord.balance, tokenAmountOut);\n\n    uint256 exitFee = bmul(poolAmountIn, EXIT_FEE);\n\n    emit LOG_EXIT(msg.sender, tokenOut, tokenAmountOut);\n\n    _pullPoolShare(msg.sender, poolAmountIn);\n    _burnPoolShare(bsub(poolAmountIn, exitFee));\n    _pushPoolShare(_factory, exitFee);\n    _pushUnderlying(tokenOut, msg.sender, tokenAmountOut);\n\n    return tokenAmountOut;\n  }\n\n  function exitswapExternAmountOut(\n    address tokenOut,\n    uint256 tokenAmountOut,\n    uint256 maxPoolAmountIn\n  ) external _logs_ _lock_ returns (uint256 poolAmountIn) {\n    require(_records[tokenOut].bound, \"ERR_NOT_BOUND\");\n    require(\n      tokenAmountOut <= bmul(_records[tokenOut].balance, MAX_OUT_RATIO),\n      \"ERR_MAX_OUT_RATIO\"\n    );\n\n    Record storage outRecord = _records[tokenOut];\n\n    poolAmountIn = calcPoolInGivenSingleOut(\n      outRecord.balance,\n      outRecord.denorm,\n      _totalSupply,\n      _totalWeight,\n      tokenAmountOut,\n      _swapFee\n    );\n\n    require(poolAmountIn != 0, \"ERR_MATH_APPROX\");\n    require(poolAmountIn <= maxPoolAmountIn, \"ERR_LIMIT_IN\");\n\n    outRecord.balance = bsub(outRecord.balance, tokenAmountOut);\n\n    uint256 exitFee = bmul(poolAmountIn, EXIT_FEE);\n\n    emit LOG_EXIT(msg.sender, tokenOut, tokenAmountOut);\n\n    _pullPoolShare(msg.sender, poolAmountIn);\n    _burnPoolShare(bsub(poolAmountIn, exitFee));\n    _pushPoolShare(_factory, exitFee);\n    _pushUnderlying(tokenOut, msg.sender, tokenAmountOut);\n\n    return poolAmountIn;\n  }\n}\n\n\n/**\n * @title BPoolControls\n * @dev Defines the pool management functions.\n */\ncontract BPoolControls is BPoolShares {\n  /* <-- Configuration Actions --> */\n  function setSwapFee(uint256 swapFee) external _logs_ _lock_ {\n    require(msg.sender == _controller, \"ERR_NOT_CONTROLLER\");\n    require(swapFee >= MIN_FEE, \"ERR_MIN_FEE\");\n    require(swapFee <= MAX_FEE, \"ERR_MAX_FEE\");\n    _swapFee = swapFee;\n  }\n\n  /**\n   * @dev Public swapping is enabled as soon as tokens are bound,\n   * but this function exists in case of an emergency.\n   */\n  function setPublicSwap(bool public_) external _logs_ _lock_ {\n    require(msg.sender == _controller, \"ERR_NOT_CONTROLLER\");\n    _publicSwap = public_;\n  }\n\n  /**\n   * @dev Sets the desired weights for the pool tokens\n   * and executes the first weight adjustment.\n   */\n  function reweighTokens(\n    address[] calldata tokens,\n    uint96[] calldata desiredDenorms\n  )\n    external\n    _logs_\n    _lock_\n  {\n    require(msg.sender == _controller, \"ERR_NOT_CONTROLLER\");\n    uint256 len = tokens.length;\n    require(desiredDenorms.length == len, \"ERR_ARR_LEN\");\n    for (uint256 i = 0; i < len; i++) _setDesiredDenorm(tokens[i], desiredDenorms[i]);\n  }\n\n  /**\n   * @dev Unbinds a token from the pool.\n   * Note: Should only be used as a last resort if a token is experiencing\n   * a sudden crash or major vulnerability. Otherwise, the token should be\n   * gradually removed using `setDesiredDenorm` with desiredDenorm = 0.\n   */\n  function unbind(address token) external _logs_ _lock_ {\n    require(msg.sender == _controller, \"ERR_NOT_CONTROLLER\");\n    require(_records[token].bound, \"ERR_NOT_BOUND\");\n\n    _totalWeight = bsub(_totalWeight, _records[token].denorm);\n    _onUnbind(token);\n  }\n}\n\n\ncontract BPool is BPoolQueries, BPoolShares, BPoolControls {}",
  "sourcePath": "/home/workhorse/Indexed/indexed-subgraph/contracts/balancer/BPool.sol",
  "compiler": {
    "name": "solc",
    "version": "0.6.12+commit.27d51765.Emscripten.clang"
  },
  "schemaVersion": "3.2.4",
  "updatedAt": "2020-08-28T06:05:33.578Z",
  "devdoc": {
    "details": "Defines the pool management functions.",
    "kind": "dev",
    "methods": {
      "reweighTokens(address[],uint96[])": {
        "details": "Sets the desired weights for the pool tokens and executes the first weight adjustment."
      },
      "setPublicSwap(bool)": {
        "details": "Public swapping is enabled as soon as tokens are bound, but this function exists in case of an emergency."
      },
      "unbind(address)": {
        "details": "Unbinds a token from the pool. Note: Should only be used as a last resort if a token is experiencing a sudden crash or major vulnerability. Otherwise, the token should be gradually removed using `setDesiredDenorm` with desiredDenorm = 0."
      }
    },
    "title": "BPoolControls",
    "version": 1
  },
  "userdoc": {
    "kind": "user",
    "methods": {},
    "version": 1
  }
}