{
  "contractName": "BToken",
  "abi": [
    {
      "anonymous": false,
      "inputs": [
        {
          "indexed": true,
          "internalType": "address",
          "name": "src",
          "type": "address"
        },
        {
          "indexed": true,
          "internalType": "address",
          "name": "dst",
          "type": "address"
        },
        {
          "indexed": false,
          "internalType": "uint256",
          "name": "amt",
          "type": "uint256"
        }
      ],
      "name": "Approval",
      "type": "event"
    },
    {
      "anonymous": false,
      "inputs": [
        {
          "indexed": true,
          "internalType": "address",
          "name": "src",
          "type": "address"
        },
        {
          "indexed": true,
          "internalType": "address",
          "name": "dst",
          "type": "address"
        },
        {
          "indexed": false,
          "internalType": "uint256",
          "name": "amt",
          "type": "uint256"
        }
      ],
      "name": "Transfer",
      "type": "event"
    },
    {
      "inputs": [],
      "name": "BONE",
      "outputs": [
        {
          "internalType": "uint256",
          "name": "",
          "type": "uint256"
        }
      ],
      "stateMutability": "view",
      "type": "function"
    },
    {
      "inputs": [],
      "name": "BPOW_PRECISION",
      "outputs": [
        {
          "internalType": "uint256",
          "name": "",
          "type": "uint256"
        }
      ],
      "stateMutability": "view",
      "type": "function"
    },
    {
      "inputs": [],
      "name": "EXIT_FEE",
      "outputs": [
        {
          "internalType": "uint256",
          "name": "",
          "type": "uint256"
        }
      ],
      "stateMutability": "view",
      "type": "function"
    },
    {
      "inputs": [],
      "name": "INIT_POOL_SUPPLY",
      "outputs": [
        {
          "internalType": "uint256",
          "name": "",
          "type": "uint256"
        }
      ],
      "stateMutability": "view",
      "type": "function"
    },
    {
      "inputs": [],
      "name": "MAX_BOUND_TOKENS",
      "outputs": [
        {
          "internalType": "uint256",
          "name": "",
          "type": "uint256"
        }
      ],
      "stateMutability": "view",
      "type": "function"
    },
    {
      "inputs": [],
      "name": "MAX_BPOW_BASE",
      "outputs": [
        {
          "internalType": "uint256",
          "name": "",
          "type": "uint256"
        }
      ],
      "stateMutability": "view",
      "type": "function"
    },
    {
      "inputs": [],
      "name": "MAX_FEE",
      "outputs": [
        {
          "internalType": "uint256",
          "name": "",
          "type": "uint256"
        }
      ],
      "stateMutability": "view",
      "type": "function"
    },
    {
      "inputs": [],
      "name": "MAX_IN_RATIO",
      "outputs": [
        {
          "internalType": "uint256",
          "name": "",
          "type": "uint256"
        }
      ],
      "stateMutability": "view",
      "type": "function"
    },
    {
      "inputs": [],
      "name": "MAX_OUT_RATIO",
      "outputs": [
        {
          "internalType": "uint256",
          "name": "",
          "type": "uint256"
        }
      ],
      "stateMutability": "view",
      "type": "function"
    },
    {
      "inputs": [],
      "name": "MAX_TOTAL_WEIGHT",
      "outputs": [
        {
          "internalType": "uint256",
          "name": "",
          "type": "uint256"
        }
      ],
      "stateMutability": "view",
      "type": "function"
    },
    {
      "inputs": [],
      "name": "MAX_WEIGHT",
      "outputs": [
        {
          "internalType": "uint256",
          "name": "",
          "type": "uint256"
        }
      ],
      "stateMutability": "view",
      "type": "function"
    },
    {
      "inputs": [],
      "name": "MAX_WEIGHT_CHANGE",
      "outputs": [
        {
          "internalType": "uint256",
          "name": "",
          "type": "uint256"
        }
      ],
      "stateMutability": "view",
      "type": "function"
    },
    {
      "inputs": [],
      "name": "MIN_BALANCE",
      "outputs": [
        {
          "internalType": "uint256",
          "name": "",
          "type": "uint256"
        }
      ],
      "stateMutability": "view",
      "type": "function"
    },
    {
      "inputs": [],
      "name": "MIN_BOUND_TOKENS",
      "outputs": [
        {
          "internalType": "uint256",
          "name": "",
          "type": "uint256"
        }
      ],
      "stateMutability": "view",
      "type": "function"
    },
    {
      "inputs": [],
      "name": "MIN_BPOW_BASE",
      "outputs": [
        {
          "internalType": "uint256",
          "name": "",
          "type": "uint256"
        }
      ],
      "stateMutability": "view",
      "type": "function"
    },
    {
      "inputs": [],
      "name": "MIN_FEE",
      "outputs": [
        {
          "internalType": "uint256",
          "name": "",
          "type": "uint256"
        }
      ],
      "stateMutability": "view",
      "type": "function"
    },
    {
      "inputs": [],
      "name": "MIN_WEIGHT",
      "outputs": [
        {
          "internalType": "uint256",
          "name": "",
          "type": "uint256"
        }
      ],
      "stateMutability": "view",
      "type": "function"
    },
    {
      "inputs": [],
      "name": "MIN_WEIGHT_DELAY",
      "outputs": [
        {
          "internalType": "uint256",
          "name": "",
          "type": "uint256"
        }
      ],
      "stateMutability": "view",
      "type": "function"
    },
    {
      "inputs": [],
      "name": "getColor",
      "outputs": [
        {
          "internalType": "bytes32",
          "name": "",
          "type": "bytes32"
        }
      ],
      "stateMutability": "view",
      "type": "function"
    },
    {
      "inputs": [],
      "name": "name",
      "outputs": [
        {
          "internalType": "string",
          "name": "",
          "type": "string"
        }
      ],
      "stateMutability": "view",
      "type": "function"
    },
    {
      "inputs": [],
      "name": "symbol",
      "outputs": [
        {
          "internalType": "string",
          "name": "",
          "type": "string"
        }
      ],
      "stateMutability": "view",
      "type": "function"
    },
    {
      "inputs": [],
      "name": "decimals",
      "outputs": [
        {
          "internalType": "uint8",
          "name": "",
          "type": "uint8"
        }
      ],
      "stateMutability": "view",
      "type": "function"
    },
    {
      "inputs": [
        {
          "internalType": "address",
          "name": "src",
          "type": "address"
        },
        {
          "internalType": "address",
          "name": "dst",
          "type": "address"
        }
      ],
      "name": "allowance",
      "outputs": [
        {
          "internalType": "uint256",
          "name": "",
          "type": "uint256"
        }
      ],
      "stateMutability": "view",
      "type": "function"
    },
    {
      "inputs": [
        {
          "internalType": "address",
          "name": "whom",
          "type": "address"
        }
      ],
      "name": "balanceOf",
      "outputs": [
        {
          "internalType": "uint256",
          "name": "",
          "type": "uint256"
        }
      ],
      "stateMutability": "view",
      "type": "function"
    },
    {
      "inputs": [],
      "name": "totalSupply",
      "outputs": [
        {
          "internalType": "uint256",
          "name": "",
          "type": "uint256"
        }
      ],
      "stateMutability": "view",
      "type": "function"
    },
    {
      "inputs": [
        {
          "internalType": "address",
          "name": "dst",
          "type": "address"
        },
        {
          "internalType": "uint256",
          "name": "amt",
          "type": "uint256"
        }
      ],
      "name": "approve",
      "outputs": [
        {
          "internalType": "bool",
          "name": "",
          "type": "bool"
        }
      ],
      "stateMutability": "nonpayable",
      "type": "function"
    },
    {
      "inputs": [
        {
          "internalType": "address",
          "name": "dst",
          "type": "address"
        },
        {
          "internalType": "uint256",
          "name": "amt",
          "type": "uint256"
        }
      ],
      "name": "increaseApproval",
      "outputs": [
        {
          "internalType": "bool",
          "name": "",
          "type": "bool"
        }
      ],
      "stateMutability": "nonpayable",
      "type": "function"
    },
    {
      "inputs": [
        {
          "internalType": "address",
          "name": "dst",
          "type": "address"
        },
        {
          "internalType": "uint256",
          "name": "amt",
          "type": "uint256"
        }
      ],
      "name": "decreaseApproval",
      "outputs": [
        {
          "internalType": "bool",
          "name": "",
          "type": "bool"
        }
      ],
      "stateMutability": "nonpayable",
      "type": "function"
    },
    {
      "inputs": [
        {
          "internalType": "address",
          "name": "dst",
          "type": "address"
        },
        {
          "internalType": "uint256",
          "name": "amt",
          "type": "uint256"
        }
      ],
      "name": "transfer",
      "outputs": [
        {
          "internalType": "bool",
          "name": "",
          "type": "bool"
        }
      ],
      "stateMutability": "nonpayable",
      "type": "function"
    },
    {
      "inputs": [
        {
          "internalType": "address",
          "name": "src",
          "type": "address"
        },
        {
          "internalType": "address",
          "name": "dst",
          "type": "address"
        },
        {
          "internalType": "uint256",
          "name": "amt",
          "type": "uint256"
        }
      ],
      "name": "transferFrom",
      "outputs": [
        {
          "internalType": "bool",
          "name": "",
          "type": "bool"
        }
      ],
      "stateMutability": "nonpayable",
      "type": "function"
    }
  ],
  "bytecode": "0x60806040526005805460ff1916601217905534801561001d57600080fd5b50610beb8061002d6000396000f3fe608060405234801561001057600080fd5b50600436106101da5760003560e01c8063992e2a9211610104578063bc694ea2116100a2578063d73dd62311610071578063d73dd62314610410578063dd62ed3e1461043c578063e4a28a521461029c578063ec0930211461046a576101da565b8063bc694ea2146103f8578063c36596a6146102c6578063c458bfd014610400578063c6580d1214610408576101da565b8063b0e0d136116100de578063b0e0d136146103d8578063b7b800a4146103e0578063ba019dab146103e8578063bc063e1a146103f0576101da565b8063992e2a921461039c5780639a86139b146103a4578063a9059cbb146103ac576101da565b8063313ce5671161017c57806376c7a3c71161014b57806376c7a3c71461037c578063867378c5146103845780639381cd2b1461038c57806395d89b4114610394576101da565b8063313ce56714610304578063396e181d14610322578063661884631461032a57806370a0823114610356576101da565b806318160ddd116101b857806318160ddd146102b6578063189d00ca146102be578063218b5382146102c657806323b872dd146102ce576101da565b806306fdde03146101df578063095ea7b31461025c57806309a3bbe41461029c575b600080fd5b6101e7610472565b6040805160208082528351818301528351919283929083019185019080838360005b83811015610221578181015183820152602001610209565b50505050905090810190601f16801561024e5780820380516001836020036101000a031916815260200191505b509250505060405180910390f35b6102886004803603604081101561027257600080fd5b506001600160a01b038135169060200135610508565b604080519115158252519081900360200190f35b6102a461055c565b60408051918252519081900360200190f35b6102a4610569565b6102a461056f565b6102a4610583565b610288600480360360608110156102e457600080fd5b506001600160a01b0381358116916020810135909116906040013561058f565b61030c6106e9565b6040805160ff9092168252519081900360200190f35b6102a46106f2565b6102886004803603604081101561034057600080fd5b506001600160a01b0381351690602001356106f8565b6102a46004803603602081101561036c57600080fd5b50356001600160a01b03166107d0565b6102a46107eb565b6102a46107fd565b6102a4610811565b6101e761081e565b6102a461087f565b6102a461088b565b610288600480360360408110156103c257600080fd5b506001600160a01b038135169060200135610898565b6102a46108ae565b6102a46108b3565b6102a46108b8565b6102a46108bd565b6102a46108cd565b6102a46108d9565b6102a46108e9565b6102886004803603604081101561042657600080fd5b506001600160a01b0381351690602001356108ee565b6102a46004803603604081101561045257600080fd5b506001600160a01b038135811691602001351661096f565b6102a461099a565b60038054604080516020601f60026000196101006001881615020190951694909404938401819004810282018101909252828152606093909290918301828280156104fe5780601f106104d3576101008083540402835291602001916104fe565b820191906000526020600020905b8154815290600101906020018083116104e157829003601f168201915b5050505050905090565b3360008181526001602090815260408083206001600160a01b03871680855290835281842086905581518681529151939490939092600080516020610b96833981519152928290030190a350600192915050565b6802b5e3af16b188000081565b60025490565b6402540be400670de0b6b3a76400005b0481565b670de0b6b3a764000081565b6000336001600160a01b03851614806105cb57506001600160a01b03841660009081526001602090815260408083203384529091529020548211155b610614576040805162461bcd60e51b815260206004820152601560248201527422a9292fa12a27a5a2a72fa120a22fa1a0a62622a960591b604482015290519081900360640190fd5b61061f8484846109aa565b336001600160a01b0385161480159061065d57506001600160a01b038416600090815260016020908152604080832033845290915290205460001914155b156106df576001600160a01b03841660009081526001602090815260408083203384529091529020546106909083610aba565b6001600160a01b0385811660009081526001602090815260408083203380855290835292819020859055805194855251928716939192600080516020610b968339815191529281900390910190a35b5060019392505050565b60055460ff1690565b610e1081565b3360009081526001602090815260408083206001600160a01b03861684529091528120548083111561074d573360009081526001602090815260408083206001600160a01b038816845290915281205561077c565b6107578184610aba565b3360009081526001602090815260408083206001600160a01b03891684529091529020555b3360008181526001602090815260408083206001600160a01b038916808552908352928190205481519081529051929392600080516020610b96833981519152929181900390910190a35060019392505050565b6001600160a01b031660009081526020819052604090205490565b620f4240670de0b6b3a764000061057f565b64e8d4a51000670de0b6b3a764000061057f565b68056bc75e2d6310000081565b60048054604080516020601f60026000196101006001881615020190951694909404938401819004810282018101909252828152606093909290918301828280156104fe5780601f106104d3576101008083540402835291602001916104fe565b6704a03ce68d21555681565b6542524f4e5a4560d01b90565b60006108a53384846109aa565b50600192915050565b600881565b600281565b600181565b600a670de0b6b3a764000061057f565b671bc16d674ec7ffff81565b6050670de0b6b3a764000061057f565b600081565b3360009081526001602090815260408083206001600160a01b038616845290915281205461091c9083610b1c565b3360008181526001602090815260408083206001600160a01b038916808552908352928190208590558051948552519193600080516020610b96833981519152929081900390910190a350600192915050565b6001600160a01b03918216600090815260016020908152604080832093909416825291909152205490565b6002670de0b6b3a764000061057f565b6001600160a01b038316600090815260208190526040902054811115610a0e576040805162461bcd60e51b815260206004820152601460248201527311549497d25394d551919250d251539517d0905360621b604482015290519081900360640190fd5b6001600160a01b038316600090815260208190526040902054610a319082610aba565b6001600160a01b038085166000908152602081905260408082209390935590841681522054610a609082610b1c565b6001600160a01b038084166000818152602081815260409182902094909455805185815290519193928716927fddf252ad1be2c89b69c2b068fc378daa952ba7f163c4a11628f55a4df523b3ef92918290030190a3505050565b6000806000610ac98585610b70565b915091508015610b14576040805162461bcd60e51b81526020600482015260116024820152704552525f5355425f554e444552464c4f5760781b604482015290519081900360640190fd5b509392505050565b600082820183811015610b69576040805162461bcd60e51b815260206004820152601060248201526f4552525f4144445f4f564552464c4f5760801b604482015290519081900360640190fd5b9392505050565b600080828410610b865750508082036000610b8e565b505081810360015b925092905056fe8c5be1e5ebec7d5bd14f71427d1e84f3dd0314c0f7b2291e5b200ac8c7c3b925a264697066735822122096ced48ee7f09e0fec703187fbdcc460229b98de6443894b1fae6e04206a65ae64736f6c634300060c0033",
  "immutableReferences": {},
  "source": "// SPDX-License-Identifier: GPL-3.0-or-later\npragma solidity ^0.6.0;\n\nimport \"./BNum.sol\";\n\n// Highly opinionated token implementation\n\ninterface IERC20 {\n  event Approval(address indexed src, address indexed dst, uint256 amt);\n  event Transfer(address indexed src, address indexed dst, uint256 amt);\n\n  function totalSupply() external view returns (uint256);\n\n  function balanceOf(address whom) external view returns (uint256);\n\n  function allowance(address src, address dst) external view returns (uint256);\n\n  function approve(address dst, uint256 amt) external returns (bool);\n\n  function transfer(address dst, uint256 amt) external returns (bool);\n\n  function transferFrom(\n    address src,\n    address dst,\n    uint256 amt\n  ) external returns (bool);\n}\n\n\ncontract BTokenBase is BNum {\n  mapping(address => uint256) internal _balance;\n  mapping(address => mapping(address => uint256)) internal _allowance;\n  uint256 internal _totalSupply;\n\n  event Approval(address indexed src, address indexed dst, uint256 amt);\n  event Transfer(address indexed src, address indexed dst, uint256 amt);\n\n  function _mint(uint256 amt) internal {\n    _balance[address(this)] = badd(_balance[address(this)], amt);\n    _totalSupply = badd(_totalSupply, amt);\n    emit Transfer(address(0), address(this), amt);\n  }\n\n  function _burn(uint256 amt) internal {\n    require(_balance[address(this)] >= amt, \"ERR_INSUFFICIENT_BAL\");\n    _balance[address(this)] = bsub(_balance[address(this)], amt);\n    _totalSupply = bsub(_totalSupply, amt);\n    emit Transfer(address(this), address(0), amt);\n  }\n\n  function _move(\n    address src,\n    address dst,\n    uint256 amt\n  ) internal {\n    require(_balance[src] >= amt, \"ERR_INSUFFICIENT_BAL\");\n    _balance[src] = bsub(_balance[src], amt);\n    _balance[dst] = badd(_balance[dst], amt);\n    emit Transfer(src, dst, amt);\n  }\n\n  function _push(address to, uint256 amt) internal {\n    _move(address(this), to, amt);\n  }\n\n  function _pull(address from, uint256 amt) internal {\n    _move(from, address(this), amt);\n  }\n}\n\n\ncontract BToken is BTokenBase, IERC20 {\n  string private _name;\n  string private _symbol;\n  uint8 private _decimals = 18;\n\n  function _initializeToken(string memory name, string memory symbol) internal {\n    require(\n      bytes(_name).length == 0 &&\n      bytes(name).length != 0 &&\n      bytes(symbol).length != 0,\n      \"ERR_BTOKEN_INITIALIZED\"\n    );\n    _name = name;\n    _symbol = symbol;\n  }\n\n  function name() public view returns (string memory) {\n    return _name;\n  }\n\n  function symbol() public view returns (string memory) {\n    return _symbol;\n  }\n\n  function decimals() public view returns (uint8) {\n    return _decimals;\n  }\n\n  function allowance(address src, address dst)\n    external\n    override\n    view\n    returns (uint256)\n  {\n    return _allowance[src][dst];\n  }\n\n  function balanceOf(address whom) external override view returns (uint256) {\n    return _balance[whom];\n  }\n\n  function totalSupply() public override view returns (uint256) {\n    return _totalSupply;\n  }\n\n  function approve(address dst, uint256 amt) external override returns (bool) {\n    _allowance[msg.sender][dst] = amt;\n    emit Approval(msg.sender, dst, amt);\n    return true;\n  }\n\n  function increaseApproval(address dst, uint256 amt) external returns (bool) {\n    _allowance[msg.sender][dst] = badd(_allowance[msg.sender][dst], amt);\n    emit Approval(msg.sender, dst, _allowance[msg.sender][dst]);\n    return true;\n  }\n\n  function decreaseApproval(address dst, uint256 amt) external returns (bool) {\n    uint256 oldValue = _allowance[msg.sender][dst];\n    if (amt > oldValue) {\n      _allowance[msg.sender][dst] = 0;\n    } else {\n      _allowance[msg.sender][dst] = bsub(oldValue, amt);\n    }\n    emit Approval(msg.sender, dst, _allowance[msg.sender][dst]);\n    return true;\n  }\n\n  function transfer(address dst, uint256 amt) external override returns (bool) {\n    _move(msg.sender, dst, amt);\n    return true;\n  }\n\n  function transferFrom(\n    address src,\n    address dst,\n    uint256 amt\n  ) external override returns (bool) {\n    require(\n      msg.sender == src || amt <= _allowance[src][msg.sender],\n      \"ERR_BTOKEN_BAD_CALLER\"\n    );\n    _move(src, dst, amt);\n    if (msg.sender != src && _allowance[src][msg.sender] != uint256(-1)) {\n      _allowance[src][msg.sender] = bsub(_allowance[src][msg.sender], amt);\n      emit Approval(msg.sender, dst, _allowance[src][msg.sender]);\n    }\n    return true;\n  }\n}\n",
  "sourcePath": "/home/workhorse/Indexed/indexed-subgraph/contracts/balancer/BToken.sol",
  "compiler": {
    "name": "solc",
    "version": "0.6.12+commit.27d51765.Emscripten.clang"
  },
  "schemaVersion": "3.2.4",
  "updatedAt": "2020-08-28T06:05:33.645Z",
  "devdoc": {
    "kind": "dev",
    "methods": {},
    "version": 1
  },
  "userdoc": {
    "kind": "user",
    "methods": {},
    "version": 1
  }
}