{
  "contractName": "MarketOracle",
  "abi": [
    {
      "inputs": [
        {
          "internalType": "address",
          "name": "_uniswapFactory",
          "type": "address"
        },
        {
          "internalType": "address",
          "name": "_stableCoin",
          "type": "address"
        },
        {
          "internalType": "address",
          "name": "_manager",
          "type": "address"
        }
      ],
      "stateMutability": "nonpayable",
      "type": "constructor"
    },
    {
      "anonymous": false,
      "inputs": [
        {
          "indexed": false,
          "internalType": "uint256",
          "name": "categoryID",
          "type": "uint256"
        },
        {
          "indexed": false,
          "internalType": "bytes32",
          "name": "metadataHash",
          "type": "bytes32"
        }
      ],
      "name": "CategoryAdded",
      "type": "event"
    },
    {
      "anonymous": false,
      "inputs": [
        {
          "indexed": false,
          "internalType": "uint256",
          "name": "categoryID",
          "type": "uint256"
        }
      ],
      "name": "CategorySorted",
      "type": "event"
    },
    {
      "anonymous": false,
      "inputs": [
        {
          "indexed": false,
          "internalType": "address",
          "name": "token",
          "type": "address"
        },
        {
          "indexed": false,
          "internalType": "uint224",
          "name": "priceCumulativeLast",
          "type": "uint224"
        }
      ],
      "name": "PriceUpdated",
      "type": "event"
    },
    {
      "anonymous": false,
      "inputs": [
        {
          "indexed": false,
          "internalType": "address",
          "name": "token",
          "type": "address"
        },
        {
          "indexed": false,
          "internalType": "uint256",
          "name": "categoryID",
          "type": "uint256"
        }
      ],
      "name": "TokenAdded",
      "type": "event"
    },
    {
      "inputs": [],
      "name": "MAX_24_BIT",
      "outputs": [
        {
          "internalType": "uint24",
          "name": "",
          "type": "uint24"
        }
      ],
      "stateMutability": "view",
      "type": "function"
    },
    {
      "inputs": [],
      "name": "MAX_CATEGORY_TOKENS",
      "outputs": [
        {
          "internalType": "uint256",
          "name": "",
          "type": "uint256"
        }
      ],
      "stateMutability": "view",
      "type": "function"
    },
    {
      "inputs": [],
      "name": "MAX_SORT_DELAY",
      "outputs": [
        {
          "internalType": "uint256",
          "name": "",
          "type": "uint256"
        }
      ],
      "stateMutability": "view",
      "type": "function"
    },
    {
      "inputs": [],
      "name": "MIN_UPDATE_PERIOD",
      "outputs": [
        {
          "internalType": "uint32",
          "name": "",
          "type": "uint32"
        }
      ],
      "stateMutability": "view",
      "type": "function"
    },
    {
      "inputs": [],
      "name": "categoryIndex",
      "outputs": [
        {
          "internalType": "uint256",
          "name": "",
          "type": "uint256"
        }
      ],
      "stateMutability": "view",
      "type": "function"
    },
    {
      "inputs": [
        {
          "internalType": "uint256",
          "name": "",
          "type": "uint256"
        }
      ],
      "name": "categoryMetadata",
      "outputs": [
        {
          "internalType": "bytes32",
          "name": "",
          "type": "bytes32"
        }
      ],
      "stateMutability": "view",
      "type": "function"
    },
    {
      "inputs": [
        {
          "internalType": "address",
          "name": "token",
          "type": "address"
        },
        {
          "internalType": "uint256",
          "name": "amountIn",
          "type": "uint256"
        }
      ],
      "name": "computeAverageAmountOut",
      "outputs": [
        {
          "internalType": "uint144",
          "name": "amountOut",
          "type": "uint144"
        }
      ],
      "stateMutability": "view",
      "type": "function"
    },
    {
      "inputs": [
        {
          "internalType": "address",
          "name": "token",
          "type": "address"
        }
      ],
      "name": "computeAverageMarketCap",
      "outputs": [
        {
          "internalType": "uint144",
          "name": "marketCap",
          "type": "uint144"
        }
      ],
      "stateMutability": "view",
      "type": "function"
    },
    {
      "inputs": [
        {
          "internalType": "address[]",
          "name": "tokens",
          "type": "address[]"
        }
      ],
      "name": "computeAverageMarketCaps",
      "outputs": [
        {
          "internalType": "uint144[]",
          "name": "marketCaps",
          "type": "uint144[]"
        }
      ],
      "stateMutability": "view",
      "type": "function"
    },
    {
      "inputs": [
        {
          "internalType": "address",
          "name": "token",
          "type": "address"
        }
      ],
      "name": "computeAveragePrice",
      "outputs": [
        {
          "components": [
            {
              "internalType": "uint224",
              "name": "_x",
              "type": "uint224"
            }
          ],
          "internalType": "struct FixedPoint.uq112x112",
          "name": "priceAverage",
          "type": "tuple"
        }
      ],
      "stateMutability": "view",
      "type": "function"
    },
    {
      "inputs": [
        {
          "internalType": "address[]",
          "name": "tokens",
          "type": "address[]"
        }
      ],
      "name": "computeAveragePrices",
      "outputs": [
        {
          "components": [
            {
              "internalType": "uint224",
              "name": "_x",
              "type": "uint224"
            }
          ],
          "internalType": "struct FixedPoint.uq112x112[]",
          "name": "averagePrices",
          "type": "tuple[]"
        }
      ],
      "stateMutability": "view",
      "type": "function"
    },
    {
      "inputs": [
        {
          "internalType": "uint256",
          "name": "",
          "type": "uint256"
        }
      ],
      "name": "lastCategoryUpdate",
      "outputs": [
        {
          "internalType": "uint256",
          "name": "",
          "type": "uint256"
        }
      ],
      "stateMutability": "view",
      "type": "function"
    },
    {
      "inputs": [
        {
          "internalType": "address",
          "name": "",
          "type": "address"
        }
      ],
      "name": "lastObservedPrices",
      "outputs": [
        {
          "internalType": "uint32",
          "name": "timestamp",
          "type": "uint32"
        },
        {
          "internalType": "uint224",
          "name": "priceCumulativeLast",
          "type": "uint224"
        }
      ],
      "stateMutability": "view",
      "type": "function"
    },
    {
      "inputs": [],
      "name": "manager",
      "outputs": [
        {
          "internalType": "address",
          "name": "",
          "type": "address"
        }
      ],
      "stateMutability": "view",
      "type": "function"
    },
    {
      "inputs": [],
      "name": "stableCoin",
      "outputs": [
        {
          "internalType": "address",
          "name": "",
          "type": "address"
        }
      ],
      "stateMutability": "view",
      "type": "function"
    },
    {
      "inputs": [],
      "name": "uniswapFactory",
      "outputs": [
        {
          "internalType": "address",
          "name": "",
          "type": "address"
        }
      ],
      "stateMutability": "view",
      "type": "function"
    },
    {
      "inputs": [
        {
          "internalType": "address",
          "name": "token",
          "type": "address"
        }
      ],
      "name": "updatePrice",
      "outputs": [],
      "stateMutability": "nonpayable",
      "type": "function"
    },
    {
      "inputs": [
        {
          "internalType": "address[]",
          "name": "tokens",
          "type": "address[]"
        }
      ],
      "name": "updatePrices",
      "outputs": [],
      "stateMutability": "nonpayable",
      "type": "function"
    },
    {
      "inputs": [
        {
          "internalType": "uint256",
          "name": "categoryID",
          "type": "uint256"
        }
      ],
      "name": "hasCategory",
      "outputs": [
        {
          "internalType": "bool",
          "name": "",
          "type": "bool"
        }
      ],
      "stateMutability": "view",
      "type": "function"
    },
    {
      "inputs": [
        {
          "internalType": "uint256",
          "name": "categoryID",
          "type": "uint256"
        }
      ],
      "name": "getCategoryTokens",
      "outputs": [
        {
          "internalType": "address[]",
          "name": "tokens",
          "type": "address[]"
        }
      ],
      "stateMutability": "view",
      "type": "function"
    },
    {
      "inputs": [
        {
          "internalType": "uint256",
          "name": "categoryID",
          "type": "uint256"
        }
      ],
      "name": "getCategoryMarketCaps",
      "outputs": [
        {
          "internalType": "uint144[]",
          "name": "marketCaps",
          "type": "uint144[]"
        }
      ],
      "stateMutability": "view",
      "type": "function"
    },
    {
      "inputs": [
        {
          "internalType": "bytes32",
          "name": "metadataHash",
          "type": "bytes32"
        }
      ],
      "name": "createCategory",
      "outputs": [],
      "stateMutability": "nonpayable",
      "type": "function"
    },
    {
      "inputs": [
        {
          "internalType": "address",
          "name": "token",
          "type": "address"
        },
        {
          "internalType": "uint256",
          "name": "categoryID",
          "type": "uint256"
        }
      ],
      "name": "addToken",
      "outputs": [],
      "stateMutability": "nonpayable",
      "type": "function"
    },
    {
      "inputs": [
        {
          "components": [
            {
              "internalType": "uint256",
              "name": "categoryID",
              "type": "uint256"
            },
            {
              "internalType": "address[]",
              "name": "tokens",
              "type": "address[]"
            }
          ],
          "internalType": "struct MarketOracle.NewCategoryTokens[]",
          "name": "updates",
          "type": "tuple[]"
        }
      ],
      "name": "addTokens",
      "outputs": [],
      "stateMutability": "nonpayable",
      "type": "function"
    },
    {
      "inputs": [
        {
          "internalType": "uint256",
          "name": "categoryID",
          "type": "uint256"
        },
        {
          "internalType": "address[]",
          "name": "orderedTokens",
          "type": "address[]"
        }
      ],
      "name": "orderCategoryTokensByMarketCap",
      "outputs": [],
      "stateMutability": "nonpayable",
      "type": "function"
    },
    {
      "inputs": [
        {
          "internalType": "uint256",
          "name": "categoryID",
          "type": "uint256"
        },
        {
          "internalType": "uint256",
          "name": "num",
          "type": "uint256"
        }
      ],
      "name": "getTopCategoryTokens",
      "outputs": [
        {
          "internalType": "address[]",
          "name": "tokens",
          "type": "address[]"
        }
      ],
      "stateMutability": "view",
      "type": "function"
    }
  ],
  "bytecode": "0x608060405260016004553480156200001657600080fd5b506040516200202e3803806200202e83398101604081905262000039916200007c565b600080546001600160a01b039485166001600160a01b031991821617909155600180549385169382169390931790925560038054919093169116179055620000e8565b60008060006060848603121562000091578283fd5b83516200009e81620000cf565b6020850151909350620000b181620000cf565b6040850151909250620000c481620000cf565b809150509250925092565b6001600160a01b0381168114620000e557600080fd5b50565b611f3680620000f86000396000f3fe608060405234801561001057600080fd5b506004361061018e5760003560e01c8063992642e5116100de578063ea99fc0411610097578063f3cd354f11610071578063f3cd354f14610383578063fd37113814610396578063fd38f1bd146103a9578063fdcfa2ec146103bc5761018e565b8063ea99fc0414610353578063eba3443f1461035b578063f2b4b154146103705761018e565b8063992642e5146102c4578063a1592565146102cc578063a6d97d00146102ec578063af81c5b91461030c578063b2fab9141461031f578063de105dbd146103405761018e565b8063481c6a751161014b5780637e5296e0116101255780637e5296e01461028e57806384fca9cd146102a15780638bdb2afa146102a957806396e85ced146102b15761018e565b8063481c6a75146102445780636696bf11146102595780636bfc3d401461026e5761018e565b8063030fb7f414610193578063046738fe146101bc5780631222b37e146101dc578063164bba97146101fc57806318f59a8e1461020f5780631ab6631714610224575b600080fd5b6101a66101a13660046118fc565b6103c4565b6040516101b391906119e9565b60405180910390f35b6101cf6101ca366004611833565b6104e3565b6040516101b39190611ac4565b6101ef6101ea36600461172d565b6104f5565b6040516101b39190611a36565b6101cf61020a366004611833565b61059b565b6102176105ad565b6040516101b39190611e53565b610237610232366004611833565b6105b4565b6040516101b39190611ab9565b61024c6105cd565b6040516101b3919061199a565b61026c610267366004611833565b6105dc565b005b61028161027c36600461172d565b610660565b6040516101b39190611a78565b61026c61029c36600461172d565b6106fc565b6101cf610730565b61024c610735565b61026c6102bf3660046116e1565b610744565b61024c610861565b6102df6102da3660046116e1565b610870565b6040516101b39190611e2c565b6102ff6102fa366004611703565b610923565b6040516101b39190611e3f565b61026c61031a366004611703565b6109d2565b61033261032d3660046116e1565b610a50565b6040516101b3929190611e82565b6101a661034e366004611833565b610a7b565b6101cf610b34565b610363610b3a565b6040516101b39190611e71565b61026c61037e3660046118b7565b610b41565b610281610391366004611833565b610d54565b6102ff6103a43660046116e1565b610dca565b61026c6103b7366004611768565b610ee4565b6101cf610b3a565b60008281526005602052604090208054606091908311156104005760405162461bcd60e51b81526004016103f790611b04565b60405180910390fd5b60008481526008602052604090205462015180429190910311156104365760405162461bcd60e51b81526004016103f790611d87565b8267ffffffffffffffff8111801561044d57600080fd5b50604051908082528060200260200182016040528015610477578160200160208202803683370190505b50915060005b838110156104db5781818154811061049157fe5b9060005260206000200160009054906101000a90046001600160a01b03168382815181106104bb57fe5b6001600160a01b039092166020928302919091019091015260010161047d565b505092915050565b60076020526000908152604090205481565b80516060908067ffffffffffffffff8111801561051157600080fd5b5060405190808252806020026020018201604052801561054b57816020015b6105386115fe565b8152602001906001900390816105305790505b50915060005b818110156105945761057584828151811061056857fe5b6020026020010151610870565b83828151811061058157fe5b6020908102919091010152600101610551565b5050919050565b60086020526000908152604090205481565b62ffffff81565b6000600454821080156105c75750600082115b92915050565b6003546001600160a01b031681565b6003546001600160a01b031633146106065760405162461bcd60e51b81526004016103f790611ca8565b600480546001810190915560008181526007602052604090819020839055517f087cd6515ab9d8ad2d847c4b093743cd73acf162a4260bd0ea2429ec6709a632906106549083908590611e63565b60405180910390a15050565b80516060908067ffffffffffffffff8111801561067c57600080fd5b506040519080825280602002602001820160405280156106a6578160200160208202803683370190505b50915060005b81811015610594576106d08482815181106106c357fe5b6020026020010151610dca565b8382815181106106dc57fe5b6001600160901b03909216602092830291909101909101526001016106ac565b60005b815181101561072c5761072482828151811061071757fe5b6020026020010151610744565b6001016106ff565b5050565b600f81565b6000546001600160a01b031681565b61074c611610565b506001600160a01b03811660009081526002602090815260409182902082518084019093525463ffffffff8116835264010000000090046001600160e01b031690820152610798611610565b6107a183610fc8565b6001600160a01b038416600090815260026020908152604090912082518154928401516001600160e01b03166401000000000263ffffffff80831663ffffffff19909516949094178416179091558451929350919091039062015180908216101561081e5760405162461bcd60e51b81526004016103f790611b84565b7fad435add05fa84ac1a1874b69bc4e8f8101f56cad85a504f8ea79c7ec482dcb58483602001516040516108539291906119ae565b60405180910390a150505050565b6001546001600160a01b031681565b6108786115fe565b610880611610565b506001600160a01b03821660009081526002602090815260409182902082518084019093525463ffffffff8116835264010000000090046001600160e01b0316908201526108cc611610565b6108d584610fc8565b8251815191925090036201518063ffffffff821611156109075760405162461bcd60e51b81526004016103f790611d22565b61091a836020015183602001518361101e565b95945050505050565b600061092d611610565b506001600160a01b03831660009081526002602090815260409182902082518084019093525463ffffffff8116835264010000000090046001600160e01b031690820152610979611610565b61098285610fc8565b8251815191925090036201518063ffffffff821611156109b45760405162461bcd60e51b81526004016103f790611d22565b6109c8836020015183602001518388611061565b9695505050505050565b6003546001600160a01b031633146109fc5760405162461bcd60e51b81526004016103f790611ca8565b610a06828261108a565b600081815260056020526040902054600f1015610a355760405162461bcd60e51b81526004016103f790611acd565b600090815260086020526040902080546201517f1901905550565b60026020526000908152604090205463ffffffff81169064010000000090046001600160e01b031682565b600081815260056020526040902080546060919067ffffffffffffffff81118015610aa557600080fd5b50604051908082528060200260200182016040528015610acf578160200160208202803683370190505b50915060005b825181101561059457818181548110610aea57fe5b9060005260206000200160009054906101000a90046001600160a01b0316838281518110610b1457fe5b6001600160a01b0390921660209283029190910190910152600101610ad5565b60045481565b6201518081565b60008281526005602052604090208054825114610b705760405162461bcd60e51b81526004016103f790611d50565b6060610b7b83610660565b905082600081518110610b8a57fe5b602002602001015182600081548110610b9f57fe5b600091825260209091200180546001600160a01b0319166001600160a01b039290921691909117905560015b8151811015610d12576000848281518110610be257fe5b602002602001015190508560066000836001600160a01b03166001600160a01b031681526020019081526020016000205414610c305760405162461bcd60e51b81526004016103f790611c4f565b846001830381518110610c3f57fe5b60200260200101516001600160a01b0316816001600160a01b03161415610c785760405162461bcd60e51b81526004016103f790611b4d565b826001830381518110610c8757fe5b60200260200101516001600160901b0316838381518110610ca457fe5b60200260200101516001600160901b03161115610cd35760405162461bcd60e51b81526004016103f790611c22565b80848381548110610ce057fe5b600091825260209091200180546001600160a01b0319166001600160a01b039290921691909117905550600101610bcb565b5060008481526008602052604090819020429055517f60d2f5fd1812c906f738651cc42bfcb9c52908b88265a1ec508ce32367af72c390610853908690611ac4565b60606105c760056000848152602001908152602001600020805480602002602001604051908101604052809291908181526020018280548015610dc057602002820191906000526020600020905b81546001600160a01b03168152600190910190602001808311610da2575b5050505050610660565b6000610dd4611610565b506001600160a01b03821660009081526002602090815260409182902082518084019093525463ffffffff8116835264010000000090046001600160e01b031690820152610e20611610565b610e2984610fc8565b8251815191925090036201518063ffffffff82161115610e5b5760405162461bcd60e51b81526004016103f790611d22565b6000856001600160a01b03166318160ddd6040518163ffffffff1660e01b815260040160206040518083038186803b158015610e9657600080fd5b505afa158015610eaa573d6000803e3d6000fd5b505050506040513d601f19601f82011682018060405250810190610ece919061189f565b90506109c8846020015184602001518484611061565b6003546001600160a01b03163314610f0e5760405162461bcd60e51b81526004016103f790611ca8565b60005b815181101561072c57610f22611627565b828281518110610f2e57fe5b6020026020010151905060005b816020015151811015610f7557610f6d82602001518281518110610f5b57fe5b6020026020010151836000015161108a565b600101610f3b565b508051600090815260056020526040902054600f1015610fa75760405162461bcd60e51b81526004016103f790611acd565b51600090815260086020526040902080546201517f19019055600101610f11565b610fd0611610565b600080546001548291610ff1916001600160a01b0391821691879116611161565b6040805180820190915263ffffffff90911681526001600160e01b03909116602082015292505050919050565b6110266115fe565b60405180602001604052808363ffffffff168686036001600160e01b03168161104b57fe5b046001600160e01b031681525090509392505050565b600061106b6115fe565b61107686868661101e565b90506109c861108582856111cc565b61122b565b60045481106110ab5760405162461bcd60e51b81526004016103f790611c7f565b6001600160a01b038216600090815260066020526040902054156110e15760405162461bcd60e51b81526004016103f790611bb3565b6001600160a01b0382166000818152600660209081526040808320859055848352600582528220805460018101825590835291200180546001600160a01b031916909117905561113082610744565b7ff4c563a3ea86ff1f4275e8c207df0375a51963f2b831b7bf4da8be938d92876c82826040516106549291906119d0565b6000806000806111718686611232565b9150915060006111828884846112bc565b9050826001600160a01b0316876001600160a01b031614156111b3576111a781611319565b945094505050506111c4565b6111bc81611456565b945094505050505b935093915050565b6111d4611641565b60008215806111fa57505082516001600160e01b0316828102908382816111f757fe5b04145b6112165760405162461bcd60e51b81526004016103f790611cdf565b60408051602081019091529081529392505050565b5160701c90565b600080826001600160a01b0316846001600160a01b031614156112675760405162461bcd60e51b81526004016103f790611bdd565b826001600160a01b0316846001600160a01b03161061128757828461128a565b83835b90925090506001600160a01b0382166112b55760405162461bcd60e51b81526004016103f790611dbe565b9250929050565b60008383836040516020016112d292919061191d565b604051602081830303815290604052805190602001206040516020016112f9929190611944565b60408051601f198184030181529190528051602090910120949350505050565b600080611324611579565b9050826001600160a01b0316635909c0d56040518163ffffffff1660e01b815260040160206040518083038186803b15801561135f57600080fd5b505afa158015611373573d6000803e3d6000fd5b505050506040513d601f19601f82011682018060405250810190611397919061189f565b91506000806000856001600160a01b0316630902f1ac6040518163ffffffff1660e01b815260040160606040518083038186803b1580156113d757600080fd5b505afa1580156113eb573d6000803e3d6000fd5b505050506040513d601f19601f8201168201806040525081019061140f919061184b565b9250925092508363ffffffff168163ffffffff161461144e5780840363ffffffff811661143c8486611583565b516001600160e01b0316029590950194505b505050915091565b600080611461611579565b9050826001600160a01b0316635a3d54936040518163ffffffff1660e01b815260040160206040518083038186803b15801561149c57600080fd5b505afa1580156114b0573d6000803e3d6000fd5b505050506040513d601f19601f820116820180604052508101906114d4919061189f565b91506000806000856001600160a01b0316630902f1ac6040518163ffffffff1660e01b815260040160606040518083038186803b15801561151457600080fd5b505afa158015611528573d6000803e3d6000fd5b505050506040513d601f19601f8201168201806040525081019061154c919061184b565b9250925092508363ffffffff168163ffffffff161461144e5780840363ffffffff811661143c8585611583565b63ffffffff421690565b61158b6115fe565b6000826001600160701b0316116115b45760405162461bcd60e51b81526004016103f790611df5565b6040805160208101909152806001600160701b0384166dffffffffffffffffffffffffffff60701b607087901b16816115e957fe5b046001600160e01b0316815250905092915050565b60408051602081019091526000815290565b604080518082019091526000808252602082015290565b604051806040016040528060008152602001606081525090565b6040518060200160405280600081525090565b80356001600160a01b03811681146105c757600080fd5b600082601f83011261167b578081fd5b813561168e61168982611ec8565b611ea1565b8181529150602080830190848101818402860182018710156116af57600080fd5b60005b848110156116d6576116c48883611654565b845292820192908201906001016116b2565b505050505092915050565b6000602082840312156116f2578081fd5b6116fc8383611654565b9392505050565b60008060408385031215611715578081fd5b61171f8484611654565b946020939093013593505050565b60006020828403121561173e578081fd5b813567ffffffffffffffff811115611754578182fd5b6117608482850161166b565b949350505050565b6000602080838503121561177a578182fd5b823567ffffffffffffffff80821115611791578384fd5b818501915085601f8301126117a4578384fd5b81356117b261168982611ec8565b81815284810190848601875b848110156118245781358701604080601f19838f030112156117de578a8bfd5b6117e781611ea1565b828b013581529082013590888211156117fe578b8cfd5b61180c8e8c8486010161166b565b818c01528652505092870192908701906001016117be565b50909998505050505050505050565b600060208284031215611844578081fd5b5035919050565b60008060006060848603121561185f578081fd5b835161186a81611ee8565b602085015190935061187b81611ee8565b604085015190925063ffffffff81168114611894578182fd5b809150509250925092565b6000602082840312156118b0578081fd5b5051919050565b600080604083850312156118c9578182fd5b82359150602083013567ffffffffffffffff8111156118e6578182fd5b6118f28582860161166b565b9150509250929050565b6000806040838503121561190e578182fd5b50508035926020909101359150565b6bffffffffffffffffffffffff19606093841b811682529190921b16601482015260280190565b6001600160f81b0319815260609290921b6bffffffffffffffffffffffff1916600183015260158201527f96e8ac4277198ff8b6f785478aa9a39f403cb768dd02cbee326c3e7da348845f603582015260550190565b6001600160a01b0391909116815260200190565b6001600160a01b039290921682526001600160e01b0316602082015260400190565b6001600160a01b03929092168252602082015260400190565b6020808252825182820181905260009190848201906040850190845b81811015611a2a5783516001600160a01b031683529284019291840191600101611a05565b50909695505050505050565b6020808252825182820181905260009190848201906040850190845b81811015611a2a578351516001600160e01b031683529284019291840191600101611a52565b6020808252825182820181905260009190848201906040850190845b81811015611a2a5783516001600160901b031683529284019291840191600101611a94565b901515815260200190565b90815260200190565b60208082526017908201527f4552525f4d41585f43415445474f52595f544f4b454e53000000000000000000604082015260600190565b60208082526029908201527f43617465676f727920646f6573206e6f7420686176652073756666696369656e6040820152683a103a37b5b2b7399760b91b606082015260800190565b60208082526018908201527f4475706c696361746520746f6b656e20616464726573732e0000000000000000604082015260600190565b60208082526015908201527411549497d3525397d5541110551157d411549253d1605a1b604082015260600190565b60208082526010908201526f4552525f544f4b454e5f45584953545360801b604082015260600190565b60208082526025908201527f556e697377617056324c6962726172793a204944454e544943414c5f41444452604082015264455353455360d81b606082015260800190565b6020808252601390820152722a37b5b2b7399037baba1037b31037b93232b960691b604082015260600190565b6020808252601690820152752a37b5b2b7103737ba1034b71031b0ba32b3b7b93c9760511b604082015260600190565b6020808252600f908201526e11549497d0d0551151d3d49657d251608a1b604082015260600190565b6020808252601f908201527f4f6e6c7920746865206d616e616765722063616e2063616c6c20746869732e00604082015260600190565b60208082526023908201527f4669786564506f696e743a204d554c5449504c49434154494f4e5f4f564552466040820152624c4f5760e81b606082015260800190565b60208082526014908201527327baba3230ba32b210383934b1b29034b733379760611b604082015260600190565b6020808252601b908201527f496e636f7272656374206e756d626572206f6620746f6b656e732e0000000000604082015260600190565b6020808252601d908201527f43617465676f7279206e6f7420736f7274656420726563656e746c792e000000604082015260600190565b6020808252601e908201527f556e697377617056324c6962726172793a205a45524f5f414444524553530000604082015260600190565b60208082526017908201527f4669786564506f696e743a204449565f42595f5a45524f000000000000000000604082015260600190565b90516001600160e01b0316815260200190565b6001600160901b0391909116815260200190565b62ffffff91909116815260200190565b918252602082015260400190565b63ffffffff91909116815260200190565b63ffffffff9290921682526001600160e01b0316602082015260400190565b60405181810167ffffffffffffffff81118282101715611ec057600080fd5b604052919050565b600067ffffffffffffffff821115611ede578081fd5b5060209081020190565b6001600160701b0381168114611efd57600080fd5b5056fea26469706673582212208821a04b381300db42cbdff8f091966c7537a5201393e42e1bb6c5b995f3e6e164736f6c634300060c0033",
  "immutableReferences": {},
  "source": "pragma solidity ^0.6.0;\npragma experimental ABIEncoderV2;\n\nimport \"./UniSwapV2PriceOracle.sol\";\n\n\ncontract MarketOracle is UniSwapV2PriceOracle {\n  // Address that can update the categories.\n  address public manager;\n  // Number of categories in the oracle.\n  uint256 public categoryIndex = 1;\n\n  // Max time between a category being sorted and a query for the top n tokens.\n  uint256 public constant MAX_SORT_DELAY = 1 days;\n  // Maximum number of tokens in a category.\n  uint256 public constant MAX_CATEGORY_TOKENS = 15;\n\n  // Array of tokens for each category.\n  mapping(uint256 => address[]) internal _categoryTokens;\n  // Category ID for each token.\n  mapping(address => uint256) internal _tokenCategories;\n  // IPFS hash for metadata about token categories.\n  mapping(uint256 => bytes32) public categoryMetadata;\n  // Last time a category was sorted\n  mapping(uint256 => uint256) public lastCategoryUpdate;\n\n  /**\n   * @dev Data structure for adding many new tokens to a category.\n   */\n  struct NewCategoryTokens {\n    uint256 categoryID;\n    address[] tokens;\n  }\n\n  event CategoryAdded(uint256 categoryID, bytes32 metadataHash);\n  event TokenAdded(address token, uint256 categoryID);\n  event CategorySorted(uint256 categoryID);\n\n  constructor(\n    address _uniswapFactory,\n    address _stableCoin,\n    address _manager\n  ) public UniSwapV2PriceOracle(_uniswapFactory, _stableCoin) {\n    manager = _manager;\n  }\n\n  modifier onlyManager {\n    require(msg.sender == manager, \"Only the manager can call this.\");\n    _;\n  }\n\n  /* <-- CATEGORY QUERIES --> */\n\n  function hasCategory(uint256 categoryID) external view returns (bool) {\n    return categoryID < categoryIndex && categoryID > 0;\n  }\n\n  /**\n   * @dev Return the array of tokens for a category.\n   */\n  function getCategoryTokens(uint256 categoryID)\n  external view returns (address[] memory tokens) {\n    address[] storage _tokens = _categoryTokens[categoryID];\n    tokens = new address[](_tokens.length);\n    for (uint256 i = 0; i < tokens.length; i++) {\n      tokens[i] = _tokens[i];\n    }\n  }\n\n  /**\n   * @dev Returns the market capitalization rates for the tokens\n   * in a category.\n   */\n  function getCategoryMarketCaps(uint256 categoryID)\n  external view returns (uint144[] memory marketCaps) {\n    return computeAverageMarketCaps(_categoryTokens[categoryID]);\n  }\n\n  /* <-- ORACLE MANAGEMENT ACTIONS --> */\n  /**\n   * @dev Create a new token category.\n   * @param metadataHash Hash of metadata about the token category,\n   * which can be distributed on IPFS.\n   */\n  function createCategory(bytes32 metadataHash) external onlyManager {\n    uint256 categoryID = categoryIndex++;\n    categoryMetadata[categoryID] = metadataHash;\n    emit CategoryAdded(categoryID, metadataHash);\n  }\n\n  /**\n   * @dev Adds a new token to a category.\n   */\n  function _addToken(address token, uint256 categoryID) internal {\n    require(categoryID < categoryIndex, \"ERR_CATEGORY_ID\");\n    require(_tokenCategories[token] == 0, \"ERR_TOKEN_EXISTS\");\n    _tokenCategories[token] = categoryID;\n    _categoryTokens[categoryID].push(token);\n    updatePrice(token);\n    emit TokenAdded(token, categoryID);\n  }\n\n  /**\n   * @dev Adds a new token to a category.\n   */\n  function addToken(address token, uint256 categoryID) public onlyManager {\n    _addToken(token, categoryID);\n    require\n      (_categoryTokens[categoryID].length <= MAX_CATEGORY_TOKENS,\n      \"ERR_MAX_CATEGORY_TOKENS\"\n    );\n    // Decrement the timestamp for the last category sort to ensure\n    // the new token is sorted before the top n tokens can be queried.\n    lastCategoryUpdate[categoryID] -= MAX_SORT_DELAY;\n  }\n\n  /**\n   * @dev Add tokens to categories in a bundle.\n   * @param updates Array of `NewCategoryTokens` structs with the tokens to add\n   * for each category.\n   */\n  function addTokens(NewCategoryTokens[] memory updates) public onlyManager {\n    for (uint256 u = 0; u < updates.length; u++) {\n      NewCategoryTokens memory update = updates[u];\n      for (uint256 t = 0; t < update.tokens.length; t++) {\n        _addToken(update.tokens[t], update.categoryID);\n      }\n      require(\n        _categoryTokens[update.categoryID].length <= MAX_CATEGORY_TOKENS,\n        \"ERR_MAX_CATEGORY_TOKENS\"\n      );\n      // Decrement the timestamp for the last category sort to ensure\n      // the new token is sorted before the top n tokens can be queried.\n      lastCategoryUpdate[update.categoryID] -= MAX_SORT_DELAY;\n    }\n  }\n\n  /* <-- TOKEN SORTING --> */\n  /**\n   * @dev Update the order of tokens in a category by descending market cap.\n   * @param categoryID Category to sort\n   * @param orderedTokens Pre-sorted array of tokens\n   */\n  function orderCategoryTokensByMarketCap(\n    uint256 categoryID,\n    address[] memory orderedTokens\n  ) public {\n    address[] storage categoryTokens = _categoryTokens[categoryID];\n    require(\n      orderedTokens.length == categoryTokens.length,\n      \"Incorrect number of tokens.\"\n    );\n    uint144[] memory marketCaps = computeAverageMarketCaps(orderedTokens);\n    categoryTokens[0] = orderedTokens[0];\n    for (uint256 i = 1; i < marketCaps.length; i++) {\n      address token = orderedTokens[i];\n      require(_tokenCategories[token] == categoryID, \"Token not in category.\");\n      require(token != orderedTokens[i-1], \"Duplicate token address.\");\n      require(marketCaps[i] <= marketCaps[i-1], \"Tokens out of order\");\n      categoryTokens[i] = token;\n    }\n    lastCategoryUpdate[categoryID] = now;\n    emit CategorySorted(categoryID);\n  }\n\n  /**\n   * @dev Get the top tokens in a category.\n   * Note: The category must have been sorted by market cap\n   * in the last `MAX_SORT_DELAY` seconds.\n   */\n  function getTopCategoryTokens(uint256 categoryID, uint256 num)\n  external view returns (address[] memory tokens) {\n    address[] storage categoryTokens = _categoryTokens[categoryID];\n    require(\n      num <= categoryTokens.length,\n      \"Category does not have sufficient tokens.\"\n    );\n    require(\n      now - lastCategoryUpdate[categoryID] <= MAX_SORT_DELAY,\n      \"Category not sorted recently.\"\n    );\n    tokens = new address[](num);\n    for (uint256 i = 0; i < num; i++) tokens[i] = categoryTokens[i];\n  }\n}",
  "sourcePath": "/home/workhorse/Indexed/indexed-subgraph/contracts/MarketOracle.sol",
  "compiler": {
    "name": "solc",
    "version": "0.6.12+commit.27d51765.Emscripten.clang"
  },
  "schemaVersion": "3.2.4",
  "updatedAt": "2020-08-28T06:05:33.500Z",
  "devdoc": {
    "kind": "dev",
    "methods": {
      "addToken(address,uint256)": {
        "details": "Adds a new token to a category."
      },
      "addTokens((uint256,address[])[])": {
        "details": "Add tokens to categories in a bundle.",
        "params": {
          "updates": "Array of `NewCategoryTokens` structs with the tokens to add for each category."
        }
      },
      "computeAverageAmountOut(address,uint256)": {
        "details": "Compute the average value in stablecoins of a given amount of a token. Queries the current cumulative price and retrieves the last stored cumulative price, then calculates the average price and multiplies it by the input amount."
      },
      "computeAverageMarketCap(address)": {
        "details": "Compute the average market cap of a token over the recent period. Queries the current cumulative price and retrieves the last stored cumulative price, then calculates the average price and multiplies it by the token's total supply. Note: Price must have been updated within the last MIN_UPDATE_PERIOD seconds."
      },
      "computeAverageMarketCaps(address[])": {
        "details": "Returns the average market caps for each token."
      },
      "computeAveragePrice(address)": {
        "details": "Returns the UQ112x112 struct representing the average price."
      },
      "computeAveragePrices(address[])": {
        "details": "Returns the average market caps for each token."
      },
      "createCategory(bytes32)": {
        "details": "Create a new token category.",
        "params": {
          "metadataHash": "Hash of metadata about the token category, which can be distributed on IPFS."
        }
      },
      "getCategoryMarketCaps(uint256)": {
        "details": "Returns the market capitalization rates for the tokens in a category."
      },
      "getCategoryTokens(uint256)": {
        "details": "Return the array of tokens for a category."
      },
      "getTopCategoryTokens(uint256,uint256)": {
        "details": "Get the top tokens in a category. Note: The category must have been sorted by market cap in the last `MAX_SORT_DELAY` seconds."
      },
      "orderCategoryTokensByMarketCap(uint256,address[])": {
        "details": "Update the order of tokens in a category by descending market cap.",
        "params": {
          "categoryID": "Category to sort",
          "orderedTokens": "Pre-sorted array of tokens"
        }
      },
      "updatePrice(address)": {
        "details": "Update the price stored for a token. Note: May only be called once every MIN_UPDATE_PERIOD seconds."
      },
      "updatePrices(address[])": {
        "details": "Update the price for multiple tokens."
      }
    },
    "version": 1
  },
  "userdoc": {
    "kind": "user",
    "methods": {},
    "version": 1
  }
}