{
  "contractName": "PoolController",
  "abi": [
    {
      "inputs": [
        {
          "internalType": "address",
          "name": "_oracle",
          "type": "address"
        }
      ],
      "stateMutability": "nonpayable",
      "type": "constructor"
    },
    {
      "anonymous": false,
      "inputs": [
        {
          "indexed": true,
          "internalType": "address",
          "name": "caller",
          "type": "address"
        },
        {
          "indexed": true,
          "internalType": "address",
          "name": "blabs",
          "type": "address"
        }
      ],
      "name": "LOG_BLABS",
      "type": "event"
    },
    {
      "anonymous": false,
      "inputs": [
        {
          "indexed": true,
          "internalType": "address",
          "name": "caller",
          "type": "address"
        },
        {
          "indexed": true,
          "internalType": "address",
          "name": "pool",
          "type": "address"
        },
        {
          "indexed": false,
          "internalType": "uint256",
          "name": "categoryID",
          "type": "uint256"
        },
        {
          "indexed": false,
          "internalType": "uint256",
          "name": "indexSize",
          "type": "uint256"
        }
      ],
      "name": "LOG_NEW_POOL",
      "type": "event"
    },
    {
      "inputs": [],
      "name": "BONE",
      "outputs": [
        {
          "internalType": "uint256",
          "name": "",
          "type": "uint256"
        }
      ],
      "stateMutability": "view",
      "type": "function"
    },
    {
      "inputs": [],
      "name": "MAX_POOL_SIZE",
      "outputs": [
        {
          "internalType": "uint256",
          "name": "",
          "type": "uint256"
        }
      ],
      "stateMutability": "view",
      "type": "function"
    },
    {
      "inputs": [],
      "name": "MIN_POOL_SIZE",
      "outputs": [
        {
          "internalType": "uint256",
          "name": "",
          "type": "uint256"
        }
      ],
      "stateMutability": "view",
      "type": "function"
    },
    {
      "inputs": [],
      "name": "POOL_REWEIGH_DELAY",
      "outputs": [
        {
          "internalType": "uint256",
          "name": "",
          "type": "uint256"
        }
      ],
      "stateMutability": "view",
      "type": "function"
    },
    {
      "inputs": [],
      "name": "WEIGHT_MULTIPLIER",
      "outputs": [
        {
          "internalType": "uint256",
          "name": "",
          "type": "uint256"
        }
      ],
      "stateMutability": "view",
      "type": "function"
    },
    {
      "inputs": [
        {
          "internalType": "address",
          "name": "",
          "type": "address"
        }
      ],
      "name": "lastPoolReweighs",
      "outputs": [
        {
          "internalType": "uint256",
          "name": "",
          "type": "uint256"
        }
      ],
      "stateMutability": "view",
      "type": "function"
    },
    {
      "inputs": [],
      "name": "oracle",
      "outputs": [
        {
          "internalType": "contract MarketOracle",
          "name": "",
          "type": "address"
        }
      ],
      "stateMutability": "view",
      "type": "function"
    },
    {
      "inputs": [
        {
          "internalType": "address",
          "name": "b",
          "type": "address"
        }
      ],
      "name": "isBPool",
      "outputs": [
        {
          "internalType": "bool",
          "name": "",
          "type": "bool"
        }
      ],
      "stateMutability": "view",
      "type": "function"
    },
    {
      "inputs": [
        {
          "internalType": "address",
          "name": "pool",
          "type": "address"
        }
      ],
      "name": "shouldPoolReweigh",
      "outputs": [
        {
          "internalType": "bool",
          "name": "",
          "type": "bool"
        }
      ],
      "stateMutability": "view",
      "type": "function"
    },
    {
      "inputs": [
        {
          "internalType": "uint256",
          "name": "categoryID",
          "type": "uint256"
        },
        {
          "internalType": "uint256",
          "name": "indexSize",
          "type": "uint256"
        }
      ],
      "name": "computePoolAddress",
      "outputs": [
        {
          "internalType": "address",
          "name": "",
          "type": "address"
        }
      ],
      "stateMutability": "view",
      "type": "function"
    },
    {
      "inputs": [
        {
          "internalType": "uint256",
          "name": "categoryID",
          "type": "uint256"
        },
        {
          "internalType": "uint256",
          "name": "indexSize",
          "type": "uint256"
        },
        {
          "internalType": "string",
          "name": "name",
          "type": "string"
        },
        {
          "internalType": "string",
          "name": "symbol",
          "type": "string"
        },
        {
          "internalType": "uint256",
          "name": "initialStablecoinValue",
          "type": "uint256"
        }
      ],
      "name": "deployIndexPool",
      "outputs": [],
      "stateMutability": "nonpayable",
      "type": "function"
    },
    {
      "inputs": [
        {
          "internalType": "uint256",
          "name": "categoryID",
          "type": "uint256"
        },
        {
          "internalType": "uint256",
          "name": "indexSize",
          "type": "uint256"
        },
        {
          "internalType": "uint256",
          "name": "stablecoinValue",
          "type": "uint256"
        }
      ],
      "name": "getInitialTokenWeightsAndBalances",
      "outputs": [
        {
          "internalType": "address[]",
          "name": "tokens",
          "type": "address[]"
        },
        {
          "internalType": "uint96[]",
          "name": "denormalizedWeights",
          "type": "uint96[]"
        },
        {
          "internalType": "uint256[]",
          "name": "balances",
          "type": "uint256[]"
        }
      ],
      "stateMutability": "view",
      "type": "function"
    },
    {
      "inputs": [
        {
          "internalType": "address",
          "name": "poolAddress",
          "type": "address"
        }
      ],
      "name": "reweighPool",
      "outputs": [],
      "stateMutability": "nonpayable",
      "type": "function"
    }
  ],
  "bytecode": "0x60806040523480156200001157600080fd5b5060405162006bd538038062006bd58339810160408190526200003491620000b0565b600380546001600160a01b0319166001600160a01b0383161790556040516200005d90620000a2565b604051809103906000f0801580156200007a573d6000803e3d6000fd5b50600080546001600160a01b0319166001600160a01b039290921691909117905550620000e0565b6152b8806200191d83390190565b600060208284031215620000c2578081fd5b81516001600160a01b0381168114620000d9578182fd5b9392505050565b61182d80620000f06000396000f3fe608060405234801561001057600080fd5b50600436106100cf5760003560e01c806386789e001161008c578063c290d8bd11610066578063c290d8bd14610194578063c2bb6dc21461019c578063c36596a6146101af578063e9819daf146101b7576100cf565b806386789e00146101645780639dd19a5214610179578063bdffaf7b1461018c576100cf565b80630256c686146100d457806317baf82d146100fd578063368e950f1461011f57806379f7dc77146101345780637dc0d1d014610147578063830b6b0b1461015c575b600080fd5b6100e76100e2366004611093565b6101ca565b6040516100f49190611535565b60405180910390f35b61011061010b3660046112bb565b6101f4565b6040516100f4939291906114f2565b610127610485565b6040516100f4919061178f565b610127610142366004611093565b61048a565b61014f61049c565b6040516100f49190611401565b6101276104ab565b610177610172366004611232565b6104b2565b005b61014f610187366004611211565b610792565b6101276107e1565b6101276107e6565b6100e76101aa366004611093565b6107f3565b610127610811565b6101776101c5366004611093565b61081d565b6001600160a01b03811660009081526002602052604090205462093a80429190910310155b919050565b60035460405162c3edfd60e21b8152606091829182916001600160a01b03169063030fb7f49061022a90899089906004016113f3565b60006040518083038186803b15801561024257600080fd5b505afa158015610256573d6000803e3d6000fd5b505050506040513d6000823e601f3d908101601f1916820160405261027e91908101906110af565b60035460405163091159bf60e11b81529194506060916001600160a01b0390911690631222b37e906102b49087906004016114b1565b60006040518083038186803b1580156102cc57600080fd5b505afa1580156102e0573d6000803e3d6000fd5b505050506040513d6000823e601f3d908101601f19168201604052610308919081019061114d565b905060606103168583610a9c565b90508667ffffffffffffffff8111801561032f57600080fd5b50604051908082528060200260200182016040528015610359578160200160208202803683370190505b5092508667ffffffffffffffff8111801561037357600080fd5b5060405190808252806020026020018201604052801561039d578160200160208202803683370190505b50935060005b878110156104795760006103db6103d6898585815181106103c057fe5b6020026020010151610b8690919063ffffffff16565b610be5565b905061040f6103d6826001600160901b03166104098786815181106103fc57fe5b6020026020010151610bec565b90610b86565b6001600160901b031685838151811061042457fe5b60200260200101818152505061044c83838151811061043f57fe5b6020026020010151610c53565b86838151811061045857fe5b6001600160601b0390921660209283029190910190910152506001016103a3565b50505093509350939050565b600881565b60026020526000908152604090205481565b6003546001600160a01b031681565b62093a8081565b60028610156104dc5760405162461bcd60e51b81526004016104d39061164a565b60405180910390fd5b60088611156104fd5760405162461bcd60e51b81526004016104d3906116ea565b600354604051631ab6631760e01b81526001600160a01b0390911690631ab663179061052d908a9060040161178f565b60206040518083038186803b15801561054557600080fd5b505afa158015610559573d6000803e3d6000fd5b505050506040513d601f19601f8201168201806040525081019061057d91906111d9565b6105995760405162461bcd60e51b81526004016104d3906115ac565b600087876040516020016105ae9291906113f3565b60408051601f19818403018152919052805160209091012060008054919250906105e1906001600160a01b031683610c71565b6001600160a01b038116600081815260016020819052604091829020805460ff19169091179055519192509033907ffa986315f7d25528844d0df55ef8935bad0031b38ed50001853360476ace3f549061063e908d908d906113f3565b60405180910390a380606080806106568d8d896101f4565b92509250925060005b8c8110156107165783818151811061067357fe5b60200260200101516001600160a01b031663095ea7b38784848151811061069657fe5b60200260200101516040518363ffffffff1660e01b81526004016106bb929190611498565b602060405180830381600087803b1580156106d557600080fd5b505af11580156106e9573d6000803e3d6000fd5b505050506040513d601f19601f8201168201806040525081019061070d91906111d9565b5060010161065f565b506040516303ded8cf60e41b81526001600160a01b03851690633ded8cf0906107519030908f908f908f908f908b908a908c90600401611415565b600060405180830381600087803b15801561076b57600080fd5b505af115801561077f573d6000803e3d6000fd5b5050505050505050505050505050505050565b60008083836040516020016107a89291906113f3565b60408051601f1981840301815291905280516020909101206000549091506107d9906001600160a01b031682610c8e565b949350505050565b600281565b68015af1d78b58c4000081565b6001600160a01b031660009081526001602052604090205460ff1690565b670de0b6b3a764000081565b6001600160a01b03811660009081526001602052604090205460ff166108555760405162461bcd60e51b81526004016104d390611681565b61085e816101ca565b61087a5760405162461bcd60e51b81526004016104d3906115e3565b6060816001600160a01b031663cc77828d6040518163ffffffff1660e01b815260040160006040518083038186803b1580156108b557600080fd5b505afa1580156108c9573d6000803e3d6000fd5b505050506040513d6000823e601f3d908101601f191682016040526108f191908101906110af565b60035460405163091159bf60e11b81529192506060916001600160a01b0390911690631222b37e906109279085906004016114b1565b60006040518083038186803b15801561093f57600080fd5b505afa158015610953573d6000803e3d6000fd5b505050506040513d6000823e601f3d908101601f1916820160405261097b919081019061114d565b905060606109898383610a9c565b90506060835167ffffffffffffffff811180156109a557600080fd5b506040519080825280602002602001820160405280156109cf578160200160208202803683370190505b50905060005b8451811015610a19576109ed83828151811061043f57fe5b8282815181106109f957fe5b6001600160601b03909216602092830291909101909101526001016109d5565b50604051635d5e8ce760e01b81526001600160a01b03861690635d5e8ce790610a4890879085906004016114c4565b600060405180830381600087803b158015610a6257600080fd5b505af1158015610a76573d6000803e3d6000fd5b5050506001600160a01b0390951660009081526002602052604090204290555050505050565b606080610aa98484610ca9565b8051909150600090815b81811015610ae057838181518110610ac757fe5b6020026020010151830192508080600101915050610ab3565b508067ffffffffffffffff81118015610af857600080fd5b50604051908082528060200260200182016040528015610b3257816020015b610b1f610fea565b815260200190600190039081610b175790505b50935060005b81811015610b7c57610b5d848281518110610b4f57fe5b602002602001015184610d78565b858281518110610b6957fe5b6020908102919091010152600101610b38565b5050505092915050565b610b8e610ffc565b6000821580610bb457505082516001600160e01b031682810290838281610bb157fe5b04145b610bd05760405162461bcd60e51b81526004016104d3906116a7565b60408051602081019091529081529392505050565b5160701c90565b610bf4610fea565b81516001600160e01b0316610c1b5760405162461bcd60e51b81526004016104d390611575565b6040805160208101909152825181906001600160e01b0316600160e01b81610c3f57fe5b046001600160e01b03168152509050919050565b6000610c6b6103d68368015af1d78b58c40000610b86565b92915050565b6000610c87600083610c8286610df3565b610e58565b9392505050565b6000610c8782610c9d85610df3565b80519060200120610eca565b81516060908067ffffffffffffffff81118015610cc557600080fd5b50604051908082528060200260200182016040528015610cef578160200160208202803683370190505b50915060005b81811015610d70576000610d2f868381518110610d0e57fe5b6020026020010151868481518110610d2257fe5b6020026020010151610ed7565b6001600160901b03169050610d4381610f5a565b848381518110610d4f57fe5b6001600160701b039092166020928302919091019091015250600101610cf5565b505092915050565b610d80610fea565b6000826001600160701b031611610da95760405162461bcd60e51b81526004016104d390611758565b6040805160208101909152806001600160701b0384166dffffffffffffffffffffffffffff60701b607087901b1681610dde57fe5b046001600160e01b0316815250905092915050565b6040805160378082526060828101909352829190602082018180368337505071602e598160098239f359593659365959377360701b60208301525060609390931b60328401525050705af460003d3d82803e9161002c57fd5bf360781b604682015290565b60008084471015610e7b5760405162461bcd60e51b81526004016104d390611721565b8251610e995760405162461bcd60e51b81526004016104d390611540565b8383516020850187f590506001600160a01b0381166107d95760405162461bcd60e51b81526004016104d390611613565b6000610c87838330610fab565b600080836001600160a01b03166318160ddd6040518163ffffffff1660e01b815260040160206040518083038186803b158015610f1357600080fd5b505afa158015610f27573d6000803e3d6000fd5b505050506040513d601f19601f82011682018060405250810190610f4b91906111f9565b90506107d96103d68483610b86565b60006003821115610f9d575080600160028204015b81811015610f9757809150600281828581610f8657fe5b040181610f8f57fe5b049050610f6f565b506101ef565b81156101ef57506001919050565b60008060ff60f81b838686604051602001610fc994939291906113ba565b60408051808303601f19018152919052805160209091012095945050505050565b60408051602081019091526000815290565b6040518060200160405280600081525090565b60008083601f840112611020578182fd5b50813567ffffffffffffffff811115611037578182fd5b60208301915083602082850101111561104f57600080fd5b9250929050565b600060208284031215611067578081fd5b6110716020611798565b82519091506001600160e01b038116811461108b57600080fd5b815292915050565b6000602082840312156110a4578081fd5b8135610c87816117df565b600060208083850312156110c1578182fd5b825167ffffffffffffffff8111156110d7578283fd5b8301601f810185136110e7578283fd5b80516110fa6110f5826117bf565b611798565b8181528381019083850185840285018601891015611116578687fd5b8694505b8385101561114157805161112d816117df565b83526001949094019391850191850161111a565b50979650505050505050565b6000602080838503121561115f578182fd5b825167ffffffffffffffff811115611175578283fd5b8301601f81018513611185578283fd5b80516111936110f5826117bf565b81815283810190838501858402850186018910156111af578687fd5b8694505b83851015611141576111c58982611056565b8352600194909401939185019185016111b3565b6000602082840312156111ea578081fd5b81518015158114610c87578182fd5b60006020828403121561120a578081fd5b5051919050565b60008060408385031215611223578081fd5b50508035926020909101359150565b600080600080600080600060a0888a03121561124c578283fd5b8735965060208801359550604088013567ffffffffffffffff80821115611271578485fd5b61127d8b838c0161100f565b909750955060608a0135915080821115611295578485fd5b506112a28a828b0161100f565b989b979a50959894979596608090950135949350505050565b6000806000606084860312156112cf578283fd5b505081359360208301359350604090920135919050565b6000815180845260208085019450808401835b8381101561131e5781516001600160a01b0316875295820195908201906001016112f9565b509495945050505050565b6000815180845260208085019450808401835b8381101561131e5781518752958201959082019060010161133c565b6000815180845260208085019450808401835b8381101561131e5781516001600160601b03168752958201959082019060010161136b565b60008284528282602086013780602084860101526020601f19601f85011685010190509392505050565b6001600160f81b031994909416845260609290921b6bffffffffffffffffffffffff191660018401526015830152603582015260550190565b918252602082015260400190565b6001600160a01b0391909116815260200190565b6001600160a01b038916815260c06020820181905260009061143a908301898b611390565b828103604084015261144d81888a611390565b9050828103606084015261146181876112e6565b905082810360808401526114758186611329565b905082810360a08401526114898185611358565b9b9a5050505050505050505050565b6001600160a01b03929092168252602082015260400190565b600060208252610c8760208301846112e6565b6000604082526114d760408301856112e6565b82810360208401526114e98185611358565b95945050505050565b60006060825261150560608301866112e6565b82810360208401526115178186611358565b9050828103604084015261152b8185611329565b9695505050505050565b901515815260200190565b6020808252818101527f437265617465323a2062797465636f6465206c656e677468206973207a65726f604082015260600190565b6020808252601b908201527f4669786564506f696e743a205a45524f5f5245434950524f43414c0000000000604082015260600190565b60208082526017908201527f43617465676f727920646f6573206e6f74206578697374000000000000000000604082015260600190565b6020808252601690820152754552525f504f4f4c5f524557454947485f44454c415960501b604082015260600190565b60208082526019908201527f437265617465323a204661696c6564206f6e206465706c6f7900000000000000604082015260600190565b6020808252601d908201527f4c657373207468616e206d696e696d756d20696e6465782073697a652e000000604082015260600190565b6020808252600c908201526b11549497d393d517d413d3d360a21b604082015260600190565b60208082526023908201527f4669786564506f696e743a204d554c5449504c49434154494f4e5f4f564552466040820152624c4f5760e81b606082015260800190565b6020808252601a908201527f45786365656473206d6178696d756d20696e6465782073697a65000000000000604082015260600190565b6020808252601d908201527f437265617465323a20696e73756666696369656e742062616c616e6365000000604082015260600190565b60208082526017908201527f4669786564506f696e743a204449565f42595f5a45524f000000000000000000604082015260600190565b90815260200190565b60405181810167ffffffffffffffff811182821017156117b757600080fd5b604052919050565b600067ffffffffffffffff8211156117d5578081fd5b5060209081020190565b6001600160a01b03811681146117f457600080fd5b5056fea26469706673582212208ed8b545bc2f2d0a64a901b355bb13c778ee40d4ca8a01819f2035307f00b23c64736f6c634300060c003360806040526005805460ff1916601217905534801561001d57600080fd5b5061528b8061002d6000396000f3fe608060405234801561001057600080fd5b50600436106103db5760003560e01c8063892980121161020a578063bc063e1a11610125578063d4cadf68116100b8578063ec09302111610087578063ec09302114610784578063f1b8a9b71461078c578063f8b2cb4f1461079f578063f8d6aed4146107b2578063fde924f71461065f576103db565b8063d4cadf6814610756578063d73dd6231461075e578063dd62ed3e14610771578063e4a28a521461043e576103db565b8063c6580d12116100f4578063c6580d121461071e578063cc77828d14610726578063cd2ed8fb1461073b578063cf5e7bd314610743576103db565b8063bc063e1a14610706578063bc694ea21461070e578063c36596a61461047c578063c458bfd014610716576103db565b80639a86139b1161019d578063b0e0d1361161016c578063b0e0d136146106db578063b7b800a4146106e3578063ba019dab146106eb578063ba9530a6146106f3576103db565b80639a86139b1461069a578063a221ee49146106a2578063a9059cbb146106b5578063b02f0b73146106c8576103db565b80639381cd2b116101d95780639381cd2b1461066f578063948d8ce61461067757806395d89b411461068a578063992e2a9214610692576103db565b806389298012146106395780638c28cbe81461064c5780638d4e40831461065f578063936c347714610667576103db565b806346ab38f1116102fa5780636d06dfa01161028d5780638201aa3f1161025c5780638201aa3f146105f857806382f652ad1461060b5780638656b6531461061e578063867378c514610631576103db565b80636d06dfa0146105a957806370a08231146105bc57806376c7a3c7146105cf5780637c5e9ea4146105d7576103db565b80635d5e8ce7116102c95780635d5e8ce7146105505780635db342771461056357806364c7d661146105765780636618846314610596576103db565b806346ab38f11461050457806349b59552146105175780634f69c0d41461052a5780635c1bbaf71461053d576103db565b8063218b538211610372578063313ce56711610341578063313ce567146104bf57806334e19907146104d4578063396e181d146104e95780633ded8cf0146104f1576103db565b8063218b53821461047c57806323b872dd146104845780632f37b624146104975780633018205f146104aa576103db565b80631446a7ff116103ae5780631446a7ff1461044657806315e84af91461045957806318160ddd1461046c578063189d00ca14610474576103db565b806302c96748146103e057806306fdde0314610409578063095ea7b31461041e57806309a3bbe41461043e575b600080fd5b6103f36103ee36600461489c565b6107c5565b6040516104009190614b58565b60405180910390f35b610411610a14565b6040516104009190614b90565b61043161042c366004614823565b610aaa565b6040516104009190614b4d565b6103f3610b03565b6103f36104543660046146ad565b610b10565b6103f36104673660046146ad565b610c0a565b6103f3610cfb565b6103f3610d01565b6103f3610d15565b6104316104923660046146e1565b610d21565b6104316104a5366004614692565b610e52565b6104b2610e74565b6040516104009190614a8d565b6104c7610eaf565b60405161040091906151e4565b6104e76104e2366004614970565b610eb8565b005b6103f3610fc1565b6104e76104ff366004614721565b610fc7565b6103f361051236600461489c565b61144c565b6104e7610525366004614938565b611657565b6104e76105383660046149a0565b61172c565b6103f361054b366004614a24565b61196a565b6104e761055e3660046148cf565b611a22565b6103f361057136600461489c565b611b5e565b610589610584366004614692565b611d73565b6040516104009190615176565b6104316105a4366004614823565b611e43565b6103f36105b736600461489c565b611f0c565b6103f36105ca366004614692565b612129565b6103f3612144565b6105ea6105e536600461484d565b612156565b6040516104009291906151d6565b6105ea61060636600461484d565b6125e6565b6103f3610619366004614a24565b612abb565b6103f361062c366004614a24565b612b7a565b6103f3612c1b565b6103f3610647366004614a24565b612c2f565b6104e761065a366004614692565b612cdf565b610431612e3d565b6103f3612e4d565b6103f3612e7f565b6103f3610685366004614692565b612e8c565b610411612f1b565b6103f3612f7c565b6103f3612f88565b6103f36106b03660046149ea565b612f95565b6104316106c3366004614823565b612ffa565b6104e76106d63660046149a0565b613010565b6103f3613260565b6103f3613265565b6103f361326a565b6103f3610701366004614a24565b61326f565b6103f36132f0565b6103f3613300565b6103f361330c565b6103f361331c565b61072e613321565b6040516104009190614b00565b6103f36133ab565b6104e7610751366004614692565b6133b1565b6103f36134e5565b61043161076c366004614823565b613517565b6103f361077f3660046146ad565b61358b565b6103f36135b6565b6103f361079a366004614692565b6135c6565b6103f36107ad366004614692565b613669565b6103f36107c0366004614a24565b6136eb565b60405160009033906001600160e01b031983351690600080516020615216833981519152906107f79085903690614b61565b60405180910390a3600554610100900460ff16156108305760405162461bcd60e51b815260040161082790614e5b565b60405180910390fd5b6005805461ff0019166101001790556001600160a01b03841660009081526009602052604090205460ff166108775760405162461bcd60e51b815260040161082790614eab565b6001600160a01b0384166000908152600960205260409020600101546108ac906003670de0b6b3a76400005b0460010161376e565b8311156108cb5760405162461bcd60e51b815260040161082790614e80565b6001600160a01b038416600090815260096020526040902060018101548154600254600b546007546109129493600160381b90046001600160601b03169291908990612abb565b9150816109315760405162461bcd60e51b815260040161082790614c61565b828211156109515760405162461bcd60e51b815260040161082790614e05565b61095f8160010154856137e7565b60018201556000610970838261376e565b9050856001600160a01b0316336001600160a01b03167fe74c91552b64c2e2e7bd255639e004e693bd3e1d01cc33e65610b86afcc1ffed876040516109b59190614b58565b60405180910390a36109c73384613820565b6109d96109d484836137e7565b61382e565b6005546109f5906201000090046001600160a01b03168261383a565b610a00863387613844565b50506005805461ff00191690559392505050565b60038054604080516020601f6002600019610100600188161502019095169490940493840181900481028201810190925282815260609390929091830182828015610aa05780601f10610a7557610100808354040283529160200191610aa0565b820191906000526020600020905b815481529060010190602001808311610a8357829003601f168201915b5050505050905090565b3360008181526001602090815260408083206001600160a01b0387168085529252808320859055519192909160008051602061523683398151915290610af1908690614b58565b60405180910390a35060015b92915050565b6802b5e3af16b188000081565b600554600090610100900460ff1615610b3b5760405162461bcd60e51b815260040161082790614e5b565b6001600160a01b03831660009081526009602052604090205460ff16610b735760405162461bcd60e51b815260040161082790614eab565b6001600160a01b03821660009081526009602052604090205460ff16610bab5760405162461bcd60e51b815260040161082790614eab565b6001600160a01b038084166000908152600960205260408082209285168252812060018084015484549183015483549394610c019492936001600160601b03600160381b91829004811694919091041690612f95565b95945050505050565b600554600090610100900460ff1615610c355760405162461bcd60e51b815260040161082790614e5b565b6001600160a01b03831660009081526009602052604090205460ff16610c6d5760405162461bcd60e51b815260040161082790614eab565b6001600160a01b03821660009081526009602052604090205460ff16610ca55760405162461bcd60e51b815260040161082790614eab565b6001600160a01b03808416600090815260096020526040808220928516825290206001808301548354918301548354600754610c01946001600160601b03600160381b9182900481169493919091041690612f95565b60025490565b6402540be400670de0b6b3a76400005b0481565b670de0b6b3a764000081565b6000336001600160a01b0385161480610d5d57506001600160a01b03841660009081526001602090815260408083203384529091529020548211155b610d795760405162461bcd60e51b815260040161082790614dd6565b610d848484846138ec565b336001600160a01b03851614801590610dc257506001600160a01b038416600090815260016020908152604080832033845290915290205460001914155b15610e48576001600160a01b0384166000908152600160209081526040808320338452909152902054610df590836137e7565b6001600160a01b03858116600090815260016020908152604080832033808552925291829020849055905191861692909160008051602061523683398151915291610e3f91614b58565b60405180910390a35b5060019392505050565b6001600160a01b03811660009081526009602052604090205460ff165b919050565b600554600090610100900460ff1615610e9f5760405162461bcd60e51b815260040161082790614e5b565b506006546001600160a01b031690565b60055460ff1690565b336001600160a01b03166000356001600160e01b0319166001600160e01b031916600080516020615216833981519152600036604051610ef9929190614b61565b60405180910390a3600554610100900460ff1615610f295760405162461bcd60e51b815260040161082790614e5b565b6005805461ff001916610100179055600654336001600160a01b0390911614610f645760405162461bcd60e51b815260040161082790614be3565b64e8d4a51000811015610f895760405162461bcd60e51b815260040161082790614c8a565b67016345785d8a0000811115610fb15760405162461bcd60e51b815260040161082790614ed2565b6007556005805461ff0019169055565b610e1081565b6006546001600160a01b0316158015610fe857506001600160a01b038b1615155b6110045760405162461bcd60e51b815260040161082790614d83565b600680546001600160a01b0319166001600160a01b038d161790556005805462010000600160b01b0319163362010000021790556028670de0b6b3a764000004600755604080516020601f8c018190048102820181019092528a81526110b8918c908c908190840183828082843760009201919091525050604080516020601f8e018190048102820181019092528c815292508c91508b90819084018382808284376000920191909152506139d592505050565b8460028110156110da5760405162461bcd60e51b8152600401610827906150f1565b60088111156110fb5760405162461bcd60e51b815260040161082790614c0f565b838114801561110957508181145b6111255760405162461bcd60e51b815260040161082790614f76565b6000805b828110156113d657600089898381811061113f57fe5b90506020020160208101906111549190614692565b9050600086868481811061116457fe5b90506020020160208101906111799190614a66565b9050600089898581811061118957fe5b905060200201359050670de0b6b3a7640000826001600160601b031610156111c35760405162461bcd60e51b815260040161082790614f24565b6802b5e3af16b18800006001600160601b03831611156111f55760405162461bcd60e51b815260040161082790614caf565b620f42408110156112185760405162461bcd60e51b815260040161082790614d2c565b6040518060c001604052806001151581526020014265ffffffffffff168152602001836001600160601b03168152602001836001600160601b0316815260200160088054905060ff1681526020018281525060096000856001600160a01b03166001600160a01b0316815260200190815260200160002060008201518160000160006101000a81548160ff02191690831515021790555060208201518160000160016101000a81548165ffffffffffff021916908365ffffffffffff16021790555060408201518160000160076101000a8154816001600160601b0302191690836001600160601b0316021790555060608201518160000160136101000a8154816001600160601b0302191690836001600160601b03160217905550608082015181600001601f6101000a81548160ff021916908360ff16021790555060a082015181600101559050506008839080600181540180825580915050600190039060005260206000200160009091909190916101000a8154816001600160a01b0302191690836001600160a01b031602179055506113be85836001600160601b0316613a4c565b94506113cb833383613a71565b505050600101611129565b506802b5e3af16b18800008111156114005760405162461bcd60e51b815260040161082790614cd7565b600b8190556006805460ff60a01b1916600160a01b17905561142a68056bc75e2d63100000613aa4565b61143d3368056bc75e2d6310000061383a565b50505050505050505050505050565b60405160009033906001600160e01b0319833516906000805160206152168339815191529061147e9085903690614b61565b60405180910390a3600554610100900460ff16156114ae5760405162461bcd60e51b815260040161082790614e5b565b6005805461ff0019166101001790556001600160a01b03841660009081526009602052604090205460ff166114f55760405162461bcd60e51b815260040161082790614eab565b6001600160a01b038416600090815260096020526040902060018101548154600254600b5460075461153c9493600160381b90046001600160601b03169291908990612c2f565b91508282101561155e5760405162461bcd60e51b815260040161082790614d05565b6001600160a01b03851660009081526009602052604090206001015461158e906003670de0b6b3a76400006108a3565b8211156115ad5760405162461bcd60e51b815260040161082790614e80565b6115bb8160010154836137e7565b600182015560006115cc858261376e565b9050856001600160a01b0316336001600160a01b03167fe74c91552b64c2e2e7bd255639e004e693bd3e1d01cc33e65610b86afcc1ffed856040516116119190614b58565b60405180910390a36116233386613820565b6116306109d486836137e7565b60055461164c906201000090046001600160a01b03168261383a565b610a00863385613844565b336001600160a01b03166000356001600160e01b0319166001600160e01b031916600080516020615216833981519152600036604051611698929190614b61565b60405180910390a3600554610100900460ff16156116c85760405162461bcd60e51b815260040161082790614e5b565b6005805461ff001916610100179055600654336001600160a01b03909116146117035760405162461bcd60e51b815260040161082790614be3565b60068054911515600160a01b0260ff60a01b199092169190911790556005805461ff0019169055565b336001600160a01b03166000356001600160e01b0319166001600160e01b03191660008051602061521683398151915260003660405161176d929190614b61565b60405180910390a3600554610100900460ff161561179d5760405162461bcd60e51b815260040161082790614e5b565b6005805461ff001916610100179055600654600160a01b900460ff166117d55760405162461bcd60e51b815260040161082790615119565b60006117df610cfb565b905060006117ed8583613aad565b90508061180c5760405162461bcd60e51b815260040161082790614c61565b60005b6008548110156119445760006008828154811061182857fe5b60009182526020808320909101546001600160a01b0316808352600990915260408220600101549092509061185d858361376e565b90508061187c5760405162461bcd60e51b815260040161082790614c61565b87878581811061188857fe5b905060200201358111156118ae5760405162461bcd60e51b815260040161082790614e05565b6001600160a01b0383166000908152600960205260409020600101546118d49082613a4c565b6001600160a01b0384166000818152600960205260409081902060010192909255905133907f63982df10efd8dfaaaa0fcc7f50b2d93b7cba26ccc48adee2873220d485dc39a90611926908590614b58565b60405180910390a3611939833383613a71565b50505060010161180f565b5061194e85613aa4565b611958338661383a565b50506005805461ff0019169055505050565b6000806119778786613aad565b905060006119858786613a4c565b905060006119938289613aad565b905060006119a9670de0b6b3a764000085613aad565b905060006119b78383613b41565b905060006119c5828e61376e565b905060006119d3828f6137e7565b905060006119f26119ec670de0b6b3a76400008a6137e7565b8b61376e565b9050611a0f82611a0a670de0b6b3a7640000846137e7565b613aad565b9f9e505050505050505050505050505050565b336001600160a01b03166000356001600160e01b0319166001600160e01b031916600080516020615216833981519152600036604051611a63929190614b61565b60405180910390a3600554610100900460ff1615611a935760405162461bcd60e51b815260040161082790614e5b565b6005805461ff001916610100179055600654336001600160a01b0390911614611ace5760405162461bcd60e51b815260040161082790614be3565b82818114611aee5760405162461bcd60e51b815260040161082790614f76565b60005b81811015611b4b57611b43868683818110611b0857fe5b9050602002016020810190611b1d9190614692565b858584818110611b2957fe5b9050602002016020810190611b3e9190614a66565b613bf4565b600101611af1565b50506005805461ff001916905550505050565b60405160009033906001600160e01b03198335169060008051602061521683398151915290611b909085903690614b61565b60405180910390a3600554610100900460ff1615611bc05760405162461bcd60e51b815260040161082790614e5b565b6005805461ff001916610100179055600654600160a01b900460ff16611bf85760405162461bcd60e51b815260040161082790615119565b6001600160a01b03841660009081526009602052604090205460ff16611c305760405162461bcd60e51b815260040161082790614eab565b6001600160a01b038416600090815260096020526040902060010154611c62906002670de0b6b3a76400005b0461376e565b831115611c815760405162461bcd60e51b815260040161082790614c37565b6001600160a01b038416600090815260096020526040902060018101548154600254600b54600754611cc89493600160381b90046001600160601b03169291908990612b7a565b915082821015611cea5760405162461bcd60e51b815260040161082790614d05565b611cf8816001015485613a4c565b60018201556040516001600160a01b0386169033907f63982df10efd8dfaaaa0fcc7f50b2d93b7cba26ccc48adee2873220d485dc39a90611d3a908890614b58565b60405180910390a3611d4b82613aa4565b611d55338361383a565b611d60853386613a71565b506005805461ff00191690559392505050565b611d7b614531565b600554610100900460ff1615611da35760405162461bcd60e51b815260040161082790614e5b565b506001600160a01b038116600090815260096020908152604091829020825160c081018452815460ff808216151580845265ffffffffffff610100840416958401959095526001600160601b03600160381b8304811696840196909652600160981b82049095166060830152600160f81b900490931660808401526001015460a0830152610e6f5760405162461bcd60e51b815260040161082790614eab565b3360009081526001602090815260408083206001600160a01b038616845290915281205480831115611e98573360009081526001602090815260408083206001600160a01b0388168452909152812055611ec7565b611ea281846137e7565b3360009081526001602090815260408083206001600160a01b03891684529091529020555b3360008181526001602090815260408083206001600160a01b03891680855292529182902054915190929160008051602061523683398151915291610e3f9190614b58565b60405160009033906001600160e01b03198335169060008051602061521683398151915290611f3e9085903690614b61565b60405180910390a3600554610100900460ff1615611f6e5760405162461bcd60e51b815260040161082790614e5b565b6005805461ff001916610100179055600654600160a01b900460ff16611fa65760405162461bcd60e51b815260040161082790615119565b6001600160a01b03841660009081526009602052604090205460ff16611fde5760405162461bcd60e51b815260040161082790614eab565b6001600160a01b038416600090815260096020526040902060018101548154600254600b546007546120259493600160381b90046001600160601b0316929190899061196a565b9150816120445760405162461bcd60e51b815260040161082790614c61565b828211156120645760405162461bcd60e51b815260040161082790614e05565b6001600160a01b038516600090815260096020526040902060010154612094906002670de0b6b3a7640000611c5c565b8211156120b35760405162461bcd60e51b815260040161082790614c37565b6120c1816001015483613a4c565b60018201556040516001600160a01b0386169033907f63982df10efd8dfaaaa0fcc7f50b2d93b7cba26ccc48adee2873220d485dc39a90612103908690614b58565b60405180910390a361211484613aa4565b61211e338561383a565b611d60853384613a71565b6001600160a01b031660009081526020819052604090205490565b620f4240670de0b6b3a7640000610d11565b600080336001600160a01b03166000356001600160e01b0319166001600160e01b03191660008051602061521683398151915260003660405161219a929190614b61565b60405180910390a3600554610100900460ff16156121ca5760405162461bcd60e51b815260040161082790614e5b565b6005805461ff0019166101001790556001600160a01b03871660009081526009602052604090205460ff166122115760405162461bcd60e51b815260040161082790614eab565b6001600160a01b03851660009081526009602052604090205460ff166122495760405162461bcd60e51b815260040161082790614eab565b600654600160a01b900460ff166122725760405162461bcd60e51b815260040161082790614fea565b61227a614531565b506001600160a01b038716600090815260096020908152604091829020825160c081018452815460ff8082161515835265ffffffffffff610100830416948301949094526001600160601b03600160381b8204811695830195909552600160981b81049094166060820152600160f81b90930490911660808301526001015460a0820152612306614531565b506001600160a01b038616600090815260096020908152604091829020825160c081018452815460ff8082161515835265ffffffffffff610100830416948301949094526001600160601b03600160381b8204811695830195909552600160981b81049094166060820152600160f81b90930490911660808301526001015460a082018190526123a0906003670de0b6b3a76400006108a3565b8611156123bf5760405162461bcd60e51b815260040161082790614e80565b60006123f28360a0015184604001516001600160601b03168460a0015185604001516001600160601b0316600754612f95565b9050858111156124145760405162461bcd60e51b815260040161082790614ef7565b6124468360a0015184604001516001600160601b03168460a0015185604001516001600160601b03168b6007546136eb565b9450888511156124685760405162461bcd60e51b815260040161082790614e05565b6124768360a0015186613a4c565b60a08085018290526001600160a01b038c166000908152600960205260409020600101919091558201516124aa90886137e7565b60a083018190526001600160a01b0389166000908152600960205260409020600101556124d7838b613d9d565b506124e28289613d9d565b506125148360a0015184604001516001600160601b03168460a0015185604001516001600160601b0316600754612f95565b9350858411156125365760405162461bcd60e51b815260040161082790614f9b565b6125408588613aad565b81111561255f5760405162461bcd60e51b815260040161082790614c61565b876001600160a01b03168a6001600160a01b0316336001600160a01b03167f908fb5ee8f16c6bc9bc3690973819f32a4d4b10188134543c88706e0e1d43378888b6040516125ae9291906151d6565b60405180910390a46125c18a3387613a71565b6125cc883389613844565b5050506005805461ff001916905590969095509350505050565b600080336001600160a01b03166000356001600160e01b0319166001600160e01b03191660008051602061521683398151915260003660405161262a929190614b61565b60405180910390a3600554610100900460ff161561265a5760405162461bcd60e51b815260040161082790614e5b565b6005805461ff0019166101001790556001600160a01b03871660009081526009602052604090205460ff166126a15760405162461bcd60e51b815260040161082790614eab565b6001600160a01b03851660009081526009602052604090205460ff166126d95760405162461bcd60e51b815260040161082790614eab565b600654600160a01b900460ff166127025760405162461bcd60e51b815260040161082790614fea565b6001600160a01b0385166000908152600a6020526040902054156127385760405162461bcd60e51b815260040161082790615046565b612740614531565b506001600160a01b038716600090815260096020908152604091829020825160c081018452815460ff8082161515835265ffffffffffff610100830416948301949094526001600160601b03600160381b8204811695830195909552600160981b81049094166060820152600160f81b90930490911660808301526001015460a08201526127cc614531565b506001600160a01b038087166000908152600960209081526040808320815160c081018352815460ff8082161515835265ffffffffffff610100830416838701526001600160601b03600160381b8304811684870152600160981b8304166060840152600160f81b90910416608082015260019091015460a0820152938c168352600a90915290205480612893576128748360a001516002670de0b6b3a764000081611c5c57fe5b8911156128935760405162461bcd60e51b815260040161082790614c37565b60006128c68460a0015185604001516001600160601b03168560a0015186604001516001600160601b0316600754612f95565b9050868111156128e85760405162461bcd60e51b815260040161082790614ef7565b61291a8460a0015185604001516001600160601b03168560a0015186604001516001600160601b03168e60075461326f565b95508786101561293c5760405162461bcd60e51b815260040161082790614d05565b61294a8460a001518b613a4c565b60a08086018290526001600160a01b038d1660009081526009602052604090206001019190915583015161297e90876137e7565b60a084018190526001600160a01b038a166000908152600960205260409020600101556129ab848c613d9d565b506129b6838a613d9d565b506129e88460a0015185604001516001600160601b03168560a0015186604001516001600160601b0316600754612f95565b945086851115612a0a5760405162461bcd60e51b815260040161082790614f9b565b612a148a87613aad565b811115612a335760405162461bcd60e51b815260040161082790614c61565b886001600160a01b03168b6001600160a01b0316336001600160a01b03167f908fb5ee8f16c6bc9bc3690973819f32a4d4b10188134543c88706e0e1d433788d8a604051612a829291906151d6565b60405180910390a4612a958b338c613a71565b612aa0893388613844565b505050506005805461ff001916905590969095509350505050565b600080612ac88786613aad565b90506000612ade670de0b6b3a7640000836137e7565b90506000612aec828661376e565b90506000612b0687611a0a670de0b6b3a7640000856137e7565b90506000612b148c836137e7565b90506000612b22828e613aad565b90506000612b308288613b41565b90506000612b3e828e61376e565b90506000612b4c8e836137e7565b9050612b6581611a0a670de0b6b3a764000060006137e7565b99505050505050505050509695505050505050565b600080612b878786613aad565b90506000612ba6612ba0670de0b6b3a7640000846137e7565b8561376e565b90506000612bc586612bc0670de0b6b3a7640000856137e7565b61376e565b90506000612bd38b83613a4c565b90506000612be1828d613aad565b90506000612bef8287613b41565b90506000612bfd828d61376e565b9050612c09818d6137e7565b9e9d5050505050505050505050505050565b64e8d4a51000670de0b6b3a7640000610d11565b600080612c3c8786613aad565b90506000612c5785612bc0670de0b6b3a764000060006137e7565b90506000612c6588836137e7565b90506000612c73828a613aad565b90506000612c9282612c8d670de0b6b3a764000088613aad565b613b41565b90506000612ca0828e61376e565b90506000612cae8e836137e7565b90506000612cc76119ec670de0b6b3a76400008a6137e7565b9050611a0f82612bc0670de0b6b3a7640000846137e7565b336001600160a01b03166000356001600160e01b0319166001600160e01b031916600080516020615216833981519152600036604051612d20929190614b61565b60405180910390a3600554610100900460ff1615612d505760405162461bcd60e51b815260040161082790614e5b565b6005805461ff0019166101001790556001600160a01b03811660009081526009602052604090205460ff16612d975760405162461bcd60e51b815260040161082790614eab565b6040516370a0823160e01b81526001600160a01b038216906370a0823190612dc3903090600401614a8d565b60206040518083038186803b158015612ddb57600080fd5b505afa158015612def573d6000803e3d6000fd5b505050506040513d601f19601f82011682018060405250810190612e139190614988565b6001600160a01b039091166000908152600960205260409020600101556005805461ff0019169055565b600654600160a01b900460ff1690565b600554600090610100900460ff1615612e785760405162461bcd60e51b815260040161082790614e5b565b50600b5490565b68056bc75e2d6310000081565b600554600090610100900460ff1615612eb75760405162461bcd60e51b815260040161082790614e5b565b6001600160a01b03821660009081526009602052604090205460ff16612eef5760405162461bcd60e51b815260040161082790614eab565b506001600160a01b0316600090815260096020526040902054600160381b90046001600160601b031690565b60048054604080516020601f6002600019610100600188161502019095169490940493840181900481028201810190925282815260609390929091830182828015610aa05780601f10610a7557610100808354040283529160200191610aa0565b6704a03ce68d21555681565b6542524f4e5a4560d01b90565b600080612fa28787613aad565b90506000612fb08686613aad565b90506000612fbe8383613aad565b90506000612fe0670de0b6b3a7640000611a0a670de0b6b3a7640000896137e7565b9050612fec828261376e565b9a9950505050505050505050565b60006130073384846138ec565b50600192915050565b336001600160a01b03166000356001600160e01b0319166001600160e01b031916600080516020615216833981519152600036604051613051929190614b61565b60405180910390a3600554610100900460ff16156130815760405162461bcd60e51b815260040161082790614e5b565b6005805461ff001916610100179055600061309a610cfb565b905060006130a985600061376e565b905060006130b786836137e7565b905060006130c58285613aad565b9050806130e45760405162461bcd60e51b815260040161082790614c61565b6130ee3388613820565b60055461310a906201000090046001600160a01b03168461383a565b6131138261382e565b60005b60085481101561324b5760006008828154811061312f57fe5b60009182526020808320909101546001600160a01b03168083526009909152604082206001015490925090613164858361376e565b9050806131835760405162461bcd60e51b815260040161082790614c61565b89898581811061318f57fe5b905060200201358110156131b55760405162461bcd60e51b815260040161082790614d05565b6001600160a01b0383166000908152600960205260409020600101546131db90826137e7565b6001600160a01b0384166000818152600960205260409081902060010192909255905133907fe74c91552b64c2e2e7bd255639e004e693bd3e1d01cc33e65610b86afcc1ffed9061322d908590614b58565b60405180910390a3613240833383613844565b505050600101613116565b50506005805461ff0019169055505050505050565b600881565b600281565b600181565b60008061327c8786613aad565b90506000613292670de0b6b3a7640000856137e7565b905061329e858261376e565b905060006132b08a611a0a8c85613a4c565b905060006132be8285613b41565b905060006132d4670de0b6b3a7640000836137e7565b90506132e08a8261376e565b9c9b505050505050505050505050565b600a670de0b6b3a7640000610d11565b671bc16d674ec7ffff81565b6050670de0b6b3a7640000610d11565b600081565b600554606090610100900460ff161561334c5760405162461bcd60e51b815260040161082790614e5b565b6008805480602002602001604051908101604052809291908181526020018280548015610aa057602002820191906000526020600020905b81546001600160a01b03168152600190910190602001808311613384575050505050905090565b60085490565b336001600160a01b03166000356001600160e01b0319166001600160e01b0319166000805160206152168339815191526000366040516133f2929190614b61565b60405180910390a3600554610100900460ff16156134225760405162461bcd60e51b815260040161082790614e5b565b6005805461ff001916610100179055600654336001600160a01b039091161461345d5760405162461bcd60e51b815260040161082790614be3565b6001600160a01b03811660009081526009602052604090205460ff166134955760405162461bcd60e51b815260040161082790614eab565b600b546001600160a01b0382166000908152600960205260409020546134cb9190600160381b90046001600160601b03166137e7565b600b556134d781613fc8565b506005805461ff0019169055565b600554600090610100900460ff16156135105760405162461bcd60e51b815260040161082790614e5b565b5060075490565b3360009081526001602090815260408083206001600160a01b03861684529091528120546135459083613a4c565b3360008181526001602090815260408083206001600160a01b0389168085529252918290208490559051909260008051602061523683398151915291610af19190614b58565b6001600160a01b03918216600090815260016020908152604080832093909416825291909152205490565b6002670de0b6b3a7640000610d11565b600554600090610100900460ff16156135f15760405162461bcd60e51b815260040161082790614e5b565b6001600160a01b03821660009081526009602052604090205460ff166136295760405162461bcd60e51b815260040161082790614eab565b6001600160a01b038216600090815260096020526040902054600b54600160381b9091046001600160601b031690613662908290613aad565b9392505050565b600554600090610100900460ff16156136945760405162461bcd60e51b815260040161082790614e5b565b6001600160a01b03821660009081526009602052604090205460ff166136cc5760405162461bcd60e51b815260040161082790614eab565b506001600160a01b031660009081526009602052604090206001015490565b6000806136f88588613aad565b9050600061370687866137e7565b905060006137148883613aad565b905060006137228285613b41565b905061373681670de0b6b3a76400006137e7565b905061374a670de0b6b3a7640000876137e7565b945061375f6137598c8361376e565b86613aad565b9b9a5050505050505050505050565b600082820283158061378857508284828161378557fe5b04145b6137a45760405162461bcd60e51b815260040161082790614f4c565b6706f05b59d3b200008101818110156137cf5760405162461bcd60e51b815260040161082790614f4c565b6000670de0b6b3a7640000825b049695505050505050565b60008060006137f68585614280565b9150915080156138185760405162461bcd60e51b81526004016108279061509c565b509392505050565b61382a82826142a5565b5050565b613837816142b0565b50565b61382a8282614359565b60405163a9059cbb60e01b81526000906001600160a01b0385169063a9059cbb906138759086908690600401614ac5565b602060405180830381600087803b15801561388f57600080fd5b505af11580156138a3573d6000803e3d6000fd5b505050506040513d601f19601f820116820180604052508101906138c79190614954565b9050806138e65760405162461bcd60e51b815260040161082790615073565b50505050565b6001600160a01b0383166000908152602081905260409020548111156139245760405162461bcd60e51b815260040161082790614d55565b6001600160a01b03831660009081526020819052604090205461394790826137e7565b6001600160a01b0380851660009081526020819052604080822093909355908416815220546139769082613a4c565b6001600160a01b0380841660008181526020819052604090819020939093559151908516907fddf252ad1be2c89b69c2b068fc378daa952ba7f163c4a11628f55a4df523b3ef906139c8908590614b58565b60405180910390a3505050565b600354600260001961010060018416150201909116041580156139f85750815115155b8015613a045750805115155b613a205760405162461bcd60e51b815260040161082790614e2b565b8151613a33906003906020850190614566565b508051613a47906004906020840190614566565b505050565b6000828201838110156136625760405162461bcd60e51b8152600401610827906150c7565b6040516323b872dd60e01b81526000906001600160a01b038516906323b872dd9061387590869030908790600401614aa1565b61383781614364565b600081613acc5760405162461bcd60e51b815260040161082790614fc4565b670de0b6b3a76400008302831580613af45750670de0b6b3a7640000848281613af157fe5b04145b613b105760405162461bcd60e51b815260040161082790614dac565b60028304810181811015613b365760405162461bcd60e51b815260040161082790614dac565b60008482816137dc57fe5b60006001831015613b645760405162461bcd60e51b815260040161082790615017565b671bc16d674ec7ffff831115613b8c5760405162461bcd60e51b815260040161082790615146565b6000613b97836143d3565b90506000613ba584836137e7565b90506000613bbb86613bb6856143ee565b6143fc565b905081613bcc579250610afd915050565b6000613bdd87846305f5e100614453565b9050613be9828261376e565b979650505050505050565b613bfc614531565b506001600160a01b038216600090815260096020908152604091829020825160c081018452815460ff808216151580845265ffffffffffff610100840416958401959095526001600160601b03600160381b8304811696840196909652600160981b82049095166060830152600160f81b900490931660808401526001015460a0830152613c9c5760405162461bcd60e51b815260040161082790614eab565b670de0b6b3a7640000826001600160601b0316101580613cc357506001600160601b038216155b613cdf5760405162461bcd60e51b815260040161082790614f24565b6802b5e3af16b18800006001600160601b0383161115613d115760405162461bcd60e51b815260040161082790614caf565b6001600160601b038216606082018190526001600160a01b0384166000908152600960205260409081902080546bffffffffffffffffffffffff60981b1916600160981b90930292909217909155517fc7ea88f3376e27ce6ebc2025310023327f743a8377d438258c36b166dd8b298390613d8f9085908590614ade565b60405180910390a16138e681845b600082604001516001600160601b031683606001516001600160601b03161480613dd65750610e10836020015165ffffffffffff164203105b15613de357506000610afd565b6000836040015190506000613e03826001600160601b031660075461376e565b60608601519091506001600160601b038084169082161115613eb3576000613e3d826001600160601b0316856001600160601b03166137e7565b90506001600160601b03841615801590613e5657508281115b15613e7457613e6e846001600160601b031684613a4c565b91508290505b613e80600b5482613a4c565b600b8190556802b5e3af16b18800001015613ead5760405162461bcd60e51b815260040161082790614cd7565b50613f05565b6000613ed1846001600160601b0316836001600160601b03166137e7565b905082811115613ef457613eee846001600160601b0316846137e7565b91508290505b613f00600b54826137e7565b600b55505b7f21b12aed5d425f5675450ffeeae01039085e5323974c3099e1828155d9b51e778582604051613f36929190614ade565b60405180910390a16001600160601b038116613f5a57613f5585613fc8565b613fbc565b6001600160601b03811660408781018290526001600160a01b038716600090815260096020522080546bffffffffffffffffffffffff60381b1916600160381b9092029190911766ffffffffffff0019166101004265ffffffffffff16021790555b50600195945050505050565b613fd0614531565b506001600160a01b0381166000908152600960209081526040808320815160c081018352815460ff8082161515835265ffffffffffff610100830416958301959095526001600160601b03600160381b8204811694830194909452600160981b81049093166060820152600160f81b909204909216608082015260019091015460a082018190529091614063828261376e565b608084015160085491925060ff169060001901808214614134576008818154811061408a57fe5b600091825260209091200154600880546001600160a01b0390921691849081106140b057fe5b9060005260206000200160006101000a8154816001600160a01b0302191690836001600160a01b031602179055508160096000600885815481106140f057fe5b60009182526020808320909101546001600160a01b031683528201929092526040019020805460ff92909216600160f81b026001600160f81b039092169190911790555b600880548061413f57fe5b60008281526020808220600019908401810180546001600160a01b03191690559092019092556040805160c081018252838152808301848152818301858152606083018681526080840187815260a085018881526001600160a01b038f16895260099097529490962092518354925191519651945160ff199093169015151766ffffffffffff00191661010065ffffffffffff90921691909102176bffffffffffffffffffffffff60381b1916600160381b6001600160601b0396871602176bffffffffffffffffffffffff60981b1916600160981b9590931694909402919091176001600160f81b0316600160f81b60ff90941693909302929092178255516001919091015561425a863361425587876137e7565b613844565b6005546142789087906201000090046001600160a01b031685613844565b505050505050565b600080828410614296575050808203600061429e565b505081810360015b9250929050565b61382a8230836138ec565b306000908152602081905260409020548111156142df5760405162461bcd60e51b815260040161082790614d55565b306000908152602081905260409020546142f990826137e7565b3060009081526020819052604090205560025461431690826137e7565b60025560405160009030907fddf252ad1be2c89b69c2b068fc378daa952ba7f163c4a11628f55a4df523b3ef9061434e908590614b58565b60405180910390a350565b61382a3083836138ec565b3060009081526020819052604090205461437e9082613a4c565b3060009081526020819052604090205560025461439b9082613a4c565b60025560405130906000907fddf252ad1be2c89b69c2b068fc378daa952ba7f163c4a11628f55a4df523b3ef9061434e908590614b58565b6000670de0b6b3a76400006143e7836143ee565b0292915050565b670de0b6b3a7640000900490565b6000806002830661441557670de0b6b3a7640000614417565b835b90506002830492505b821561366257614430848561376e565b9350600283061561444857614445818561376e565b90505b600283049250614420565b600082818061446a87670de0b6b3a7640000614280565b9092509050670de0b6b3a764000080600060015b888410614522576000670de0b6b3a7640000820290506000806144b28a6144ad85670de0b6b3a76400006137e7565b614280565b915091506144c487612bc0848c61376e565b96506144d08784613aad565b9650866144df57505050614522565b87156144e9579315935b80156144f3579315935b841561450a5761450386886137e7565b9550614517565b6145148688613a4c565b95505b50505060010161447e565b50909998505050505050505050565b6040805160c081018252600080825260208201819052918101829052606081018290526080810182905260a081019190915290565b828054600181600116156101000203166002900490600052602060002090601f016020900481019282601f106145a757805160ff19168380011785556145d4565b828001600101855582156145d4579182015b828111156145d45782518255916020019190600101906145b9565b506145e09291506145e4565b5090565b5b808211156145e057600081556001016145e5565b80356001600160a01b0381168114610afd57600080fd5b60008083601f840112614621578182fd5b50813567ffffffffffffffff811115614638578182fd5b602083019150836020808302850101111561429e57600080fd5b60008083601f840112614663578182fd5b50813567ffffffffffffffff81111561467a578182fd5b60208301915083602082850101111561429e57600080fd5b6000602082840312156146a3578081fd5b61366283836145f9565b600080604083850312156146bf578081fd5b6146c984846145f9565b91506146d884602085016145f9565b90509250929050565b6000806000606084860312156146f5578081fd5b8335614700816151f2565b92506020840135614710816151f2565b929592945050506040919091013590565b600080600080600080600080600080600060c08c8e031215614741578687fd5b61474b8d8d6145f9565b9a5067ffffffffffffffff8060208e01351115614766578788fd5b6147768e60208f01358f01614652565b909b50995060408d013581101561478b578788fd5b61479b8e60408f01358f01614652565b909950975060608d01358110156147b0578687fd5b6147c08e60608f01358f01614610565b909750955060808d01358110156147d5578485fd5b6147e58e60808f01358f01614610565b909550935060a08d01358110156147fa578283fd5b5061480b8d60a08e01358e01614610565b81935080925050509295989b509295989b9093969950565b60008060408385031215614835578182fd5b61483f84846145f9565b946020939093013593505050565b600080600080600060a08688031215614864578081fd5b61486e87876145f9565b94506020860135935061488487604088016145f9565b94979396509394606081013594506080013592915050565b6000806000606084860312156148b0578283fd5b6148ba85856145f9565b95602085013595506040909401359392505050565b600080600080604085870312156148e4578384fd5b843567ffffffffffffffff808211156148fb578586fd5b61490788838901614610565b9096509450602087013591508082111561491f578384fd5b5061492c87828801614610565b95989497509550505050565b600060208284031215614949578081fd5b813561366281615207565b600060208284031215614965578081fd5b815161366281615207565b600060208284031215614981578081fd5b5035919050565b600060208284031215614999578081fd5b5051919050565b6000806000604084860312156149b4578081fd5b83359250602084013567ffffffffffffffff8111156149d1578182fd5b6149dd86828701614610565b9497909650939450505050565b600080600080600060a08688031215614a01578283fd5b505083359560208501359550604085013594606081013594506080013592509050565b60008060008060008060c08789031215614a3c578384fd5b505084359660208601359650604086013595606081013595506080810135945060a0013592509050565b600060208284031215614a77578081fd5b81356001600160601b0381168114613662578182fd5b6001600160a01b0391909116815260200190565b6001600160a01b039384168152919092166020820152604081019190915260600190565b6001600160a01b03929092168252602082015260400190565b6001600160a01b039290921682526001600160601b0316602082015260400190565b6020808252825182820181905260009190848201906040850190845b81811015614b415783516001600160a01b031683529284019291840191600101614b1c565b50909695505050505050565b901515815260200190565b90815260200190565b60006020825282602083015282846040840137818301604090810191909152601f909201601f19160101919050565b6000602080835283518082850152825b81811015614bbc57858101830151858201604001528201614ba0565b81811115614bcd5783604083870101525b50601f01601f1916929092016040019392505050565b60208082526012908201527122a9292fa727aa2fa1a7a72a2927a62622a960711b604082015260600190565b6020808252600e908201526d4552525f4d41585f544f4b454e5360901b604082015260600190565b60208082526010908201526f4552525f4d41585f494e5f524154494f60801b604082015260600190565b6020808252600f908201526e08aa4a4be9a82a890be82a0a0a49eb608b1b604082015260600190565b6020808252600b908201526a4552525f4d494e5f46454560a81b604082015260600190565b6020808252600e908201526d11549497d3505617d5d15251d21560921b604082015260600190565b60208082526014908201527311549497d3505617d513d5105317d5d15251d21560621b604082015260600190565b6020808252600d908201526c11549497d31253525517d3d555609a1b604082015260600190565b6020808252600f908201526e4552525f4d494e5f42414c414e434560881b604082015260600190565b60208082526014908201527311549497d25394d551919250d251539517d0905360621b604082015260600190565b6020808252600f908201526e11549497d253925512505312569151608a1b604082015260600190565b60208082526010908201526f11549497d1125597d25395115493905360821b604082015260600190565b60208082526015908201527422a9292fa12a27a5a2a72fa120a22fa1a0a62622a960591b604082015260600190565b6020808252600c908201526b22a9292fa624a6a4aa2fa4a760a11b604082015260600190565b60208082526016908201527511549497d09513d2d15397d25392551250531256915160521b604082015260600190565b6020808252600b908201526a4552525f5245454e54525960a81b604082015260600190565b6020808252601190820152704552525f4d41585f4f55545f524154494f60781b604082015260600190565b6020808252600d908201526c11549497d393d517d093d55391609a1b604082015260600190565b6020808252600b908201526a4552525f4d41585f46454560a81b604082015260600190565b6020808252601390820152724552525f4241445f4c494d49545f505249434560681b604082015260600190565b6020808252600e908201526d11549497d3525397d5d15251d21560921b604082015260600190565b60208082526010908201526f4552525f4d554c5f4f564552464c4f5760801b604082015260600190565b6020808252600b908201526a22a9292fa0a9292fa622a760a91b604082015260600190565b6020808252600f908201526e4552525f4c494d49545f505249434560881b604082015260600190565b6020808252600c908201526b4552525f4449565f5a45524f60a01b604082015260600190565b6020808252601390820152724552525f535741505f4e4f545f5055424c494360681b604082015260600190565b6020808252601590820152744552525f42504f575f424153455f544f4f5f4c4f5760581b604082015260600190565b6020808252601390820152724552525f544f4b454e5f4e4f545f524541445960681b604082015260600190565b6020808252600f908201526e4552525f45524332305f46414c534560881b604082015260600190565b6020808252601190820152704552525f5355425f554e444552464c4f5760781b604082015260600190565b60208082526010908201526f4552525f4144445f4f564552464c4f5760801b604082015260600190565b6020808252600e908201526d4552525f4d494e5f544f4b454e5360901b604082015260600190565b6020808252601390820152724552525f4a4f494e5f4e4f545f5055424c494360681b604082015260600190565b60208082526016908201527508aa4a4be84a09eaebe8482a68abea89e9ebe90928e960531b604082015260600190565b600060c08201905082511515825265ffffffffffff602084015116602083015260408301516001600160601b038082166040850152806060860151166060850152505060ff608084015116608083015260a083015160a083015292915050565b918252602082015260400190565b60ff91909116815260200190565b6001600160a01b038116811461383757600080fd5b801515811461383757600080fdfe25fce1fe01d9b241fda40b2152ddd6f4ba063fcfb3c2c81dddf84ee20d3f341f8c5be1e5ebec7d5bd14f71427d1e84f3dd0314c0f7b2291e5b200ac8c7c3b925a26469706673582212206cf6606bc73b4dfa4acc7c93be7438eb299c089a489fb9f65289b96386493e6864736f6c634300060c0033",
  "immutableReferences": {},
  "source": "pragma solidity ^0.6.0;\npragma experimental ABIEncoderV2;\n\nimport { BPool } from \"./balancer/BPool.sol\";\nimport \"./interfaces/IERC20.sol\";\nimport \"./lib/FixedPoint.sol\";\nimport \"./lib/ProxyLib.sol\";\nimport { IndexLibrary as Index } from \"./lib/IndexLibrary.sol\";\nimport { MarketOracle } from \"./MarketOracle.sol\";\n\n\ncontract PoolController {\n  using FixedPoint for FixedPoint.uq112x112;\n  using FixedPoint for FixedPoint.uq144x112;\n\n  uint256 public constant MIN_POOL_SIZE = 2;\n  uint256 public constant MAX_POOL_SIZE = 8;\n  uint256 public constant BONE = 10**18;\n  uint256 public constant WEIGHT_MULTIPLIER = BONE * 25;\n  uint256 public constant POOL_REWEIGH_DELAY = 7 days;\n\n  event LOG_NEW_POOL(address indexed caller, address indexed pool, uint256 categoryID, uint256 indexSize);\n  event LOG_BLABS(address indexed caller, address indexed blabs);\n\n  address internal _poolContract;\n  mapping(address => bool) internal _isBPool;\n\n  mapping(address => uint256) public lastPoolReweighs;\n  MarketOracle public oracle;\n\n  constructor (address _oracle) public {\n    oracle = MarketOracle(_oracle);\n    _poolContract = address(new BPool());\n  }\n\n  function isBPool(address b) external view returns (bool) {\n    return _isBPool[b];\n  }\n\n  function shouldPoolReweigh(address pool) public view returns (bool) {\n    return now - lastPoolReweighs[pool] >= POOL_REWEIGH_DELAY;\n  }\n\n  function computePoolAddress(uint256 categoryID, uint256 indexSize)\n    public\n    view\n    returns (address)\n  {\n    bytes32 salt = keccak256(abi.encodePacked(categoryID, indexSize));\n    return ProxyLib.computeProxyAddress(\n      _poolContract,\n      salt\n    );\n  }\n\n  /**\n   * @dev Deploy a new indexed pool with the category ID and index size.\n   * TODO: Currently this just assumes that the pool controller already owns the tokens.\n   * This should be updated to gradually purchase tokens from UniSwap.\n   * @param categoryID Identifier for the indexed category\n   * @param indexSize Number of tokens to hold in the index fund\n   * @param name Name of the index token - should indicate the category and size\n   * @param symbol Symbol for the index token\n   * @param initialStablecoinValue Total initial value of the pool\n   */\n  function deployIndexPool(\n    uint256 categoryID,\n    uint256 indexSize,\n    string calldata name,\n    string calldata symbol,\n    uint256 initialStablecoinValue\n  ) external {\n    require(indexSize >= MIN_POOL_SIZE, \"Less than minimum index size.\");\n    require(indexSize <= MAX_POOL_SIZE, \"Exceeds maximum index size\");\n    require(oracle.hasCategory(categoryID), \"Category does not exist\");\n    bytes32 salt = keccak256(abi.encodePacked(categoryID, indexSize));\n    address bpoolAddress = ProxyLib.deployProxy(_poolContract, salt);\n    _isBPool[bpoolAddress] = true;\n    emit LOG_NEW_POOL(msg.sender, bpoolAddress, categoryID, indexSize);\n    BPool bpool = BPool(bpoolAddress);\n    (\n      address[] memory tokens,\n      uint96[] memory denormalizedWeights,\n      uint256[] memory balances\n    ) = getInitialTokenWeightsAndBalances(categoryID, indexSize, initialStablecoinValue);\n    for (uint256 i = 0; i < indexSize; i++) {\n      IERC20(tokens[i]).approve(bpoolAddress, balances[i]);\n    }\n    bpool.initialize(\n      address(this),\n      name,\n      symbol,\n      tokens,\n      balances,\n      denormalizedWeights\n    );\n  }\n\n  /**\n   * @dev Queries the top n tokens in a category from the market oracle,\n   * computes their relative weights by market cap square root and determines\n   * the weighted balance of each token to meet a specified total value.\n   */\n  function getInitialTokenWeightsAndBalances(\n    uint256 categoryID,\n    uint256 indexSize,\n    uint256 stablecoinValue\n  )\n    public\n    view\n    returns (\n      address[] memory tokens,\n      uint96[] memory denormalizedWeights,\n      uint256[] memory balances\n    )\n  {\n    tokens = oracle.getTopCategoryTokens(categoryID, indexSize);\n    FixedPoint.uq112x112[] memory prices = oracle.computeAveragePrices(tokens);\n    FixedPoint.uq112x112[] memory weights = Index.computeTokenWeights(tokens, prices);\n    balances = new uint256[](indexSize);\n    denormalizedWeights = new uint96[](indexSize);\n    for (uint256 i = 0; i < indexSize; i++) {\n      uint144 weightedValue = weights[i].mul(stablecoinValue).decode144();\n      balances[i] = uint256(prices[i].reciprocal().mul(weightedValue).decode144());\n      denormalizedWeights[i] = denormalizeFractionalWeight(weights[i]);\n    }\n  }\n\n  // function reIndexPool(\n  //   uint256 categoryID,\n  //   uint256 indexSize\n  // )\n  //   public\n  //   view\n  //   returns (\n  //     address[] memory tokens,\n  //     uint96[] memory denormalizedWeights,\n  //     uint256[] memory balances\n  //   )\n  // {\n  //   tokens = oracle.getTopCategoryTokens(categoryID, indexSize);\n  //   address poolAddress = computePoolAddress(categoryID, indexSize);\n  //   FixedPoint.uq112x112[] memory prices = oracle.computeAveragePrices(tokens);\n  //   FixedPoint.uq112x112[] memory weights = Index.computeTokenWeights(tokens, prices);\n  //   balances = new uint256[](indexSize);\n    \n  // }\n\n  /**\n   * @dev Reweighs the assets in a pool by market cap and sets the\n   * desired new weights, which will be adjusted over time.\n   */\n  function reweighPool(address poolAddress) external {\n    require(_isBPool[poolAddress], \"ERR_NOT_POOL\");\n    require(shouldPoolReweigh(poolAddress), \"ERR_POOL_REWEIGH_DELAY\");\n    address[] memory tokens = BPool(poolAddress).getCurrentTokens();\n    FixedPoint.uq112x112[] memory prices = oracle.computeAveragePrices(tokens);\n    FixedPoint.uq112x112[] memory weights = Index.computeTokenWeights(tokens, prices);\n    uint96[] memory denormalizedWeights = new uint96[](tokens.length);\n    for (uint256 i = 0; i < tokens.length; i++) {\n      denormalizedWeights[i] = denormalizeFractionalWeight(weights[i]);\n    }\n    BPool(poolAddress).reweighTokens(tokens, denormalizedWeights);\n    lastPoolReweighs[poolAddress] = now;\n  }\n\n  /**\n   * @dev Converts a fixed point fraction to a denormalized weight.\n   * Multiply the fraction by the max weight and decode to an unsigned integer.\n   */\n  function denormalizeFractionalWeight(FixedPoint.uq112x112 memory fraction)\n    internal\n    pure\n    returns (uint96)\n  {\n    return uint96(fraction.mul(WEIGHT_MULTIPLIER).decode144());\n  }\n}",
  "sourcePath": "/home/workhorse/Indexed/indexed-subgraph/contracts/PoolController.sol",
  "compiler": {
    "name": "solc",
    "version": "0.6.12+commit.27d51765.Emscripten.clang"
  },
  "schemaVersion": "3.2.4",
  "updatedAt": "2020-08-28T06:05:33.506Z",
  "devdoc": {
    "kind": "dev",
    "methods": {
      "deployIndexPool(uint256,uint256,string,string,uint256)": {
        "details": "Deploy a new indexed pool with the category ID and index size. TODO: Currently this just assumes that the pool controller already owns the tokens. This should be updated to gradually purchase tokens from UniSwap.",
        "params": {
          "categoryID": "Identifier for the indexed category",
          "indexSize": "Number of tokens to hold in the index fund",
          "initialStablecoinValue": "Total initial value of the pool",
          "name": "Name of the index token - should indicate the category and size",
          "symbol": "Symbol for the index token"
        }
      },
      "getInitialTokenWeightsAndBalances(uint256,uint256,uint256)": {
        "details": "Queries the top n tokens in a category from the market oracle, computes their relative weights by market cap square root and determines the weighted balance of each token to meet a specified total value."
      },
      "reweighPool(address)": {
        "details": "Reweighs the assets in a pool by market cap and sets the desired new weights, which will be adjusted over time."
      }
    },
    "version": 1
  },
  "userdoc": {
    "kind": "user",
    "methods": {},
    "version": 1
  }
}