{
  "contractName": "UniSwapV2PriceOracle",
  "abi": [
    {
      "inputs": [
        {
          "internalType": "address",
          "name": "_uniswapFactory",
          "type": "address"
        },
        {
          "internalType": "address",
          "name": "_stableCoin",
          "type": "address"
        }
      ],
      "stateMutability": "nonpayable",
      "type": "constructor"
    },
    {
      "anonymous": false,
      "inputs": [
        {
          "indexed": false,
          "internalType": "address",
          "name": "token",
          "type": "address"
        },
        {
          "indexed": false,
          "internalType": "uint224",
          "name": "priceCumulativeLast",
          "type": "uint224"
        }
      ],
      "name": "PriceUpdated",
      "type": "event"
    },
    {
      "inputs": [],
      "name": "MAX_24_BIT",
      "outputs": [
        {
          "internalType": "uint24",
          "name": "",
          "type": "uint24"
        }
      ],
      "stateMutability": "view",
      "type": "function"
    },
    {
      "inputs": [],
      "name": "MIN_UPDATE_PERIOD",
      "outputs": [
        {
          "internalType": "uint32",
          "name": "",
          "type": "uint32"
        }
      ],
      "stateMutability": "view",
      "type": "function"
    },
    {
      "inputs": [
        {
          "internalType": "address",
          "name": "",
          "type": "address"
        }
      ],
      "name": "lastObservedPrices",
      "outputs": [
        {
          "internalType": "uint32",
          "name": "timestamp",
          "type": "uint32"
        },
        {
          "internalType": "uint224",
          "name": "priceCumulativeLast",
          "type": "uint224"
        }
      ],
      "stateMutability": "view",
      "type": "function"
    },
    {
      "inputs": [],
      "name": "stableCoin",
      "outputs": [
        {
          "internalType": "address",
          "name": "",
          "type": "address"
        }
      ],
      "stateMutability": "view",
      "type": "function"
    },
    {
      "inputs": [],
      "name": "uniswapFactory",
      "outputs": [
        {
          "internalType": "address",
          "name": "",
          "type": "address"
        }
      ],
      "stateMutability": "view",
      "type": "function"
    },
    {
      "inputs": [
        {
          "internalType": "address",
          "name": "token",
          "type": "address"
        }
      ],
      "name": "updatePrice",
      "outputs": [],
      "stateMutability": "nonpayable",
      "type": "function"
    },
    {
      "inputs": [
        {
          "internalType": "address[]",
          "name": "tokens",
          "type": "address[]"
        }
      ],
      "name": "updatePrices",
      "outputs": [],
      "stateMutability": "nonpayable",
      "type": "function"
    },
    {
      "inputs": [
        {
          "internalType": "address",
          "name": "token",
          "type": "address"
        }
      ],
      "name": "computeAverageMarketCap",
      "outputs": [
        {
          "internalType": "uint144",
          "name": "marketCap",
          "type": "uint144"
        }
      ],
      "stateMutability": "view",
      "type": "function"
    },
    {
      "inputs": [
        {
          "internalType": "address",
          "name": "token",
          "type": "address"
        },
        {
          "internalType": "uint256",
          "name": "amountIn",
          "type": "uint256"
        }
      ],
      "name": "computeAverageAmountOut",
      "outputs": [
        {
          "internalType": "uint144",
          "name": "amountOut",
          "type": "uint144"
        }
      ],
      "stateMutability": "view",
      "type": "function"
    },
    {
      "inputs": [
        {
          "internalType": "address[]",
          "name": "tokens",
          "type": "address[]"
        }
      ],
      "name": "computeAverageMarketCaps",
      "outputs": [
        {
          "internalType": "uint144[]",
          "name": "marketCaps",
          "type": "uint144[]"
        }
      ],
      "stateMutability": "view",
      "type": "function"
    },
    {
      "inputs": [
        {
          "internalType": "address",
          "name": "token",
          "type": "address"
        }
      ],
      "name": "computeAveragePrice",
      "outputs": [
        {
          "components": [
            {
              "internalType": "uint224",
              "name": "_x",
              "type": "uint224"
            }
          ],
          "internalType": "struct FixedPoint.uq112x112",
          "name": "priceAverage",
          "type": "tuple"
        }
      ],
      "stateMutability": "view",
      "type": "function"
    },
    {
      "inputs": [
        {
          "internalType": "address[]",
          "name": "tokens",
          "type": "address[]"
        }
      ],
      "name": "computeAveragePrices",
      "outputs": [
        {
          "components": [
            {
              "internalType": "uint224",
              "name": "_x",
              "type": "uint224"
            }
          ],
          "internalType": "struct FixedPoint.uq112x112[]",
          "name": "averagePrices",
          "type": "tuple[]"
        }
      ],
      "stateMutability": "view",
      "type": "function"
    }
  ],
  "bytecode": "0x608060405234801561001057600080fd5b506040516112b83803806112b883398101604081905261002f91610060565b600080546001600160a01b039384166001600160a01b031991821617909155600180549290931691161790556100b1565b60008060408385031215610072578182fd5b825161007d81610099565b602084015190925061008e81610099565b809150509250929050565b6001600160a01b03811681146100ae57600080fd5b50565b6111f8806100c06000396000f3fe608060405234801561001057600080fd5b50600436106100b45760003560e01c8063992642e511610071578063992642e514610154578063a15925651461015c578063a6d97d001461017c578063b2fab9141461019c578063eba3443f146101bd578063fd371138146101d2576100b4565b80631222b37e146100b957806318f59a8e146100e25780636bfc3d40146100f75780637e5296e0146101175780638bdb2afa1461012c57806396e85ced14610141575b600080fd5b6100cc6100c7366004610d5e565b6101e5565b6040516100d99190610f1a565b60405180910390f35b6100ea61028b565b6040516100d99190611123565b61010a610105366004610d5e565b610292565b6040516100d99190610f68565b61012a610125366004610d5e565b61032e565b005b610134610362565b6040516100d99190610ee4565b61012a61014f366004610d12565b610371565b610134610497565b61016f61016a366004610d12565b6104a6565b6040516100d991906110fc565b61018f61018a366004610d34565b610559565b6040516100d9919061110f565b6101af6101aa366004610d12565b61060a565b6040516100d9929190611144565b6101c5610635565b6040516100d99190611133565b61018f6101e0366004610d12565b61063c565b80516060908067ffffffffffffffff8111801561020157600080fd5b5060405190808252806020026020018201604052801561023b57816020015b610228610cbf565b8152602001906001900390816102205790505b50915060005b818110156102845761026584828151811061025857fe5b60200260200101516104a6565b83828151811061027157fe5b6020908102919091010152600101610241565b5050919050565b62ffffff81565b80516060908067ffffffffffffffff811180156102ae57600080fd5b506040519080825280602002602001820160405280156102d8578160200160208202803683370190505b50915060005b81811015610284576103028482815181106102f557fe5b602002602001015161063c565b83828151811061030e57fe5b6001600160901b03909216602092830291909101909101526001016102de565b60005b815181101561035e5761035682828151811061034957fe5b6020026020010151610371565b600101610331565b5050565b6000546001600160a01b031681565b610379610cd1565b506001600160a01b03811660009081526002602090815260409182902082518084019093525463ffffffff8116835264010000000090046001600160e01b0316908201526103c5610cd1565b6103ce83610760565b6001600160a01b038416600090815260026020908152604090912082518154928401516001600160e01b03166401000000000263ffffffff80831663ffffffff1990951694909417841617909155845192935091909103906201518090821610156104545760405162461bcd60e51b815260040161044b90610fa9565b60405180910390fd5b7fad435add05fa84ac1a1874b69bc4e8f8101f56cad85a504f8ea79c7ec482dcb5848360200151604051610489929190610ef8565b60405180910390a150505050565b6001546001600160a01b031681565b6104ae610cbf565b6104b6610cd1565b506001600160a01b03821660009081526002602090815260409182902082518084019093525463ffffffff8116835264010000000090046001600160e01b031690820152610502610cd1565b61050b84610760565b8251815191925090036201518063ffffffff8216111561053d5760405162461bcd60e51b815260040161044b90611060565b61055083602001518360200151836107b6565b95945050505050565b6000610563610cd1565b506001600160a01b03831660009081526002602090815260409182902082518084019093525463ffffffff8116835264010000000090046001600160e01b0316908201526105af610cd1565b6105b885610760565b8251815191925090036201518063ffffffff821611156105ea5760405162461bcd60e51b815260040161044b90611060565b6105fe8360200151836020015183886107f9565b93505050505b92915050565b60026020526000908152604090205463ffffffff81169064010000000090046001600160e01b031682565b6201518081565b6000610646610cd1565b506001600160a01b03821660009081526002602090815260409182902082518084019093525463ffffffff8116835264010000000090046001600160e01b031690820152610692610cd1565b61069b84610760565b8251815191925090036201518063ffffffff821611156106cd5760405162461bcd60e51b815260040161044b90611060565b6000856001600160a01b03166318160ddd6040518163ffffffff1660e01b815260040160206040518083038186803b15801561070857600080fd5b505afa15801561071c573d6000803e3d6000fd5b505050506040513d601f19601f820116820180604052508101906107409190610e4f565b90506107568460200151846020015184846107f9565b9695505050505050565b610768610cd1565b600080546001548291610789916001600160a01b0391821691879116610822565b6040805180820190915263ffffffff90911681526001600160e01b03909116602082015292505050919050565b6107be610cbf565b60405180602001604052808363ffffffff168686036001600160e01b0316816107e357fe5b046001600160e01b031681525090509392505050565b6000610803610cbf565b61080e8686866107b6565b905061075661081d828561088d565b6108ec565b60008060008061083286866108f3565b91509150600061084388848461097d565b9050826001600160a01b0316876001600160a01b0316141561087457610868816109da565b94509450505050610885565b61087d81610b17565b945094505050505b935093915050565b610895610ce8565b60008215806108bb57505082516001600160e01b0316828102908382816108b857fe5b04145b6108d75760405162461bcd60e51b815260040161044b9061101d565b60408051602081019091529081529392505050565b5160701c90565b600080826001600160a01b0316846001600160a01b031614156109285760405162461bcd60e51b815260040161044b90610fd8565b826001600160a01b0316846001600160a01b03161061094857828461094b565b83835b90925090506001600160a01b0382166109765760405162461bcd60e51b815260040161044b9061108e565b9250929050565b6000838383604051602001610993929190610e67565b604051602081830303815290604052805190602001206040516020016109ba929190610e8e565b60408051601f198184030181529190528051602090910120949350505050565b6000806109e5610c3a565b9050826001600160a01b0316635909c0d56040518163ffffffff1660e01b815260040160206040518083038186803b158015610a2057600080fd5b505afa158015610a34573d6000803e3d6000fd5b505050506040513d601f19601f82011682018060405250810190610a589190610e4f565b91506000806000856001600160a01b0316630902f1ac6040518163ffffffff1660e01b815260040160606040518083038186803b158015610a9857600080fd5b505afa158015610aac573d6000803e3d6000fd5b505050506040513d601f19601f82011682018060405250810190610ad09190610dfb565b9250925092508363ffffffff168163ffffffff1614610b0f5780840363ffffffff8116610afd8486610c44565b516001600160e01b0316029590950194505b505050915091565b600080610b22610c3a565b9050826001600160a01b0316635a3d54936040518163ffffffff1660e01b815260040160206040518083038186803b158015610b5d57600080fd5b505afa158015610b71573d6000803e3d6000fd5b505050506040513d601f19601f82011682018060405250810190610b959190610e4f565b91506000806000856001600160a01b0316630902f1ac6040518163ffffffff1660e01b815260040160606040518083038186803b158015610bd557600080fd5b505afa158015610be9573d6000803e3d6000fd5b505050506040513d601f19601f82011682018060405250810190610c0d9190610dfb565b9250925092508363ffffffff168163ffffffff1614610b0f5780840363ffffffff8116610afd8585610c44565b63ffffffff421690565b610c4c610cbf565b6000826001600160701b031611610c755760405162461bcd60e51b815260040161044b906110c5565b6040805160208101909152806001600160701b0384166dffffffffffffffffffffffffffff60701b607087901b1681610caa57fe5b046001600160e01b0316815250905092915050565b60408051602081019091526000815290565b604080518082019091526000808252602082015290565b6040518060200160405280600081525090565b80356001600160a01b038116811461060457600080fd5b600060208284031215610d23578081fd5b610d2d8383610cfb565b9392505050565b60008060408385031215610d46578081fd5b610d508484610cfb565b946020939093013593505050565b60006020808385031215610d70578182fd5b823567ffffffffffffffff811115610d86578283fd5b8301601f81018513610d96578283fd5b8035610da9610da48261118a565b611163565b8181528381019083850185840285018601891015610dc5578687fd5b8694505b83851015610def57610ddb8982610cfb565b835260019490940193918501918501610dc9565b50979650505050505050565b600080600060608486031215610e0f578081fd5b8351610e1a816111aa565b6020850151909350610e2b816111aa565b604085015190925063ffffffff81168114610e44578182fd5b809150509250925092565b600060208284031215610e60578081fd5b5051919050565b6bffffffffffffffffffffffff19606093841b811682529190921b16601482015260280190565b6001600160f81b0319815260609290921b6bffffffffffffffffffffffff1916600183015260158201527f96e8ac4277198ff8b6f785478aa9a39f403cb768dd02cbee326c3e7da348845f603582015260550190565b6001600160a01b0391909116815260200190565b6001600160a01b039290921682526001600160e01b0316602082015260400190565b6020808252825182820181905260009190848201906040850190845b81811015610f5c578351516001600160e01b031683529284019291840191600101610f36565b50909695505050505050565b6020808252825182820181905260009190848201906040850190845b81811015610f5c5783516001600160901b031683529284019291840191600101610f84565b60208082526015908201527411549497d3525397d5541110551157d411549253d1605a1b604082015260600190565b60208082526025908201527f556e697377617056324c6962726172793a204944454e544943414c5f41444452604082015264455353455360d81b606082015260800190565b60208082526023908201527f4669786564506f696e743a204d554c5449504c49434154494f4e5f4f564552466040820152624c4f5760e81b606082015260800190565b60208082526014908201527327baba3230ba32b210383934b1b29034b733379760611b604082015260600190565b6020808252601e908201527f556e697377617056324c6962726172793a205a45524f5f414444524553530000604082015260600190565b60208082526017908201527f4669786564506f696e743a204449565f42595f5a45524f000000000000000000604082015260600190565b90516001600160e01b0316815260200190565b6001600160901b0391909116815260200190565b62ffffff91909116815260200190565b63ffffffff91909116815260200190565b63ffffffff9290921682526001600160e01b0316602082015260400190565b60405181810167ffffffffffffffff8111828210171561118257600080fd5b604052919050565b600067ffffffffffffffff8211156111a0578081fd5b5060209081020190565b6001600160701b03811681146111bf57600080fd5b5056fea26469706673582212206b7f75456bacfea53c8c342865b706b43185043c33caf501ecd817ab5cc1c32f64736f6c634300060c0033",
  "immutableReferences": {},
  "source": "pragma solidity ^0.6.0;\npragma experimental ABIEncoderV2;\n\nimport { UniswapV2Library as UniV2 } from \"./lib/UniswapV2Library.sol\";\nimport { IUniswapV2Pair as Pair } from \"./interfaces/IUniswapV2Pair.sol\";\nimport { UniswapV2OracleLibrary as UniV2Oracle } from \"./lib/UniswapV2OracleLibrary.sol\";\nimport \"./lib/FixedPoint.sol\";\nimport \"./interfaces/IERC20.sol\";\n\ncontract UniSwapV2PriceOracle {\n  // Minimum time elapsed between updates\n  uint32 public constant MIN_UPDATE_PERIOD = uint32(1 days);\n  // Maximum value of a 24 bit integer\n  uint24 public constant MAX_24_BIT = uint24(2**24 - 1);\n\n  // Uniswap factory address\n  address public uniswapFactory;\n\n  // Address of the token used to compare prices.\n  // Should be a stablecoin such as DAI or USDC.\n  address public stableCoin;\n\n  struct PriceObservation {\n    uint32 timestamp;\n    uint224 priceCumulativeLast;\n  }\n\n  mapping(address => PriceObservation) public lastObservedPrices;\n\n  event PriceUpdated(address token, uint224 priceCumulativeLast);\n\n  constructor(address _uniswapFactory, address _stableCoin) public {\n    uniswapFactory = _uniswapFactory;\n    stableCoin = _stableCoin;\n  }\n\n  /**\n   * @dev Update the price stored for a token.\n   * Note: May only be called once every MIN_UPDATE_PERIOD seconds.\n   */\n  function updatePrice(address token) public {\n    PriceObservation memory observation1 = lastObservedPrices[token];\n    PriceObservation memory observation2 = _observePrice(token);\n    lastObservedPrices[token] = observation2;\n    uint32 timeElapsed = uint32(observation2.timestamp - observation1.timestamp);\n    require(timeElapsed >= MIN_UPDATE_PERIOD, \"ERR_MIN_UPDATE_PERIOD\");\n    emit PriceUpdated(token, observation2.priceCumulativeLast);\n  }\n\n  /**\n   * @dev Update the price for multiple tokens.\n   */\n  function updatePrices(address[] memory tokens) public {\n    for (uint256 i = 0; i < tokens.length; i++) updatePrice(tokens[i]);\n  }\n\n  /**\n   * @dev Compute the average market cap of a token over the recent period.\n   * Queries the current cumulative price and retrieves the last stored\n   * cumulative price, then calculates the average price and multiplies it\n   * by the token's total supply.\n   * Note: Price must have been updated within the last MIN_UPDATE_PERIOD\n   * seconds.\n   */\n  function computeAverageMarketCap(address token)\n  public view returns (uint144 marketCap) {\n    // Get the stored price observation\n    PriceObservation memory observation1 = lastObservedPrices[token];\n    // Get the current cumulative price\n    PriceObservation memory observation2 = _observePrice(token);\n    // Extrapolate the average value of the total supply.\n    uint32 timeElapsed = uint32(observation2.timestamp - observation1.timestamp);\n    require(timeElapsed <= MIN_UPDATE_PERIOD, \"Outdated price info.\");\n    uint256 totalSupply = IERC20(token).totalSupply();\n    return UniV2Oracle.computeAverageAmountOut(\n      observation1.priceCumulativeLast, observation2.priceCumulativeLast,\n      timeElapsed, totalSupply\n    );\n  }\n\n  /**\n   * @dev Compute the average value in stablecoins of a given amount\n   * of a token.\n   * Queries the current cumulative price and retrieves the last stored\n   * cumulative price, then calculates the average price and multiplies it\n   * by the input amount.\n   */\n  function computeAverageAmountOut(address token, uint256 amountIn)\n  public view returns (uint144 amountOut) {\n    // Get the stored price observation\n    PriceObservation memory observation1 = lastObservedPrices[token];\n    // Get the current cumulative price\n    PriceObservation memory observation2 = _observePrice(token);\n    // Extrapolate the average value of the total supply.\n    uint32 timeElapsed = uint32(observation2.timestamp - observation1.timestamp);\n    require(timeElapsed <= MIN_UPDATE_PERIOD, \"Outdated price info.\");\n    return UniV2Oracle.computeAverageAmountOut(\n      observation1.priceCumulativeLast, observation2.priceCumulativeLast,\n      timeElapsed, amountIn\n    );\n  }\n\n  /**\n   * @dev Returns the average market caps for each token.\n   */\n  function computeAverageMarketCaps(address[] memory tokens)\n  public view returns (uint144[] memory marketCaps) {\n    uint256 len = tokens.length;\n    marketCaps = new uint144[](len);\n    for (uint256 i = 0; i < len; i++) {\n      marketCaps[i] = computeAverageMarketCap(tokens[i]);\n    }\n  }\n\n  /**\n   * @dev Returns the UQ112x112 struct representing the average price.\n   */\n  function computeAveragePrice(address token)\n  public view returns (FixedPoint.uq112x112 memory priceAverage) {\n    // Get the stored price observation\n    PriceObservation memory observation1 = lastObservedPrices[token];\n    // Get the current cumulative price\n    PriceObservation memory observation2 = _observePrice(token);\n    // Extrapolate the average value of the total supply.\n    uint32 timeElapsed = uint32(observation2.timestamp - observation1.timestamp);\n    require(timeElapsed <= MIN_UPDATE_PERIOD, \"Outdated price info.\");\n    return UniV2Oracle.computeAveragePrice(\n      observation1.priceCumulativeLast,\n      observation2.priceCumulativeLast,\n      timeElapsed\n    );\n  }\n\n  /**\n   * @dev Returns the average market caps for each token.\n   */\n  function computeAveragePrices(address[] memory tokens)\n  public view returns (FixedPoint.uq112x112[] memory averagePrices) {\n    uint256 len = tokens.length;\n    averagePrices = new FixedPoint.uq112x112[](len);\n    for (uint256 i = 0; i < len; i++) {\n      averagePrices[i] = computeAveragePrice(tokens[i]);\n    }\n  }\n\n  /**\n   * @dev Query the current cumulative price for a token.\n   */\n  function _observePrice(address token) internal view returns (PriceObservation memory) {\n    (uint priceCumulative, uint32 blockTimestamp) = UniV2Oracle.getCurrentCumulativePrice(\n      uniswapFactory, token, stableCoin\n    );\n    return PriceObservation(blockTimestamp, uint224(priceCumulative));\n  }\n}",
  "sourcePath": "/home/workhorse/Indexed/indexed-subgraph/contracts/UniSwapV2PriceOracle.sol",
  "compiler": {
    "name": "solc",
    "version": "0.6.12+commit.27d51765.Emscripten.clang"
  },
  "schemaVersion": "3.2.4",
  "updatedAt": "2020-08-28T06:05:33.513Z",
  "devdoc": {
    "kind": "dev",
    "methods": {
      "computeAverageAmountOut(address,uint256)": {
        "details": "Compute the average value in stablecoins of a given amount of a token. Queries the current cumulative price and retrieves the last stored cumulative price, then calculates the average price and multiplies it by the input amount."
      },
      "computeAverageMarketCap(address)": {
        "details": "Compute the average market cap of a token over the recent period. Queries the current cumulative price and retrieves the last stored cumulative price, then calculates the average price and multiplies it by the token's total supply. Note: Price must have been updated within the last MIN_UPDATE_PERIOD seconds."
      },
      "computeAverageMarketCaps(address[])": {
        "details": "Returns the average market caps for each token."
      },
      "computeAveragePrice(address)": {
        "details": "Returns the UQ112x112 struct representing the average price."
      },
      "computeAveragePrices(address[])": {
        "details": "Returns the average market caps for each token."
      },
      "updatePrice(address)": {
        "details": "Update the price stored for a token. Note: May only be called once every MIN_UPDATE_PERIOD seconds."
      },
      "updatePrices(address[])": {
        "details": "Update the price for multiple tokens."
      }
    },
    "version": 1
  },
  "userdoc": {
    "kind": "user",
    "methods": {},
    "version": 1
  }
}